{"contracts/blackjack.sol":{"BlackJack":{"abi":[{"inputs":[],"stateMutability":"nonpayable","type":"constructor"},{"anonymous":false,"inputs":[{"indexed":true,"internalType":"address","name":"Player","type":"address"}],"name":"AfterValueTransferEvent","type":"event"},{"anonymous":false,"inputs":[{"indexed":true,"internalType":"uint256","name":"GameId","type":"uint256"},{"indexed":true,"internalType":"address","name":"Player","type":"address"},{"indexed":true,"internalType":"uint256","name":"Amount","type":"uint256"}],"name":"BeforeValueTransferEvent","type":"event"},{"anonymous":false,"inputs":[{"indexed":true,"internalType":"uint256","name":"GameId","type":"uint256"},{"indexed":true,"internalType":"address","name":"Player","type":"address"},{"indexed":true,"internalType":"uint256","name":"Amount","type":"uint256"}],"name":"CashOutEvent","type":"event"},{"anonymous":false,"inputs":[{"indexed":true,"internalType":"uint256","name":"GameId","type":"uint256"},{"indexed":true,"internalType":"address","name":"Player","type":"address"},{"indexed":true,"internalType":"uint256","name":"Amount","type":"uint256"}],"name":"StartNewGameEvent","type":"event"},{"stateMutability":"nonpayable","type":"fallback"},{"inputs":[],"name":"CashOut","outputs":[],"stateMutability":"nonpayable","type":"function"},{"inputs":[],"name":"DoubleDown","outputs":[],"stateMutability":"nonpayable","type":"function"},{"inputs":[],"name":"GetGame","outputs":[{"components":[{"internalType":"uint256","name":"Id","type":"uint256"},{"internalType":"address","name":"Player","type":"address"},{"internalType":"uint256","name":"SafeBalance","type":"uint256"},{"internalType":"uint256","name":"OriginalBalance","type":"uint256"},{"internalType":"uint256","name":"SplitCounter","type":"uint256"},{"internalType":"uint256","name":"GamesPlayed","type":"uint256"},{"internalType":"uint256","name":"PlayerBet","type":"uint256"},{"internalType":"uint256","name":"InsuranceBet","type":"uint256"},{"internalType":"uint256","name":"PlayerCard1","type":"uint256"},{"internalType":"uint256","name":"PlayerCard2","type":"uint256"},{"internalType":"uint256","name":"PlayerNewCard","type":"uint256"},{"internalType":"uint256","name":"PlayerCardTotal","type":"uint256"},{"internalType":"uint256","name":"PlayerSplitTotal","type":"uint256"},{"internalType":"uint256","name":"DealerCard1","type":"uint256"},{"internalType":"uint256","name":"DealerCard2","type":"uint256"},{"internalType":"uint256","name":"DealerNewCard","type":"uint256"},{"internalType":"uint256","name":"DealerCardTotal","type":"uint256"},{"internalType":"bool","name":"CanDoubleDown","type":"bool"},{"internalType":"bool","name":"CanInsure","type":"bool"},{"internalType":"bool","name":"CanSplit","type":"bool"},{"internalType":"bool","name":"IsSplitting","type":"bool"},{"internalType":"bool","name":"IsSoftHand","type":"bool"},{"internalType":"bool","name":"IsRoundInProgress","type":"bool"},{"internalType":"string","name":"DealerMsg","type":"string"}],"internalType":"struct BlackJack.Game","name":"game","type":"tuple"}],"stateMutability":"view","type":"function"},{"inputs":[],"name":"Hit","outputs":[],"stateMutability":"nonpayable","type":"function"},{"inputs":[],"name":"Insurance","outputs":[],"stateMutability":"nonpayable","type":"function"},{"inputs":[{"internalType":"uint256","name":"bet","type":"uint256"}],"name":"PlaceBet","outputs":[],"stateMutability":"nonpayable","type":"function"},{"inputs":[],"name":"ShowTable","outputs":[{"internalType":"string","name":"DealerMessage","type":"string"},{"internalType":"string","name":"PlayerCard1","type":"string"},{"internalType":"string","name":"PlayerCard2","type":"string"},{"internalType":"string","name":"PlayerNewCard","type":"string"},{"internalType":"string","name":"PlayerCardTotal","type":"string"},{"internalType":"string","name":"PlayerSplitTotal","type":"string"},{"internalType":"string","name":"DealerCard1","type":"string"},{"internalType":"string","name":"DealerCard2","type":"string"},{"internalType":"string","name":"DealerNewCard","type":"string"},{"internalType":"string","name":"DealerCardTotal","type":"string"},{"internalType":"string","name":"PlayerBet","type":"string"},{"internalType":"string","name":"Pot","type":"string"}],"stateMutability":"view","type":"function"},{"inputs":[],"name":"Split","outputs":[],"stateMutability":"nonpayable","type":"function"},{"inputs":[],"name":"Stand","outputs":[],"stateMutability":"nonpayable","type":"function"},{"inputs":[],"name":"StartNewGame","outputs":[],"stateMutability":"payable","type":"function"},{"stateMutability":"payable","type":"receive"}],"evm":{"bytecode":{"linkReferences":{},"object":"60a060405234801561001057600080fd5b506001600081905550600180819055503373ffffffffffffffffffffffffffffffffffffffff1660808173ffffffffffffffffffffffffffffffffffffffff16815250506080516155ad61006c600039600050506155ad6000f3fe6080604052600436106100955760003560e01c8063622e502611610059578063622e5026146102735780637ce2974d1461028a5780639ad01e3e146102c0578063a1e564b1146102eb578063e8a80e9a1461030257610144565b806324603eea146101fb57806339ae21331461020557806355d842d71461021c57806358c5a7cc146102335780635a6d41a01461024a57610144565b3661014457600073ffffffffffffffffffffffffffffffffffffffff163373ffffffffffffffffffffffffffffffffffffffff1603610109576040517f08c379a00000000000000000000000000000000000000000000000000000000081526004016101009061423c565b60405180910390fd5b6040517f08c379a000000000000000000000000000000000000000000000000000000000815260040161013b906142ce565b60405180910390fd5b34801561015057600080fd5b50600073ffffffffffffffffffffffffffffffffffffffff163373ffffffffffffffffffffffffffffffffffffffff16036101c0576040517f08c379a00000000000000000000000000000000000000000000000000000000081526004016101b79061423c565b60405180910390fd5b6040517f08c379a00000000000000000000000000000000000000000000000000000000081526004016101f29061433a565b60405180910390fd5b610203610319565b005b34801561021157600080fd5b5061021a61074f565b005b34801561022857600080fd5b50610231610b71565b005b34801561023f57600080fd5b50610248610ee1565b005b34801561025657600080fd5b50610271600480360381019061026c9190614395565b611158565b005b34801561027f57600080fd5b506102886114d6565b005b34801561029657600080fd5b5061029f6117b9565b6040516102b79c9b9a99989796959493929190614441565b60405180910390f35b3480156102cc57600080fd5b506102d5611c90565b6040516102e29190614804565b60405180910390f35b3480156102f757600080fd5b50610300611f25565b005b34801561030e57600080fd5b50610317612415565b005b6000600260003373ffffffffffffffffffffffffffffffffffffffff1673ffffffffffffffffffffffffffffffffffffffff168152602001908152602001600020541461039b576040517f08c379a000000000000000000000000000000000000000000000000000000000815260040161039290614872565b60405180910390fd5b64e8d4a51000341180156103b75750678ac7230489e800003411155b6103f6576040517f08c379a00000000000000000000000000000000000000000000000000000000081526004016103ed906148de565b60405180910390fd5b6103fe6140ab565b600154816000018181525050348160400181815161041c919061492d565b915081815250503481606001818151610435919061492d565b9150818152505033816020019073ffffffffffffffffffffffffffffffffffffffff16908173ffffffffffffffffffffffffffffffffffffffff16815250506040518060400160405280600e81526020017f436f6e747261637420506169642e000000000000000000000000000000000000815250816102e00181905250600160008154809291906104c690614961565b91905055508060036000836000015181526020019081526020016000206000820151816000015560208201518160010160006101000a81548173ffffffffffffffffffffffffffffffffffffffff021916908373ffffffffffffffffffffffffffffffffffffffff16021790555060408201518160020155606082015181600301556080820151816004015560a0820151816005015560c0820151816006015560e082015181600701556101008201518160080155610120820151816009015561014082015181600a015561016082015181600b015561018082015181600c01556101a082015181600d01556101c082015181600e01556101e082015181600f015561020082015181601001556102208201518160110160006101000a81548160ff0219169083151502179055506102408201518160110160016101000a81548160ff0219169083151502179055506102608201518160110160026101000a81548160ff0219169083151502179055506102808201518160110160036101000a81548160ff0219169083151502179055506102a08201518160110160046101000a81548160ff0219169083151502179055506102c08201518160110160056101000a81548160ff0219169083151502179055506102e08201518160120190816106af9190614be4565b509050508060000151600260003373ffffffffffffffffffffffffffffffffffffffff1673ffffffffffffffffffffffffffffffffffffffff168152602001908152602001600020819055508060600151816020015173ffffffffffffffffffffffffffffffffffffffff1682600001517f8a045e8ca90abbb5faac5664ef1ab1a17450af55e4c7c1904cff223b299d0b7160405160405180910390a450565b600073ffffffffffffffffffffffffffffffffffffffff163373ffffffffffffffffffffffffffffffffffffffff16036107be576040517f08c379a00000000000000000000000000000000000000000000000000000000081526004016107b59061423c565b60405180910390fd5b6000600260003373ffffffffffffffffffffffffffffffffffffffff1673ffffffffffffffffffffffffffffffffffffffff1681526020019081526020016000205403610840576040517f08c379a000000000000000000000000000000000000000000000000000000000815260040161083790614d02565b60405180910390fd5b600060036000600260003373ffffffffffffffffffffffffffffffffffffffff1673ffffffffffffffffffffffffffffffffffffffff16815260200190815260200160002054815260200190815260200160002090508060110160059054906101000a900460ff166108e7576040517f08c379a00000000000000000000000000000000000000000000000000000000081526004016108de90614d6e565b60405180910390fd5b60008160110160006101000a81548160ff02191690831515021790555060008160110160026101000a81548160ff02191690831515021790555060008160110160016101000a81548160ff0219169083151502179055506109466126fe565b81600a0181905550600181600a01541480156109665750600b81600b0154105b1561099357600b81600a018190555060018160110160046101000a81548160ff0219169083151502179055505b8060110160039054906101000a900460ff1615610ae5576040518060400160405280600e81526020017f506c617965722773205475726e2e0000000000000000000000000000000000008152508160120190816109f09190614be4565b5080600a015481600c016000828254610a09919061492d565b925050819055508060110160049054906101000a900460ff168015610a325750601581600c0154115b15610a7157600a81600c016000828254610a4c9190614d8e565b9250508190555060008160110160046101000a81548160ff0219169083151502179055505b601581600c01541115610ae05760405180606001604052806023815260200161545b60239139816012019081610aa79190614be4565b50806004016000815480929190610abd90614961565b919050555060008160110160036101000a81548160ff0219169083151502179055505b610b6e565b80600a015481600b016000828254610afd919061492d565b925050819055508060110160049054906101000a900460ff168015610b265750601581600b0154115b15610b6557600a81600b016000828254610b409190614d8e565b9250508190555060008160110160046101000a81548160ff0219169083151502179055505b610b6d61271b565b5b50565b600073ffffffffffffffffffffffffffffffffffffffff163373ffffffffffffffffffffffffffffffffffffffff1603610be0576040517f08c379a0000000000000000000000000000000000000000000000000000000008152600401610bd79061423c565b60405180910390fd5b6000600260003373ffffffffffffffffffffffffffffffffffffffff1673ffffffffffffffffffffffffffffffffffffffff1681526020019081526020016000205403610c62576040517f08c379a0000000000000000000000000000000000000000000000000000000008152600401610c5990614d02565b60405180910390fd5b600060036000600260003373ffffffffffffffffffffffffffffffffffffffff1673ffffffffffffffffffffffffffffffffffffffff16815260200190815260200160002054815260200190815260200160002090508060110160059054906101000a900460ff16610d09576040517f08c379a0000000000000000000000000000000000000000000000000000000008152600401610d0090614d6e565b60405180910390fd5b8060110160029054906101000a900460ff16610d5a576040517f08c379a0000000000000000000000000000000000000000000000000000000008152600401610d5190614e0e565b60405180910390fd5b60008160110160006101000a81548160ff02191690831515021790555060008160110160016101000a81548160ff021916908315150217905550600b816008015403610db957600b81600b0181905550600b81600c0181905550610de0565b600281600b0154610dca9190614e5d565b81600b018190555080600b015481600c01819055505b6000816004018190555060018160110160036101000a81548160ff02191690831515021790555060008160110160056101000a81548160ff021916908315150217905550610e318160060154611158565b60008160110160026101000a81548160ff021916908315150217905550600b816008015403610ede57610e626126fe565b81600a018190555080600a015481600c016000828254610e82919061492d565b92505081905550610e916126fe565b81600a018190555080600a015481600b016000828254610eb1919061492d565b9250508190555060008160110160036101000a81548160ff021916908315150217905550610edd6128c0565b5b50565b600073ffffffffffffffffffffffffffffffffffffffff163373ffffffffffffffffffffffffffffffffffffffff1603610f50576040517f08c379a0000000000000000000000000000000000000000000000000000000008152600401610f479061423c565b60405180910390fd5b6000600260003373ffffffffffffffffffffffffffffffffffffffff1673ffffffffffffffffffffffffffffffffffffffff1681526020019081526020016000205403610fd2576040517f08c379a0000000000000000000000000000000000000000000000000000000008152600401610fc990614d02565b60405180910390fd5b600060036000600260003373ffffffffffffffffffffffffffffffffffffffff1673ffffffffffffffffffffffffffffffffffffffff16815260200190815260200160002054815260200190815260200160002090508060110160059054906101000a900460ff16611079576040517f08c379a000000000000000000000000000000000000000000000000000000000815260040161107090614d6e565b60405180910390fd5b60008160110160006101000a81548160ff02191690831515021790555060008160110160026101000a81548160ff02191690831515021790555060008160110160016101000a81548160ff0219169083151502179055508060110160039054906101000a900460ff166110f3576110ee6128c0565b611155565b60405180606001604052806023815260200161545b6023913981601201908161111c9190614be4565b5080600401600081548092919061113290614961565b919050555060008160110160036101000a81548160ff0219169083151502179055505b50565b600073ffffffffffffffffffffffffffffffffffffffff163373ffffffffffffffffffffffffffffffffffffffff16036111c7576040517f08c379a00000000000000000000000000000000000000000000000000000000081526004016111be9061423c565b60405180910390fd5b6000600260003373ffffffffffffffffffffffffffffffffffffffff1673ffffffffffffffffffffffffffffffffffffffff1681526020019081526020016000205403611249576040517f08c379a000000000000000000000000000000000000000000000000000000000815260040161124090614d02565b60405180910390fd5b600060036000600260003373ffffffffffffffffffffffffffffffffffffffff1673ffffffffffffffffffffffffffffffffffffffff16815260200190815260200160002054815260200190815260200160002090508060110160059054906101000a900460ff16156112f1576040517f08c379a00000000000000000000000000000000000000000000000000000000081526004016112e890614eda565b60405180910390fd5b64174876e800821015801561130e5750670de0b6b3a76400008211155b61134d576040517f08c379a000000000000000000000000000000000000000000000000000000000815260040161134490614f46565b60405180910390fd5b600082118015611361575080600201548211155b6113a0576040517f08c379a000000000000000000000000000000000000000000000000000000000815260040161139790614fb2565b60405180910390fd5b818160020160008282546113b49190614d8e565b925050819055508060110160009054906101000a900460ff16806113e657508060110160029054906101000a900460ff165b1561140b57818160060160008282546113ff919061492d565b92505081905550611415565b8181600601819055505b60018160110160056101000a81548160ff02191690831515021790555080600501600081548092919061144790614961565b91905055508060110160009054906101000a900460ff168061147757508060110160029054906101000a900460ff165b156114c8576040518060400160405280600b81526020017f42657420506c616365642e0000000000000000000000000000000000000000008152508160120190816114c29190614be4565b506114d2565b6114d1816129df565b5b5050565b600073ffffffffffffffffffffffffffffffffffffffff163373ffffffffffffffffffffffffffffffffffffffff1603611545576040517f08c379a000000000000000000000000000000000000000000000000000000000815260040161153c9061423c565b60405180910390fd5b6000600260003373ffffffffffffffffffffffffffffffffffffffff1673ffffffffffffffffffffffffffffffffffffffff16815260200190815260200160002054036115c7576040517f08c379a00000000000000000000000000000000000000000000000000000000081526004016115be90614d02565b60405180910390fd5b600060036000600260003373ffffffffffffffffffffffffffffffffffffffff1673ffffffffffffffffffffffffffffffffffffffff16815260200190815260200160002054815260200190815260200160002090508060110160059054906101000a900460ff1661166e576040517f08c379a000000000000000000000000000000000000000000000000000000000815260040161166590614d6e565b60405180910390fd5b8060110160019054906101000a900460ff166116bf576040517f08c379a00000000000000000000000000000000000000000000000000000000081526004016116b69061501e565b60405180910390fd5b600281600601546116d09190614e5d565b8160070181905550600081600701541180156116f457508060020154816007015411155b611733576040517f08c379a000000000000000000000000000000000000000000000000000000000815260040161172a90614fb2565b60405180910390fd5b806007015481600201600082825461174b9190614d8e565b925050819055506040518060400160405280600e81526020017f506c617965722773205475726e2e0000000000000000000000000000000000008152508160120190816117989190614be4565b5060008160110160016101000a81548160ff02191690831515021790555050565b606080606080606080606080606080606080600060036000600260003373ffffffffffffffffffffffffffffffffffffffff1673ffffffffffffffffffffffffffffffffffffffff16815260200190815260200160002054815260200190815260200160002060405180610300016040529081600082015481526020016001820160009054906101000a900473ffffffffffffffffffffffffffffffffffffffff1673ffffffffffffffffffffffffffffffffffffffff1673ffffffffffffffffffffffffffffffffffffffff1681526020016002820154815260200160038201548152602001600482015481526020016005820154815260200160068201548152602001600782015481526020016008820154815260200160098201548152602001600a8201548152602001600b8201548152602001600c8201548152602001600d8201548152602001600e8201548152602001600f8201548152602001601082015481526020016011820160009054906101000a900460ff161515151581526020016011820160019054906101000a900460ff161515151581526020016011820160029054906101000a900460ff161515151581526020016011820160039054906101000a900460ff161515151581526020016011820160049054906101000a900460ff161515151581526020016011820160059054906101000a900460ff161515151581526020016012820180546119d390614a07565b80601f01602080910402602001604051908101604052809291908181526020018280546119ff90614a07565b8015611a4c5780601f10611a2157610100808354040283529160200191611a4c565b820191906000526020600020905b815481529060010190602001808311611a2f57829003601f168201915b5050505050815250509050806102e00151604051602001611a6d91906150a0565b6040516020818303038152906040529c50611a8c816101000151612fad565b604051602001611a9c91906150a0565b6040516020818303038152906040529b50611abb816101200151612fad565b604051602001611acb91906150a0565b6040516020818303038152906040529a50611aea816101400151612fad565b604051602001611afa91906150a0565b6040516020818303038152906040529950611b19816101600151612fad565b604051602001611b2991906150ec565b6040516020818303038152906040529850611b48816101800151612fad565b604051602001611b5891906150ec565b6040516020818303038152906040529750611b77816101a00151612fad565b604051602001611b8791906150a0565b6040516020818303038152906040529650611ba6816101c00151612fad565b604051602001611bb691906150a0565b6040516020818303038152906040529550611bd5816101e00151612fad565b604051602001611be591906150a0565b6040516020818303038152906040529450611c04816102000151612fad565b604051602001611c1491906150ec565b6040516020818303038152906040529350611c328160c00151612fad565b604051602001611c429190615138565b6040516020818303038152906040529250611c608160400151612fad565b604051602001611c709190615138565b604051602081830303815290604052915050909192939495969798999a9b565b611c986140ab565b60036000600260003373ffffffffffffffffffffffffffffffffffffffff1673ffffffffffffffffffffffffffffffffffffffff16815260200190815260200160002054815260200190815260200160002060405180610300016040529081600082015481526020016001820160009054906101000a900473ffffffffffffffffffffffffffffffffffffffff1673ffffffffffffffffffffffffffffffffffffffff1673ffffffffffffffffffffffffffffffffffffffff1681526020016002820154815260200160038201548152602001600482015481526020016005820154815260200160068201548152602001600782015481526020016008820154815260200160098201548152602001600a8201548152602001600b8201548152602001600c8201548152602001600d8201548152602001600e8201548152602001600f8201548152602001601082015481526020016011820160009054906101000a900460ff161515151581526020016011820160019054906101000a900460ff161515151581526020016011820160029054906101000a900460ff161515151581526020016011820160039054906101000a900460ff161515151581526020016011820160049054906101000a900460ff161515151581526020016011820160059054906101000a900460ff16151515158152602001601282018054611e9e90614a07565b80601f0160208091040260200160405190810160405280929190818152602001828054611eca90614a07565b8015611f175780601f10611eec57610100808354040283529160200191611f17565b820191906000526020600020905b815481529060010190602001808311611efa57829003601f168201915b505050505081525050905090565b600073ffffffffffffffffffffffffffffffffffffffff163373ffffffffffffffffffffffffffffffffffffffff1603611f94576040517f08c379a0000000000000000000000000000000000000000000000000000000008152600401611f8b9061423c565b60405180910390fd5b6000600260003373ffffffffffffffffffffffffffffffffffffffff1673ffffffffffffffffffffffffffffffffffffffff1681526020019081526020016000205403612016576040517f08c379a000000000000000000000000000000000000000000000000000000000815260040161200d90614d02565b60405180910390fd5b600060036000600260003373ffffffffffffffffffffffffffffffffffffffff1673ffffffffffffffffffffffffffffffffffffffff16815260200190815260200160002054815260200190815260200160002060405180610300016040529081600082015481526020016001820160009054906101000a900473ffffffffffffffffffffffffffffffffffffffff1673ffffffffffffffffffffffffffffffffffffffff1673ffffffffffffffffffffffffffffffffffffffff1681526020016002820154815260200160038201548152602001600482015481526020016005820154815260200160068201548152602001600782015481526020016008820154815260200160098201548152602001600a8201548152602001600b8201548152602001600c8201548152602001600d8201548152602001600e8201548152602001600f8201548152602001601082015481526020016011820160009054906101000a900460ff161515151581526020016011820160019054906101000a900460ff161515151581526020016011820160029054906101000a900460ff161515151581526020016011820160039054906101000a900460ff161515151581526020016011820160049054906101000a900460ff161515151581526020016011820160059054906101000a900460ff1615151515815260200160128201805461221e90614a07565b80601f016020809104026020016040519081016040528092919081815260200182805461224a90614a07565b80156122975780601f1061226c57610100808354040283529160200191612297565b820191906000526020600020905b81548152906001019060200180831161227a57829003601f168201915b5050505050815250509050806102c00151156122e8576040517f08c379a00000000000000000000000000000000000000000000000000000000081526004016122df90614eda565b60405180910390fd5b600081604001519050600047101580156123055750816040015147105b1561230e574790505b8047101561231f5761231e61516d565b5b6123283361307b565b3373ffffffffffffffffffffffffffffffffffffffff166108fc829081150290604051600060405180830381858888f1935050505015801561236e573d6000803e3d6000fd5b5061237833613342565b6000600260003373ffffffffffffffffffffffffffffffffffffffff1673ffffffffffffffffffffffffffffffffffffffff16815260200190815260200160002054146123c8576123c761516d565b5b803373ffffffffffffffffffffffffffffffffffffffff1683600001517f250efcb6be2a0ac5605d1cf71328b5851470f02f783ce2df316489c41ba96edd60405160405180910390a45050565b600073ffffffffffffffffffffffffffffffffffffffff163373ffffffffffffffffffffffffffffffffffffffff1603612484576040517f08c379a000000000000000000000000000000000000000000000000000000000815260040161247b9061423c565b60405180910390fd5b6000600260003373ffffffffffffffffffffffffffffffffffffffff1673ffffffffffffffffffffffffffffffffffffffff1681526020019081526020016000205403612506576040517f08c379a00000000000000000000000000000000000000000000000000000000081526004016124fd90614d02565b60405180910390fd5b600060036000600260003373ffffffffffffffffffffffffffffffffffffffff1673ffffffffffffffffffffffffffffffffffffffff16815260200190815260200160002054815260200190815260200160002090508060110160059054906101000a900460ff166125ad576040517f08c379a00000000000000000000000000000000000000000000000000000000081526004016125a490614d6e565b60405180910390fd5b8060110160009054906101000a900460ff166125fe576040517f08c379a00000000000000000000000000000000000000000000000000000000081526004016125f5906151e8565b60405180910390fd5b60008160110160026101000a81548160ff02191690831515021790555060008160110160016101000a81548160ff02191690831515021790555060008160110160056101000a81548160ff0219169083151502179055506126628160060154611158565b60008160110160006101000a81548160ff0219169083151502179055506126876126fe565b81600a0181905550600181600a01541480156126a75750600b81600b0154105b156126d457600b81600a018190555060018160110160046101000a81548160ff0219169083151502179055505b80600a015481600b0160008282546126ec919061492d565b925050819055506126fb6128c0565b50565b60006127086135fc565b9050600a81111561271857600a90505b90565b600060036000600260003373ffffffffffffffffffffffffffffffffffffffff1673ffffffffffffffffffffffffffffffffffffffff1681526020019081526020016000205481526020019081526020016000209050601581600b01541115612875576040518060400160405280600c81526020017f506c6179657220427573742e00000000000000000000000000000000000000008152508160120190816127c49190614be4565b506000816007015414612839576127d96126fe565b81600e018190555080600e01548160100160008282546127f9919061492d565b925050819055506015816010015403612838576002816007015461281d9190615208565b816002016000828254612830919061492d565b925050819055505b5b60018160040154036128525761284d6128c0565b612870565b60008160110160056101000a81548160ff0219169083151502179055505b6128bd565b6040518060400160405280600e81526020017f506c617965722773205475726e2e0000000000000000000000000000000000008152508160120190816128bb9190614be4565b505b50565b600060036000600260003373ffffffffffffffffffffffffffffffffffffffff1673ffffffffffffffffffffffffffffffffffffffff168152602001908152602001600020548152602001908152602001600020905061291e6126fe565b81600e0181905550600181600e015414801561293e5750600b81600d0154105b1561294e57600b81600e01819055505b80600e015481600d0154612962919061492d565b81601001819055505b6011816010015410156129d4576129806126fe565b81600f0181905550600181600f01541480156129a05750600b8160100154105b156129b057600b81600f01819055505b80600f01548160100160008282546129c8919061492d565b9250508190555061296b565b6129dc6136c4565b50565b6000816008018190555060008160090181905550600081600a0181905550600081600b0181905550600081600c0181905550600081600d0181905550600081600e0181905550600081600f018190555060008160100181905550600081600401819055506000816007018190555060008160110160046101000a81548160ff021916908315150217905550612a726126fe565b81600801819055506001816008015403612aae57600b816008018190555060018160110160046101000a81548160ff0219169083151502179055505b612ab66126fe565b81600d0181905550612ac66126fe565b816009018190555060018160090154148015612ae65750600b8160080154105b15612b1357600b816009018190555060018160110160046101000a81548160ff0219169083151502179055505b80600901548160080154612b27919061492d565b81600b0181905550600181600d015403612b6357600b81600d018190555060018160110160016101000a81548160ff0219169083151502179055505b80600e015481600d0154612b77919061492d565b8160100181905550601581600b015403612d0557600a81600d015403612bdb57612b9f6126fe565b81600e0181905550600181600e015403612bbe57600b81600e01819055505b80600e015481600d0154612bd2919061492d565b81601001819055505b80600b0154816010015403612c55576040518060400160405280600981526020017f5374616e644f6666210000000000000000000000000000000000000000000000815250816012019081612c309190614be4565b508060060154816002016000828254612c49919061492d565b92505081905550612ce3565b6040518060400160405280601781526020017f426c61636b4a61636b2120506c617965722057696e732e000000000000000000815250816012019081612c9b9190614be4565b5060028160060154612cad9190614e5d565b60028260060154612cbe9190615208565b612cc8919061492d565b816002016000828254612cdb919061492d565b925050819055505b60008160110160056101000a81548160ff021916908315150217905550612db1565b8060110160019054906101000a900460ff1615612d68576040518060400160405280601e81526020017f506c617965722773205475726e2e2057616e7420496e737572616e63653f0000815250816012019081612d629190614be4565b50612db0565b6040518060400160405280600e81526020017f506c617965722773205475726e2e000000000000000000000000000000000000815250816012019081612dae9190614be4565b505b5b8060090154816008015403612e6c578060110160019054906101000a900460ff1615612e06576040518060600160405280603081526020016154b460309139816012019081612e009190614be4565b50612e4e565b6040518060400160405280602081526020017f506c617965722773205475726e2e20506c617965722063616e2053706c69742e815250816012019081612e4c9190614be4565b505b60018160110160026101000a81548160ff0219169083151502179055505b600981600b01541480612e835750600a81600b0154145b80612e925750600b81600b0154145b15612faa578060110160019054906101000a900460ff1615612f1f5760405180606001604052806036815260200161547e60369139816012019081612ed79190614be4565b508060110160029054906101000a900460ff1615612f1a576040518060600160405280603f81526020016154e4603f9139816012019081612f189190614be4565b505b612f8c565b60405180606001604052806026815260200161555260269139816012019081612f489190614be4565b508060110160029054906101000a900460ff1615612f8b576040518060600160405280602f8152602001615523602f9139816012019081612f899190614be4565b505b5b60018160110160006101000a81548160ff0219169083151502179055505b50565b606060006001612fbc84613f58565b01905060008167ffffffffffffffff811115612fdb57612fda6149a9565b5b6040519080825280601f01601f19166020018201604052801561300d5781602001600182028036833780820191505090505b509050600082602001820190505b600115613070578080600190039150507f3031323334353637383961626364656600000000000000000000000000000000600a86061a8153600a858161306457613063614e2e565b5b0494506000850361301b575b819350505050919050565b600060036000600260008573ffffffffffffffffffffffffffffffffffffffff1673ffffffffffffffffffffffffffffffffffffffff168152602001908152602001600020548152602001908152602001600020600001549050600060036000600260008673ffffffffffffffffffffffffffffffffffffffff1673ffffffffffffffffffffffffffffffffffffffff1681526020019081526020016000205481526020019081526020016000206002015490506000600260008573ffffffffffffffffffffffffffffffffffffffff1673ffffffffffffffffffffffffffffffffffffffff1681526020019081526020016000208190555060036000600260008673ffffffffffffffffffffffffffffffffffffffff1673ffffffffffffffffffffffffffffffffffffffff1681526020019081526020016000205481526020019081526020016000206000808201600090556001820160006101000a81549073ffffffffffffffffffffffffffffffffffffffff021916905560028201600090556003820160009055600482016000905560058201600090556006820160009055600782016000905560088201600090556009820160009055600a820160009055600b820160009055600c820160009055600d820160009055600e820160009055600f82016000905560108201600090556011820160006101000a81549060ff02191690556011820160016101000a81549060ff02191690556011820160026101000a81549060ff02191690556011820160036101000a81549060ff02191690556011820160046101000a81549060ff02191690556011820160056101000a81549060ff02191690556012820160006132f69190614182565b5050808373ffffffffffffffffffffffffffffffffffffffff16837f1d7497d6fd179a17c5c10fa701d5dd57fb68542c79473b9759b789ed784d5c2760405160405180910390a4505050565b6000600260008373ffffffffffffffffffffffffffffffffffffffff1673ffffffffffffffffffffffffffffffffffffffff168152602001908152602001600020541415806133e75750600060036000600260008573ffffffffffffffffffffffffffffffffffffffff1673ffffffffffffffffffffffffffffffffffffffff1681526020019081526020016000205481526020019081526020016000206002015414155b156135b6576000600260008373ffffffffffffffffffffffffffffffffffffffff1673ffffffffffffffffffffffffffffffffffffffff1681526020019081526020016000208190555060036000600260008473ffffffffffffffffffffffffffffffffffffffff1673ffffffffffffffffffffffffffffffffffffffff1681526020019081526020016000205481526020019081526020016000206000808201600090556001820160006101000a81549073ffffffffffffffffffffffffffffffffffffffff021916905560028201600090556003820160009055600482016000905560058201600090556006820160009055600782016000905560088201600090556009820160009055600a820160009055600b820160009055600c820160009055600d820160009055600e820160009055600f82016000905560108201600090556011820160006101000a81549060ff02191690556011820160016101000a81549060ff02191690556011820160026101000a81549060ff02191690556011820160036101000a81549060ff02191690556011820160046101000a81549060ff02191690556011820160056101000a81549060ff02191690556012820160006135b39190614182565b50505b8073ffffffffffffffffffffffffffffffffffffffff167ffa63cafecf2c1c6ae30e5b5e06570ba0bf03859678e781644bfa3a0d6764343d60405160405180910390a250565b600060156000808282546136109190615208565b9250508190555060006064600054444261362a919061492d565b613634919061492d565b61363e919061524a565b90506001600d6001436136519190614d8e565b40836040516020016136649291906152c7565b6040516020818303038152906040528051906020012060001c613687919061524a565b613691919061492d565b91506000808154809291906136a590614961565b9190505550631908b10060005411156136c057816000819055505b5090565b600060036000600260003373ffffffffffffffffffffffffffffffffffffffff1673ffffffffffffffffffffffffffffffffffffffff1681526020019081526020016000205481526020019081526020016000209050601581601001541115613920576040518060400160405280600c81526020017f4465616c657220427573742e000000000000000000000000000000000000000081525081601201908161376d9190614be4565b5060008160110160056101000a81548160ff02191690831515021790555060018160040154036138a857601581600b01541161380a576040518060400160405280601981526020017f4465616c657220427573742e20506c617965722057696e732e000000000000008152508160120190816137e99190614be4565b508060060154816002016000828254613802919061492d565b925050819055505b601581600c01541161386e578060120160405160200161382a919061539c565b6040516020818303038152906040528160120190816138499190614be4565b508060060154816002016000828254613862919061492d565b925050819055506138a3565b8060120160405160200161388291906153e8565b6040516020818303038152906040528160120190816138a19190614be4565b505b61391b565b6040518060400160405280601981526020017f4465616c657220427573742e20506c617965722057696e732e000000000000008152508160120190816138ee9190614be4565b50600281600601546139009190615208565b816002016000828254613913919061492d565b925050819055505b613f55565b6015816010015403613b2f576040518060400160405280600c81526020017f4465616c65722057696e732e00000000000000000000000000000000000000008152508160120190816139729190614be4565b5060008160110160056101000a81548160ff02191690831515021790555060008160070154146139c857600281600701546139ad9190615208565b8160020160008282546139c0919061492d565b925050819055505b601581600b015403613a78576040518060400160405280600981526020017f5374616e644f6666210000000000000000000000000000000000000000000000815250816012019081613a1a9190614be4565b506001816004015403613a575760028160060154613a389190614e5d565b816002016000828254613a4b919061492d565b92505081905550613a77565b8060060154816002016000828254613a6f919061492d565b925050819055505b5b6001816004015403613b2a57601581600c015403613af45780601201604051602001613aa49190615434565b604051602081830303815290604052816012019081613ac39190614be4565b5060028160060154613ad59190614e5d565b816002016000828254613ae8919061492d565b92505081905550613b29565b80601201604051602001613b0891906153e8565b604051602081830303815290604052816012019081613b279190614be4565b505b5b613f54565b601581600b0154108015613b62575080600b01546015613b4f9190614d8e565b81601001546015613b609190614d8e565b145b15613c2c576040518060400160405280600981526020017f5374616e644f6666210000000000000000000000000000000000000000000000815250816012019081613bad9190614be4565b5060008160110160056101000a81548160ff0219169083151502179055506001816004015403613c075760028160060154613be89190614e5d565b816002016000828254613bfb919061492d565b92505081905550613c27565b8060060154816002016000828254613c1f919061492d565b925050819055505b613d8e565b601581600b01541180613c5e575080600b01546015613c4b9190614d8e565b81601001546015613c5c9190614d8e565b105b15613ccc576040518060400160405280600c81526020017f4465616c65722057696e732e0000000000000000000000000000000000000000815250816012019081613ca99190614be4565b5060008160110160056101000a81548160ff021916908315150217905550613d8d565b6040518060400160405280600c81526020017f506c617965722057696e732e0000000000000000000000000000000000000000815250816012019081613d129190614be4565b5060008160110160056101000a81548160ff0219169083151502179055506001816004015403613d60578060060154816002016000828254613d54919061492d565b92505081905550613d8c565b60028160060154613d719190615208565b816002016000828254613d84919061492d565b925050819055505b5b5b6001816004015403613f5357601581600c0154108015613dcd575080600c01546015613dba9190614d8e565b81601001546015613dcb9190614d8e565b145b15613e535780601201604051602001613de69190615434565b604051602081830303815290604052816012019081613e059190614be4565b5060008160110160056101000a81548160ff02191690831515021790555060028160060154613e349190614e5d565b816002016000828254613e47919061492d565b92505081905550613f52565b601581600c01541180613e85575080600c01546015613e729190614d8e565b81601001546015613e839190614d8e565b105b15613ee05780601201604051602001613e9e91906153e8565b604051602081830303815290604052816012019081613ebd9190614be4565b5060008160110160056101000a81548160ff021916908315150217905550613f51565b80601201604051602001613ef4919061539c565b604051602081830303815290604052816012019081613f139190614be4565b5060008160110160056101000a81548160ff0219169083151502179055508060060154816002016000828254613f49919061492d565b925050819055505b5b5b5b5b50565b600080600090507a184f03e93ff9f4daa797ed6e38ed64bf6a1f0100000000000000008310613fb6577a184f03e93ff9f4daa797ed6e38ed64bf6a1f0100000000000000008381613fac57613fab614e2e565b5b0492506040810190505b6d04ee2d6d415b85acef81000000008310613ff3576d04ee2d6d415b85acef81000000008381613fe957613fe8614e2e565b5b0492506020810190505b662386f26fc10000831061402257662386f26fc10000838161401857614017614e2e565b5b0492506010810190505b6305f5e100831061404b576305f5e100838161404157614040614e2e565b5b0492506008810190505b612710831061407057612710838161406657614065614e2e565b5b0492506004810190505b60648310614093576064838161408957614088614e2e565b5b0492506002810190505b600a83106140a2576001810190505b80915050919050565b60405180610300016040528060008152602001600073ffffffffffffffffffffffffffffffffffffffff168152602001600081526020016000815260200160008152602001600081526020016000815260200160008152602001600081526020016000815260200160008152602001600081526020016000815260200160008152602001600081526020016000815260200160008152602001600015158152602001600015158152602001600015158152602001600015158152602001600015158152602001600015158152602001606081525090565b50805461418e90614a07565b6000825580601f106141a057506141bf565b601f0160209004906000526020600020908101906141be91906141c2565b5b50565b5b808211156141db5760008160009055506001016141c3565b5090565b600082825260208201905092915050565b7f416464726573735f494e56000000000000000000000000000000000000000000600082015250565b6000614226600b836141df565b9150614231826141f0565b602082019050919050565b6000602082019050818103600083015261425581614219565b9050919050565b7f506c65617365207573652053746172744e657747616d652046756e6374696f6e60008201527f20746f2070617920636f6e74726163742e000000000000000000000000000000602082015250565b60006142b86031836141df565b91506142c38261425c565b604082019050919050565b600060208201905081810360008301526142e7816142ab565b9050919050565b7f46756e6374696f6e5f444e452e00000000000000000000000000000000000000600082015250565b6000614324600d836141df565b915061432f826142ee565b602082019050919050565b6000602082019050818103600083015261435381614317565b9050919050565b600080fd5b6000819050919050565b6143728161435f565b811461437d57600080fd5b50565b60008135905061438f81614369565b92915050565b6000602082840312156143ab576143aa61435a565b5b60006143b984828501614380565b91505092915050565b600081519050919050565b60005b838110156143eb5780820151818401526020810190506143d0565b60008484015250505050565b6000601f19601f8301169050919050565b6000614413826143c2565b61441d81856141df565b935061442d8185602086016143cd565b614436816143f7565b840191505092915050565b600061018082019050818103600083015261445c818f614408565b90508181036020830152614470818e614408565b90508181036040830152614484818d614408565b90508181036060830152614498818c614408565b905081810360808301526144ac818b614408565b905081810360a08301526144c0818a614408565b905081810360c08301526144d48189614408565b905081810360e08301526144e88188614408565b90508181036101008301526144fd8187614408565b90508181036101208301526145128186614408565b90508181036101408301526145278185614408565b905081810361016083015261453c8184614408565b90509d9c50505050505050505050505050565b6145588161435f565b82525050565b600073ffffffffffffffffffffffffffffffffffffffff82169050919050565b60006145898261455e565b9050919050565b6145998161457e565b82525050565b60008115159050919050565b6145b48161459f565b82525050565b600082825260208201905092915050565b60006145d6826143c2565b6145e081856145ba565b93506145f08185602086016143cd565b6145f9816143f7565b840191505092915050565b60006103008301600083015161461d600086018261454f565b5060208301516146306020860182614590565b506040830151614643604086018261454f565b506060830151614656606086018261454f565b506080830151614669608086018261454f565b5060a083015161467c60a086018261454f565b5060c083015161468f60c086018261454f565b5060e08301516146a260e086018261454f565b506101008301516146b761010086018261454f565b506101208301516146cc61012086018261454f565b506101408301516146e161014086018261454f565b506101608301516146f661016086018261454f565b5061018083015161470b61018086018261454f565b506101a08301516147206101a086018261454f565b506101c08301516147356101c086018261454f565b506101e083015161474a6101e086018261454f565b5061020083015161475f61020086018261454f565b506102208301516147746102208601826145ab565b506102408301516147896102408601826145ab565b5061026083015161479e6102608601826145ab565b506102808301516147b36102808601826145ab565b506102a08301516147c86102a08601826145ab565b506102c08301516147dd6102c08601826145ab565b506102e08301518482036102e08601526147f782826145cb565b9150508091505092915050565b6000602082019050818103600083015261481e8184614604565b905092915050565b7f4578697374696e67506c617965725f4343460000000000000000000000000000600082015250565b600061485c6012836141df565b915061486782614826565b602082019050919050565b6000602082019050818103600083015261488b8161484f565b9050919050565b7f4465706f7369745f4c696d697400000000000000000000000000000000000000600082015250565b60006148c8600d836141df565b91506148d382614892565b602082019050919050565b600060208201905081810360008301526148f7816148bb565b9050919050565b7f4e487b7100000000000000000000000000000000000000000000000000000000600052601160045260246000fd5b60006149388261435f565b91506149438361435f565b925082820190508082111561495b5761495a6148fe565b5b92915050565b600061496c8261435f565b91507fffffffffffffffffffffffffffffffffffffffffffffffffffffffffffffffff820361499e5761499d6148fe565b5b600182019050919050565b7f4e487b7100000000000000000000000000000000000000000000000000000000600052604160045260246000fd5b7f4e487b7100000000000000000000000000000000000000000000000000000000600052602260045260246000fd5b60006002820490506001821680614a1f57607f821691505b602082108103614a3257614a316149d8565b5b50919050565b60008190508160005260206000209050919050565b60006020601f8301049050919050565b600082821b905092915050565b600060088302614a9a7fffffffffffffffffffffffffffffffffffffffffffffffffffffffffffffffff82614a5d565b614aa48683614a5d565b95508019841693508086168417925050509392505050565b6000819050919050565b6000614ae1614adc614ad78461435f565b614abc565b61435f565b9050919050565b6000819050919050565b614afb83614ac6565b614b0f614b0782614ae8565b848454614a6a565b825550505050565b600090565b614b24614b17565b614b2f818484614af2565b505050565b5b81811015614b5357614b48600082614b1c565b600181019050614b35565b5050565b601f821115614b9857614b6981614a38565b614b7284614a4d565b81016020851015614b81578190505b614b95614b8d85614a4d565b830182614b34565b50505b505050565b600082821c905092915050565b6000614bbb60001984600802614b9d565b1980831691505092915050565b6000614bd48383614baa565b9150826002028217905092915050565b614bed826143c2565b67ffffffffffffffff811115614c0657614c056149a9565b5b614c108254614a07565b614c1b828285614b57565b600060209050601f831160018114614c4e5760008415614c3c578287015190505b614c468582614bc8565b865550614cae565b601f198416614c5c86614a38565b60005b82811015614c8457848901518255600182019150602085019450602081019050614c5f565b86831015614ca15784890151614c9d601f891682614baa565b8355505b6001600288020188555050505b505050505050565b7f47616d655f444e45000000000000000000000000000000000000000000000000600082015250565b6000614cec6008836141df565b9150614cf782614cb6565b602082019050919050565b60006020820190508181036000830152614d1b81614cdf565b9050919050565b7f4f6e506c617965725475726e5f4f6e6c79000000000000000000000000000000600082015250565b6000614d586011836141df565b9150614d6382614d22565b602082019050919050565b60006020820190508181036000830152614d8781614d4b565b9050919050565b6000614d998261435f565b9150614da48361435f565b9250828203905081811115614dbc57614dbb6148fe565b5b92915050565b7f4f6e43616e53706c69745475726e5f4f6e6c7900000000000000000000000000600082015250565b6000614df86013836141df565b9150614e0382614dc2565b602082019050919050565b60006020820190508181036000830152614e2781614deb565b9050919050565b7f4e487b7100000000000000000000000000000000000000000000000000000000600052601260045260246000fd5b6000614e688261435f565b9150614e738361435f565b925082614e8357614e82614e2e565b5b828204905092915050565b7f49734e6577526f756e645f4f6e6c790000000000000000000000000000000000600082015250565b6000614ec4600f836141df565b9150614ecf82614e8e565b602082019050919050565b60006020820190508181036000830152614ef381614eb7565b9050919050565b7f4265745f4c696d69740000000000000000000000000000000000000000000000600082015250565b6000614f306009836141df565b9150614f3b82614efa565b602082019050919050565b60006020820190508181036000830152614f5f81614f23565b9050919050565b7f494e535f46756e64730000000000000000000000000000000000000000000000600082015250565b6000614f9c6009836141df565b9150614fa782614f66565b602082019050919050565b60006020820190508181036000830152614fcb81614f8f565b9050919050565b7f4f6e43616e496e737572655475726e5f4f6e6c79000000000000000000000000600082015250565b60006150086014836141df565b915061501382614fd2565b602082019050919050565b6000602082019050818103600083015261503781614ffb565b9050919050565b7f202d2d3e20000000000000000000000000000000000000000000000000000000815250565b600081905092915050565b600061507a826143c2565b6150848185615064565b93506150948185602086016143cd565b80840191505092915050565b60006150ab8261503e565b6005820191506150bb828461506f565b915081905092915050565b7f202d2d2d2d2d2d3e200000000000000000000000000000000000000000000000815250565b60006150f7826150c6565b600982019150615107828461506f565b915081905092915050565b7f2077656900000000000000000000000000000000000000000000000000000000815250565b60006151438261503e565b600582019150615153828461506f565b915061515e82615112565b60048201915081905092915050565b7f4e487b7100000000000000000000000000000000000000000000000000000000600052600160045260246000fd5b7f4f6e43616e446f75626c65446f776e5475726e5f4f6e6c790000000000000000600082015250565b60006151d26018836141df565b91506151dd8261519c565b602082019050919050565b60006020820190508181036000830152615201816151c5565b9050919050565b60006152138261435f565b915061521e8361435f565b925082820261522c8161435f565b91508282048414831517615243576152426148fe565b5b5092915050565b60006152558261435f565b91506152608361435f565b9250826152705761526f614e2e565b5b828206905092915050565b6000819050919050565b6000819050919050565b6152a061529b8261527b565b615285565b82525050565b6000819050919050565b6152c16152bc8261435f565b6152a6565b82525050565b60006152d3828561528f565b6020820191506152e382846152b0565b6020820191508190509392505050565b6000815461530081614a07565b61530a8186615064565b94506001821660008114615325576001811461533a5761536d565b60ff198316865281151582028601935061536d565b61534385614a38565b60005b8381101561536557815481890152600182019150602081019050615346565b838801955050505b50505092915050565b7f20506c6179657220776f6e2073706c69742068616e642e000000000000000000815250565b60006153a882846152f3565b91506153b382615376565b60178201915081905092915050565b7f20506c61796572206c6f73742073706c69742068616e642e0000000000000000815250565b60006153f482846152f3565b91506153ff826153c2565b60188201915081905092915050565b7f205374616e644f6666206f6e2073706c69742068616e64210000000000000000815250565b600061544082846152f3565b915061544b8261540e565b6018820191508190509291505056fe53706c69742068616e6420636f6d706c6574652e20506c617965722773205475726e2e506c617965722773205475726e2e2057616e7420496e737572616e63653f20506c617965722063616e20446f75626c6520446f776e2e506c617965722773205475726e2e2057616e7420496e737572616e63653f20506c617965722063616e2053706c69742e506c617965722773205475726e2e2057616e7420496e737572616e63653f20506c617965722063616e2053706c6974206f7220446f75626c6520446f776e2e506c617965722773205475726e2e20506c617965722063616e2053706c6974206f7220446f75626c6520446f776e2e506c617965722773205475726e2e20506c617965722063616e20446f75626c6520446f776e2ea2646970667358221220524e9dbf90c29536cb2e755f1d9502e21de396b037c97617808e6be6cd579b5d64736f6c63430008140033","opcodes":"PUSH1 0xA0 PUSH1 0x40 MSTORE CALLVALUE DUP1 ISZERO PUSH2 0x10 JUMPI PUSH1 0x0 DUP1 REVERT JUMPDEST POP PUSH1 0x1 PUSH1 0x0 DUP2 SWAP1 SSTORE POP PUSH1 0x1 DUP1 DUP2 SWAP1 SSTORE POP CALLER PUSH20 0xFFFFFFFFFFFFFFFFFFFFFFFFFFFFFFFFFFFFFFFF AND PUSH1 0x80 DUP2 PUSH20 0xFFFFFFFFFFFFFFFFFFFFFFFFFFFFFFFFFFFFFFFF AND DUP2 MSTORE POP POP PUSH1 0x80 MLOAD PUSH2 0x55AD PUSH2 0x6C PUSH1 0x0 CODECOPY PUSH1 0x0 POP POP PUSH2 0x55AD PUSH1 0x0 RETURN INVALID PUSH1 0x80 PUSH1 0x40 MSTORE PUSH1 0x4 CALLDATASIZE LT PUSH2 0x95 JUMPI PUSH1 0x0 CALLDATALOAD PUSH1 0xE0 SHR DUP1 PUSH4 0x622E5026 GT PUSH2 0x59 JUMPI DUP1 PUSH4 0x622E5026 EQ PUSH2 0x273 JUMPI DUP1 PUSH4 0x7CE2974D EQ PUSH2 0x28A JUMPI DUP1 PUSH4 0x9AD01E3E EQ PUSH2 0x2C0 JUMPI DUP1 PUSH4 0xA1E564B1 EQ PUSH2 0x2EB JUMPI DUP1 PUSH4 0xE8A80E9A EQ PUSH2 0x302 JUMPI PUSH2 0x144 JUMP JUMPDEST DUP1 PUSH4 0x24603EEA EQ PUSH2 0x1FB JUMPI DUP1 PUSH4 0x39AE2133 EQ PUSH2 0x205 JUMPI DUP1 PUSH4 0x55D842D7 EQ PUSH2 0x21C JUMPI DUP1 PUSH4 0x58C5A7CC EQ PUSH2 0x233 JUMPI DUP1 PUSH4 0x5A6D41A0 EQ PUSH2 0x24A JUMPI PUSH2 0x144 JUMP JUMPDEST CALLDATASIZE PUSH2 0x144 JUMPI PUSH1 0x0 PUSH20 0xFFFFFFFFFFFFFFFFFFFFFFFFFFFFFFFFFFFFFFFF AND CALLER PUSH20 0xFFFFFFFFFFFFFFFFFFFFFFFFFFFFFFFFFFFFFFFF AND SUB PUSH2 0x109 JUMPI PUSH1 0x40 MLOAD PUSH32 0x8C379A000000000000000000000000000000000000000000000000000000000 DUP2 MSTORE PUSH1 0x4 ADD PUSH2 0x100 SWAP1 PUSH2 0x423C JUMP JUMPDEST PUSH1 0x40 MLOAD DUP1 SWAP2 SUB SWAP1 REVERT JUMPDEST PUSH1 0x40 MLOAD PUSH32 0x8C379A000000000000000000000000000000000000000000000000000000000 DUP2 MSTORE PUSH1 0x4 ADD PUSH2 0x13B SWAP1 PUSH2 0x42CE JUMP JUMPDEST PUSH1 0x40 MLOAD DUP1 SWAP2 SUB SWAP1 REVERT JUMPDEST CALLVALUE DUP1 ISZERO PUSH2 0x150 JUMPI PUSH1 0x0 DUP1 REVERT JUMPDEST POP PUSH1 0x0 PUSH20 0xFFFFFFFFFFFFFFFFFFFFFFFFFFFFFFFFFFFFFFFF AND CALLER PUSH20 0xFFFFFFFFFFFFFFFFFFFFFFFFFFFFFFFFFFFFFFFF AND SUB PUSH2 0x1C0 JUMPI PUSH1 0x40 MLOAD PUSH32 0x8C379A000000000000000000000000000000000000000000000000000000000 DUP2 MSTORE PUSH1 0x4 ADD PUSH2 0x1B7 SWAP1 PUSH2 0x423C JUMP JUMPDEST PUSH1 0x40 MLOAD DUP1 SWAP2 SUB SWAP1 REVERT JUMPDEST PUSH1 0x40 MLOAD PUSH32 0x8C379A000000000000000000000000000000000000000000000000000000000 DUP2 MSTORE PUSH1 0x4 ADD PUSH2 0x1F2 SWAP1 PUSH2 0x433A JUMP JUMPDEST PUSH1 0x40 MLOAD DUP1 SWAP2 SUB SWAP1 REVERT JUMPDEST PUSH2 0x203 PUSH2 0x319 JUMP JUMPDEST STOP JUMPDEST CALLVALUE DUP1 ISZERO PUSH2 0x211 JUMPI PUSH1 0x0 DUP1 REVERT JUMPDEST POP PUSH2 0x21A PUSH2 0x74F JUMP JUMPDEST STOP JUMPDEST CALLVALUE DUP1 ISZERO PUSH2 0x228 JUMPI PUSH1 0x0 DUP1 REVERT JUMPDEST POP PUSH2 0x231 PUSH2 0xB71 JUMP JUMPDEST STOP JUMPDEST CALLVALUE DUP1 ISZERO PUSH2 0x23F JUMPI PUSH1 0x0 DUP1 REVERT JUMPDEST POP PUSH2 0x248 PUSH2 0xEE1 JUMP JUMPDEST STOP JUMPDEST CALLVALUE DUP1 ISZERO PUSH2 0x256 JUMPI PUSH1 0x0 DUP1 REVERT JUMPDEST POP PUSH2 0x271 PUSH1 0x4 DUP1 CALLDATASIZE SUB DUP2 ADD SWAP1 PUSH2 0x26C SWAP2 SWAP1 PUSH2 0x4395 JUMP JUMPDEST PUSH2 0x1158 JUMP JUMPDEST STOP JUMPDEST CALLVALUE DUP1 ISZERO PUSH2 0x27F JUMPI PUSH1 0x0 DUP1 REVERT JUMPDEST POP PUSH2 0x288 PUSH2 0x14D6 JUMP JUMPDEST STOP JUMPDEST CALLVALUE DUP1 ISZERO PUSH2 0x296 JUMPI PUSH1 0x0 DUP1 REVERT JUMPDEST POP PUSH2 0x29F PUSH2 0x17B9 JUMP JUMPDEST PUSH1 0x40 MLOAD PUSH2 0x2B7 SWAP13 SWAP12 SWAP11 SWAP10 SWAP9 SWAP8 SWAP7 SWAP6 SWAP5 SWAP4 SWAP3 SWAP2 SWAP1 PUSH2 0x4441 JUMP JUMPDEST PUSH1 0x40 MLOAD DUP1 SWAP2 SUB SWAP1 RETURN JUMPDEST CALLVALUE DUP1 ISZERO PUSH2 0x2CC JUMPI PUSH1 0x0 DUP1 REVERT JUMPDEST POP PUSH2 0x2D5 PUSH2 0x1C90 JUMP JUMPDEST PUSH1 0x40 MLOAD PUSH2 0x2E2 SWAP2 SWAP1 PUSH2 0x4804 JUMP JUMPDEST PUSH1 0x40 MLOAD DUP1 SWAP2 SUB SWAP1 RETURN JUMPDEST CALLVALUE DUP1 ISZERO PUSH2 0x2F7 JUMPI PUSH1 0x0 DUP1 REVERT JUMPDEST POP PUSH2 0x300 PUSH2 0x1F25 JUMP JUMPDEST STOP JUMPDEST CALLVALUE DUP1 ISZERO PUSH2 0x30E JUMPI PUSH1 0x0 DUP1 REVERT JUMPDEST POP PUSH2 0x317 PUSH2 0x2415 JUMP JUMPDEST STOP JUMPDEST PUSH1 0x0 PUSH1 0x2 PUSH1 0x0 CALLER PUSH20 0xFFFFFFFFFFFFFFFFFFFFFFFFFFFFFFFFFFFFFFFF AND PUSH20 0xFFFFFFFFFFFFFFFFFFFFFFFFFFFFFFFFFFFFFFFF AND DUP2 MSTORE PUSH1 0x20 ADD SWAP1 DUP2 MSTORE PUSH1 0x20 ADD PUSH1 0x0 KECCAK256 SLOAD EQ PUSH2 0x39B JUMPI PUSH1 0x40 MLOAD PUSH32 0x8C379A000000000000000000000000000000000000000000000000000000000 DUP2 MSTORE PUSH1 0x4 ADD PUSH2 0x392 SWAP1 PUSH2 0x4872 JUMP JUMPDEST PUSH1 0x40 MLOAD DUP1 SWAP2 SUB SWAP1 REVERT JUMPDEST PUSH5 0xE8D4A51000 CALLVALUE GT DUP1 ISZERO PUSH2 0x3B7 JUMPI POP PUSH8 0x8AC7230489E80000 CALLVALUE GT ISZERO JUMPDEST PUSH2 0x3F6 JUMPI PUSH1 0x40 MLOAD PUSH32 0x8C379A000000000000000000000000000000000000000000000000000000000 DUP2 MSTORE PUSH1 0x4 ADD PUSH2 0x3ED SWAP1 PUSH2 0x48DE JUMP JUMPDEST PUSH1 0x40 MLOAD DUP1 SWAP2 SUB SWAP1 REVERT JUMPDEST PUSH2 0x3FE PUSH2 0x40AB JUMP JUMPDEST PUSH1 0x1 SLOAD DUP2 PUSH1 0x0 ADD DUP2 DUP2 MSTORE POP POP CALLVALUE DUP2 PUSH1 0x40 ADD DUP2 DUP2 MLOAD PUSH2 0x41C SWAP2 SWAP1 PUSH2 0x492D JUMP JUMPDEST SWAP2 POP DUP2 DUP2 MSTORE POP POP CALLVALUE DUP2 PUSH1 0x60 ADD DUP2 DUP2 MLOAD PUSH2 0x435 SWAP2 SWAP1 PUSH2 0x492D JUMP JUMPDEST SWAP2 POP DUP2 DUP2 MSTORE POP POP CALLER DUP2 PUSH1 0x20 ADD SWAP1 PUSH20 0xFFFFFFFFFFFFFFFFFFFFFFFFFFFFFFFFFFFFFFFF AND SWAP1 DUP2 PUSH20 0xFFFFFFFFFFFFFFFFFFFFFFFFFFFFFFFFFFFFFFFF AND DUP2 MSTORE POP POP PUSH1 0x40 MLOAD DUP1 PUSH1 0x40 ADD PUSH1 0x40 MSTORE DUP1 PUSH1 0xE DUP2 MSTORE PUSH1 0x20 ADD PUSH32 0x436F6E747261637420506169642E000000000000000000000000000000000000 DUP2 MSTORE POP DUP2 PUSH2 0x2E0 ADD DUP2 SWAP1 MSTORE POP PUSH1 0x1 PUSH1 0x0 DUP2 SLOAD DUP1 SWAP3 SWAP2 SWAP1 PUSH2 0x4C6 SWAP1 PUSH2 0x4961 JUMP JUMPDEST SWAP2 SWAP1 POP SSTORE POP DUP1 PUSH1 0x3 PUSH1 0x0 DUP4 PUSH1 0x0 ADD MLOAD DUP2 MSTORE PUSH1 0x20 ADD SWAP1 DUP2 MSTORE PUSH1 0x20 ADD PUSH1 0x0 KECCAK256 PUSH1 0x0 DUP3 ADD MLOAD DUP2 PUSH1 0x0 ADD SSTORE PUSH1 0x20 DUP3 ADD MLOAD DUP2 PUSH1 0x1 ADD PUSH1 0x0 PUSH2 0x100 EXP DUP2 SLOAD DUP2 PUSH20 0xFFFFFFFFFFFFFFFFFFFFFFFFFFFFFFFFFFFFFFFF MUL NOT AND SWAP1 DUP4 PUSH20 0xFFFFFFFFFFFFFFFFFFFFFFFFFFFFFFFFFFFFFFFF AND MUL OR SWAP1 SSTORE POP PUSH1 0x40 DUP3 ADD MLOAD DUP2 PUSH1 0x2 ADD SSTORE PUSH1 0x60 DUP3 ADD MLOAD DUP2 PUSH1 0x3 ADD SSTORE PUSH1 0x80 DUP3 ADD MLOAD DUP2 PUSH1 0x4 ADD SSTORE PUSH1 0xA0 DUP3 ADD MLOAD DUP2 PUSH1 0x5 ADD SSTORE PUSH1 0xC0 DUP3 ADD MLOAD DUP2 PUSH1 0x6 ADD SSTORE PUSH1 0xE0 DUP3 ADD MLOAD DUP2 PUSH1 0x7 ADD SSTORE PUSH2 0x100 DUP3 ADD MLOAD DUP2 PUSH1 0x8 ADD SSTORE PUSH2 0x120 DUP3 ADD MLOAD DUP2 PUSH1 0x9 ADD SSTORE PUSH2 0x140 DUP3 ADD MLOAD DUP2 PUSH1 0xA ADD SSTORE PUSH2 0x160 DUP3 ADD MLOAD DUP2 PUSH1 0xB ADD SSTORE PUSH2 0x180 DUP3 ADD MLOAD DUP2 PUSH1 0xC ADD SSTORE PUSH2 0x1A0 DUP3 ADD MLOAD DUP2 PUSH1 0xD ADD SSTORE PUSH2 0x1C0 DUP3 ADD MLOAD DUP2 PUSH1 0xE ADD SSTORE PUSH2 0x1E0 DUP3 ADD MLOAD DUP2 PUSH1 0xF ADD SSTORE PUSH2 0x200 DUP3 ADD MLOAD DUP2 PUSH1 0x10 ADD SSTORE PUSH2 0x220 DUP3 ADD MLOAD DUP2 PUSH1 0x11 ADD PUSH1 0x0 PUSH2 0x100 EXP DUP2 SLOAD DUP2 PUSH1 0xFF MUL NOT AND SWAP1 DUP4 ISZERO ISZERO MUL OR SWAP1 SSTORE POP PUSH2 0x240 DUP3 ADD MLOAD DUP2 PUSH1 0x11 ADD PUSH1 0x1 PUSH2 0x100 EXP DUP2 SLOAD DUP2 PUSH1 0xFF MUL NOT AND SWAP1 DUP4 ISZERO ISZERO MUL OR SWAP1 SSTORE POP PUSH2 0x260 DUP3 ADD MLOAD DUP2 PUSH1 0x11 ADD PUSH1 0x2 PUSH2 0x100 EXP DUP2 SLOAD DUP2 PUSH1 0xFF MUL NOT AND SWAP1 DUP4 ISZERO ISZERO MUL OR SWAP1 SSTORE POP PUSH2 0x280 DUP3 ADD MLOAD DUP2 PUSH1 0x11 ADD PUSH1 0x3 PUSH2 0x100 EXP DUP2 SLOAD DUP2 PUSH1 0xFF MUL NOT AND SWAP1 DUP4 ISZERO ISZERO MUL OR SWAP1 SSTORE POP PUSH2 0x2A0 DUP3 ADD MLOAD DUP2 PUSH1 0x11 ADD PUSH1 0x4 PUSH2 0x100 EXP DUP2 SLOAD DUP2 PUSH1 0xFF MUL NOT AND SWAP1 DUP4 ISZERO ISZERO MUL OR SWAP1 SSTORE POP PUSH2 0x2C0 DUP3 ADD MLOAD DUP2 PUSH1 0x11 ADD PUSH1 0x5 PUSH2 0x100 EXP DUP2 SLOAD DUP2 PUSH1 0xFF MUL NOT AND SWAP1 DUP4 ISZERO ISZERO MUL OR SWAP1 SSTORE POP PUSH2 0x2E0 DUP3 ADD MLOAD DUP2 PUSH1 0x12 ADD SWAP1 DUP2 PUSH2 0x6AF SWAP2 SWAP1 PUSH2 0x4BE4 JUMP JUMPDEST POP SWAP1 POP POP DUP1 PUSH1 0x0 ADD MLOAD PUSH1 0x2 PUSH1 0x0 CALLER PUSH20 0xFFFFFFFFFFFFFFFFFFFFFFFFFFFFFFFFFFFFFFFF AND PUSH20 0xFFFFFFFFFFFFFFFFFFFFFFFFFFFFFFFFFFFFFFFF AND DUP2 MSTORE PUSH1 0x20 ADD SWAP1 DUP2 MSTORE PUSH1 0x20 ADD PUSH1 0x0 KECCAK256 DUP2 SWAP1 SSTORE POP DUP1 PUSH1 0x60 ADD MLOAD DUP2 PUSH1 0x20 ADD MLOAD PUSH20 0xFFFFFFFFFFFFFFFFFFFFFFFFFFFFFFFFFFFFFFFF AND DUP3 PUSH1 0x0 ADD MLOAD PUSH32 0x8A045E8CA90ABBB5FAAC5664EF1AB1A17450AF55E4C7C1904CFF223B299D0B71 PUSH1 0x40 MLOAD PUSH1 0x40 MLOAD DUP1 SWAP2 SUB SWAP1 LOG4 POP JUMP JUMPDEST PUSH1 0x0 PUSH20 0xFFFFFFFFFFFFFFFFFFFFFFFFFFFFFFFFFFFFFFFF AND CALLER PUSH20 0xFFFFFFFFFFFFFFFFFFFFFFFFFFFFFFFFFFFFFFFF AND SUB PUSH2 0x7BE JUMPI PUSH1 0x40 MLOAD PUSH32 0x8C379A000000000000000000000000000000000000000000000000000000000 DUP2 MSTORE PUSH1 0x4 ADD PUSH2 0x7B5 SWAP1 PUSH2 0x423C JUMP JUMPDEST PUSH1 0x40 MLOAD DUP1 SWAP2 SUB SWAP1 REVERT JUMPDEST PUSH1 0x0 PUSH1 0x2 PUSH1 0x0 CALLER PUSH20 0xFFFFFFFFFFFFFFFFFFFFFFFFFFFFFFFFFFFFFFFF AND PUSH20 0xFFFFFFFFFFFFFFFFFFFFFFFFFFFFFFFFFFFFFFFF AND DUP2 MSTORE PUSH1 0x20 ADD SWAP1 DUP2 MSTORE PUSH1 0x20 ADD PUSH1 0x0 KECCAK256 SLOAD SUB PUSH2 0x840 JUMPI PUSH1 0x40 MLOAD PUSH32 0x8C379A000000000000000000000000000000000000000000000000000000000 DUP2 MSTORE PUSH1 0x4 ADD PUSH2 0x837 SWAP1 PUSH2 0x4D02 JUMP JUMPDEST PUSH1 0x40 MLOAD DUP1 SWAP2 SUB SWAP1 REVERT JUMPDEST PUSH1 0x0 PUSH1 0x3 PUSH1 0x0 PUSH1 0x2 PUSH1 0x0 CALLER PUSH20 0xFFFFFFFFFFFFFFFFFFFFFFFFFFFFFFFFFFFFFFFF AND PUSH20 0xFFFFFFFFFFFFFFFFFFFFFFFFFFFFFFFFFFFFFFFF AND DUP2 MSTORE PUSH1 0x20 ADD SWAP1 DUP2 MSTORE PUSH1 0x20 ADD PUSH1 0x0 KECCAK256 SLOAD DUP2 MSTORE PUSH1 0x20 ADD SWAP1 DUP2 MSTORE PUSH1 0x20 ADD PUSH1 0x0 KECCAK256 SWAP1 POP DUP1 PUSH1 0x11 ADD PUSH1 0x5 SWAP1 SLOAD SWAP1 PUSH2 0x100 EXP SWAP1 DIV PUSH1 0xFF AND PUSH2 0x8E7 JUMPI PUSH1 0x40 MLOAD PUSH32 0x8C379A000000000000000000000000000000000000000000000000000000000 DUP2 MSTORE PUSH1 0x4 ADD PUSH2 0x8DE SWAP1 PUSH2 0x4D6E JUMP JUMPDEST PUSH1 0x40 MLOAD DUP1 SWAP2 SUB SWAP1 REVERT JUMPDEST PUSH1 0x0 DUP2 PUSH1 0x11 ADD PUSH1 0x0 PUSH2 0x100 EXP DUP2 SLOAD DUP2 PUSH1 0xFF MUL NOT AND SWAP1 DUP4 ISZERO ISZERO MUL OR SWAP1 SSTORE POP PUSH1 0x0 DUP2 PUSH1 0x11 ADD PUSH1 0x2 PUSH2 0x100 EXP DUP2 SLOAD DUP2 PUSH1 0xFF MUL NOT AND SWAP1 DUP4 ISZERO ISZERO MUL OR SWAP1 SSTORE POP PUSH1 0x0 DUP2 PUSH1 0x11 ADD PUSH1 0x1 PUSH2 0x100 EXP DUP2 SLOAD DUP2 PUSH1 0xFF MUL NOT AND SWAP1 DUP4 ISZERO ISZERO MUL OR SWAP1 SSTORE POP PUSH2 0x946 PUSH2 0x26FE JUMP JUMPDEST DUP2 PUSH1 0xA ADD DUP2 SWAP1 SSTORE POP PUSH1 0x1 DUP2 PUSH1 0xA ADD SLOAD EQ DUP1 ISZERO PUSH2 0x966 JUMPI POP PUSH1 0xB DUP2 PUSH1 0xB ADD SLOAD LT JUMPDEST ISZERO PUSH2 0x993 JUMPI PUSH1 0xB DUP2 PUSH1 0xA ADD DUP2 SWAP1 SSTORE POP PUSH1 0x1 DUP2 PUSH1 0x11 ADD PUSH1 0x4 PUSH2 0x100 EXP DUP2 SLOAD DUP2 PUSH1 0xFF MUL NOT AND SWAP1 DUP4 ISZERO ISZERO MUL OR SWAP1 SSTORE POP JUMPDEST DUP1 PUSH1 0x11 ADD PUSH1 0x3 SWAP1 SLOAD SWAP1 PUSH2 0x100 EXP SWAP1 DIV PUSH1 0xFF AND ISZERO PUSH2 0xAE5 JUMPI PUSH1 0x40 MLOAD DUP1 PUSH1 0x40 ADD PUSH1 0x40 MSTORE DUP1 PUSH1 0xE DUP2 MSTORE PUSH1 0x20 ADD PUSH32 0x506C617965722773205475726E2E000000000000000000000000000000000000 DUP2 MSTORE POP DUP2 PUSH1 0x12 ADD SWAP1 DUP2 PUSH2 0x9F0 SWAP2 SWAP1 PUSH2 0x4BE4 JUMP JUMPDEST POP DUP1 PUSH1 0xA ADD SLOAD DUP2 PUSH1 0xC ADD PUSH1 0x0 DUP3 DUP3 SLOAD PUSH2 0xA09 SWAP2 SWAP1 PUSH2 0x492D JUMP JUMPDEST SWAP3 POP POP DUP2 SWAP1 SSTORE POP DUP1 PUSH1 0x11 ADD PUSH1 0x4 SWAP1 SLOAD SWAP1 PUSH2 0x100 EXP SWAP1 DIV PUSH1 0xFF AND DUP1 ISZERO PUSH2 0xA32 JUMPI POP PUSH1 0x15 DUP2 PUSH1 0xC ADD SLOAD GT JUMPDEST ISZERO PUSH2 0xA71 JUMPI PUSH1 0xA DUP2 PUSH1 0xC ADD PUSH1 0x0 DUP3 DUP3 SLOAD PUSH2 0xA4C SWAP2 SWAP1 PUSH2 0x4D8E JUMP JUMPDEST SWAP3 POP POP DUP2 SWAP1 SSTORE POP PUSH1 0x0 DUP2 PUSH1 0x11 ADD PUSH1 0x4 PUSH2 0x100 EXP DUP2 SLOAD DUP2 PUSH1 0xFF MUL NOT AND SWAP1 DUP4 ISZERO ISZERO MUL OR SWAP1 SSTORE POP JUMPDEST PUSH1 0x15 DUP2 PUSH1 0xC ADD SLOAD GT ISZERO PUSH2 0xAE0 JUMPI PUSH1 0x40 MLOAD DUP1 PUSH1 0x60 ADD PUSH1 0x40 MSTORE DUP1 PUSH1 0x23 DUP2 MSTORE PUSH1 0x20 ADD PUSH2 0x545B PUSH1 0x23 SWAP2 CODECOPY DUP2 PUSH1 0x12 ADD SWAP1 DUP2 PUSH2 0xAA7 SWAP2 SWAP1 PUSH2 0x4BE4 JUMP JUMPDEST POP DUP1 PUSH1 0x4 ADD PUSH1 0x0 DUP2 SLOAD DUP1 SWAP3 SWAP2 SWAP1 PUSH2 0xABD SWAP1 PUSH2 0x4961 JUMP JUMPDEST SWAP2 SWAP1 POP SSTORE POP PUSH1 0x0 DUP2 PUSH1 0x11 ADD PUSH1 0x3 PUSH2 0x100 EXP DUP2 SLOAD DUP2 PUSH1 0xFF MUL NOT AND SWAP1 DUP4 ISZERO ISZERO MUL OR SWAP1 SSTORE POP JUMPDEST PUSH2 0xB6E JUMP JUMPDEST DUP1 PUSH1 0xA ADD SLOAD DUP2 PUSH1 0xB ADD PUSH1 0x0 DUP3 DUP3 SLOAD PUSH2 0xAFD SWAP2 SWAP1 PUSH2 0x492D JUMP JUMPDEST SWAP3 POP POP DUP2 SWAP1 SSTORE POP DUP1 PUSH1 0x11 ADD PUSH1 0x4 SWAP1 SLOAD SWAP1 PUSH2 0x100 EXP SWAP1 DIV PUSH1 0xFF AND DUP1 ISZERO PUSH2 0xB26 JUMPI POP PUSH1 0x15 DUP2 PUSH1 0xB ADD SLOAD GT JUMPDEST ISZERO PUSH2 0xB65 JUMPI PUSH1 0xA DUP2 PUSH1 0xB ADD PUSH1 0x0 DUP3 DUP3 SLOAD PUSH2 0xB40 SWAP2 SWAP1 PUSH2 0x4D8E JUMP JUMPDEST SWAP3 POP POP DUP2 SWAP1 SSTORE POP PUSH1 0x0 DUP2 PUSH1 0x11 ADD PUSH1 0x4 PUSH2 0x100 EXP DUP2 SLOAD DUP2 PUSH1 0xFF MUL NOT AND SWAP1 DUP4 ISZERO ISZERO MUL OR SWAP1 SSTORE POP JUMPDEST PUSH2 0xB6D PUSH2 0x271B JUMP JUMPDEST JUMPDEST POP JUMP JUMPDEST PUSH1 0x0 PUSH20 0xFFFFFFFFFFFFFFFFFFFFFFFFFFFFFFFFFFFFFFFF AND CALLER PUSH20 0xFFFFFFFFFFFFFFFFFFFFFFFFFFFFFFFFFFFFFFFF AND SUB PUSH2 0xBE0 JUMPI PUSH1 0x40 MLOAD PUSH32 0x8C379A000000000000000000000000000000000000000000000000000000000 DUP2 MSTORE PUSH1 0x4 ADD PUSH2 0xBD7 SWAP1 PUSH2 0x423C JUMP JUMPDEST PUSH1 0x40 MLOAD DUP1 SWAP2 SUB SWAP1 REVERT JUMPDEST PUSH1 0x0 PUSH1 0x2 PUSH1 0x0 CALLER PUSH20 0xFFFFFFFFFFFFFFFFFFFFFFFFFFFFFFFFFFFFFFFF AND PUSH20 0xFFFFFFFFFFFFFFFFFFFFFFFFFFFFFFFFFFFFFFFF AND DUP2 MSTORE PUSH1 0x20 ADD SWAP1 DUP2 MSTORE PUSH1 0x20 ADD PUSH1 0x0 KECCAK256 SLOAD SUB PUSH2 0xC62 JUMPI PUSH1 0x40 MLOAD PUSH32 0x8C379A000000000000000000000000000000000000000000000000000000000 DUP2 MSTORE PUSH1 0x4 ADD PUSH2 0xC59 SWAP1 PUSH2 0x4D02 JUMP JUMPDEST PUSH1 0x40 MLOAD DUP1 SWAP2 SUB SWAP1 REVERT JUMPDEST PUSH1 0x0 PUSH1 0x3 PUSH1 0x0 PUSH1 0x2 PUSH1 0x0 CALLER PUSH20 0xFFFFFFFFFFFFFFFFFFFFFFFFFFFFFFFFFFFFFFFF AND PUSH20 0xFFFFFFFFFFFFFFFFFFFFFFFFFFFFFFFFFFFFFFFF AND DUP2 MSTORE PUSH1 0x20 ADD SWAP1 DUP2 MSTORE PUSH1 0x20 ADD PUSH1 0x0 KECCAK256 SLOAD DUP2 MSTORE PUSH1 0x20 ADD SWAP1 DUP2 MSTORE PUSH1 0x20 ADD PUSH1 0x0 KECCAK256 SWAP1 POP DUP1 PUSH1 0x11 ADD PUSH1 0x5 SWAP1 SLOAD SWAP1 PUSH2 0x100 EXP SWAP1 DIV PUSH1 0xFF AND PUSH2 0xD09 JUMPI PUSH1 0x40 MLOAD PUSH32 0x8C379A000000000000000000000000000000000000000000000000000000000 DUP2 MSTORE PUSH1 0x4 ADD PUSH2 0xD00 SWAP1 PUSH2 0x4D6E JUMP JUMPDEST PUSH1 0x40 MLOAD DUP1 SWAP2 SUB SWAP1 REVERT JUMPDEST DUP1 PUSH1 0x11 ADD PUSH1 0x2 SWAP1 SLOAD SWAP1 PUSH2 0x100 EXP SWAP1 DIV PUSH1 0xFF AND PUSH2 0xD5A JUMPI PUSH1 0x40 MLOAD PUSH32 0x8C379A000000000000000000000000000000000000000000000000000000000 DUP2 MSTORE PUSH1 0x4 ADD PUSH2 0xD51 SWAP1 PUSH2 0x4E0E JUMP JUMPDEST PUSH1 0x40 MLOAD DUP1 SWAP2 SUB SWAP1 REVERT JUMPDEST PUSH1 0x0 DUP2 PUSH1 0x11 ADD PUSH1 0x0 PUSH2 0x100 EXP DUP2 SLOAD DUP2 PUSH1 0xFF MUL NOT AND SWAP1 DUP4 ISZERO ISZERO MUL OR SWAP1 SSTORE POP PUSH1 0x0 DUP2 PUSH1 0x11 ADD PUSH1 0x1 PUSH2 0x100 EXP DUP2 SLOAD DUP2 PUSH1 0xFF MUL NOT AND SWAP1 DUP4 ISZERO ISZERO MUL OR SWAP1 SSTORE POP PUSH1 0xB DUP2 PUSH1 0x8 ADD SLOAD SUB PUSH2 0xDB9 JUMPI PUSH1 0xB DUP2 PUSH1 0xB ADD DUP2 SWAP1 SSTORE POP PUSH1 0xB DUP2 PUSH1 0xC ADD DUP2 SWAP1 SSTORE POP PUSH2 0xDE0 JUMP JUMPDEST PUSH1 0x2 DUP2 PUSH1 0xB ADD SLOAD PUSH2 0xDCA SWAP2 SWAP1 PUSH2 0x4E5D JUMP JUMPDEST DUP2 PUSH1 0xB ADD DUP2 SWAP1 SSTORE POP DUP1 PUSH1 0xB ADD SLOAD DUP2 PUSH1 0xC ADD DUP2 SWAP1 SSTORE POP JUMPDEST PUSH1 0x0 DUP2 PUSH1 0x4 ADD DUP2 SWAP1 SSTORE POP PUSH1 0x1 DUP2 PUSH1 0x11 ADD PUSH1 0x3 PUSH2 0x100 EXP DUP2 SLOAD DUP2 PUSH1 0xFF MUL NOT AND SWAP1 DUP4 ISZERO ISZERO MUL OR SWAP1 SSTORE POP PUSH1 0x0 DUP2 PUSH1 0x11 ADD PUSH1 0x5 PUSH2 0x100 EXP DUP2 SLOAD DUP2 PUSH1 0xFF MUL NOT AND SWAP1 DUP4 ISZERO ISZERO MUL OR SWAP1 SSTORE POP PUSH2 0xE31 DUP2 PUSH1 0x6 ADD SLOAD PUSH2 0x1158 JUMP JUMPDEST PUSH1 0x0 DUP2 PUSH1 0x11 ADD PUSH1 0x2 PUSH2 0x100 EXP DUP2 SLOAD DUP2 PUSH1 0xFF MUL NOT AND SWAP1 DUP4 ISZERO ISZERO MUL OR SWAP1 SSTORE POP PUSH1 0xB DUP2 PUSH1 0x8 ADD SLOAD SUB PUSH2 0xEDE JUMPI PUSH2 0xE62 PUSH2 0x26FE JUMP JUMPDEST DUP2 PUSH1 0xA ADD DUP2 SWAP1 SSTORE POP DUP1 PUSH1 0xA ADD SLOAD DUP2 PUSH1 0xC ADD PUSH1 0x0 DUP3 DUP3 SLOAD PUSH2 0xE82 SWAP2 SWAP1 PUSH2 0x492D JUMP JUMPDEST SWAP3 POP POP DUP2 SWAP1 SSTORE POP PUSH2 0xE91 PUSH2 0x26FE JUMP JUMPDEST DUP2 PUSH1 0xA ADD DUP2 SWAP1 SSTORE POP DUP1 PUSH1 0xA ADD SLOAD DUP2 PUSH1 0xB ADD PUSH1 0x0 DUP3 DUP3 SLOAD PUSH2 0xEB1 SWAP2 SWAP1 PUSH2 0x492D JUMP JUMPDEST SWAP3 POP POP DUP2 SWAP1 SSTORE POP PUSH1 0x0 DUP2 PUSH1 0x11 ADD PUSH1 0x3 PUSH2 0x100 EXP DUP2 SLOAD DUP2 PUSH1 0xFF MUL NOT AND SWAP1 DUP4 ISZERO ISZERO MUL OR SWAP1 SSTORE POP PUSH2 0xEDD PUSH2 0x28C0 JUMP JUMPDEST JUMPDEST POP JUMP JUMPDEST PUSH1 0x0 PUSH20 0xFFFFFFFFFFFFFFFFFFFFFFFFFFFFFFFFFFFFFFFF AND CALLER PUSH20 0xFFFFFFFFFFFFFFFFFFFFFFFFFFFFFFFFFFFFFFFF AND SUB PUSH2 0xF50 JUMPI PUSH1 0x40 MLOAD PUSH32 0x8C379A000000000000000000000000000000000000000000000000000000000 DUP2 MSTORE PUSH1 0x4 ADD PUSH2 0xF47 SWAP1 PUSH2 0x423C JUMP JUMPDEST PUSH1 0x40 MLOAD DUP1 SWAP2 SUB SWAP1 REVERT JUMPDEST PUSH1 0x0 PUSH1 0x2 PUSH1 0x0 CALLER PUSH20 0xFFFFFFFFFFFFFFFFFFFFFFFFFFFFFFFFFFFFFFFF AND PUSH20 0xFFFFFFFFFFFFFFFFFFFFFFFFFFFFFFFFFFFFFFFF AND DUP2 MSTORE PUSH1 0x20 ADD SWAP1 DUP2 MSTORE PUSH1 0x20 ADD PUSH1 0x0 KECCAK256 SLOAD SUB PUSH2 0xFD2 JUMPI PUSH1 0x40 MLOAD PUSH32 0x8C379A000000000000000000000000000000000000000000000000000000000 DUP2 MSTORE PUSH1 0x4 ADD PUSH2 0xFC9 SWAP1 PUSH2 0x4D02 JUMP JUMPDEST PUSH1 0x40 MLOAD DUP1 SWAP2 SUB SWAP1 REVERT JUMPDEST PUSH1 0x0 PUSH1 0x3 PUSH1 0x0 PUSH1 0x2 PUSH1 0x0 CALLER PUSH20 0xFFFFFFFFFFFFFFFFFFFFFFFFFFFFFFFFFFFFFFFF AND PUSH20 0xFFFFFFFFFFFFFFFFFFFFFFFFFFFFFFFFFFFFFFFF AND DUP2 MSTORE PUSH1 0x20 ADD SWAP1 DUP2 MSTORE PUSH1 0x20 ADD PUSH1 0x0 KECCAK256 SLOAD DUP2 MSTORE PUSH1 0x20 ADD SWAP1 DUP2 MSTORE PUSH1 0x20 ADD PUSH1 0x0 KECCAK256 SWAP1 POP DUP1 PUSH1 0x11 ADD PUSH1 0x5 SWAP1 SLOAD SWAP1 PUSH2 0x100 EXP SWAP1 DIV PUSH1 0xFF AND PUSH2 0x1079 JUMPI PUSH1 0x40 MLOAD PUSH32 0x8C379A000000000000000000000000000000000000000000000000000000000 DUP2 MSTORE PUSH1 0x4 ADD PUSH2 0x1070 SWAP1 PUSH2 0x4D6E JUMP JUMPDEST PUSH1 0x40 MLOAD DUP1 SWAP2 SUB SWAP1 REVERT JUMPDEST PUSH1 0x0 DUP2 PUSH1 0x11 ADD PUSH1 0x0 PUSH2 0x100 EXP DUP2 SLOAD DUP2 PUSH1 0xFF MUL NOT AND SWAP1 DUP4 ISZERO ISZERO MUL OR SWAP1 SSTORE POP PUSH1 0x0 DUP2 PUSH1 0x11 ADD PUSH1 0x2 PUSH2 0x100 EXP DUP2 SLOAD DUP2 PUSH1 0xFF MUL NOT AND SWAP1 DUP4 ISZERO ISZERO MUL OR SWAP1 SSTORE POP PUSH1 0x0 DUP2 PUSH1 0x11 ADD PUSH1 0x1 PUSH2 0x100 EXP DUP2 SLOAD DUP2 PUSH1 0xFF MUL NOT AND SWAP1 DUP4 ISZERO ISZERO MUL OR SWAP1 SSTORE POP DUP1 PUSH1 0x11 ADD PUSH1 0x3 SWAP1 SLOAD SWAP1 PUSH2 0x100 EXP SWAP1 DIV PUSH1 0xFF AND PUSH2 0x10F3 JUMPI PUSH2 0x10EE PUSH2 0x28C0 JUMP JUMPDEST PUSH2 0x1155 JUMP JUMPDEST PUSH1 0x40 MLOAD DUP1 PUSH1 0x60 ADD PUSH1 0x40 MSTORE DUP1 PUSH1 0x23 DUP2 MSTORE PUSH1 0x20 ADD PUSH2 0x545B PUSH1 0x23 SWAP2 CODECOPY DUP2 PUSH1 0x12 ADD SWAP1 DUP2 PUSH2 0x111C SWAP2 SWAP1 PUSH2 0x4BE4 JUMP JUMPDEST POP DUP1 PUSH1 0x4 ADD PUSH1 0x0 DUP2 SLOAD DUP1 SWAP3 SWAP2 SWAP1 PUSH2 0x1132 SWAP1 PUSH2 0x4961 JUMP JUMPDEST SWAP2 SWAP1 POP SSTORE POP PUSH1 0x0 DUP2 PUSH1 0x11 ADD PUSH1 0x3 PUSH2 0x100 EXP DUP2 SLOAD DUP2 PUSH1 0xFF MUL NOT AND SWAP1 DUP4 ISZERO ISZERO MUL OR SWAP1 SSTORE POP JUMPDEST POP JUMP JUMPDEST PUSH1 0x0 PUSH20 0xFFFFFFFFFFFFFFFFFFFFFFFFFFFFFFFFFFFFFFFF AND CALLER PUSH20 0xFFFFFFFFFFFFFFFFFFFFFFFFFFFFFFFFFFFFFFFF AND SUB PUSH2 0x11C7 JUMPI PUSH1 0x40 MLOAD PUSH32 0x8C379A000000000000000000000000000000000000000000000000000000000 DUP2 MSTORE PUSH1 0x4 ADD PUSH2 0x11BE SWAP1 PUSH2 0x423C JUMP JUMPDEST PUSH1 0x40 MLOAD DUP1 SWAP2 SUB SWAP1 REVERT JUMPDEST PUSH1 0x0 PUSH1 0x2 PUSH1 0x0 CALLER PUSH20 0xFFFFFFFFFFFFFFFFFFFFFFFFFFFFFFFFFFFFFFFF AND PUSH20 0xFFFFFFFFFFFFFFFFFFFFFFFFFFFFFFFFFFFFFFFF AND DUP2 MSTORE PUSH1 0x20 ADD SWAP1 DUP2 MSTORE PUSH1 0x20 ADD PUSH1 0x0 KECCAK256 SLOAD SUB PUSH2 0x1249 JUMPI PUSH1 0x40 MLOAD PUSH32 0x8C379A000000000000000000000000000000000000000000000000000000000 DUP2 MSTORE PUSH1 0x4 ADD PUSH2 0x1240 SWAP1 PUSH2 0x4D02 JUMP JUMPDEST PUSH1 0x40 MLOAD DUP1 SWAP2 SUB SWAP1 REVERT JUMPDEST PUSH1 0x0 PUSH1 0x3 PUSH1 0x0 PUSH1 0x2 PUSH1 0x0 CALLER PUSH20 0xFFFFFFFFFFFFFFFFFFFFFFFFFFFFFFFFFFFFFFFF AND PUSH20 0xFFFFFFFFFFFFFFFFFFFFFFFFFFFFFFFFFFFFFFFF AND DUP2 MSTORE PUSH1 0x20 ADD SWAP1 DUP2 MSTORE PUSH1 0x20 ADD PUSH1 0x0 KECCAK256 SLOAD DUP2 MSTORE PUSH1 0x20 ADD SWAP1 DUP2 MSTORE PUSH1 0x20 ADD PUSH1 0x0 KECCAK256 SWAP1 POP DUP1 PUSH1 0x11 ADD PUSH1 0x5 SWAP1 SLOAD SWAP1 PUSH2 0x100 EXP SWAP1 DIV PUSH1 0xFF AND ISZERO PUSH2 0x12F1 JUMPI PUSH1 0x40 MLOAD PUSH32 0x8C379A000000000000000000000000000000000000000000000000000000000 DUP2 MSTORE PUSH1 0x4 ADD PUSH2 0x12E8 SWAP1 PUSH2 0x4EDA JUMP JUMPDEST PUSH1 0x40 MLOAD DUP1 SWAP2 SUB SWAP1 REVERT JUMPDEST PUSH5 0x174876E800 DUP3 LT ISZERO DUP1 ISZERO PUSH2 0x130E JUMPI POP PUSH8 0xDE0B6B3A7640000 DUP3 GT ISZERO JUMPDEST PUSH2 0x134D JUMPI PUSH1 0x40 MLOAD PUSH32 0x8C379A000000000000000000000000000000000000000000000000000000000 DUP2 MSTORE PUSH1 0x4 ADD PUSH2 0x1344 SWAP1 PUSH2 0x4F46 JUMP JUMPDEST PUSH1 0x40 MLOAD DUP1 SWAP2 SUB SWAP1 REVERT JUMPDEST PUSH1 0x0 DUP3 GT DUP1 ISZERO PUSH2 0x1361 JUMPI POP DUP1 PUSH1 0x2 ADD SLOAD DUP3 GT ISZERO JUMPDEST PUSH2 0x13A0 JUMPI PUSH1 0x40 MLOAD PUSH32 0x8C379A000000000000000000000000000000000000000000000000000000000 DUP2 MSTORE PUSH1 0x4 ADD PUSH2 0x1397 SWAP1 PUSH2 0x4FB2 JUMP JUMPDEST PUSH1 0x40 MLOAD DUP1 SWAP2 SUB SWAP1 REVERT JUMPDEST DUP2 DUP2 PUSH1 0x2 ADD PUSH1 0x0 DUP3 DUP3 SLOAD PUSH2 0x13B4 SWAP2 SWAP1 PUSH2 0x4D8E JUMP JUMPDEST SWAP3 POP POP DUP2 SWAP1 SSTORE POP DUP1 PUSH1 0x11 ADD PUSH1 0x0 SWAP1 SLOAD SWAP1 PUSH2 0x100 EXP SWAP1 DIV PUSH1 0xFF AND DUP1 PUSH2 0x13E6 JUMPI POP DUP1 PUSH1 0x11 ADD PUSH1 0x2 SWAP1 SLOAD SWAP1 PUSH2 0x100 EXP SWAP1 DIV PUSH1 0xFF AND JUMPDEST ISZERO PUSH2 0x140B JUMPI DUP2 DUP2 PUSH1 0x6 ADD PUSH1 0x0 DUP3 DUP3 SLOAD PUSH2 0x13FF SWAP2 SWAP1 PUSH2 0x492D JUMP JUMPDEST SWAP3 POP POP DUP2 SWAP1 SSTORE POP PUSH2 0x1415 JUMP JUMPDEST DUP2 DUP2 PUSH1 0x6 ADD DUP2 SWAP1 SSTORE POP JUMPDEST PUSH1 0x1 DUP2 PUSH1 0x11 ADD PUSH1 0x5 PUSH2 0x100 EXP DUP2 SLOAD DUP2 PUSH1 0xFF MUL NOT AND SWAP1 DUP4 ISZERO ISZERO MUL OR SWAP1 SSTORE POP DUP1 PUSH1 0x5 ADD PUSH1 0x0 DUP2 SLOAD DUP1 SWAP3 SWAP2 SWAP1 PUSH2 0x1447 SWAP1 PUSH2 0x4961 JUMP JUMPDEST SWAP2 SWAP1 POP SSTORE POP DUP1 PUSH1 0x11 ADD PUSH1 0x0 SWAP1 SLOAD SWAP1 PUSH2 0x100 EXP SWAP1 DIV PUSH1 0xFF AND DUP1 PUSH2 0x1477 JUMPI POP DUP1 PUSH1 0x11 ADD PUSH1 0x2 SWAP1 SLOAD SWAP1 PUSH2 0x100 EXP SWAP1 DIV PUSH1 0xFF AND JUMPDEST ISZERO PUSH2 0x14C8 JUMPI PUSH1 0x40 MLOAD DUP1 PUSH1 0x40 ADD PUSH1 0x40 MSTORE DUP1 PUSH1 0xB DUP2 MSTORE PUSH1 0x20 ADD PUSH32 0x42657420506C616365642E000000000000000000000000000000000000000000 DUP2 MSTORE POP DUP2 PUSH1 0x12 ADD SWAP1 DUP2 PUSH2 0x14C2 SWAP2 SWAP1 PUSH2 0x4BE4 JUMP JUMPDEST POP PUSH2 0x14D2 JUMP JUMPDEST PUSH2 0x14D1 DUP2 PUSH2 0x29DF JUMP JUMPDEST JUMPDEST POP POP JUMP JUMPDEST PUSH1 0x0 PUSH20 0xFFFFFFFFFFFFFFFFFFFFFFFFFFFFFFFFFFFFFFFF AND CALLER PUSH20 0xFFFFFFFFFFFFFFFFFFFFFFFFFFFFFFFFFFFFFFFF AND SUB PUSH2 0x1545 JUMPI PUSH1 0x40 MLOAD PUSH32 0x8C379A000000000000000000000000000000000000000000000000000000000 DUP2 MSTORE PUSH1 0x4 ADD PUSH2 0x153C SWAP1 PUSH2 0x423C JUMP JUMPDEST PUSH1 0x40 MLOAD DUP1 SWAP2 SUB SWAP1 REVERT JUMPDEST PUSH1 0x0 PUSH1 0x2 PUSH1 0x0 CALLER PUSH20 0xFFFFFFFFFFFFFFFFFFFFFFFFFFFFFFFFFFFFFFFF AND PUSH20 0xFFFFFFFFFFFFFFFFFFFFFFFFFFFFFFFFFFFFFFFF AND DUP2 MSTORE PUSH1 0x20 ADD SWAP1 DUP2 MSTORE PUSH1 0x20 ADD PUSH1 0x0 KECCAK256 SLOAD SUB PUSH2 0x15C7 JUMPI PUSH1 0x40 MLOAD PUSH32 0x8C379A000000000000000000000000000000000000000000000000000000000 DUP2 MSTORE PUSH1 0x4 ADD PUSH2 0x15BE SWAP1 PUSH2 0x4D02 JUMP JUMPDEST PUSH1 0x40 MLOAD DUP1 SWAP2 SUB SWAP1 REVERT JUMPDEST PUSH1 0x0 PUSH1 0x3 PUSH1 0x0 PUSH1 0x2 PUSH1 0x0 CALLER PUSH20 0xFFFFFFFFFFFFFFFFFFFFFFFFFFFFFFFFFFFFFFFF AND PUSH20 0xFFFFFFFFFFFFFFFFFFFFFFFFFFFFFFFFFFFFFFFF AND DUP2 MSTORE PUSH1 0x20 ADD SWAP1 DUP2 MSTORE PUSH1 0x20 ADD PUSH1 0x0 KECCAK256 SLOAD DUP2 MSTORE PUSH1 0x20 ADD SWAP1 DUP2 MSTORE PUSH1 0x20 ADD PUSH1 0x0 KECCAK256 SWAP1 POP DUP1 PUSH1 0x11 ADD PUSH1 0x5 SWAP1 SLOAD SWAP1 PUSH2 0x100 EXP SWAP1 DIV PUSH1 0xFF AND PUSH2 0x166E JUMPI PUSH1 0x40 MLOAD PUSH32 0x8C379A000000000000000000000000000000000000000000000000000000000 DUP2 MSTORE PUSH1 0x4 ADD PUSH2 0x1665 SWAP1 PUSH2 0x4D6E JUMP JUMPDEST PUSH1 0x40 MLOAD DUP1 SWAP2 SUB SWAP1 REVERT JUMPDEST DUP1 PUSH1 0x11 ADD PUSH1 0x1 SWAP1 SLOAD SWAP1 PUSH2 0x100 EXP SWAP1 DIV PUSH1 0xFF AND PUSH2 0x16BF JUMPI PUSH1 0x40 MLOAD PUSH32 0x8C379A000000000000000000000000000000000000000000000000000000000 DUP2 MSTORE PUSH1 0x4 ADD PUSH2 0x16B6 SWAP1 PUSH2 0x501E JUMP JUMPDEST PUSH1 0x40 MLOAD DUP1 SWAP2 SUB SWAP1 REVERT JUMPDEST PUSH1 0x2 DUP2 PUSH1 0x6 ADD SLOAD PUSH2 0x16D0 SWAP2 SWAP1 PUSH2 0x4E5D JUMP JUMPDEST DUP2 PUSH1 0x7 ADD DUP2 SWAP1 SSTORE POP PUSH1 0x0 DUP2 PUSH1 0x7 ADD SLOAD GT DUP1 ISZERO PUSH2 0x16F4 JUMPI POP DUP1 PUSH1 0x2 ADD SLOAD DUP2 PUSH1 0x7 ADD SLOAD GT ISZERO JUMPDEST PUSH2 0x1733 JUMPI PUSH1 0x40 MLOAD PUSH32 0x8C379A000000000000000000000000000000000000000000000000000000000 DUP2 MSTORE PUSH1 0x4 ADD PUSH2 0x172A SWAP1 PUSH2 0x4FB2 JUMP JUMPDEST PUSH1 0x40 MLOAD DUP1 SWAP2 SUB SWAP1 REVERT JUMPDEST DUP1 PUSH1 0x7 ADD SLOAD DUP2 PUSH1 0x2 ADD PUSH1 0x0 DUP3 DUP3 SLOAD PUSH2 0x174B SWAP2 SWAP1 PUSH2 0x4D8E JUMP JUMPDEST SWAP3 POP POP DUP2 SWAP1 SSTORE POP PUSH1 0x40 MLOAD DUP1 PUSH1 0x40 ADD PUSH1 0x40 MSTORE DUP1 PUSH1 0xE DUP2 MSTORE PUSH1 0x20 ADD PUSH32 0x506C617965722773205475726E2E000000000000000000000000000000000000 DUP2 MSTORE POP DUP2 PUSH1 0x12 ADD SWAP1 DUP2 PUSH2 0x1798 SWAP2 SWAP1 PUSH2 0x4BE4 JUMP JUMPDEST POP PUSH1 0x0 DUP2 PUSH1 0x11 ADD PUSH1 0x1 PUSH2 0x100 EXP DUP2 SLOAD DUP2 PUSH1 0xFF MUL NOT AND SWAP1 DUP4 ISZERO ISZERO MUL OR SWAP1 SSTORE POP POP JUMP JUMPDEST PUSH1 0x60 DUP1 PUSH1 0x60 DUP1 PUSH1 0x60 DUP1 PUSH1 0x60 DUP1 PUSH1 0x60 DUP1 PUSH1 0x60 DUP1 PUSH1 0x0 PUSH1 0x3 PUSH1 0x0 PUSH1 0x2 PUSH1 0x0 CALLER PUSH20 0xFFFFFFFFFFFFFFFFFFFFFFFFFFFFFFFFFFFFFFFF AND PUSH20 0xFFFFFFFFFFFFFFFFFFFFFFFFFFFFFFFFFFFFFFFF AND DUP2 MSTORE PUSH1 0x20 ADD SWAP1 DUP2 MSTORE PUSH1 0x20 ADD PUSH1 0x0 KECCAK256 SLOAD DUP2 MSTORE PUSH1 0x20 ADD SWAP1 DUP2 MSTORE PUSH1 0x20 ADD PUSH1 0x0 KECCAK256 PUSH1 0x40 MLOAD DUP1 PUSH2 0x300 ADD PUSH1 0x40 MSTORE SWAP1 DUP2 PUSH1 0x0 DUP3 ADD SLOAD DUP2 MSTORE PUSH1 0x20 ADD PUSH1 0x1 DUP3 ADD PUSH1 0x0 SWAP1 SLOAD SWAP1 PUSH2 0x100 EXP SWAP1 DIV PUSH20 0xFFFFFFFFFFFFFFFFFFFFFFFFFFFFFFFFFFFFFFFF AND PUSH20 0xFFFFFFFFFFFFFFFFFFFFFFFFFFFFFFFFFFFFFFFF AND PUSH20 0xFFFFFFFFFFFFFFFFFFFFFFFFFFFFFFFFFFFFFFFF AND DUP2 MSTORE PUSH1 0x20 ADD PUSH1 0x2 DUP3 ADD SLOAD DUP2 MSTORE PUSH1 0x20 ADD PUSH1 0x3 DUP3 ADD SLOAD DUP2 MSTORE PUSH1 0x20 ADD PUSH1 0x4 DUP3 ADD SLOAD DUP2 MSTORE PUSH1 0x20 ADD PUSH1 0x5 DUP3 ADD SLOAD DUP2 MSTORE PUSH1 0x20 ADD PUSH1 0x6 DUP3 ADD SLOAD DUP2 MSTORE PUSH1 0x20 ADD PUSH1 0x7 DUP3 ADD SLOAD DUP2 MSTORE PUSH1 0x20 ADD PUSH1 0x8 DUP3 ADD SLOAD DUP2 MSTORE PUSH1 0x20 ADD PUSH1 0x9 DUP3 ADD SLOAD DUP2 MSTORE PUSH1 0x20 ADD PUSH1 0xA DUP3 ADD SLOAD DUP2 MSTORE PUSH1 0x20 ADD PUSH1 0xB DUP3 ADD SLOAD DUP2 MSTORE PUSH1 0x20 ADD PUSH1 0xC DUP3 ADD SLOAD DUP2 MSTORE PUSH1 0x20 ADD PUSH1 0xD DUP3 ADD SLOAD DUP2 MSTORE PUSH1 0x20 ADD PUSH1 0xE DUP3 ADD SLOAD DUP2 MSTORE PUSH1 0x20 ADD PUSH1 0xF DUP3 ADD SLOAD DUP2 MSTORE PUSH1 0x20 ADD PUSH1 0x10 DUP3 ADD SLOAD DUP2 MSTORE PUSH1 0x20 ADD PUSH1 0x11 DUP3 ADD PUSH1 0x0 SWAP1 SLOAD SWAP1 PUSH2 0x100 EXP SWAP1 DIV PUSH1 0xFF AND ISZERO ISZERO ISZERO ISZERO DUP2 MSTORE PUSH1 0x20 ADD PUSH1 0x11 DUP3 ADD PUSH1 0x1 SWAP1 SLOAD SWAP1 PUSH2 0x100 EXP SWAP1 DIV PUSH1 0xFF AND ISZERO ISZERO ISZERO ISZERO DUP2 MSTORE PUSH1 0x20 ADD PUSH1 0x11 DUP3 ADD PUSH1 0x2 SWAP1 SLOAD SWAP1 PUSH2 0x100 EXP SWAP1 DIV PUSH1 0xFF AND ISZERO ISZERO ISZERO ISZERO DUP2 MSTORE PUSH1 0x20 ADD PUSH1 0x11 DUP3 ADD PUSH1 0x3 SWAP1 SLOAD SWAP1 PUSH2 0x100 EXP SWAP1 DIV PUSH1 0xFF AND ISZERO ISZERO ISZERO ISZERO DUP2 MSTORE PUSH1 0x20 ADD PUSH1 0x11 DUP3 ADD PUSH1 0x4 SWAP1 SLOAD SWAP1 PUSH2 0x100 EXP SWAP1 DIV PUSH1 0xFF AND ISZERO ISZERO ISZERO ISZERO DUP2 MSTORE PUSH1 0x20 ADD PUSH1 0x11 DUP3 ADD PUSH1 0x5 SWAP1 SLOAD SWAP1 PUSH2 0x100 EXP SWAP1 DIV PUSH1 0xFF AND ISZERO ISZERO ISZERO ISZERO DUP2 MSTORE PUSH1 0x20 ADD PUSH1 0x12 DUP3 ADD DUP1 SLOAD PUSH2 0x19D3 SWAP1 PUSH2 0x4A07 JUMP JUMPDEST DUP1 PUSH1 0x1F ADD PUSH1 0x20 DUP1 SWAP2 DIV MUL PUSH1 0x20 ADD PUSH1 0x40 MLOAD SWAP1 DUP2 ADD PUSH1 0x40 MSTORE DUP1 SWAP3 SWAP2 SWAP1 DUP2 DUP2 MSTORE PUSH1 0x20 ADD DUP3 DUP1 SLOAD PUSH2 0x19FF SWAP1 PUSH2 0x4A07 JUMP JUMPDEST DUP1 ISZERO PUSH2 0x1A4C JUMPI DUP1 PUSH1 0x1F LT PUSH2 0x1A21 JUMPI PUSH2 0x100 DUP1 DUP4 SLOAD DIV MUL DUP4 MSTORE SWAP2 PUSH1 0x20 ADD SWAP2 PUSH2 0x1A4C JUMP JUMPDEST DUP3 ADD SWAP2 SWAP1 PUSH1 0x0 MSTORE PUSH1 0x20 PUSH1 0x0 KECCAK256 SWAP1 JUMPDEST DUP2 SLOAD DUP2 MSTORE SWAP1 PUSH1 0x1 ADD SWAP1 PUSH1 0x20 ADD DUP1 DUP4 GT PUSH2 0x1A2F JUMPI DUP3 SWAP1 SUB PUSH1 0x1F AND DUP3 ADD SWAP2 JUMPDEST POP POP POP POP POP DUP2 MSTORE POP POP SWAP1 POP DUP1 PUSH2 0x2E0 ADD MLOAD PUSH1 0x40 MLOAD PUSH1 0x20 ADD PUSH2 0x1A6D SWAP2 SWAP1 PUSH2 0x50A0 JUMP JUMPDEST PUSH1 0x40 MLOAD PUSH1 0x20 DUP2 DUP4 SUB SUB DUP2 MSTORE SWAP1 PUSH1 0x40 MSTORE SWAP13 POP PUSH2 0x1A8C DUP2 PUSH2 0x100 ADD MLOAD PUSH2 0x2FAD JUMP JUMPDEST PUSH1 0x40 MLOAD PUSH1 0x20 ADD PUSH2 0x1A9C SWAP2 SWAP1 PUSH2 0x50A0 JUMP JUMPDEST PUSH1 0x40 MLOAD PUSH1 0x20 DUP2 DUP4 SUB SUB DUP2 MSTORE SWAP1 PUSH1 0x40 MSTORE SWAP12 POP PUSH2 0x1ABB DUP2 PUSH2 0x120 ADD MLOAD PUSH2 0x2FAD JUMP JUMPDEST PUSH1 0x40 MLOAD PUSH1 0x20 ADD PUSH2 0x1ACB SWAP2 SWAP1 PUSH2 0x50A0 JUMP JUMPDEST PUSH1 0x40 MLOAD PUSH1 0x20 DUP2 DUP4 SUB SUB DUP2 MSTORE SWAP1 PUSH1 0x40 MSTORE SWAP11 POP PUSH2 0x1AEA DUP2 PUSH2 0x140 ADD MLOAD PUSH2 0x2FAD JUMP JUMPDEST PUSH1 0x40 MLOAD PUSH1 0x20 ADD PUSH2 0x1AFA SWAP2 SWAP1 PUSH2 0x50A0 JUMP JUMPDEST PUSH1 0x40 MLOAD PUSH1 0x20 DUP2 DUP4 SUB SUB DUP2 MSTORE SWAP1 PUSH1 0x40 MSTORE SWAP10 POP PUSH2 0x1B19 DUP2 PUSH2 0x160 ADD MLOAD PUSH2 0x2FAD JUMP JUMPDEST PUSH1 0x40 MLOAD PUSH1 0x20 ADD PUSH2 0x1B29 SWAP2 SWAP1 PUSH2 0x50EC JUMP JUMPDEST PUSH1 0x40 MLOAD PUSH1 0x20 DUP2 DUP4 SUB SUB DUP2 MSTORE SWAP1 PUSH1 0x40 MSTORE SWAP9 POP PUSH2 0x1B48 DUP2 PUSH2 0x180 ADD MLOAD PUSH2 0x2FAD JUMP JUMPDEST PUSH1 0x40 MLOAD PUSH1 0x20 ADD PUSH2 0x1B58 SWAP2 SWAP1 PUSH2 0x50EC JUMP JUMPDEST PUSH1 0x40 MLOAD PUSH1 0x20 DUP2 DUP4 SUB SUB DUP2 MSTORE SWAP1 PUSH1 0x40 MSTORE SWAP8 POP PUSH2 0x1B77 DUP2 PUSH2 0x1A0 ADD MLOAD PUSH2 0x2FAD JUMP JUMPDEST PUSH1 0x40 MLOAD PUSH1 0x20 ADD PUSH2 0x1B87 SWAP2 SWAP1 PUSH2 0x50A0 JUMP JUMPDEST PUSH1 0x40 MLOAD PUSH1 0x20 DUP2 DUP4 SUB SUB DUP2 MSTORE SWAP1 PUSH1 0x40 MSTORE SWAP7 POP PUSH2 0x1BA6 DUP2 PUSH2 0x1C0 ADD MLOAD PUSH2 0x2FAD JUMP JUMPDEST PUSH1 0x40 MLOAD PUSH1 0x20 ADD PUSH2 0x1BB6 SWAP2 SWAP1 PUSH2 0x50A0 JUMP JUMPDEST PUSH1 0x40 MLOAD PUSH1 0x20 DUP2 DUP4 SUB SUB DUP2 MSTORE SWAP1 PUSH1 0x40 MSTORE SWAP6 POP PUSH2 0x1BD5 DUP2 PUSH2 0x1E0 ADD MLOAD PUSH2 0x2FAD JUMP JUMPDEST PUSH1 0x40 MLOAD PUSH1 0x20 ADD PUSH2 0x1BE5 SWAP2 SWAP1 PUSH2 0x50A0 JUMP JUMPDEST PUSH1 0x40 MLOAD PUSH1 0x20 DUP2 DUP4 SUB SUB DUP2 MSTORE SWAP1 PUSH1 0x40 MSTORE SWAP5 POP PUSH2 0x1C04 DUP2 PUSH2 0x200 ADD MLOAD PUSH2 0x2FAD JUMP JUMPDEST PUSH1 0x40 MLOAD PUSH1 0x20 ADD PUSH2 0x1C14 SWAP2 SWAP1 PUSH2 0x50EC JUMP JUMPDEST PUSH1 0x40 MLOAD PUSH1 0x20 DUP2 DUP4 SUB SUB DUP2 MSTORE SWAP1 PUSH1 0x40 MSTORE SWAP4 POP PUSH2 0x1C32 DUP2 PUSH1 0xC0 ADD MLOAD PUSH2 0x2FAD JUMP JUMPDEST PUSH1 0x40 MLOAD PUSH1 0x20 ADD PUSH2 0x1C42 SWAP2 SWAP1 PUSH2 0x5138 JUMP JUMPDEST PUSH1 0x40 MLOAD PUSH1 0x20 DUP2 DUP4 SUB SUB DUP2 MSTORE SWAP1 PUSH1 0x40 MSTORE SWAP3 POP PUSH2 0x1C60 DUP2 PUSH1 0x40 ADD MLOAD PUSH2 0x2FAD JUMP JUMPDEST PUSH1 0x40 MLOAD PUSH1 0x20 ADD PUSH2 0x1C70 SWAP2 SWAP1 PUSH2 0x5138 JUMP JUMPDEST PUSH1 0x40 MLOAD PUSH1 0x20 DUP2 DUP4 SUB SUB DUP2 MSTORE SWAP1 PUSH1 0x40 MSTORE SWAP2 POP POP SWAP1 SWAP2 SWAP3 SWAP4 SWAP5 SWAP6 SWAP7 SWAP8 SWAP9 SWAP10 SWAP11 SWAP12 JUMP JUMPDEST PUSH2 0x1C98 PUSH2 0x40AB JUMP JUMPDEST PUSH1 0x3 PUSH1 0x0 PUSH1 0x2 PUSH1 0x0 CALLER PUSH20 0xFFFFFFFFFFFFFFFFFFFFFFFFFFFFFFFFFFFFFFFF AND PUSH20 0xFFFFFFFFFFFFFFFFFFFFFFFFFFFFFFFFFFFFFFFF AND DUP2 MSTORE PUSH1 0x20 ADD SWAP1 DUP2 MSTORE PUSH1 0x20 ADD PUSH1 0x0 KECCAK256 SLOAD DUP2 MSTORE PUSH1 0x20 ADD SWAP1 DUP2 MSTORE PUSH1 0x20 ADD PUSH1 0x0 KECCAK256 PUSH1 0x40 MLOAD DUP1 PUSH2 0x300 ADD PUSH1 0x40 MSTORE SWAP1 DUP2 PUSH1 0x0 DUP3 ADD SLOAD DUP2 MSTORE PUSH1 0x20 ADD PUSH1 0x1 DUP3 ADD PUSH1 0x0 SWAP1 SLOAD SWAP1 PUSH2 0x100 EXP SWAP1 DIV PUSH20 0xFFFFFFFFFFFFFFFFFFFFFFFFFFFFFFFFFFFFFFFF AND PUSH20 0xFFFFFFFFFFFFFFFFFFFFFFFFFFFFFFFFFFFFFFFF AND PUSH20 0xFFFFFFFFFFFFFFFFFFFFFFFFFFFFFFFFFFFFFFFF AND DUP2 MSTORE PUSH1 0x20 ADD PUSH1 0x2 DUP3 ADD SLOAD DUP2 MSTORE PUSH1 0x20 ADD PUSH1 0x3 DUP3 ADD SLOAD DUP2 MSTORE PUSH1 0x20 ADD PUSH1 0x4 DUP3 ADD SLOAD DUP2 MSTORE PUSH1 0x20 ADD PUSH1 0x5 DUP3 ADD SLOAD DUP2 MSTORE PUSH1 0x20 ADD PUSH1 0x6 DUP3 ADD SLOAD DUP2 MSTORE PUSH1 0x20 ADD PUSH1 0x7 DUP3 ADD SLOAD DUP2 MSTORE PUSH1 0x20 ADD PUSH1 0x8 DUP3 ADD SLOAD DUP2 MSTORE PUSH1 0x20 ADD PUSH1 0x9 DUP3 ADD SLOAD DUP2 MSTORE PUSH1 0x20 ADD PUSH1 0xA DUP3 ADD SLOAD DUP2 MSTORE PUSH1 0x20 ADD PUSH1 0xB DUP3 ADD SLOAD DUP2 MSTORE PUSH1 0x20 ADD PUSH1 0xC DUP3 ADD SLOAD DUP2 MSTORE PUSH1 0x20 ADD PUSH1 0xD DUP3 ADD SLOAD DUP2 MSTORE PUSH1 0x20 ADD PUSH1 0xE DUP3 ADD SLOAD DUP2 MSTORE PUSH1 0x20 ADD PUSH1 0xF DUP3 ADD SLOAD DUP2 MSTORE PUSH1 0x20 ADD PUSH1 0x10 DUP3 ADD SLOAD DUP2 MSTORE PUSH1 0x20 ADD PUSH1 0x11 DUP3 ADD PUSH1 0x0 SWAP1 SLOAD SWAP1 PUSH2 0x100 EXP SWAP1 DIV PUSH1 0xFF AND ISZERO ISZERO ISZERO ISZERO DUP2 MSTORE PUSH1 0x20 ADD PUSH1 0x11 DUP3 ADD PUSH1 0x1 SWAP1 SLOAD SWAP1 PUSH2 0x100 EXP SWAP1 DIV PUSH1 0xFF AND ISZERO ISZERO ISZERO ISZERO DUP2 MSTORE PUSH1 0x20 ADD PUSH1 0x11 DUP3 ADD PUSH1 0x2 SWAP1 SLOAD SWAP1 PUSH2 0x100 EXP SWAP1 DIV PUSH1 0xFF AND ISZERO ISZERO ISZERO ISZERO DUP2 MSTORE PUSH1 0x20 ADD PUSH1 0x11 DUP3 ADD PUSH1 0x3 SWAP1 SLOAD SWAP1 PUSH2 0x100 EXP SWAP1 DIV PUSH1 0xFF AND ISZERO ISZERO ISZERO ISZERO DUP2 MSTORE PUSH1 0x20 ADD PUSH1 0x11 DUP3 ADD PUSH1 0x4 SWAP1 SLOAD SWAP1 PUSH2 0x100 EXP SWAP1 DIV PUSH1 0xFF AND ISZERO ISZERO ISZERO ISZERO DUP2 MSTORE PUSH1 0x20 ADD PUSH1 0x11 DUP3 ADD PUSH1 0x5 SWAP1 SLOAD SWAP1 PUSH2 0x100 EXP SWAP1 DIV PUSH1 0xFF AND ISZERO ISZERO ISZERO ISZERO DUP2 MSTORE PUSH1 0x20 ADD PUSH1 0x12 DUP3 ADD DUP1 SLOAD PUSH2 0x1E9E SWAP1 PUSH2 0x4A07 JUMP JUMPDEST DUP1 PUSH1 0x1F ADD PUSH1 0x20 DUP1 SWAP2 DIV MUL PUSH1 0x20 ADD PUSH1 0x40 MLOAD SWAP1 DUP2 ADD PUSH1 0x40 MSTORE DUP1 SWAP3 SWAP2 SWAP1 DUP2 DUP2 MSTORE PUSH1 0x20 ADD DUP3 DUP1 SLOAD PUSH2 0x1ECA SWAP1 PUSH2 0x4A07 JUMP JUMPDEST DUP1 ISZERO PUSH2 0x1F17 JUMPI DUP1 PUSH1 0x1F LT PUSH2 0x1EEC JUMPI PUSH2 0x100 DUP1 DUP4 SLOAD DIV MUL DUP4 MSTORE SWAP2 PUSH1 0x20 ADD SWAP2 PUSH2 0x1F17 JUMP JUMPDEST DUP3 ADD SWAP2 SWAP1 PUSH1 0x0 MSTORE PUSH1 0x20 PUSH1 0x0 KECCAK256 SWAP1 JUMPDEST DUP2 SLOAD DUP2 MSTORE SWAP1 PUSH1 0x1 ADD SWAP1 PUSH1 0x20 ADD DUP1 DUP4 GT PUSH2 0x1EFA JUMPI DUP3 SWAP1 SUB PUSH1 0x1F AND DUP3 ADD SWAP2 JUMPDEST POP POP POP POP POP DUP2 MSTORE POP POP SWAP1 POP SWAP1 JUMP JUMPDEST PUSH1 0x0 PUSH20 0xFFFFFFFFFFFFFFFFFFFFFFFFFFFFFFFFFFFFFFFF AND CALLER PUSH20 0xFFFFFFFFFFFFFFFFFFFFFFFFFFFFFFFFFFFFFFFF AND SUB PUSH2 0x1F94 JUMPI PUSH1 0x40 MLOAD PUSH32 0x8C379A000000000000000000000000000000000000000000000000000000000 DUP2 MSTORE PUSH1 0x4 ADD PUSH2 0x1F8B SWAP1 PUSH2 0x423C JUMP JUMPDEST PUSH1 0x40 MLOAD DUP1 SWAP2 SUB SWAP1 REVERT JUMPDEST PUSH1 0x0 PUSH1 0x2 PUSH1 0x0 CALLER PUSH20 0xFFFFFFFFFFFFFFFFFFFFFFFFFFFFFFFFFFFFFFFF AND PUSH20 0xFFFFFFFFFFFFFFFFFFFFFFFFFFFFFFFFFFFFFFFF AND DUP2 MSTORE PUSH1 0x20 ADD SWAP1 DUP2 MSTORE PUSH1 0x20 ADD PUSH1 0x0 KECCAK256 SLOAD SUB PUSH2 0x2016 JUMPI PUSH1 0x40 MLOAD PUSH32 0x8C379A000000000000000000000000000000000000000000000000000000000 DUP2 MSTORE PUSH1 0x4 ADD PUSH2 0x200D SWAP1 PUSH2 0x4D02 JUMP JUMPDEST PUSH1 0x40 MLOAD DUP1 SWAP2 SUB SWAP1 REVERT JUMPDEST PUSH1 0x0 PUSH1 0x3 PUSH1 0x0 PUSH1 0x2 PUSH1 0x0 CALLER PUSH20 0xFFFFFFFFFFFFFFFFFFFFFFFFFFFFFFFFFFFFFFFF AND PUSH20 0xFFFFFFFFFFFFFFFFFFFFFFFFFFFFFFFFFFFFFFFF AND DUP2 MSTORE PUSH1 0x20 ADD SWAP1 DUP2 MSTORE PUSH1 0x20 ADD PUSH1 0x0 KECCAK256 SLOAD DUP2 MSTORE PUSH1 0x20 ADD SWAP1 DUP2 MSTORE PUSH1 0x20 ADD PUSH1 0x0 KECCAK256 PUSH1 0x40 MLOAD DUP1 PUSH2 0x300 ADD PUSH1 0x40 MSTORE SWAP1 DUP2 PUSH1 0x0 DUP3 ADD SLOAD DUP2 MSTORE PUSH1 0x20 ADD PUSH1 0x1 DUP3 ADD PUSH1 0x0 SWAP1 SLOAD SWAP1 PUSH2 0x100 EXP SWAP1 DIV PUSH20 0xFFFFFFFFFFFFFFFFFFFFFFFFFFFFFFFFFFFFFFFF AND PUSH20 0xFFFFFFFFFFFFFFFFFFFFFFFFFFFFFFFFFFFFFFFF AND PUSH20 0xFFFFFFFFFFFFFFFFFFFFFFFFFFFFFFFFFFFFFFFF AND DUP2 MSTORE PUSH1 0x20 ADD PUSH1 0x2 DUP3 ADD SLOAD DUP2 MSTORE PUSH1 0x20 ADD PUSH1 0x3 DUP3 ADD SLOAD DUP2 MSTORE PUSH1 0x20 ADD PUSH1 0x4 DUP3 ADD SLOAD DUP2 MSTORE PUSH1 0x20 ADD PUSH1 0x5 DUP3 ADD SLOAD DUP2 MSTORE PUSH1 0x20 ADD PUSH1 0x6 DUP3 ADD SLOAD DUP2 MSTORE PUSH1 0x20 ADD PUSH1 0x7 DUP3 ADD SLOAD DUP2 MSTORE PUSH1 0x20 ADD PUSH1 0x8 DUP3 ADD SLOAD DUP2 MSTORE PUSH1 0x20 ADD PUSH1 0x9 DUP3 ADD SLOAD DUP2 MSTORE PUSH1 0x20 ADD PUSH1 0xA DUP3 ADD SLOAD DUP2 MSTORE PUSH1 0x20 ADD PUSH1 0xB DUP3 ADD SLOAD DUP2 MSTORE PUSH1 0x20 ADD PUSH1 0xC DUP3 ADD SLOAD DUP2 MSTORE PUSH1 0x20 ADD PUSH1 0xD DUP3 ADD SLOAD DUP2 MSTORE PUSH1 0x20 ADD PUSH1 0xE DUP3 ADD SLOAD DUP2 MSTORE PUSH1 0x20 ADD PUSH1 0xF DUP3 ADD SLOAD DUP2 MSTORE PUSH1 0x20 ADD PUSH1 0x10 DUP3 ADD SLOAD DUP2 MSTORE PUSH1 0x20 ADD PUSH1 0x11 DUP3 ADD PUSH1 0x0 SWAP1 SLOAD SWAP1 PUSH2 0x100 EXP SWAP1 DIV PUSH1 0xFF AND ISZERO ISZERO ISZERO ISZERO DUP2 MSTORE PUSH1 0x20 ADD PUSH1 0x11 DUP3 ADD PUSH1 0x1 SWAP1 SLOAD SWAP1 PUSH2 0x100 EXP SWAP1 DIV PUSH1 0xFF AND ISZERO ISZERO ISZERO ISZERO DUP2 MSTORE PUSH1 0x20 ADD PUSH1 0x11 DUP3 ADD PUSH1 0x2 SWAP1 SLOAD SWAP1 PUSH2 0x100 EXP SWAP1 DIV PUSH1 0xFF AND ISZERO ISZERO ISZERO ISZERO DUP2 MSTORE PUSH1 0x20 ADD PUSH1 0x11 DUP3 ADD PUSH1 0x3 SWAP1 SLOAD SWAP1 PUSH2 0x100 EXP SWAP1 DIV PUSH1 0xFF AND ISZERO ISZERO ISZERO ISZERO DUP2 MSTORE PUSH1 0x20 ADD PUSH1 0x11 DUP3 ADD PUSH1 0x4 SWAP1 SLOAD SWAP1 PUSH2 0x100 EXP SWAP1 DIV PUSH1 0xFF AND ISZERO ISZERO ISZERO ISZERO DUP2 MSTORE PUSH1 0x20 ADD PUSH1 0x11 DUP3 ADD PUSH1 0x5 SWAP1 SLOAD SWAP1 PUSH2 0x100 EXP SWAP1 DIV PUSH1 0xFF AND ISZERO ISZERO ISZERO ISZERO DUP2 MSTORE PUSH1 0x20 ADD PUSH1 0x12 DUP3 ADD DUP1 SLOAD PUSH2 0x221E SWAP1 PUSH2 0x4A07 JUMP JUMPDEST DUP1 PUSH1 0x1F ADD PUSH1 0x20 DUP1 SWAP2 DIV MUL PUSH1 0x20 ADD PUSH1 0x40 MLOAD SWAP1 DUP2 ADD PUSH1 0x40 MSTORE DUP1 SWAP3 SWAP2 SWAP1 DUP2 DUP2 MSTORE PUSH1 0x20 ADD DUP3 DUP1 SLOAD PUSH2 0x224A SWAP1 PUSH2 0x4A07 JUMP JUMPDEST DUP1 ISZERO PUSH2 0x2297 JUMPI DUP1 PUSH1 0x1F LT PUSH2 0x226C JUMPI PUSH2 0x100 DUP1 DUP4 SLOAD DIV MUL DUP4 MSTORE SWAP2 PUSH1 0x20 ADD SWAP2 PUSH2 0x2297 JUMP JUMPDEST DUP3 ADD SWAP2 SWAP1 PUSH1 0x0 MSTORE PUSH1 0x20 PUSH1 0x0 KECCAK256 SWAP1 JUMPDEST DUP2 SLOAD DUP2 MSTORE SWAP1 PUSH1 0x1 ADD SWAP1 PUSH1 0x20 ADD DUP1 DUP4 GT PUSH2 0x227A JUMPI DUP3 SWAP1 SUB PUSH1 0x1F AND DUP3 ADD SWAP2 JUMPDEST POP POP POP POP POP DUP2 MSTORE POP POP SWAP1 POP DUP1 PUSH2 0x2C0 ADD MLOAD ISZERO PUSH2 0x22E8 JUMPI PUSH1 0x40 MLOAD PUSH32 0x8C379A000000000000000000000000000000000000000000000000000000000 DUP2 MSTORE PUSH1 0x4 ADD PUSH2 0x22DF SWAP1 PUSH2 0x4EDA JUMP JUMPDEST PUSH1 0x40 MLOAD DUP1 SWAP2 SUB SWAP1 REVERT JUMPDEST PUSH1 0x0 DUP2 PUSH1 0x40 ADD MLOAD SWAP1 POP PUSH1 0x0 SELFBALANCE LT ISZERO DUP1 ISZERO PUSH2 0x2305 JUMPI POP DUP2 PUSH1 0x40 ADD MLOAD SELFBALANCE LT JUMPDEST ISZERO PUSH2 0x230E JUMPI SELFBALANCE SWAP1 POP JUMPDEST DUP1 SELFBALANCE LT ISZERO PUSH2 0x231F JUMPI PUSH2 0x231E PUSH2 0x516D JUMP JUMPDEST JUMPDEST PUSH2 0x2328 CALLER PUSH2 0x307B JUMP JUMPDEST CALLER PUSH20 0xFFFFFFFFFFFFFFFFFFFFFFFFFFFFFFFFFFFFFFFF AND PUSH2 0x8FC DUP3 SWAP1 DUP2 ISZERO MUL SWAP1 PUSH1 0x40 MLOAD PUSH1 0x0 PUSH1 0x40 MLOAD DUP1 DUP4 SUB DUP2 DUP6 DUP9 DUP9 CALL SWAP4 POP POP POP POP ISZERO DUP1 ISZERO PUSH2 0x236E JUMPI RETURNDATASIZE PUSH1 0x0 DUP1 RETURNDATACOPY RETURNDATASIZE PUSH1 0x0 REVERT JUMPDEST POP PUSH2 0x2378 CALLER PUSH2 0x3342 JUMP JUMPDEST PUSH1 0x0 PUSH1 0x2 PUSH1 0x0 CALLER PUSH20 0xFFFFFFFFFFFFFFFFFFFFFFFFFFFFFFFFFFFFFFFF AND PUSH20 0xFFFFFFFFFFFFFFFFFFFFFFFFFFFFFFFFFFFFFFFF AND DUP2 MSTORE PUSH1 0x20 ADD SWAP1 DUP2 MSTORE PUSH1 0x20 ADD PUSH1 0x0 KECCAK256 SLOAD EQ PUSH2 0x23C8 JUMPI PUSH2 0x23C7 PUSH2 0x516D JUMP JUMPDEST JUMPDEST DUP1 CALLER PUSH20 0xFFFFFFFFFFFFFFFFFFFFFFFFFFFFFFFFFFFFFFFF AND DUP4 PUSH1 0x0 ADD MLOAD PUSH32 0x250EFCB6BE2A0AC5605D1CF71328B5851470F02F783CE2DF316489C41BA96EDD PUSH1 0x40 MLOAD PUSH1 0x40 MLOAD DUP1 SWAP2 SUB SWAP1 LOG4 POP POP JUMP JUMPDEST PUSH1 0x0 PUSH20 0xFFFFFFFFFFFFFFFFFFFFFFFFFFFFFFFFFFFFFFFF AND CALLER PUSH20 0xFFFFFFFFFFFFFFFFFFFFFFFFFFFFFFFFFFFFFFFF AND SUB PUSH2 0x2484 JUMPI PUSH1 0x40 MLOAD PUSH32 0x8C379A000000000000000000000000000000000000000000000000000000000 DUP2 MSTORE PUSH1 0x4 ADD PUSH2 0x247B SWAP1 PUSH2 0x423C JUMP JUMPDEST PUSH1 0x40 MLOAD DUP1 SWAP2 SUB SWAP1 REVERT JUMPDEST PUSH1 0x0 PUSH1 0x2 PUSH1 0x0 CALLER PUSH20 0xFFFFFFFFFFFFFFFFFFFFFFFFFFFFFFFFFFFFFFFF AND PUSH20 0xFFFFFFFFFFFFFFFFFFFFFFFFFFFFFFFFFFFFFFFF AND DUP2 MSTORE PUSH1 0x20 ADD SWAP1 DUP2 MSTORE PUSH1 0x20 ADD PUSH1 0x0 KECCAK256 SLOAD SUB PUSH2 0x2506 JUMPI PUSH1 0x40 MLOAD PUSH32 0x8C379A000000000000000000000000000000000000000000000000000000000 DUP2 MSTORE PUSH1 0x4 ADD PUSH2 0x24FD SWAP1 PUSH2 0x4D02 JUMP JUMPDEST PUSH1 0x40 MLOAD DUP1 SWAP2 SUB SWAP1 REVERT JUMPDEST PUSH1 0x0 PUSH1 0x3 PUSH1 0x0 PUSH1 0x2 PUSH1 0x0 CALLER PUSH20 0xFFFFFFFFFFFFFFFFFFFFFFFFFFFFFFFFFFFFFFFF AND PUSH20 0xFFFFFFFFFFFFFFFFFFFFFFFFFFFFFFFFFFFFFFFF AND DUP2 MSTORE PUSH1 0x20 ADD SWAP1 DUP2 MSTORE PUSH1 0x20 ADD PUSH1 0x0 KECCAK256 SLOAD DUP2 MSTORE PUSH1 0x20 ADD SWAP1 DUP2 MSTORE PUSH1 0x20 ADD PUSH1 0x0 KECCAK256 SWAP1 POP DUP1 PUSH1 0x11 ADD PUSH1 0x5 SWAP1 SLOAD SWAP1 PUSH2 0x100 EXP SWAP1 DIV PUSH1 0xFF AND PUSH2 0x25AD JUMPI PUSH1 0x40 MLOAD PUSH32 0x8C379A000000000000000000000000000000000000000000000000000000000 DUP2 MSTORE PUSH1 0x4 ADD PUSH2 0x25A4 SWAP1 PUSH2 0x4D6E JUMP JUMPDEST PUSH1 0x40 MLOAD DUP1 SWAP2 SUB SWAP1 REVERT JUMPDEST DUP1 PUSH1 0x11 ADD PUSH1 0x0 SWAP1 SLOAD SWAP1 PUSH2 0x100 EXP SWAP1 DIV PUSH1 0xFF AND PUSH2 0x25FE JUMPI PUSH1 0x40 MLOAD PUSH32 0x8C379A000000000000000000000000000000000000000000000000000000000 DUP2 MSTORE PUSH1 0x4 ADD PUSH2 0x25F5 SWAP1 PUSH2 0x51E8 JUMP JUMPDEST PUSH1 0x40 MLOAD DUP1 SWAP2 SUB SWAP1 REVERT JUMPDEST PUSH1 0x0 DUP2 PUSH1 0x11 ADD PUSH1 0x2 PUSH2 0x100 EXP DUP2 SLOAD DUP2 PUSH1 0xFF MUL NOT AND SWAP1 DUP4 ISZERO ISZERO MUL OR SWAP1 SSTORE POP PUSH1 0x0 DUP2 PUSH1 0x11 ADD PUSH1 0x1 PUSH2 0x100 EXP DUP2 SLOAD DUP2 PUSH1 0xFF MUL NOT AND SWAP1 DUP4 ISZERO ISZERO MUL OR SWAP1 SSTORE POP PUSH1 0x0 DUP2 PUSH1 0x11 ADD PUSH1 0x5 PUSH2 0x100 EXP DUP2 SLOAD DUP2 PUSH1 0xFF MUL NOT AND SWAP1 DUP4 ISZERO ISZERO MUL OR SWAP1 SSTORE POP PUSH2 0x2662 DUP2 PUSH1 0x6 ADD SLOAD PUSH2 0x1158 JUMP JUMPDEST PUSH1 0x0 DUP2 PUSH1 0x11 ADD PUSH1 0x0 PUSH2 0x100 EXP DUP2 SLOAD DUP2 PUSH1 0xFF MUL NOT AND SWAP1 DUP4 ISZERO ISZERO MUL OR SWAP1 SSTORE POP PUSH2 0x2687 PUSH2 0x26FE JUMP JUMPDEST DUP2 PUSH1 0xA ADD DUP2 SWAP1 SSTORE POP PUSH1 0x1 DUP2 PUSH1 0xA ADD SLOAD EQ DUP1 ISZERO PUSH2 0x26A7 JUMPI POP PUSH1 0xB DUP2 PUSH1 0xB ADD SLOAD LT JUMPDEST ISZERO PUSH2 0x26D4 JUMPI PUSH1 0xB DUP2 PUSH1 0xA ADD DUP2 SWAP1 SSTORE POP PUSH1 0x1 DUP2 PUSH1 0x11 ADD PUSH1 0x4 PUSH2 0x100 EXP DUP2 SLOAD DUP2 PUSH1 0xFF MUL NOT AND SWAP1 DUP4 ISZERO ISZERO MUL OR SWAP1 SSTORE POP JUMPDEST DUP1 PUSH1 0xA ADD SLOAD DUP2 PUSH1 0xB ADD PUSH1 0x0 DUP3 DUP3 SLOAD PUSH2 0x26EC SWAP2 SWAP1 PUSH2 0x492D JUMP JUMPDEST SWAP3 POP POP DUP2 SWAP1 SSTORE POP PUSH2 0x26FB PUSH2 0x28C0 JUMP JUMPDEST POP JUMP JUMPDEST PUSH1 0x0 PUSH2 0x2708 PUSH2 0x35FC JUMP JUMPDEST SWAP1 POP PUSH1 0xA DUP2 GT ISZERO PUSH2 0x2718 JUMPI PUSH1 0xA SWAP1 POP JUMPDEST SWAP1 JUMP JUMPDEST PUSH1 0x0 PUSH1 0x3 PUSH1 0x0 PUSH1 0x2 PUSH1 0x0 CALLER PUSH20 0xFFFFFFFFFFFFFFFFFFFFFFFFFFFFFFFFFFFFFFFF AND PUSH20 0xFFFFFFFFFFFFFFFFFFFFFFFFFFFFFFFFFFFFFFFF AND DUP2 MSTORE PUSH1 0x20 ADD SWAP1 DUP2 MSTORE PUSH1 0x20 ADD PUSH1 0x0 KECCAK256 SLOAD DUP2 MSTORE PUSH1 0x20 ADD SWAP1 DUP2 MSTORE PUSH1 0x20 ADD PUSH1 0x0 KECCAK256 SWAP1 POP PUSH1 0x15 DUP2 PUSH1 0xB ADD SLOAD GT ISZERO PUSH2 0x2875 JUMPI PUSH1 0x40 MLOAD DUP1 PUSH1 0x40 ADD PUSH1 0x40 MSTORE DUP1 PUSH1 0xC DUP2 MSTORE PUSH1 0x20 ADD PUSH32 0x506C6179657220427573742E0000000000000000000000000000000000000000 DUP2 MSTORE POP DUP2 PUSH1 0x12 ADD SWAP1 DUP2 PUSH2 0x27C4 SWAP2 SWAP1 PUSH2 0x4BE4 JUMP JUMPDEST POP PUSH1 0x0 DUP2 PUSH1 0x7 ADD SLOAD EQ PUSH2 0x2839 JUMPI PUSH2 0x27D9 PUSH2 0x26FE JUMP JUMPDEST DUP2 PUSH1 0xE ADD DUP2 SWAP1 SSTORE POP DUP1 PUSH1 0xE ADD SLOAD DUP2 PUSH1 0x10 ADD PUSH1 0x0 DUP3 DUP3 SLOAD PUSH2 0x27F9 SWAP2 SWAP1 PUSH2 0x492D JUMP JUMPDEST SWAP3 POP POP DUP2 SWAP1 SSTORE POP PUSH1 0x15 DUP2 PUSH1 0x10 ADD SLOAD SUB PUSH2 0x2838 JUMPI PUSH1 0x2 DUP2 PUSH1 0x7 ADD SLOAD PUSH2 0x281D SWAP2 SWAP1 PUSH2 0x5208 JUMP JUMPDEST DUP2 PUSH1 0x2 ADD PUSH1 0x0 DUP3 DUP3 SLOAD PUSH2 0x2830 SWAP2 SWAP1 PUSH2 0x492D JUMP JUMPDEST SWAP3 POP POP DUP2 SWAP1 SSTORE POP JUMPDEST JUMPDEST PUSH1 0x1 DUP2 PUSH1 0x4 ADD SLOAD SUB PUSH2 0x2852 JUMPI PUSH2 0x284D PUSH2 0x28C0 JUMP JUMPDEST PUSH2 0x2870 JUMP JUMPDEST PUSH1 0x0 DUP2 PUSH1 0x11 ADD PUSH1 0x5 PUSH2 0x100 EXP DUP2 SLOAD DUP2 PUSH1 0xFF MUL NOT AND SWAP1 DUP4 ISZERO ISZERO MUL OR SWAP1 SSTORE POP JUMPDEST PUSH2 0x28BD JUMP JUMPDEST PUSH1 0x40 MLOAD DUP1 PUSH1 0x40 ADD PUSH1 0x40 MSTORE DUP1 PUSH1 0xE DUP2 MSTORE PUSH1 0x20 ADD PUSH32 0x506C617965722773205475726E2E000000000000000000000000000000000000 DUP2 MSTORE POP DUP2 PUSH1 0x12 ADD SWAP1 DUP2 PUSH2 0x28BB SWAP2 SWAP1 PUSH2 0x4BE4 JUMP JUMPDEST POP JUMPDEST POP JUMP JUMPDEST PUSH1 0x0 PUSH1 0x3 PUSH1 0x0 PUSH1 0x2 PUSH1 0x0 CALLER PUSH20 0xFFFFFFFFFFFFFFFFFFFFFFFFFFFFFFFFFFFFFFFF AND PUSH20 0xFFFFFFFFFFFFFFFFFFFFFFFFFFFFFFFFFFFFFFFF AND DUP2 MSTORE PUSH1 0x20 ADD SWAP1 DUP2 MSTORE PUSH1 0x20 ADD PUSH1 0x0 KECCAK256 SLOAD DUP2 MSTORE PUSH1 0x20 ADD SWAP1 DUP2 MSTORE PUSH1 0x20 ADD PUSH1 0x0 KECCAK256 SWAP1 POP PUSH2 0x291E PUSH2 0x26FE JUMP JUMPDEST DUP2 PUSH1 0xE ADD DUP2 SWAP1 SSTORE POP PUSH1 0x1 DUP2 PUSH1 0xE ADD SLOAD EQ DUP1 ISZERO PUSH2 0x293E JUMPI POP PUSH1 0xB DUP2 PUSH1 0xD ADD SLOAD LT JUMPDEST ISZERO PUSH2 0x294E JUMPI PUSH1 0xB DUP2 PUSH1 0xE ADD DUP2 SWAP1 SSTORE POP JUMPDEST DUP1 PUSH1 0xE ADD SLOAD DUP2 PUSH1 0xD ADD SLOAD PUSH2 0x2962 SWAP2 SWAP1 PUSH2 0x492D JUMP JUMPDEST DUP2 PUSH1 0x10 ADD DUP2 SWAP1 SSTORE POP JUMPDEST PUSH1 0x11 DUP2 PUSH1 0x10 ADD SLOAD LT ISZERO PUSH2 0x29D4 JUMPI PUSH2 0x2980 PUSH2 0x26FE JUMP JUMPDEST DUP2 PUSH1 0xF ADD DUP2 SWAP1 SSTORE POP PUSH1 0x1 DUP2 PUSH1 0xF ADD SLOAD EQ DUP1 ISZERO PUSH2 0x29A0 JUMPI POP PUSH1 0xB DUP2 PUSH1 0x10 ADD SLOAD LT JUMPDEST ISZERO PUSH2 0x29B0 JUMPI PUSH1 0xB DUP2 PUSH1 0xF ADD DUP2 SWAP1 SSTORE POP JUMPDEST DUP1 PUSH1 0xF ADD SLOAD DUP2 PUSH1 0x10 ADD PUSH1 0x0 DUP3 DUP3 SLOAD PUSH2 0x29C8 SWAP2 SWAP1 PUSH2 0x492D JUMP JUMPDEST SWAP3 POP POP DUP2 SWAP1 SSTORE POP PUSH2 0x296B JUMP JUMPDEST PUSH2 0x29DC PUSH2 0x36C4 JUMP JUMPDEST POP JUMP JUMPDEST PUSH1 0x0 DUP2 PUSH1 0x8 ADD DUP2 SWAP1 SSTORE POP PUSH1 0x0 DUP2 PUSH1 0x9 ADD DUP2 SWAP1 SSTORE POP PUSH1 0x0 DUP2 PUSH1 0xA ADD DUP2 SWAP1 SSTORE POP PUSH1 0x0 DUP2 PUSH1 0xB ADD DUP2 SWAP1 SSTORE POP PUSH1 0x0 DUP2 PUSH1 0xC ADD DUP2 SWAP1 SSTORE POP PUSH1 0x0 DUP2 PUSH1 0xD ADD DUP2 SWAP1 SSTORE POP PUSH1 0x0 DUP2 PUSH1 0xE ADD DUP2 SWAP1 SSTORE POP PUSH1 0x0 DUP2 PUSH1 0xF ADD DUP2 SWAP1 SSTORE POP PUSH1 0x0 DUP2 PUSH1 0x10 ADD DUP2 SWAP1 SSTORE POP PUSH1 0x0 DUP2 PUSH1 0x4 ADD DUP2 SWAP1 SSTORE POP PUSH1 0x0 DUP2 PUSH1 0x7 ADD DUP2 SWAP1 SSTORE POP PUSH1 0x0 DUP2 PUSH1 0x11 ADD PUSH1 0x4 PUSH2 0x100 EXP DUP2 SLOAD DUP2 PUSH1 0xFF MUL NOT AND SWAP1 DUP4 ISZERO ISZERO MUL OR SWAP1 SSTORE POP PUSH2 0x2A72 PUSH2 0x26FE JUMP JUMPDEST DUP2 PUSH1 0x8 ADD DUP2 SWAP1 SSTORE POP PUSH1 0x1 DUP2 PUSH1 0x8 ADD SLOAD SUB PUSH2 0x2AAE JUMPI PUSH1 0xB DUP2 PUSH1 0x8 ADD DUP2 SWAP1 SSTORE POP PUSH1 0x1 DUP2 PUSH1 0x11 ADD PUSH1 0x4 PUSH2 0x100 EXP DUP2 SLOAD DUP2 PUSH1 0xFF MUL NOT AND SWAP1 DUP4 ISZERO ISZERO MUL OR SWAP1 SSTORE POP JUMPDEST PUSH2 0x2AB6 PUSH2 0x26FE JUMP JUMPDEST DUP2 PUSH1 0xD ADD DUP2 SWAP1 SSTORE POP PUSH2 0x2AC6 PUSH2 0x26FE JUMP JUMPDEST DUP2 PUSH1 0x9 ADD DUP2 SWAP1 SSTORE POP PUSH1 0x1 DUP2 PUSH1 0x9 ADD SLOAD EQ DUP1 ISZERO PUSH2 0x2AE6 JUMPI POP PUSH1 0xB DUP2 PUSH1 0x8 ADD SLOAD LT JUMPDEST ISZERO PUSH2 0x2B13 JUMPI PUSH1 0xB DUP2 PUSH1 0x9 ADD DUP2 SWAP1 SSTORE POP PUSH1 0x1 DUP2 PUSH1 0x11 ADD PUSH1 0x4 PUSH2 0x100 EXP DUP2 SLOAD DUP2 PUSH1 0xFF MUL NOT AND SWAP1 DUP4 ISZERO ISZERO MUL OR SWAP1 SSTORE POP JUMPDEST DUP1 PUSH1 0x9 ADD SLOAD DUP2 PUSH1 0x8 ADD SLOAD PUSH2 0x2B27 SWAP2 SWAP1 PUSH2 0x492D JUMP JUMPDEST DUP2 PUSH1 0xB ADD DUP2 SWAP1 SSTORE POP PUSH1 0x1 DUP2 PUSH1 0xD ADD SLOAD SUB PUSH2 0x2B63 JUMPI PUSH1 0xB DUP2 PUSH1 0xD ADD DUP2 SWAP1 SSTORE POP PUSH1 0x1 DUP2 PUSH1 0x11 ADD PUSH1 0x1 PUSH2 0x100 EXP DUP2 SLOAD DUP2 PUSH1 0xFF MUL NOT AND SWAP1 DUP4 ISZERO ISZERO MUL OR SWAP1 SSTORE POP JUMPDEST DUP1 PUSH1 0xE ADD SLOAD DUP2 PUSH1 0xD ADD SLOAD PUSH2 0x2B77 SWAP2 SWAP1 PUSH2 0x492D JUMP JUMPDEST DUP2 PUSH1 0x10 ADD DUP2 SWAP1 SSTORE POP PUSH1 0x15 DUP2 PUSH1 0xB ADD SLOAD SUB PUSH2 0x2D05 JUMPI PUSH1 0xA DUP2 PUSH1 0xD ADD SLOAD SUB PUSH2 0x2BDB JUMPI PUSH2 0x2B9F PUSH2 0x26FE JUMP JUMPDEST DUP2 PUSH1 0xE ADD DUP2 SWAP1 SSTORE POP PUSH1 0x1 DUP2 PUSH1 0xE ADD SLOAD SUB PUSH2 0x2BBE JUMPI PUSH1 0xB DUP2 PUSH1 0xE ADD DUP2 SWAP1 SSTORE POP JUMPDEST DUP1 PUSH1 0xE ADD SLOAD DUP2 PUSH1 0xD ADD SLOAD PUSH2 0x2BD2 SWAP2 SWAP1 PUSH2 0x492D JUMP JUMPDEST DUP2 PUSH1 0x10 ADD DUP2 SWAP1 SSTORE POP JUMPDEST DUP1 PUSH1 0xB ADD SLOAD DUP2 PUSH1 0x10 ADD SLOAD SUB PUSH2 0x2C55 JUMPI PUSH1 0x40 MLOAD DUP1 PUSH1 0x40 ADD PUSH1 0x40 MSTORE DUP1 PUSH1 0x9 DUP2 MSTORE PUSH1 0x20 ADD PUSH32 0x5374616E644F6666210000000000000000000000000000000000000000000000 DUP2 MSTORE POP DUP2 PUSH1 0x12 ADD SWAP1 DUP2 PUSH2 0x2C30 SWAP2 SWAP1 PUSH2 0x4BE4 JUMP JUMPDEST POP DUP1 PUSH1 0x6 ADD SLOAD DUP2 PUSH1 0x2 ADD PUSH1 0x0 DUP3 DUP3 SLOAD PUSH2 0x2C49 SWAP2 SWAP1 PUSH2 0x492D JUMP JUMPDEST SWAP3 POP POP DUP2 SWAP1 SSTORE POP PUSH2 0x2CE3 JUMP JUMPDEST PUSH1 0x40 MLOAD DUP1 PUSH1 0x40 ADD PUSH1 0x40 MSTORE DUP1 PUSH1 0x17 DUP2 MSTORE PUSH1 0x20 ADD PUSH32 0x426C61636B4A61636B2120506C617965722057696E732E000000000000000000 DUP2 MSTORE POP DUP2 PUSH1 0x12 ADD SWAP1 DUP2 PUSH2 0x2C9B SWAP2 SWAP1 PUSH2 0x4BE4 JUMP JUMPDEST POP PUSH1 0x2 DUP2 PUSH1 0x6 ADD SLOAD PUSH2 0x2CAD SWAP2 SWAP1 PUSH2 0x4E5D JUMP JUMPDEST PUSH1 0x2 DUP3 PUSH1 0x6 ADD SLOAD PUSH2 0x2CBE SWAP2 SWAP1 PUSH2 0x5208 JUMP JUMPDEST PUSH2 0x2CC8 SWAP2 SWAP1 PUSH2 0x492D JUMP JUMPDEST DUP2 PUSH1 0x2 ADD PUSH1 0x0 DUP3 DUP3 SLOAD PUSH2 0x2CDB SWAP2 SWAP1 PUSH2 0x492D JUMP JUMPDEST SWAP3 POP POP DUP2 SWAP1 SSTORE POP JUMPDEST PUSH1 0x0 DUP2 PUSH1 0x11 ADD PUSH1 0x5 PUSH2 0x100 EXP DUP2 SLOAD DUP2 PUSH1 0xFF MUL NOT AND SWAP1 DUP4 ISZERO ISZERO MUL OR SWAP1 SSTORE POP PUSH2 0x2DB1 JUMP JUMPDEST DUP1 PUSH1 0x11 ADD PUSH1 0x1 SWAP1 SLOAD SWAP1 PUSH2 0x100 EXP SWAP1 DIV PUSH1 0xFF AND ISZERO PUSH2 0x2D68 JUMPI PUSH1 0x40 MLOAD DUP1 PUSH1 0x40 ADD PUSH1 0x40 MSTORE DUP1 PUSH1 0x1E DUP2 MSTORE PUSH1 0x20 ADD PUSH32 0x506C617965722773205475726E2E2057616E7420496E737572616E63653F0000 DUP2 MSTORE POP DUP2 PUSH1 0x12 ADD SWAP1 DUP2 PUSH2 0x2D62 SWAP2 SWAP1 PUSH2 0x4BE4 JUMP JUMPDEST POP PUSH2 0x2DB0 JUMP JUMPDEST PUSH1 0x40 MLOAD DUP1 PUSH1 0x40 ADD PUSH1 0x40 MSTORE DUP1 PUSH1 0xE DUP2 MSTORE PUSH1 0x20 ADD PUSH32 0x506C617965722773205475726E2E000000000000000000000000000000000000 DUP2 MSTORE POP DUP2 PUSH1 0x12 ADD SWAP1 DUP2 PUSH2 0x2DAE SWAP2 SWAP1 PUSH2 0x4BE4 JUMP JUMPDEST POP JUMPDEST JUMPDEST DUP1 PUSH1 0x9 ADD SLOAD DUP2 PUSH1 0x8 ADD SLOAD SUB PUSH2 0x2E6C JUMPI DUP1 PUSH1 0x11 ADD PUSH1 0x1 SWAP1 SLOAD SWAP1 PUSH2 0x100 EXP SWAP1 DIV PUSH1 0xFF AND ISZERO PUSH2 0x2E06 JUMPI PUSH1 0x40 MLOAD DUP1 PUSH1 0x60 ADD PUSH1 0x40 MSTORE DUP1 PUSH1 0x30 DUP2 MSTORE PUSH1 0x20 ADD PUSH2 0x54B4 PUSH1 0x30 SWAP2 CODECOPY DUP2 PUSH1 0x12 ADD SWAP1 DUP2 PUSH2 0x2E00 SWAP2 SWAP1 PUSH2 0x4BE4 JUMP JUMPDEST POP PUSH2 0x2E4E JUMP JUMPDEST PUSH1 0x40 MLOAD DUP1 PUSH1 0x40 ADD PUSH1 0x40 MSTORE DUP1 PUSH1 0x20 DUP2 MSTORE PUSH1 0x20 ADD PUSH32 0x506C617965722773205475726E2E20506C617965722063616E2053706C69742E DUP2 MSTORE POP DUP2 PUSH1 0x12 ADD SWAP1 DUP2 PUSH2 0x2E4C SWAP2 SWAP1 PUSH2 0x4BE4 JUMP JUMPDEST POP JUMPDEST PUSH1 0x1 DUP2 PUSH1 0x11 ADD PUSH1 0x2 PUSH2 0x100 EXP DUP2 SLOAD DUP2 PUSH1 0xFF MUL NOT AND SWAP1 DUP4 ISZERO ISZERO MUL OR SWAP1 SSTORE POP JUMPDEST PUSH1 0x9 DUP2 PUSH1 0xB ADD SLOAD EQ DUP1 PUSH2 0x2E83 JUMPI POP PUSH1 0xA DUP2 PUSH1 0xB ADD SLOAD EQ JUMPDEST DUP1 PUSH2 0x2E92 JUMPI POP PUSH1 0xB DUP2 PUSH1 0xB ADD SLOAD EQ JUMPDEST ISZERO PUSH2 0x2FAA JUMPI DUP1 PUSH1 0x11 ADD PUSH1 0x1 SWAP1 SLOAD SWAP1 PUSH2 0x100 EXP SWAP1 DIV PUSH1 0xFF AND ISZERO PUSH2 0x2F1F JUMPI PUSH1 0x40 MLOAD DUP1 PUSH1 0x60 ADD PUSH1 0x40 MSTORE DUP1 PUSH1 0x36 DUP2 MSTORE PUSH1 0x20 ADD PUSH2 0x547E PUSH1 0x36 SWAP2 CODECOPY DUP2 PUSH1 0x12 ADD SWAP1 DUP2 PUSH2 0x2ED7 SWAP2 SWAP1 PUSH2 0x4BE4 JUMP JUMPDEST POP DUP1 PUSH1 0x11 ADD PUSH1 0x2 SWAP1 SLOAD SWAP1 PUSH2 0x100 EXP SWAP1 DIV PUSH1 0xFF AND ISZERO PUSH2 0x2F1A JUMPI PUSH1 0x40 MLOAD DUP1 PUSH1 0x60 ADD PUSH1 0x40 MSTORE DUP1 PUSH1 0x3F DUP2 MSTORE PUSH1 0x20 ADD PUSH2 0x54E4 PUSH1 0x3F SWAP2 CODECOPY DUP2 PUSH1 0x12 ADD SWAP1 DUP2 PUSH2 0x2F18 SWAP2 SWAP1 PUSH2 0x4BE4 JUMP JUMPDEST POP JUMPDEST PUSH2 0x2F8C JUMP JUMPDEST PUSH1 0x40 MLOAD DUP1 PUSH1 0x60 ADD PUSH1 0x40 MSTORE DUP1 PUSH1 0x26 DUP2 MSTORE PUSH1 0x20 ADD PUSH2 0x5552 PUSH1 0x26 SWAP2 CODECOPY DUP2 PUSH1 0x12 ADD SWAP1 DUP2 PUSH2 0x2F48 SWAP2 SWAP1 PUSH2 0x4BE4 JUMP JUMPDEST POP DUP1 PUSH1 0x11 ADD PUSH1 0x2 SWAP1 SLOAD SWAP1 PUSH2 0x100 EXP SWAP1 DIV PUSH1 0xFF AND ISZERO PUSH2 0x2F8B JUMPI PUSH1 0x40 MLOAD DUP1 PUSH1 0x60 ADD PUSH1 0x40 MSTORE DUP1 PUSH1 0x2F DUP2 MSTORE PUSH1 0x20 ADD PUSH2 0x5523 PUSH1 0x2F SWAP2 CODECOPY DUP2 PUSH1 0x12 ADD SWAP1 DUP2 PUSH2 0x2F89 SWAP2 SWAP1 PUSH2 0x4BE4 JUMP JUMPDEST POP JUMPDEST JUMPDEST PUSH1 0x1 DUP2 PUSH1 0x11 ADD PUSH1 0x0 PUSH2 0x100 EXP DUP2 SLOAD DUP2 PUSH1 0xFF MUL NOT AND SWAP1 DUP4 ISZERO ISZERO MUL OR SWAP1 SSTORE POP JUMPDEST POP JUMP JUMPDEST PUSH1 0x60 PUSH1 0x0 PUSH1 0x1 PUSH2 0x2FBC DUP5 PUSH2 0x3F58 JUMP JUMPDEST ADD SWAP1 POP PUSH1 0x0 DUP2 PUSH8 0xFFFFFFFFFFFFFFFF DUP2 GT ISZERO PUSH2 0x2FDB JUMPI PUSH2 0x2FDA PUSH2 0x49A9 JUMP JUMPDEST JUMPDEST PUSH1 0x40 MLOAD SWAP1 DUP1 DUP3 MSTORE DUP1 PUSH1 0x1F ADD PUSH1 0x1F NOT AND PUSH1 0x20 ADD DUP3 ADD PUSH1 0x40 MSTORE DUP1 ISZERO PUSH2 0x300D JUMPI DUP2 PUSH1 0x20 ADD PUSH1 0x1 DUP3 MUL DUP1 CALLDATASIZE DUP4 CALLDATACOPY DUP1 DUP3 ADD SWAP2 POP POP SWAP1 POP JUMPDEST POP SWAP1 POP PUSH1 0x0 DUP3 PUSH1 0x20 ADD DUP3 ADD SWAP1 POP JUMPDEST PUSH1 0x1 ISZERO PUSH2 0x3070 JUMPI DUP1 DUP1 PUSH1 0x1 SWAP1 SUB SWAP2 POP POP PUSH32 0x3031323334353637383961626364656600000000000000000000000000000000 PUSH1 0xA DUP7 MOD BYTE DUP2 MSTORE8 PUSH1 0xA DUP6 DUP2 PUSH2 0x3064 JUMPI PUSH2 0x3063 PUSH2 0x4E2E JUMP JUMPDEST JUMPDEST DIV SWAP5 POP PUSH1 0x0 DUP6 SUB PUSH2 0x301B JUMPI JUMPDEST DUP2 SWAP4 POP POP POP POP SWAP2 SWAP1 POP JUMP JUMPDEST PUSH1 0x0 PUSH1 0x3 PUSH1 0x0 PUSH1 0x2 PUSH1 0x0 DUP6 PUSH20 0xFFFFFFFFFFFFFFFFFFFFFFFFFFFFFFFFFFFFFFFF AND PUSH20 0xFFFFFFFFFFFFFFFFFFFFFFFFFFFFFFFFFFFFFFFF AND DUP2 MSTORE PUSH1 0x20 ADD SWAP1 DUP2 MSTORE PUSH1 0x20 ADD PUSH1 0x0 KECCAK256 SLOAD DUP2 MSTORE PUSH1 0x20 ADD SWAP1 DUP2 MSTORE PUSH1 0x20 ADD PUSH1 0x0 KECCAK256 PUSH1 0x0 ADD SLOAD SWAP1 POP PUSH1 0x0 PUSH1 0x3 PUSH1 0x0 PUSH1 0x2 PUSH1 0x0 DUP7 PUSH20 0xFFFFFFFFFFFFFFFFFFFFFFFFFFFFFFFFFFFFFFFF AND PUSH20 0xFFFFFFFFFFFFFFFFFFFFFFFFFFFFFFFFFFFFFFFF AND DUP2 MSTORE PUSH1 0x20 ADD SWAP1 DUP2 MSTORE PUSH1 0x20 ADD PUSH1 0x0 KECCAK256 SLOAD DUP2 MSTORE PUSH1 0x20 ADD SWAP1 DUP2 MSTORE PUSH1 0x20 ADD PUSH1 0x0 KECCAK256 PUSH1 0x2 ADD SLOAD SWAP1 POP PUSH1 0x0 PUSH1 0x2 PUSH1 0x0 DUP6 PUSH20 0xFFFFFFFFFFFFFFFFFFFFFFFFFFFFFFFFFFFFFFFF AND PUSH20 0xFFFFFFFFFFFFFFFFFFFFFFFFFFFFFFFFFFFFFFFF AND DUP2 MSTORE PUSH1 0x20 ADD SWAP1 DUP2 MSTORE PUSH1 0x20 ADD PUSH1 0x0 KECCAK256 DUP2 SWAP1 SSTORE POP PUSH1 0x3 PUSH1 0x0 PUSH1 0x2 PUSH1 0x0 DUP7 PUSH20 0xFFFFFFFFFFFFFFFFFFFFFFFFFFFFFFFFFFFFFFFF AND PUSH20 0xFFFFFFFFFFFFFFFFFFFFFFFFFFFFFFFFFFFFFFFF AND DUP2 MSTORE PUSH1 0x20 ADD SWAP1 DUP2 MSTORE PUSH1 0x20 ADD PUSH1 0x0 KECCAK256 SLOAD DUP2 MSTORE PUSH1 0x20 ADD SWAP1 DUP2 MSTORE PUSH1 0x20 ADD PUSH1 0x0 KECCAK256 PUSH1 0x0 DUP1 DUP3 ADD PUSH1 0x0 SWAP1 SSTORE PUSH1 0x1 DUP3 ADD PUSH1 0x0 PUSH2 0x100 EXP DUP2 SLOAD SWAP1 PUSH20 0xFFFFFFFFFFFFFFFFFFFFFFFFFFFFFFFFFFFFFFFF MUL NOT AND SWAP1 SSTORE PUSH1 0x2 DUP3 ADD PUSH1 0x0 SWAP1 SSTORE PUSH1 0x3 DUP3 ADD PUSH1 0x0 SWAP1 SSTORE PUSH1 0x4 DUP3 ADD PUSH1 0x0 SWAP1 SSTORE PUSH1 0x5 DUP3 ADD PUSH1 0x0 SWAP1 SSTORE PUSH1 0x6 DUP3 ADD PUSH1 0x0 SWAP1 SSTORE PUSH1 0x7 DUP3 ADD PUSH1 0x0 SWAP1 SSTORE PUSH1 0x8 DUP3 ADD PUSH1 0x0 SWAP1 SSTORE PUSH1 0x9 DUP3 ADD PUSH1 0x0 SWAP1 SSTORE PUSH1 0xA DUP3 ADD PUSH1 0x0 SWAP1 SSTORE PUSH1 0xB DUP3 ADD PUSH1 0x0 SWAP1 SSTORE PUSH1 0xC DUP3 ADD PUSH1 0x0 SWAP1 SSTORE PUSH1 0xD DUP3 ADD PUSH1 0x0 SWAP1 SSTORE PUSH1 0xE DUP3 ADD PUSH1 0x0 SWAP1 SSTORE PUSH1 0xF DUP3 ADD PUSH1 0x0 SWAP1 SSTORE PUSH1 0x10 DUP3 ADD PUSH1 0x0 SWAP1 SSTORE PUSH1 0x11 DUP3 ADD PUSH1 0x0 PUSH2 0x100 EXP DUP2 SLOAD SWAP1 PUSH1 0xFF MUL NOT AND SWAP1 SSTORE PUSH1 0x11 DUP3 ADD PUSH1 0x1 PUSH2 0x100 EXP DUP2 SLOAD SWAP1 PUSH1 0xFF MUL NOT AND SWAP1 SSTORE PUSH1 0x11 DUP3 ADD PUSH1 0x2 PUSH2 0x100 EXP DUP2 SLOAD SWAP1 PUSH1 0xFF MUL NOT AND SWAP1 SSTORE PUSH1 0x11 DUP3 ADD PUSH1 0x3 PUSH2 0x100 EXP DUP2 SLOAD SWAP1 PUSH1 0xFF MUL NOT AND SWAP1 SSTORE PUSH1 0x11 DUP3 ADD PUSH1 0x4 PUSH2 0x100 EXP DUP2 SLOAD SWAP1 PUSH1 0xFF MUL NOT AND SWAP1 SSTORE PUSH1 0x11 DUP3 ADD PUSH1 0x5 PUSH2 0x100 EXP DUP2 SLOAD SWAP1 PUSH1 0xFF MUL NOT AND SWAP1 SSTORE PUSH1 0x12 DUP3 ADD PUSH1 0x0 PUSH2 0x32F6 SWAP2 SWAP1 PUSH2 0x4182 JUMP JUMPDEST POP POP DUP1 DUP4 PUSH20 0xFFFFFFFFFFFFFFFFFFFFFFFFFFFFFFFFFFFFFFFF AND DUP4 PUSH32 0x1D7497D6FD179A17C5C10FA701D5DD57FB68542C79473B9759B789ED784D5C27 PUSH1 0x40 MLOAD PUSH1 0x40 MLOAD DUP1 SWAP2 SUB SWAP1 LOG4 POP POP POP JUMP JUMPDEST PUSH1 0x0 PUSH1 0x2 PUSH1 0x0 DUP4 PUSH20 0xFFFFFFFFFFFFFFFFFFFFFFFFFFFFFFFFFFFFFFFF AND PUSH20 0xFFFFFFFFFFFFFFFFFFFFFFFFFFFFFFFFFFFFFFFF AND DUP2 MSTORE PUSH1 0x20 ADD SWAP1 DUP2 MSTORE PUSH1 0x20 ADD PUSH1 0x0 KECCAK256 SLOAD EQ ISZERO DUP1 PUSH2 0x33E7 JUMPI POP PUSH1 0x0 PUSH1 0x3 PUSH1 0x0 PUSH1 0x2 PUSH1 0x0 DUP6 PUSH20 0xFFFFFFFFFFFFFFFFFFFFFFFFFFFFFFFFFFFFFFFF AND PUSH20 0xFFFFFFFFFFFFFFFFFFFFFFFFFFFFFFFFFFFFFFFF AND DUP2 MSTORE PUSH1 0x20 ADD SWAP1 DUP2 MSTORE PUSH1 0x20 ADD PUSH1 0x0 KECCAK256 SLOAD DUP2 MSTORE PUSH1 0x20 ADD SWAP1 DUP2 MSTORE PUSH1 0x20 ADD PUSH1 0x0 KECCAK256 PUSH1 0x2 ADD SLOAD EQ ISZERO JUMPDEST ISZERO PUSH2 0x35B6 JUMPI PUSH1 0x0 PUSH1 0x2 PUSH1 0x0 DUP4 PUSH20 0xFFFFFFFFFFFFFFFFFFFFFFFFFFFFFFFFFFFFFFFF AND PUSH20 0xFFFFFFFFFFFFFFFFFFFFFFFFFFFFFFFFFFFFFFFF AND DUP2 MSTORE PUSH1 0x20 ADD SWAP1 DUP2 MSTORE PUSH1 0x20 ADD PUSH1 0x0 KECCAK256 DUP2 SWAP1 SSTORE POP PUSH1 0x3 PUSH1 0x0 PUSH1 0x2 PUSH1 0x0 DUP5 PUSH20 0xFFFFFFFFFFFFFFFFFFFFFFFFFFFFFFFFFFFFFFFF AND PUSH20 0xFFFFFFFFFFFFFFFFFFFFFFFFFFFFFFFFFFFFFFFF AND DUP2 MSTORE PUSH1 0x20 ADD SWAP1 DUP2 MSTORE PUSH1 0x20 ADD PUSH1 0x0 KECCAK256 SLOAD DUP2 MSTORE PUSH1 0x20 ADD SWAP1 DUP2 MSTORE PUSH1 0x20 ADD PUSH1 0x0 KECCAK256 PUSH1 0x0 DUP1 DUP3 ADD PUSH1 0x0 SWAP1 SSTORE PUSH1 0x1 DUP3 ADD PUSH1 0x0 PUSH2 0x100 EXP DUP2 SLOAD SWAP1 PUSH20 0xFFFFFFFFFFFFFFFFFFFFFFFFFFFFFFFFFFFFFFFF MUL NOT AND SWAP1 SSTORE PUSH1 0x2 DUP3 ADD PUSH1 0x0 SWAP1 SSTORE PUSH1 0x3 DUP3 ADD PUSH1 0x0 SWAP1 SSTORE PUSH1 0x4 DUP3 ADD PUSH1 0x0 SWAP1 SSTORE PUSH1 0x5 DUP3 ADD PUSH1 0x0 SWAP1 SSTORE PUSH1 0x6 DUP3 ADD PUSH1 0x0 SWAP1 SSTORE PUSH1 0x7 DUP3 ADD PUSH1 0x0 SWAP1 SSTORE PUSH1 0x8 DUP3 ADD PUSH1 0x0 SWAP1 SSTORE PUSH1 0x9 DUP3 ADD PUSH1 0x0 SWAP1 SSTORE PUSH1 0xA DUP3 ADD PUSH1 0x0 SWAP1 SSTORE PUSH1 0xB DUP3 ADD PUSH1 0x0 SWAP1 SSTORE PUSH1 0xC DUP3 ADD PUSH1 0x0 SWAP1 SSTORE PUSH1 0xD DUP3 ADD PUSH1 0x0 SWAP1 SSTORE PUSH1 0xE DUP3 ADD PUSH1 0x0 SWAP1 SSTORE PUSH1 0xF DUP3 ADD PUSH1 0x0 SWAP1 SSTORE PUSH1 0x10 DUP3 ADD PUSH1 0x0 SWAP1 SSTORE PUSH1 0x11 DUP3 ADD PUSH1 0x0 PUSH2 0x100 EXP DUP2 SLOAD SWAP1 PUSH1 0xFF MUL NOT AND SWAP1 SSTORE PUSH1 0x11 DUP3 ADD PUSH1 0x1 PUSH2 0x100 EXP DUP2 SLOAD SWAP1 PUSH1 0xFF MUL NOT AND SWAP1 SSTORE PUSH1 0x11 DUP3 ADD PUSH1 0x2 PUSH2 0x100 EXP DUP2 SLOAD SWAP1 PUSH1 0xFF MUL NOT AND SWAP1 SSTORE PUSH1 0x11 DUP3 ADD PUSH1 0x3 PUSH2 0x100 EXP DUP2 SLOAD SWAP1 PUSH1 0xFF MUL NOT AND SWAP1 SSTORE PUSH1 0x11 DUP3 ADD PUSH1 0x4 PUSH2 0x100 EXP DUP2 SLOAD SWAP1 PUSH1 0xFF MUL NOT AND SWAP1 SSTORE PUSH1 0x11 DUP3 ADD PUSH1 0x5 PUSH2 0x100 EXP DUP2 SLOAD SWAP1 PUSH1 0xFF MUL NOT AND SWAP1 SSTORE PUSH1 0x12 DUP3 ADD PUSH1 0x0 PUSH2 0x35B3 SWAP2 SWAP1 PUSH2 0x4182 JUMP JUMPDEST POP POP JUMPDEST DUP1 PUSH20 0xFFFFFFFFFFFFFFFFFFFFFFFFFFFFFFFFFFFFFFFF AND PUSH32 0xFA63CAFECF2C1C6AE30E5B5E06570BA0BF03859678E781644BFA3A0D6764343D PUSH1 0x40 MLOAD PUSH1 0x40 MLOAD DUP1 SWAP2 SUB SWAP1 LOG2 POP JUMP JUMPDEST PUSH1 0x0 PUSH1 0x15 PUSH1 0x0 DUP1 DUP3 DUP3 SLOAD PUSH2 0x3610 SWAP2 SWAP1 PUSH2 0x5208 JUMP JUMPDEST SWAP3 POP POP DUP2 SWAP1 SSTORE POP PUSH1 0x0 PUSH1 0x64 PUSH1 0x0 SLOAD PREVRANDAO TIMESTAMP PUSH2 0x362A SWAP2 SWAP1 PUSH2 0x492D JUMP JUMPDEST PUSH2 0x3634 SWAP2 SWAP1 PUSH2 0x492D JUMP JUMPDEST PUSH2 0x363E SWAP2 SWAP1 PUSH2 0x524A JUMP JUMPDEST SWAP1 POP PUSH1 0x1 PUSH1 0xD PUSH1 0x1 NUMBER PUSH2 0x3651 SWAP2 SWAP1 PUSH2 0x4D8E JUMP JUMPDEST BLOCKHASH DUP4 PUSH1 0x40 MLOAD PUSH1 0x20 ADD PUSH2 0x3664 SWAP3 SWAP2 SWAP1 PUSH2 0x52C7 JUMP JUMPDEST PUSH1 0x40 MLOAD PUSH1 0x20 DUP2 DUP4 SUB SUB DUP2 MSTORE SWAP1 PUSH1 0x40 MSTORE DUP1 MLOAD SWAP1 PUSH1 0x20 ADD KECCAK256 PUSH1 0x0 SHR PUSH2 0x3687 SWAP2 SWAP1 PUSH2 0x524A JUMP JUMPDEST PUSH2 0x3691 SWAP2 SWAP1 PUSH2 0x492D JUMP JUMPDEST SWAP2 POP PUSH1 0x0 DUP1 DUP2 SLOAD DUP1 SWAP3 SWAP2 SWAP1 PUSH2 0x36A5 SWAP1 PUSH2 0x4961 JUMP JUMPDEST SWAP2 SWAP1 POP SSTORE POP PUSH4 0x1908B100 PUSH1 0x0 SLOAD GT ISZERO PUSH2 0x36C0 JUMPI DUP2 PUSH1 0x0 DUP2 SWAP1 SSTORE POP JUMPDEST POP SWAP1 JUMP JUMPDEST PUSH1 0x0 PUSH1 0x3 PUSH1 0x0 PUSH1 0x2 PUSH1 0x0 CALLER PUSH20 0xFFFFFFFFFFFFFFFFFFFFFFFFFFFFFFFFFFFFFFFF AND PUSH20 0xFFFFFFFFFFFFFFFFFFFFFFFFFFFFFFFFFFFFFFFF AND DUP2 MSTORE PUSH1 0x20 ADD SWAP1 DUP2 MSTORE PUSH1 0x20 ADD PUSH1 0x0 KECCAK256 SLOAD DUP2 MSTORE PUSH1 0x20 ADD SWAP1 DUP2 MSTORE PUSH1 0x20 ADD PUSH1 0x0 KECCAK256 SWAP1 POP PUSH1 0x15 DUP2 PUSH1 0x10 ADD SLOAD GT ISZERO PUSH2 0x3920 JUMPI PUSH1 0x40 MLOAD DUP1 PUSH1 0x40 ADD PUSH1 0x40 MSTORE DUP1 PUSH1 0xC DUP2 MSTORE PUSH1 0x20 ADD PUSH32 0x4465616C657220427573742E0000000000000000000000000000000000000000 DUP2 MSTORE POP DUP2 PUSH1 0x12 ADD SWAP1 DUP2 PUSH2 0x376D SWAP2 SWAP1 PUSH2 0x4BE4 JUMP JUMPDEST POP PUSH1 0x0 DUP2 PUSH1 0x11 ADD PUSH1 0x5 PUSH2 0x100 EXP DUP2 SLOAD DUP2 PUSH1 0xFF MUL NOT AND SWAP1 DUP4 ISZERO ISZERO MUL OR SWAP1 SSTORE POP PUSH1 0x1 DUP2 PUSH1 0x4 ADD SLOAD SUB PUSH2 0x38A8 JUMPI PUSH1 0x15 DUP2 PUSH1 0xB ADD SLOAD GT PUSH2 0x380A JUMPI PUSH1 0x40 MLOAD DUP1 PUSH1 0x40 ADD PUSH1 0x40 MSTORE DUP1 PUSH1 0x19 DUP2 MSTORE PUSH1 0x20 ADD PUSH32 0x4465616C657220427573742E20506C617965722057696E732E00000000000000 DUP2 MSTORE POP DUP2 PUSH1 0x12 ADD SWAP1 DUP2 PUSH2 0x37E9 SWAP2 SWAP1 PUSH2 0x4BE4 JUMP JUMPDEST POP DUP1 PUSH1 0x6 ADD SLOAD DUP2 PUSH1 0x2 ADD PUSH1 0x0 DUP3 DUP3 SLOAD PUSH2 0x3802 SWAP2 SWAP1 PUSH2 0x492D JUMP JUMPDEST SWAP3 POP POP DUP2 SWAP1 SSTORE POP JUMPDEST PUSH1 0x15 DUP2 PUSH1 0xC ADD SLOAD GT PUSH2 0x386E JUMPI DUP1 PUSH1 0x12 ADD PUSH1 0x40 MLOAD PUSH1 0x20 ADD PUSH2 0x382A SWAP2 SWAP1 PUSH2 0x539C JUMP JUMPDEST PUSH1 0x40 MLOAD PUSH1 0x20 DUP2 DUP4 SUB SUB DUP2 MSTORE SWAP1 PUSH1 0x40 MSTORE DUP2 PUSH1 0x12 ADD SWAP1 DUP2 PUSH2 0x3849 SWAP2 SWAP1 PUSH2 0x4BE4 JUMP JUMPDEST POP DUP1 PUSH1 0x6 ADD SLOAD DUP2 PUSH1 0x2 ADD PUSH1 0x0 DUP3 DUP3 SLOAD PUSH2 0x3862 SWAP2 SWAP1 PUSH2 0x492D JUMP JUMPDEST SWAP3 POP POP DUP2 SWAP1 SSTORE POP PUSH2 0x38A3 JUMP JUMPDEST DUP1 PUSH1 0x12 ADD PUSH1 0x40 MLOAD PUSH1 0x20 ADD PUSH2 0x3882 SWAP2 SWAP1 PUSH2 0x53E8 JUMP JUMPDEST PUSH1 0x40 MLOAD PUSH1 0x20 DUP2 DUP4 SUB SUB DUP2 MSTORE SWAP1 PUSH1 0x40 MSTORE DUP2 PUSH1 0x12 ADD SWAP1 DUP2 PUSH2 0x38A1 SWAP2 SWAP1 PUSH2 0x4BE4 JUMP JUMPDEST POP JUMPDEST PUSH2 0x391B JUMP JUMPDEST PUSH1 0x40 MLOAD DUP1 PUSH1 0x40 ADD PUSH1 0x40 MSTORE DUP1 PUSH1 0x19 DUP2 MSTORE PUSH1 0x20 ADD PUSH32 0x4465616C657220427573742E20506C617965722057696E732E00000000000000 DUP2 MSTORE POP DUP2 PUSH1 0x12 ADD SWAP1 DUP2 PUSH2 0x38EE SWAP2 SWAP1 PUSH2 0x4BE4 JUMP JUMPDEST POP PUSH1 0x2 DUP2 PUSH1 0x6 ADD SLOAD PUSH2 0x3900 SWAP2 SWAP1 PUSH2 0x5208 JUMP JUMPDEST DUP2 PUSH1 0x2 ADD PUSH1 0x0 DUP3 DUP3 SLOAD PUSH2 0x3913 SWAP2 SWAP1 PUSH2 0x492D JUMP JUMPDEST SWAP3 POP POP DUP2 SWAP1 SSTORE POP JUMPDEST PUSH2 0x3F55 JUMP JUMPDEST PUSH1 0x15 DUP2 PUSH1 0x10 ADD SLOAD SUB PUSH2 0x3B2F JUMPI PUSH1 0x40 MLOAD DUP1 PUSH1 0x40 ADD PUSH1 0x40 MSTORE DUP1 PUSH1 0xC DUP2 MSTORE PUSH1 0x20 ADD PUSH32 0x4465616C65722057696E732E0000000000000000000000000000000000000000 DUP2 MSTORE POP DUP2 PUSH1 0x12 ADD SWAP1 DUP2 PUSH2 0x3972 SWAP2 SWAP1 PUSH2 0x4BE4 JUMP JUMPDEST POP PUSH1 0x0 DUP2 PUSH1 0x11 ADD PUSH1 0x5 PUSH2 0x100 EXP DUP2 SLOAD DUP2 PUSH1 0xFF MUL NOT AND SWAP1 DUP4 ISZERO ISZERO MUL OR SWAP1 SSTORE POP PUSH1 0x0 DUP2 PUSH1 0x7 ADD SLOAD EQ PUSH2 0x39C8 JUMPI PUSH1 0x2 DUP2 PUSH1 0x7 ADD SLOAD PUSH2 0x39AD SWAP2 SWAP1 PUSH2 0x5208 JUMP JUMPDEST DUP2 PUSH1 0x2 ADD PUSH1 0x0 DUP3 DUP3 SLOAD PUSH2 0x39C0 SWAP2 SWAP1 PUSH2 0x492D JUMP JUMPDEST SWAP3 POP POP DUP2 SWAP1 SSTORE POP JUMPDEST PUSH1 0x15 DUP2 PUSH1 0xB ADD SLOAD SUB PUSH2 0x3A78 JUMPI PUSH1 0x40 MLOAD DUP1 PUSH1 0x40 ADD PUSH1 0x40 MSTORE DUP1 PUSH1 0x9 DUP2 MSTORE PUSH1 0x20 ADD PUSH32 0x5374616E644F6666210000000000000000000000000000000000000000000000 DUP2 MSTORE POP DUP2 PUSH1 0x12 ADD SWAP1 DUP2 PUSH2 0x3A1A SWAP2 SWAP1 PUSH2 0x4BE4 JUMP JUMPDEST POP PUSH1 0x1 DUP2 PUSH1 0x4 ADD SLOAD SUB PUSH2 0x3A57 JUMPI PUSH1 0x2 DUP2 PUSH1 0x6 ADD SLOAD PUSH2 0x3A38 SWAP2 SWAP1 PUSH2 0x4E5D JUMP JUMPDEST DUP2 PUSH1 0x2 ADD PUSH1 0x0 DUP3 DUP3 SLOAD PUSH2 0x3A4B SWAP2 SWAP1 PUSH2 0x492D JUMP JUMPDEST SWAP3 POP POP DUP2 SWAP1 SSTORE POP PUSH2 0x3A77 JUMP JUMPDEST DUP1 PUSH1 0x6 ADD SLOAD DUP2 PUSH1 0x2 ADD PUSH1 0x0 DUP3 DUP3 SLOAD PUSH2 0x3A6F SWAP2 SWAP1 PUSH2 0x492D JUMP JUMPDEST SWAP3 POP POP DUP2 SWAP1 SSTORE POP JUMPDEST JUMPDEST PUSH1 0x1 DUP2 PUSH1 0x4 ADD SLOAD SUB PUSH2 0x3B2A JUMPI PUSH1 0x15 DUP2 PUSH1 0xC ADD SLOAD SUB PUSH2 0x3AF4 JUMPI DUP1 PUSH1 0x12 ADD PUSH1 0x40 MLOAD PUSH1 0x20 ADD PUSH2 0x3AA4 SWAP2 SWAP1 PUSH2 0x5434 JUMP JUMPDEST PUSH1 0x40 MLOAD PUSH1 0x20 DUP2 DUP4 SUB SUB DUP2 MSTORE SWAP1 PUSH1 0x40 MSTORE DUP2 PUSH1 0x12 ADD SWAP1 DUP2 PUSH2 0x3AC3 SWAP2 SWAP1 PUSH2 0x4BE4 JUMP JUMPDEST POP PUSH1 0x2 DUP2 PUSH1 0x6 ADD SLOAD PUSH2 0x3AD5 SWAP2 SWAP1 PUSH2 0x4E5D JUMP JUMPDEST DUP2 PUSH1 0x2 ADD PUSH1 0x0 DUP3 DUP3 SLOAD PUSH2 0x3AE8 SWAP2 SWAP1 PUSH2 0x492D JUMP JUMPDEST SWAP3 POP POP DUP2 SWAP1 SSTORE POP PUSH2 0x3B29 JUMP JUMPDEST DUP1 PUSH1 0x12 ADD PUSH1 0x40 MLOAD PUSH1 0x20 ADD PUSH2 0x3B08 SWAP2 SWAP1 PUSH2 0x53E8 JUMP JUMPDEST PUSH1 0x40 MLOAD PUSH1 0x20 DUP2 DUP4 SUB SUB DUP2 MSTORE SWAP1 PUSH1 0x40 MSTORE DUP2 PUSH1 0x12 ADD SWAP1 DUP2 PUSH2 0x3B27 SWAP2 SWAP1 PUSH2 0x4BE4 JUMP JUMPDEST POP JUMPDEST JUMPDEST PUSH2 0x3F54 JUMP JUMPDEST PUSH1 0x15 DUP2 PUSH1 0xB ADD SLOAD LT DUP1 ISZERO PUSH2 0x3B62 JUMPI POP DUP1 PUSH1 0xB ADD SLOAD PUSH1 0x15 PUSH2 0x3B4F SWAP2 SWAP1 PUSH2 0x4D8E JUMP JUMPDEST DUP2 PUSH1 0x10 ADD SLOAD PUSH1 0x15 PUSH2 0x3B60 SWAP2 SWAP1 PUSH2 0x4D8E JUMP JUMPDEST EQ JUMPDEST ISZERO PUSH2 0x3C2C JUMPI PUSH1 0x40 MLOAD DUP1 PUSH1 0x40 ADD PUSH1 0x40 MSTORE DUP1 PUSH1 0x9 DUP2 MSTORE PUSH1 0x20 ADD PUSH32 0x5374616E644F6666210000000000000000000000000000000000000000000000 DUP2 MSTORE POP DUP2 PUSH1 0x12 ADD SWAP1 DUP2 PUSH2 0x3BAD SWAP2 SWAP1 PUSH2 0x4BE4 JUMP JUMPDEST POP PUSH1 0x0 DUP2 PUSH1 0x11 ADD PUSH1 0x5 PUSH2 0x100 EXP DUP2 SLOAD DUP2 PUSH1 0xFF MUL NOT AND SWAP1 DUP4 ISZERO ISZERO MUL OR SWAP1 SSTORE POP PUSH1 0x1 DUP2 PUSH1 0x4 ADD SLOAD SUB PUSH2 0x3C07 JUMPI PUSH1 0x2 DUP2 PUSH1 0x6 ADD SLOAD PUSH2 0x3BE8 SWAP2 SWAP1 PUSH2 0x4E5D JUMP JUMPDEST DUP2 PUSH1 0x2 ADD PUSH1 0x0 DUP3 DUP3 SLOAD PUSH2 0x3BFB SWAP2 SWAP1 PUSH2 0x492D JUMP JUMPDEST SWAP3 POP POP DUP2 SWAP1 SSTORE POP PUSH2 0x3C27 JUMP JUMPDEST DUP1 PUSH1 0x6 ADD SLOAD DUP2 PUSH1 0x2 ADD PUSH1 0x0 DUP3 DUP3 SLOAD PUSH2 0x3C1F SWAP2 SWAP1 PUSH2 0x492D JUMP JUMPDEST SWAP3 POP POP DUP2 SWAP1 SSTORE POP JUMPDEST PUSH2 0x3D8E JUMP JUMPDEST PUSH1 0x15 DUP2 PUSH1 0xB ADD SLOAD GT DUP1 PUSH2 0x3C5E JUMPI POP DUP1 PUSH1 0xB ADD SLOAD PUSH1 0x15 PUSH2 0x3C4B SWAP2 SWAP1 PUSH2 0x4D8E JUMP JUMPDEST DUP2 PUSH1 0x10 ADD SLOAD PUSH1 0x15 PUSH2 0x3C5C SWAP2 SWAP1 PUSH2 0x4D8E JUMP JUMPDEST LT JUMPDEST ISZERO PUSH2 0x3CCC JUMPI PUSH1 0x40 MLOAD DUP1 PUSH1 0x40 ADD PUSH1 0x40 MSTORE DUP1 PUSH1 0xC DUP2 MSTORE PUSH1 0x20 ADD PUSH32 0x4465616C65722057696E732E0000000000000000000000000000000000000000 DUP2 MSTORE POP DUP2 PUSH1 0x12 ADD SWAP1 DUP2 PUSH2 0x3CA9 SWAP2 SWAP1 PUSH2 0x4BE4 JUMP JUMPDEST POP PUSH1 0x0 DUP2 PUSH1 0x11 ADD PUSH1 0x5 PUSH2 0x100 EXP DUP2 SLOAD DUP2 PUSH1 0xFF MUL NOT AND SWAP1 DUP4 ISZERO ISZERO MUL OR SWAP1 SSTORE POP PUSH2 0x3D8D JUMP JUMPDEST PUSH1 0x40 MLOAD DUP1 PUSH1 0x40 ADD PUSH1 0x40 MSTORE DUP1 PUSH1 0xC DUP2 MSTORE PUSH1 0x20 ADD PUSH32 0x506C617965722057696E732E0000000000000000000000000000000000000000 DUP2 MSTORE POP DUP2 PUSH1 0x12 ADD SWAP1 DUP2 PUSH2 0x3D12 SWAP2 SWAP1 PUSH2 0x4BE4 JUMP JUMPDEST POP PUSH1 0x0 DUP2 PUSH1 0x11 ADD PUSH1 0x5 PUSH2 0x100 EXP DUP2 SLOAD DUP2 PUSH1 0xFF MUL NOT AND SWAP1 DUP4 ISZERO ISZERO MUL OR SWAP1 SSTORE POP PUSH1 0x1 DUP2 PUSH1 0x4 ADD SLOAD SUB PUSH2 0x3D60 JUMPI DUP1 PUSH1 0x6 ADD SLOAD DUP2 PUSH1 0x2 ADD PUSH1 0x0 DUP3 DUP3 SLOAD PUSH2 0x3D54 SWAP2 SWAP1 PUSH2 0x492D JUMP JUMPDEST SWAP3 POP POP DUP2 SWAP1 SSTORE POP PUSH2 0x3D8C JUMP JUMPDEST PUSH1 0x2 DUP2 PUSH1 0x6 ADD SLOAD PUSH2 0x3D71 SWAP2 SWAP1 PUSH2 0x5208 JUMP JUMPDEST DUP2 PUSH1 0x2 ADD PUSH1 0x0 DUP3 DUP3 SLOAD PUSH2 0x3D84 SWAP2 SWAP1 PUSH2 0x492D JUMP JUMPDEST SWAP3 POP POP DUP2 SWAP1 SSTORE POP JUMPDEST JUMPDEST JUMPDEST PUSH1 0x1 DUP2 PUSH1 0x4 ADD SLOAD SUB PUSH2 0x3F53 JUMPI PUSH1 0x15 DUP2 PUSH1 0xC ADD SLOAD LT DUP1 ISZERO PUSH2 0x3DCD JUMPI POP DUP1 PUSH1 0xC ADD SLOAD PUSH1 0x15 PUSH2 0x3DBA SWAP2 SWAP1 PUSH2 0x4D8E JUMP JUMPDEST DUP2 PUSH1 0x10 ADD SLOAD PUSH1 0x15 PUSH2 0x3DCB SWAP2 SWAP1 PUSH2 0x4D8E JUMP JUMPDEST EQ JUMPDEST ISZERO PUSH2 0x3E53 JUMPI DUP1 PUSH1 0x12 ADD PUSH1 0x40 MLOAD PUSH1 0x20 ADD PUSH2 0x3DE6 SWAP2 SWAP1 PUSH2 0x5434 JUMP JUMPDEST PUSH1 0x40 MLOAD PUSH1 0x20 DUP2 DUP4 SUB SUB DUP2 MSTORE SWAP1 PUSH1 0x40 MSTORE DUP2 PUSH1 0x12 ADD SWAP1 DUP2 PUSH2 0x3E05 SWAP2 SWAP1 PUSH2 0x4BE4 JUMP JUMPDEST POP PUSH1 0x0 DUP2 PUSH1 0x11 ADD PUSH1 0x5 PUSH2 0x100 EXP DUP2 SLOAD DUP2 PUSH1 0xFF MUL NOT AND SWAP1 DUP4 ISZERO ISZERO MUL OR SWAP1 SSTORE POP PUSH1 0x2 DUP2 PUSH1 0x6 ADD SLOAD PUSH2 0x3E34 SWAP2 SWAP1 PUSH2 0x4E5D JUMP JUMPDEST DUP2 PUSH1 0x2 ADD PUSH1 0x0 DUP3 DUP3 SLOAD PUSH2 0x3E47 SWAP2 SWAP1 PUSH2 0x492D JUMP JUMPDEST SWAP3 POP POP DUP2 SWAP1 SSTORE POP PUSH2 0x3F52 JUMP JUMPDEST PUSH1 0x15 DUP2 PUSH1 0xC ADD SLOAD GT DUP1 PUSH2 0x3E85 JUMPI POP DUP1 PUSH1 0xC ADD SLOAD PUSH1 0x15 PUSH2 0x3E72 SWAP2 SWAP1 PUSH2 0x4D8E JUMP JUMPDEST DUP2 PUSH1 0x10 ADD SLOAD PUSH1 0x15 PUSH2 0x3E83 SWAP2 SWAP1 PUSH2 0x4D8E JUMP JUMPDEST LT JUMPDEST ISZERO PUSH2 0x3EE0 JUMPI DUP1 PUSH1 0x12 ADD PUSH1 0x40 MLOAD PUSH1 0x20 ADD PUSH2 0x3E9E SWAP2 SWAP1 PUSH2 0x53E8 JUMP JUMPDEST PUSH1 0x40 MLOAD PUSH1 0x20 DUP2 DUP4 SUB SUB DUP2 MSTORE SWAP1 PUSH1 0x40 MSTORE DUP2 PUSH1 0x12 ADD SWAP1 DUP2 PUSH2 0x3EBD SWAP2 SWAP1 PUSH2 0x4BE4 JUMP JUMPDEST POP PUSH1 0x0 DUP2 PUSH1 0x11 ADD PUSH1 0x5 PUSH2 0x100 EXP DUP2 SLOAD DUP2 PUSH1 0xFF MUL NOT AND SWAP1 DUP4 ISZERO ISZERO MUL OR SWAP1 SSTORE POP PUSH2 0x3F51 JUMP JUMPDEST DUP1 PUSH1 0x12 ADD PUSH1 0x40 MLOAD PUSH1 0x20 ADD PUSH2 0x3EF4 SWAP2 SWAP1 PUSH2 0x539C JUMP JUMPDEST PUSH1 0x40 MLOAD PUSH1 0x20 DUP2 DUP4 SUB SUB DUP2 MSTORE SWAP1 PUSH1 0x40 MSTORE DUP2 PUSH1 0x12 ADD SWAP1 DUP2 PUSH2 0x3F13 SWAP2 SWAP1 PUSH2 0x4BE4 JUMP JUMPDEST POP PUSH1 0x0 DUP2 PUSH1 0x11 ADD PUSH1 0x5 PUSH2 0x100 EXP DUP2 SLOAD DUP2 PUSH1 0xFF MUL NOT AND SWAP1 DUP4 ISZERO ISZERO MUL OR SWAP1 SSTORE POP DUP1 PUSH1 0x6 ADD SLOAD DUP2 PUSH1 0x2 ADD PUSH1 0x0 DUP3 DUP3 SLOAD PUSH2 0x3F49 SWAP2 SWAP1 PUSH2 0x492D JUMP JUMPDEST SWAP3 POP POP DUP2 SWAP1 SSTORE POP JUMPDEST JUMPDEST JUMPDEST JUMPDEST JUMPDEST POP JUMP JUMPDEST PUSH1 0x0 DUP1 PUSH1 0x0 SWAP1 POP PUSH27 0x184F03E93FF9F4DAA797ED6E38ED64BF6A1F010000000000000000 DUP4 LT PUSH2 0x3FB6 JUMPI PUSH27 0x184F03E93FF9F4DAA797ED6E38ED64BF6A1F010000000000000000 DUP4 DUP2 PUSH2 0x3FAC JUMPI PUSH2 0x3FAB PUSH2 0x4E2E JUMP JUMPDEST JUMPDEST DIV SWAP3 POP PUSH1 0x40 DUP2 ADD SWAP1 POP JUMPDEST PUSH14 0x4EE2D6D415B85ACEF8100000000 DUP4 LT PUSH2 0x3FF3 JUMPI PUSH14 0x4EE2D6D415B85ACEF8100000000 DUP4 DUP2 PUSH2 0x3FE9 JUMPI PUSH2 0x3FE8 PUSH2 0x4E2E JUMP JUMPDEST JUMPDEST DIV SWAP3 POP PUSH1 0x20 DUP2 ADD SWAP1 POP JUMPDEST PUSH7 0x2386F26FC10000 DUP4 LT PUSH2 0x4022 JUMPI PUSH7 0x2386F26FC10000 DUP4 DUP2 PUSH2 0x4018 JUMPI PUSH2 0x4017 PUSH2 0x4E2E JUMP JUMPDEST JUMPDEST DIV SWAP3 POP PUSH1 0x10 DUP2 ADD SWAP1 POP JUMPDEST PUSH4 0x5F5E100 DUP4 LT PUSH2 0x404B JUMPI PUSH4 0x5F5E100 DUP4 DUP2 PUSH2 0x4041 JUMPI PUSH2 0x4040 PUSH2 0x4E2E JUMP JUMPDEST JUMPDEST DIV SWAP3 POP PUSH1 0x8 DUP2 ADD SWAP1 POP JUMPDEST PUSH2 0x2710 DUP4 LT PUSH2 0x4070 JUMPI PUSH2 0x2710 DUP4 DUP2 PUSH2 0x4066 JUMPI PUSH2 0x4065 PUSH2 0x4E2E JUMP JUMPDEST JUMPDEST DIV SWAP3 POP PUSH1 0x4 DUP2 ADD SWAP1 POP JUMPDEST PUSH1 0x64 DUP4 LT PUSH2 0x4093 JUMPI PUSH1 0x64 DUP4 DUP2 PUSH2 0x4089 JUMPI PUSH2 0x4088 PUSH2 0x4E2E JUMP JUMPDEST JUMPDEST DIV SWAP3 POP PUSH1 0x2 DUP2 ADD SWAP1 POP JUMPDEST PUSH1 0xA DUP4 LT PUSH2 0x40A2 JUMPI PUSH1 0x1 DUP2 ADD SWAP1 POP JUMPDEST DUP1 SWAP2 POP POP SWAP2 SWAP1 POP JUMP JUMPDEST PUSH1 0x40 MLOAD DUP1 PUSH2 0x300 ADD PUSH1 0x40 MSTORE DUP1 PUSH1 0x0 DUP2 MSTORE PUSH1 0x20 ADD PUSH1 0x0 PUSH20 0xFFFFFFFFFFFFFFFFFFFFFFFFFFFFFFFFFFFFFFFF AND DUP2 MSTORE PUSH1 0x20 ADD PUSH1 0x0 DUP2 MSTORE PUSH1 0x20 ADD PUSH1 0x0 DUP2 MSTORE PUSH1 0x20 ADD PUSH1 0x0 DUP2 MSTORE PUSH1 0x20 ADD PUSH1 0x0 DUP2 MSTORE PUSH1 0x20 ADD PUSH1 0x0 DUP2 MSTORE PUSH1 0x20 ADD PUSH1 0x0 DUP2 MSTORE PUSH1 0x20 ADD PUSH1 0x0 DUP2 MSTORE PUSH1 0x20 ADD PUSH1 0x0 DUP2 MSTORE PUSH1 0x20 ADD PUSH1 0x0 DUP2 MSTORE PUSH1 0x20 ADD PUSH1 0x0 DUP2 MSTORE PUSH1 0x20 ADD PUSH1 0x0 DUP2 MSTORE PUSH1 0x20 ADD PUSH1 0x0 DUP2 MSTORE PUSH1 0x20 ADD PUSH1 0x0 DUP2 MSTORE PUSH1 0x20 ADD PUSH1 0x0 DUP2 MSTORE PUSH1 0x20 ADD PUSH1 0x0 DUP2 MSTORE PUSH1 0x20 ADD PUSH1 0x0 ISZERO ISZERO DUP2 MSTORE PUSH1 0x20 ADD PUSH1 0x0 ISZERO ISZERO DUP2 MSTORE PUSH1 0x20 ADD PUSH1 0x0 ISZERO ISZERO DUP2 MSTORE PUSH1 0x20 ADD PUSH1 0x0 ISZERO ISZERO DUP2 MSTORE PUSH1 0x20 ADD PUSH1 0x0 ISZERO ISZERO DUP2 MSTORE PUSH1 0x20 ADD PUSH1 0x0 ISZERO ISZERO DUP2 MSTORE PUSH1 0x20 ADD PUSH1 0x60 DUP2 MSTORE POP SWAP1 JUMP JUMPDEST POP DUP1 SLOAD PUSH2 0x418E SWAP1 PUSH2 0x4A07 JUMP JUMPDEST PUSH1 0x0 DUP3 SSTORE DUP1 PUSH1 0x1F LT PUSH2 0x41A0 JUMPI POP PUSH2 0x41BF JUMP JUMPDEST PUSH1 0x1F ADD PUSH1 0x20 SWAP1 DIV SWAP1 PUSH1 0x0 MSTORE PUSH1 0x20 PUSH1 0x0 KECCAK256 SWAP1 DUP2 ADD SWAP1 PUSH2 0x41BE SWAP2 SWAP1 PUSH2 0x41C2 JUMP JUMPDEST JUMPDEST POP JUMP JUMPDEST JUMPDEST DUP1 DUP3 GT ISZERO PUSH2 0x41DB JUMPI PUSH1 0x0 DUP2 PUSH1 0x0 SWAP1 SSTORE POP PUSH1 0x1 ADD PUSH2 0x41C3 JUMP JUMPDEST POP SWAP1 JUMP JUMPDEST PUSH1 0x0 DUP3 DUP3 MSTORE PUSH1 0x20 DUP3 ADD SWAP1 POP SWAP3 SWAP2 POP POP JUMP JUMPDEST PUSH32 0x416464726573735F494E56000000000000000000000000000000000000000000 PUSH1 0x0 DUP3 ADD MSTORE POP JUMP JUMPDEST PUSH1 0x0 PUSH2 0x4226 PUSH1 0xB DUP4 PUSH2 0x41DF JUMP JUMPDEST SWAP2 POP PUSH2 0x4231 DUP3 PUSH2 0x41F0 JUMP JUMPDEST PUSH1 0x20 DUP3 ADD SWAP1 POP SWAP2 SWAP1 POP JUMP JUMPDEST PUSH1 0x0 PUSH1 0x20 DUP3 ADD SWAP1 POP DUP2 DUP2 SUB PUSH1 0x0 DUP4 ADD MSTORE PUSH2 0x4255 DUP2 PUSH2 0x4219 JUMP JUMPDEST SWAP1 POP SWAP2 SWAP1 POP JUMP JUMPDEST PUSH32 0x506C65617365207573652053746172744E657747616D652046756E6374696F6E PUSH1 0x0 DUP3 ADD MSTORE PUSH32 0x20746F2070617920636F6E74726163742E000000000000000000000000000000 PUSH1 0x20 DUP3 ADD MSTORE POP JUMP JUMPDEST PUSH1 0x0 PUSH2 0x42B8 PUSH1 0x31 DUP4 PUSH2 0x41DF JUMP JUMPDEST SWAP2 POP PUSH2 0x42C3 DUP3 PUSH2 0x425C JUMP JUMPDEST PUSH1 0x40 DUP3 ADD SWAP1 POP SWAP2 SWAP1 POP JUMP JUMPDEST PUSH1 0x0 PUSH1 0x20 DUP3 ADD SWAP1 POP DUP2 DUP2 SUB PUSH1 0x0 DUP4 ADD MSTORE PUSH2 0x42E7 DUP2 PUSH2 0x42AB JUMP JUMPDEST SWAP1 POP SWAP2 SWAP1 POP JUMP JUMPDEST PUSH32 0x46756E6374696F6E5F444E452E00000000000000000000000000000000000000 PUSH1 0x0 DUP3 ADD MSTORE POP JUMP JUMPDEST PUSH1 0x0 PUSH2 0x4324 PUSH1 0xD DUP4 PUSH2 0x41DF JUMP JUMPDEST SWAP2 POP PUSH2 0x432F DUP3 PUSH2 0x42EE JUMP JUMPDEST PUSH1 0x20 DUP3 ADD SWAP1 POP SWAP2 SWAP1 POP JUMP JUMPDEST PUSH1 0x0 PUSH1 0x20 DUP3 ADD SWAP1 POP DUP2 DUP2 SUB PUSH1 0x0 DUP4 ADD MSTORE PUSH2 0x4353 DUP2 PUSH2 0x4317 JUMP JUMPDEST SWAP1 POP SWAP2 SWAP1 POP JUMP JUMPDEST PUSH1 0x0 DUP1 REVERT JUMPDEST PUSH1 0x0 DUP2 SWAP1 POP SWAP2 SWAP1 POP JUMP JUMPDEST PUSH2 0x4372 DUP2 PUSH2 0x435F JUMP JUMPDEST DUP2 EQ PUSH2 0x437D JUMPI PUSH1 0x0 DUP1 REVERT JUMPDEST POP JUMP JUMPDEST PUSH1 0x0 DUP2 CALLDATALOAD SWAP1 POP PUSH2 0x438F DUP2 PUSH2 0x4369 JUMP JUMPDEST SWAP3 SWAP2 POP POP JUMP JUMPDEST PUSH1 0x0 PUSH1 0x20 DUP3 DUP5 SUB SLT ISZERO PUSH2 0x43AB JUMPI PUSH2 0x43AA PUSH2 0x435A JUMP JUMPDEST JUMPDEST PUSH1 0x0 PUSH2 0x43B9 DUP5 DUP3 DUP6 ADD PUSH2 0x4380 JUMP JUMPDEST SWAP2 POP POP SWAP3 SWAP2 POP POP JUMP JUMPDEST PUSH1 0x0 DUP2 MLOAD SWAP1 POP SWAP2 SWAP1 POP JUMP JUMPDEST PUSH1 0x0 JUMPDEST DUP4 DUP2 LT ISZERO PUSH2 0x43EB JUMPI DUP1 DUP3 ADD MLOAD DUP2 DUP5 ADD MSTORE PUSH1 0x20 DUP2 ADD SWAP1 POP PUSH2 0x43D0 JUMP JUMPDEST PUSH1 0x0 DUP5 DUP5 ADD MSTORE POP POP POP POP JUMP JUMPDEST PUSH1 0x0 PUSH1 0x1F NOT PUSH1 0x1F DUP4 ADD AND SWAP1 POP SWAP2 SWAP1 POP JUMP JUMPDEST PUSH1 0x0 PUSH2 0x4413 DUP3 PUSH2 0x43C2 JUMP JUMPDEST PUSH2 0x441D DUP2 DUP6 PUSH2 0x41DF JUMP JUMPDEST SWAP4 POP PUSH2 0x442D DUP2 DUP6 PUSH1 0x20 DUP7 ADD PUSH2 0x43CD JUMP JUMPDEST PUSH2 0x4436 DUP2 PUSH2 0x43F7 JUMP JUMPDEST DUP5 ADD SWAP2 POP POP SWAP3 SWAP2 POP POP JUMP JUMPDEST PUSH1 0x0 PUSH2 0x180 DUP3 ADD SWAP1 POP DUP2 DUP2 SUB PUSH1 0x0 DUP4 ADD MSTORE PUSH2 0x445C DUP2 DUP16 PUSH2 0x4408 JUMP JUMPDEST SWAP1 POP DUP2 DUP2 SUB PUSH1 0x20 DUP4 ADD MSTORE PUSH2 0x4470 DUP2 DUP15 PUSH2 0x4408 JUMP JUMPDEST SWAP1 POP DUP2 DUP2 SUB PUSH1 0x40 DUP4 ADD MSTORE PUSH2 0x4484 DUP2 DUP14 PUSH2 0x4408 JUMP JUMPDEST SWAP1 POP DUP2 DUP2 SUB PUSH1 0x60 DUP4 ADD MSTORE PUSH2 0x4498 DUP2 DUP13 PUSH2 0x4408 JUMP JUMPDEST SWAP1 POP DUP2 DUP2 SUB PUSH1 0x80 DUP4 ADD MSTORE PUSH2 0x44AC DUP2 DUP12 PUSH2 0x4408 JUMP JUMPDEST SWAP1 POP DUP2 DUP2 SUB PUSH1 0xA0 DUP4 ADD MSTORE PUSH2 0x44C0 DUP2 DUP11 PUSH2 0x4408 JUMP JUMPDEST SWAP1 POP DUP2 DUP2 SUB PUSH1 0xC0 DUP4 ADD MSTORE PUSH2 0x44D4 DUP2 DUP10 PUSH2 0x4408 JUMP JUMPDEST SWAP1 POP DUP2 DUP2 SUB PUSH1 0xE0 DUP4 ADD MSTORE PUSH2 0x44E8 DUP2 DUP9 PUSH2 0x4408 JUMP JUMPDEST SWAP1 POP DUP2 DUP2 SUB PUSH2 0x100 DUP4 ADD MSTORE PUSH2 0x44FD DUP2 DUP8 PUSH2 0x4408 JUMP JUMPDEST SWAP1 POP DUP2 DUP2 SUB PUSH2 0x120 DUP4 ADD MSTORE PUSH2 0x4512 DUP2 DUP7 PUSH2 0x4408 JUMP JUMPDEST SWAP1 POP DUP2 DUP2 SUB PUSH2 0x140 DUP4 ADD MSTORE PUSH2 0x4527 DUP2 DUP6 PUSH2 0x4408 JUMP JUMPDEST SWAP1 POP DUP2 DUP2 SUB PUSH2 0x160 DUP4 ADD MSTORE PUSH2 0x453C DUP2 DUP5 PUSH2 0x4408 JUMP JUMPDEST SWAP1 POP SWAP14 SWAP13 POP POP POP POP POP POP POP POP POP POP POP POP POP JUMP JUMPDEST PUSH2 0x4558 DUP2 PUSH2 0x435F JUMP JUMPDEST DUP3 MSTORE POP POP JUMP JUMPDEST PUSH1 0x0 PUSH20 0xFFFFFFFFFFFFFFFFFFFFFFFFFFFFFFFFFFFFFFFF DUP3 AND SWAP1 POP SWAP2 SWAP1 POP JUMP JUMPDEST PUSH1 0x0 PUSH2 0x4589 DUP3 PUSH2 0x455E JUMP JUMPDEST SWAP1 POP SWAP2 SWAP1 POP JUMP JUMPDEST PUSH2 0x4599 DUP2 PUSH2 0x457E JUMP JUMPDEST DUP3 MSTORE POP POP JUMP JUMPDEST PUSH1 0x0 DUP2 ISZERO ISZERO SWAP1 POP SWAP2 SWAP1 POP JUMP JUMPDEST PUSH2 0x45B4 DUP2 PUSH2 0x459F JUMP JUMPDEST DUP3 MSTORE POP POP JUMP JUMPDEST PUSH1 0x0 DUP3 DUP3 MSTORE PUSH1 0x20 DUP3 ADD SWAP1 POP SWAP3 SWAP2 POP POP JUMP JUMPDEST PUSH1 0x0 PUSH2 0x45D6 DUP3 PUSH2 0x43C2 JUMP JUMPDEST PUSH2 0x45E0 DUP2 DUP6 PUSH2 0x45BA JUMP JUMPDEST SWAP4 POP PUSH2 0x45F0 DUP2 DUP6 PUSH1 0x20 DUP7 ADD PUSH2 0x43CD JUMP JUMPDEST PUSH2 0x45F9 DUP2 PUSH2 0x43F7 JUMP JUMPDEST DUP5 ADD SWAP2 POP POP SWAP3 SWAP2 POP POP JUMP JUMPDEST PUSH1 0x0 PUSH2 0x300 DUP4 ADD PUSH1 0x0 DUP4 ADD MLOAD PUSH2 0x461D PUSH1 0x0 DUP7 ADD DUP3 PUSH2 0x454F JUMP JUMPDEST POP PUSH1 0x20 DUP4 ADD MLOAD PUSH2 0x4630 PUSH1 0x20 DUP7 ADD DUP3 PUSH2 0x4590 JUMP JUMPDEST POP PUSH1 0x40 DUP4 ADD MLOAD PUSH2 0x4643 PUSH1 0x40 DUP7 ADD DUP3 PUSH2 0x454F JUMP JUMPDEST POP PUSH1 0x60 DUP4 ADD MLOAD PUSH2 0x4656 PUSH1 0x60 DUP7 ADD DUP3 PUSH2 0x454F JUMP JUMPDEST POP PUSH1 0x80 DUP4 ADD MLOAD PUSH2 0x4669 PUSH1 0x80 DUP7 ADD DUP3 PUSH2 0x454F JUMP JUMPDEST POP PUSH1 0xA0 DUP4 ADD MLOAD PUSH2 0x467C PUSH1 0xA0 DUP7 ADD DUP3 PUSH2 0x454F JUMP JUMPDEST POP PUSH1 0xC0 DUP4 ADD MLOAD PUSH2 0x468F PUSH1 0xC0 DUP7 ADD DUP3 PUSH2 0x454F JUMP JUMPDEST POP PUSH1 0xE0 DUP4 ADD MLOAD PUSH2 0x46A2 PUSH1 0xE0 DUP7 ADD DUP3 PUSH2 0x454F JUMP JUMPDEST POP PUSH2 0x100 DUP4 ADD MLOAD PUSH2 0x46B7 PUSH2 0x100 DUP7 ADD DUP3 PUSH2 0x454F JUMP JUMPDEST POP PUSH2 0x120 DUP4 ADD MLOAD PUSH2 0x46CC PUSH2 0x120 DUP7 ADD DUP3 PUSH2 0x454F JUMP JUMPDEST POP PUSH2 0x140 DUP4 ADD MLOAD PUSH2 0x46E1 PUSH2 0x140 DUP7 ADD DUP3 PUSH2 0x454F JUMP JUMPDEST POP PUSH2 0x160 DUP4 ADD MLOAD PUSH2 0x46F6 PUSH2 0x160 DUP7 ADD DUP3 PUSH2 0x454F JUMP JUMPDEST POP PUSH2 0x180 DUP4 ADD MLOAD PUSH2 0x470B PUSH2 0x180 DUP7 ADD DUP3 PUSH2 0x454F JUMP JUMPDEST POP PUSH2 0x1A0 DUP4 ADD MLOAD PUSH2 0x4720 PUSH2 0x1A0 DUP7 ADD DUP3 PUSH2 0x454F JUMP JUMPDEST POP PUSH2 0x1C0 DUP4 ADD MLOAD PUSH2 0x4735 PUSH2 0x1C0 DUP7 ADD DUP3 PUSH2 0x454F JUMP JUMPDEST POP PUSH2 0x1E0 DUP4 ADD MLOAD PUSH2 0x474A PUSH2 0x1E0 DUP7 ADD DUP3 PUSH2 0x454F JUMP JUMPDEST POP PUSH2 0x200 DUP4 ADD MLOAD PUSH2 0x475F PUSH2 0x200 DUP7 ADD DUP3 PUSH2 0x454F JUMP JUMPDEST POP PUSH2 0x220 DUP4 ADD MLOAD PUSH2 0x4774 PUSH2 0x220 DUP7 ADD DUP3 PUSH2 0x45AB JUMP JUMPDEST POP PUSH2 0x240 DUP4 ADD MLOAD PUSH2 0x4789 PUSH2 0x240 DUP7 ADD DUP3 PUSH2 0x45AB JUMP JUMPDEST POP PUSH2 0x260 DUP4 ADD MLOAD PUSH2 0x479E PUSH2 0x260 DUP7 ADD DUP3 PUSH2 0x45AB JUMP JUMPDEST POP PUSH2 0x280 DUP4 ADD MLOAD PUSH2 0x47B3 PUSH2 0x280 DUP7 ADD DUP3 PUSH2 0x45AB JUMP JUMPDEST POP PUSH2 0x2A0 DUP4 ADD MLOAD PUSH2 0x47C8 PUSH2 0x2A0 DUP7 ADD DUP3 PUSH2 0x45AB JUMP JUMPDEST POP PUSH2 0x2C0 DUP4 ADD MLOAD PUSH2 0x47DD PUSH2 0x2C0 DUP7 ADD DUP3 PUSH2 0x45AB JUMP JUMPDEST POP PUSH2 0x2E0 DUP4 ADD MLOAD DUP5 DUP3 SUB PUSH2 0x2E0 DUP7 ADD MSTORE PUSH2 0x47F7 DUP3 DUP3 PUSH2 0x45CB JUMP JUMPDEST SWAP2 POP POP DUP1 SWAP2 POP POP SWAP3 SWAP2 POP POP JUMP JUMPDEST PUSH1 0x0 PUSH1 0x20 DUP3 ADD SWAP1 POP DUP2 DUP2 SUB PUSH1 0x0 DUP4 ADD MSTORE PUSH2 0x481E DUP2 DUP5 PUSH2 0x4604 JUMP JUMPDEST SWAP1 POP SWAP3 SWAP2 POP POP JUMP JUMPDEST PUSH32 0x4578697374696E67506C617965725F4343460000000000000000000000000000 PUSH1 0x0 DUP3 ADD MSTORE POP JUMP JUMPDEST PUSH1 0x0 PUSH2 0x485C PUSH1 0x12 DUP4 PUSH2 0x41DF JUMP JUMPDEST SWAP2 POP PUSH2 0x4867 DUP3 PUSH2 0x4826 JUMP JUMPDEST PUSH1 0x20 DUP3 ADD SWAP1 POP SWAP2 SWAP1 POP JUMP JUMPDEST PUSH1 0x0 PUSH1 0x20 DUP3 ADD SWAP1 POP DUP2 DUP2 SUB PUSH1 0x0 DUP4 ADD MSTORE PUSH2 0x488B DUP2 PUSH2 0x484F JUMP JUMPDEST SWAP1 POP SWAP2 SWAP1 POP JUMP JUMPDEST PUSH32 0x4465706F7369745F4C696D697400000000000000000000000000000000000000 PUSH1 0x0 DUP3 ADD MSTORE POP JUMP JUMPDEST PUSH1 0x0 PUSH2 0x48C8 PUSH1 0xD DUP4 PUSH2 0x41DF JUMP JUMPDEST SWAP2 POP PUSH2 0x48D3 DUP3 PUSH2 0x4892 JUMP JUMPDEST PUSH1 0x20 DUP3 ADD SWAP1 POP SWAP2 SWAP1 POP JUMP JUMPDEST PUSH1 0x0 PUSH1 0x20 DUP3 ADD SWAP1 POP DUP2 DUP2 SUB PUSH1 0x0 DUP4 ADD MSTORE PUSH2 0x48F7 DUP2 PUSH2 0x48BB JUMP JUMPDEST SWAP1 POP SWAP2 SWAP1 POP JUMP JUMPDEST PUSH32 0x4E487B7100000000000000000000000000000000000000000000000000000000 PUSH1 0x0 MSTORE PUSH1 0x11 PUSH1 0x4 MSTORE PUSH1 0x24 PUSH1 0x0 REVERT JUMPDEST PUSH1 0x0 PUSH2 0x4938 DUP3 PUSH2 0x435F JUMP JUMPDEST SWAP2 POP PUSH2 0x4943 DUP4 PUSH2 0x435F JUMP JUMPDEST SWAP3 POP DUP3 DUP3 ADD SWAP1 POP DUP1 DUP3 GT ISZERO PUSH2 0x495B JUMPI PUSH2 0x495A PUSH2 0x48FE JUMP JUMPDEST JUMPDEST SWAP3 SWAP2 POP POP JUMP JUMPDEST PUSH1 0x0 PUSH2 0x496C DUP3 PUSH2 0x435F JUMP JUMPDEST SWAP2 POP PUSH32 0xFFFFFFFFFFFFFFFFFFFFFFFFFFFFFFFFFFFFFFFFFFFFFFFFFFFFFFFFFFFFFFFF DUP3 SUB PUSH2 0x499E JUMPI PUSH2 0x499D PUSH2 0x48FE JUMP JUMPDEST JUMPDEST PUSH1 0x1 DUP3 ADD SWAP1 POP SWAP2 SWAP1 POP JUMP JUMPDEST PUSH32 0x4E487B7100000000000000000000000000000000000000000000000000000000 PUSH1 0x0 MSTORE PUSH1 0x41 PUSH1 0x4 MSTORE PUSH1 0x24 PUSH1 0x0 REVERT JUMPDEST PUSH32 0x4E487B7100000000000000000000000000000000000000000000000000000000 PUSH1 0x0 MSTORE PUSH1 0x22 PUSH1 0x4 MSTORE PUSH1 0x24 PUSH1 0x0 REVERT JUMPDEST PUSH1 0x0 PUSH1 0x2 DUP3 DIV SWAP1 POP PUSH1 0x1 DUP3 AND DUP1 PUSH2 0x4A1F JUMPI PUSH1 0x7F DUP3 AND SWAP2 POP JUMPDEST PUSH1 0x20 DUP3 LT DUP2 SUB PUSH2 0x4A32 JUMPI PUSH2 0x4A31 PUSH2 0x49D8 JUMP JUMPDEST JUMPDEST POP SWAP2 SWAP1 POP JUMP JUMPDEST PUSH1 0x0 DUP2 SWAP1 POP DUP2 PUSH1 0x0 MSTORE PUSH1 0x20 PUSH1 0x0 KECCAK256 SWAP1 POP SWAP2 SWAP1 POP JUMP JUMPDEST PUSH1 0x0 PUSH1 0x20 PUSH1 0x1F DUP4 ADD DIV SWAP1 POP SWAP2 SWAP1 POP JUMP JUMPDEST PUSH1 0x0 DUP3 DUP3 SHL SWAP1 POP SWAP3 SWAP2 POP POP JUMP JUMPDEST PUSH1 0x0 PUSH1 0x8 DUP4 MUL PUSH2 0x4A9A PUSH32 0xFFFFFFFFFFFFFFFFFFFFFFFFFFFFFFFFFFFFFFFFFFFFFFFFFFFFFFFFFFFFFFFF DUP3 PUSH2 0x4A5D JUMP JUMPDEST PUSH2 0x4AA4 DUP7 DUP4 PUSH2 0x4A5D JUMP JUMPDEST SWAP6 POP DUP1 NOT DUP5 AND SWAP4 POP DUP1 DUP7 AND DUP5 OR SWAP3 POP POP POP SWAP4 SWAP3 POP POP POP JUMP JUMPDEST PUSH1 0x0 DUP2 SWAP1 POP SWAP2 SWAP1 POP JUMP JUMPDEST PUSH1 0x0 PUSH2 0x4AE1 PUSH2 0x4ADC PUSH2 0x4AD7 DUP5 PUSH2 0x435F JUMP JUMPDEST PUSH2 0x4ABC JUMP JUMPDEST PUSH2 0x435F JUMP JUMPDEST SWAP1 POP SWAP2 SWAP1 POP JUMP JUMPDEST PUSH1 0x0 DUP2 SWAP1 POP SWAP2 SWAP1 POP JUMP JUMPDEST PUSH2 0x4AFB DUP4 PUSH2 0x4AC6 JUMP JUMPDEST PUSH2 0x4B0F PUSH2 0x4B07 DUP3 PUSH2 0x4AE8 JUMP JUMPDEST DUP5 DUP5 SLOAD PUSH2 0x4A6A JUMP JUMPDEST DUP3 SSTORE POP POP POP POP JUMP JUMPDEST PUSH1 0x0 SWAP1 JUMP JUMPDEST PUSH2 0x4B24 PUSH2 0x4B17 JUMP JUMPDEST PUSH2 0x4B2F DUP2 DUP5 DUP5 PUSH2 0x4AF2 JUMP JUMPDEST POP POP POP JUMP JUMPDEST JUMPDEST DUP2 DUP2 LT ISZERO PUSH2 0x4B53 JUMPI PUSH2 0x4B48 PUSH1 0x0 DUP3 PUSH2 0x4B1C JUMP JUMPDEST PUSH1 0x1 DUP2 ADD SWAP1 POP PUSH2 0x4B35 JUMP JUMPDEST POP POP JUMP JUMPDEST PUSH1 0x1F DUP3 GT ISZERO PUSH2 0x4B98 JUMPI PUSH2 0x4B69 DUP2 PUSH2 0x4A38 JUMP JUMPDEST PUSH2 0x4B72 DUP5 PUSH2 0x4A4D JUMP JUMPDEST DUP2 ADD PUSH1 0x20 DUP6 LT ISZERO PUSH2 0x4B81 JUMPI DUP2 SWAP1 POP JUMPDEST PUSH2 0x4B95 PUSH2 0x4B8D DUP6 PUSH2 0x4A4D JUMP JUMPDEST DUP4 ADD DUP3 PUSH2 0x4B34 JUMP JUMPDEST POP POP JUMPDEST POP POP POP JUMP JUMPDEST PUSH1 0x0 DUP3 DUP3 SHR SWAP1 POP SWAP3 SWAP2 POP POP JUMP JUMPDEST PUSH1 0x0 PUSH2 0x4BBB PUSH1 0x0 NOT DUP5 PUSH1 0x8 MUL PUSH2 0x4B9D JUMP JUMPDEST NOT DUP1 DUP4 AND SWAP2 POP POP SWAP3 SWAP2 POP POP JUMP JUMPDEST PUSH1 0x0 PUSH2 0x4BD4 DUP4 DUP4 PUSH2 0x4BAA JUMP JUMPDEST SWAP2 POP DUP3 PUSH1 0x2 MUL DUP3 OR SWAP1 POP SWAP3 SWAP2 POP POP JUMP JUMPDEST PUSH2 0x4BED DUP3 PUSH2 0x43C2 JUMP JUMPDEST PUSH8 0xFFFFFFFFFFFFFFFF DUP2 GT ISZERO PUSH2 0x4C06 JUMPI PUSH2 0x4C05 PUSH2 0x49A9 JUMP JUMPDEST JUMPDEST PUSH2 0x4C10 DUP3 SLOAD PUSH2 0x4A07 JUMP JUMPDEST PUSH2 0x4C1B DUP3 DUP3 DUP6 PUSH2 0x4B57 JUMP JUMPDEST PUSH1 0x0 PUSH1 0x20 SWAP1 POP PUSH1 0x1F DUP4 GT PUSH1 0x1 DUP2 EQ PUSH2 0x4C4E JUMPI PUSH1 0x0 DUP5 ISZERO PUSH2 0x4C3C JUMPI DUP3 DUP8 ADD MLOAD SWAP1 POP JUMPDEST PUSH2 0x4C46 DUP6 DUP3 PUSH2 0x4BC8 JUMP JUMPDEST DUP7 SSTORE POP PUSH2 0x4CAE JUMP JUMPDEST PUSH1 0x1F NOT DUP5 AND PUSH2 0x4C5C DUP7 PUSH2 0x4A38 JUMP JUMPDEST PUSH1 0x0 JUMPDEST DUP3 DUP2 LT ISZERO PUSH2 0x4C84 JUMPI DUP5 DUP10 ADD MLOAD DUP3 SSTORE PUSH1 0x1 DUP3 ADD SWAP2 POP PUSH1 0x20 DUP6 ADD SWAP5 POP PUSH1 0x20 DUP2 ADD SWAP1 POP PUSH2 0x4C5F JUMP JUMPDEST DUP7 DUP4 LT ISZERO PUSH2 0x4CA1 JUMPI DUP5 DUP10 ADD MLOAD PUSH2 0x4C9D PUSH1 0x1F DUP10 AND DUP3 PUSH2 0x4BAA JUMP JUMPDEST DUP4 SSTORE POP JUMPDEST PUSH1 0x1 PUSH1 0x2 DUP9 MUL ADD DUP9 SSTORE POP POP POP JUMPDEST POP POP POP POP POP POP JUMP JUMPDEST PUSH32 0x47616D655F444E45000000000000000000000000000000000000000000000000 PUSH1 0x0 DUP3 ADD MSTORE POP JUMP JUMPDEST PUSH1 0x0 PUSH2 0x4CEC PUSH1 0x8 DUP4 PUSH2 0x41DF JUMP JUMPDEST SWAP2 POP PUSH2 0x4CF7 DUP3 PUSH2 0x4CB6 JUMP JUMPDEST PUSH1 0x20 DUP3 ADD SWAP1 POP SWAP2 SWAP1 POP JUMP JUMPDEST PUSH1 0x0 PUSH1 0x20 DUP3 ADD SWAP1 POP DUP2 DUP2 SUB PUSH1 0x0 DUP4 ADD MSTORE PUSH2 0x4D1B DUP2 PUSH2 0x4CDF JUMP JUMPDEST SWAP1 POP SWAP2 SWAP1 POP JUMP JUMPDEST PUSH32 0x4F6E506C617965725475726E5F4F6E6C79000000000000000000000000000000 PUSH1 0x0 DUP3 ADD MSTORE POP JUMP JUMPDEST PUSH1 0x0 PUSH2 0x4D58 PUSH1 0x11 DUP4 PUSH2 0x41DF JUMP JUMPDEST SWAP2 POP PUSH2 0x4D63 DUP3 PUSH2 0x4D22 JUMP JUMPDEST PUSH1 0x20 DUP3 ADD SWAP1 POP SWAP2 SWAP1 POP JUMP JUMPDEST PUSH1 0x0 PUSH1 0x20 DUP3 ADD SWAP1 POP DUP2 DUP2 SUB PUSH1 0x0 DUP4 ADD MSTORE PUSH2 0x4D87 DUP2 PUSH2 0x4D4B JUMP JUMPDEST SWAP1 POP SWAP2 SWAP1 POP JUMP JUMPDEST PUSH1 0x0 PUSH2 0x4D99 DUP3 PUSH2 0x435F JUMP JUMPDEST SWAP2 POP PUSH2 0x4DA4 DUP4 PUSH2 0x435F JUMP JUMPDEST SWAP3 POP DUP3 DUP3 SUB SWAP1 POP DUP2 DUP2 GT ISZERO PUSH2 0x4DBC JUMPI PUSH2 0x4DBB PUSH2 0x48FE JUMP JUMPDEST JUMPDEST SWAP3 SWAP2 POP POP JUMP JUMPDEST PUSH32 0x4F6E43616E53706C69745475726E5F4F6E6C7900000000000000000000000000 PUSH1 0x0 DUP3 ADD MSTORE POP JUMP JUMPDEST PUSH1 0x0 PUSH2 0x4DF8 PUSH1 0x13 DUP4 PUSH2 0x41DF JUMP JUMPDEST SWAP2 POP PUSH2 0x4E03 DUP3 PUSH2 0x4DC2 JUMP JUMPDEST PUSH1 0x20 DUP3 ADD SWAP1 POP SWAP2 SWAP1 POP JUMP JUMPDEST PUSH1 0x0 PUSH1 0x20 DUP3 ADD SWAP1 POP DUP2 DUP2 SUB PUSH1 0x0 DUP4 ADD MSTORE PUSH2 0x4E27 DUP2 PUSH2 0x4DEB JUMP JUMPDEST SWAP1 POP SWAP2 SWAP1 POP JUMP JUMPDEST PUSH32 0x4E487B7100000000000000000000000000000000000000000000000000000000 PUSH1 0x0 MSTORE PUSH1 0x12 PUSH1 0x4 MSTORE PUSH1 0x24 PUSH1 0x0 REVERT JUMPDEST PUSH1 0x0 PUSH2 0x4E68 DUP3 PUSH2 0x435F JUMP JUMPDEST SWAP2 POP PUSH2 0x4E73 DUP4 PUSH2 0x435F JUMP JUMPDEST SWAP3 POP DUP3 PUSH2 0x4E83 JUMPI PUSH2 0x4E82 PUSH2 0x4E2E JUMP JUMPDEST JUMPDEST DUP3 DUP3 DIV SWAP1 POP SWAP3 SWAP2 POP POP JUMP JUMPDEST PUSH32 0x49734E6577526F756E645F4F6E6C790000000000000000000000000000000000 PUSH1 0x0 DUP3 ADD MSTORE POP JUMP JUMPDEST PUSH1 0x0 PUSH2 0x4EC4 PUSH1 0xF DUP4 PUSH2 0x41DF JUMP JUMPDEST SWAP2 POP PUSH2 0x4ECF DUP3 PUSH2 0x4E8E JUMP JUMPDEST PUSH1 0x20 DUP3 ADD SWAP1 POP SWAP2 SWAP1 POP JUMP JUMPDEST PUSH1 0x0 PUSH1 0x20 DUP3 ADD SWAP1 POP DUP2 DUP2 SUB PUSH1 0x0 DUP4 ADD MSTORE PUSH2 0x4EF3 DUP2 PUSH2 0x4EB7 JUMP JUMPDEST SWAP1 POP SWAP2 SWAP1 POP JUMP JUMPDEST PUSH32 0x4265745F4C696D69740000000000000000000000000000000000000000000000 PUSH1 0x0 DUP3 ADD MSTORE POP JUMP JUMPDEST PUSH1 0x0 PUSH2 0x4F30 PUSH1 0x9 DUP4 PUSH2 0x41DF JUMP JUMPDEST SWAP2 POP PUSH2 0x4F3B DUP3 PUSH2 0x4EFA JUMP JUMPDEST PUSH1 0x20 DUP3 ADD SWAP1 POP SWAP2 SWAP1 POP JUMP JUMPDEST PUSH1 0x0 PUSH1 0x20 DUP3 ADD SWAP1 POP DUP2 DUP2 SUB PUSH1 0x0 DUP4 ADD MSTORE PUSH2 0x4F5F DUP2 PUSH2 0x4F23 JUMP JUMPDEST SWAP1 POP SWAP2 SWAP1 POP JUMP JUMPDEST PUSH32 0x494E535F46756E64730000000000000000000000000000000000000000000000 PUSH1 0x0 DUP3 ADD MSTORE POP JUMP JUMPDEST PUSH1 0x0 PUSH2 0x4F9C PUSH1 0x9 DUP4 PUSH2 0x41DF JUMP JUMPDEST SWAP2 POP PUSH2 0x4FA7 DUP3 PUSH2 0x4F66 JUMP JUMPDEST PUSH1 0x20 DUP3 ADD SWAP1 POP SWAP2 SWAP1 POP JUMP JUMPDEST PUSH1 0x0 PUSH1 0x20 DUP3 ADD SWAP1 POP DUP2 DUP2 SUB PUSH1 0x0 DUP4 ADD MSTORE PUSH2 0x4FCB DUP2 PUSH2 0x4F8F JUMP JUMPDEST SWAP1 POP SWAP2 SWAP1 POP JUMP JUMPDEST PUSH32 0x4F6E43616E496E737572655475726E5F4F6E6C79000000000000000000000000 PUSH1 0x0 DUP3 ADD MSTORE POP JUMP JUMPDEST PUSH1 0x0 PUSH2 0x5008 PUSH1 0x14 DUP4 PUSH2 0x41DF JUMP JUMPDEST SWAP2 POP PUSH2 0x5013 DUP3 PUSH2 0x4FD2 JUMP JUMPDEST PUSH1 0x20 DUP3 ADD SWAP1 POP SWAP2 SWAP1 POP JUMP JUMPDEST PUSH1 0x0 PUSH1 0x20 DUP3 ADD SWAP1 POP DUP2 DUP2 SUB PUSH1 0x0 DUP4 ADD MSTORE PUSH2 0x5037 DUP2 PUSH2 0x4FFB JUMP JUMPDEST SWAP1 POP SWAP2 SWAP1 POP JUMP JUMPDEST PUSH32 0x202D2D3E20000000000000000000000000000000000000000000000000000000 DUP2 MSTORE POP JUMP JUMPDEST PUSH1 0x0 DUP2 SWAP1 POP SWAP3 SWAP2 POP POP JUMP JUMPDEST PUSH1 0x0 PUSH2 0x507A DUP3 PUSH2 0x43C2 JUMP JUMPDEST PUSH2 0x5084 DUP2 DUP6 PUSH2 0x5064 JUMP JUMPDEST SWAP4 POP PUSH2 0x5094 DUP2 DUP6 PUSH1 0x20 DUP7 ADD PUSH2 0x43CD JUMP JUMPDEST DUP1 DUP5 ADD SWAP2 POP POP SWAP3 SWAP2 POP POP JUMP JUMPDEST PUSH1 0x0 PUSH2 0x50AB DUP3 PUSH2 0x503E JUMP JUMPDEST PUSH1 0x5 DUP3 ADD SWAP2 POP PUSH2 0x50BB DUP3 DUP5 PUSH2 0x506F JUMP JUMPDEST SWAP2 POP DUP2 SWAP1 POP SWAP3 SWAP2 POP POP JUMP JUMPDEST PUSH32 0x202D2D2D2D2D2D3E200000000000000000000000000000000000000000000000 DUP2 MSTORE POP JUMP JUMPDEST PUSH1 0x0 PUSH2 0x50F7 DUP3 PUSH2 0x50C6 JUMP JUMPDEST PUSH1 0x9 DUP3 ADD SWAP2 POP PUSH2 0x5107 DUP3 DUP5 PUSH2 0x506F JUMP JUMPDEST SWAP2 POP DUP2 SWAP1 POP SWAP3 SWAP2 POP POP JUMP JUMPDEST PUSH32 0x2077656900000000000000000000000000000000000000000000000000000000 DUP2 MSTORE POP JUMP JUMPDEST PUSH1 0x0 PUSH2 0x5143 DUP3 PUSH2 0x503E JUMP JUMPDEST PUSH1 0x5 DUP3 ADD SWAP2 POP PUSH2 0x5153 DUP3 DUP5 PUSH2 0x506F JUMP JUMPDEST SWAP2 POP PUSH2 0x515E DUP3 PUSH2 0x5112 JUMP JUMPDEST PUSH1 0x4 DUP3 ADD SWAP2 POP DUP2 SWAP1 POP SWAP3 SWAP2 POP POP JUMP JUMPDEST PUSH32 0x4E487B7100000000000000000000000000000000000000000000000000000000 PUSH1 0x0 MSTORE PUSH1 0x1 PUSH1 0x4 MSTORE PUSH1 0x24 PUSH1 0x0 REVERT JUMPDEST PUSH32 0x4F6E43616E446F75626C65446F776E5475726E5F4F6E6C790000000000000000 PUSH1 0x0 DUP3 ADD MSTORE POP JUMP JUMPDEST PUSH1 0x0 PUSH2 0x51D2 PUSH1 0x18 DUP4 PUSH2 0x41DF JUMP JUMPDEST SWAP2 POP PUSH2 0x51DD DUP3 PUSH2 0x519C JUMP JUMPDEST PUSH1 0x20 DUP3 ADD SWAP1 POP SWAP2 SWAP1 POP JUMP JUMPDEST PUSH1 0x0 PUSH1 0x20 DUP3 ADD SWAP1 POP DUP2 DUP2 SUB PUSH1 0x0 DUP4 ADD MSTORE PUSH2 0x5201 DUP2 PUSH2 0x51C5 JUMP JUMPDEST SWAP1 POP SWAP2 SWAP1 POP JUMP JUMPDEST PUSH1 0x0 PUSH2 0x5213 DUP3 PUSH2 0x435F JUMP JUMPDEST SWAP2 POP PUSH2 0x521E DUP4 PUSH2 0x435F JUMP JUMPDEST SWAP3 POP DUP3 DUP3 MUL PUSH2 0x522C DUP2 PUSH2 0x435F JUMP JUMPDEST SWAP2 POP DUP3 DUP3 DIV DUP5 EQ DUP4 ISZERO OR PUSH2 0x5243 JUMPI PUSH2 0x5242 PUSH2 0x48FE JUMP JUMPDEST JUMPDEST POP SWAP3 SWAP2 POP POP JUMP JUMPDEST PUSH1 0x0 PUSH2 0x5255 DUP3 PUSH2 0x435F JUMP JUMPDEST SWAP2 POP PUSH2 0x5260 DUP4 PUSH2 0x435F JUMP JUMPDEST SWAP3 POP DUP3 PUSH2 0x5270 JUMPI PUSH2 0x526F PUSH2 0x4E2E JUMP JUMPDEST JUMPDEST DUP3 DUP3 MOD SWAP1 POP SWAP3 SWAP2 POP POP JUMP JUMPDEST PUSH1 0x0 DUP2 SWAP1 POP SWAP2 SWAP1 POP JUMP JUMPDEST PUSH1 0x0 DUP2 SWAP1 POP SWAP2 SWAP1 POP JUMP JUMPDEST PUSH2 0x52A0 PUSH2 0x529B DUP3 PUSH2 0x527B JUMP JUMPDEST PUSH2 0x5285 JUMP JUMPDEST DUP3 MSTORE POP POP JUMP JUMPDEST PUSH1 0x0 DUP2 SWAP1 POP SWAP2 SWAP1 POP JUMP JUMPDEST PUSH2 0x52C1 PUSH2 0x52BC DUP3 PUSH2 0x435F JUMP JUMPDEST PUSH2 0x52A6 JUMP JUMPDEST DUP3 MSTORE POP POP JUMP JUMPDEST PUSH1 0x0 PUSH2 0x52D3 DUP3 DUP6 PUSH2 0x528F JUMP JUMPDEST PUSH1 0x20 DUP3 ADD SWAP2 POP PUSH2 0x52E3 DUP3 DUP5 PUSH2 0x52B0 JUMP JUMPDEST PUSH1 0x20 DUP3 ADD SWAP2 POP DUP2 SWAP1 POP SWAP4 SWAP3 POP POP POP JUMP JUMPDEST PUSH1 0x0 DUP2 SLOAD PUSH2 0x5300 DUP2 PUSH2 0x4A07 JUMP JUMPDEST PUSH2 0x530A DUP2 DUP7 PUSH2 0x5064 JUMP JUMPDEST SWAP5 POP PUSH1 0x1 DUP3 AND PUSH1 0x0 DUP2 EQ PUSH2 0x5325 JUMPI PUSH1 0x1 DUP2 EQ PUSH2 0x533A JUMPI PUSH2 0x536D JUMP JUMPDEST PUSH1 0xFF NOT DUP4 AND DUP7 MSTORE DUP2 ISZERO ISZERO DUP3 MUL DUP7 ADD SWAP4 POP PUSH2 0x536D JUMP JUMPDEST PUSH2 0x5343 DUP6 PUSH2 0x4A38 JUMP JUMPDEST PUSH1 0x0 JUMPDEST DUP4 DUP2 LT ISZERO PUSH2 0x5365 JUMPI DUP2 SLOAD DUP2 DUP10 ADD MSTORE PUSH1 0x1 DUP3 ADD SWAP2 POP PUSH1 0x20 DUP2 ADD SWAP1 POP PUSH2 0x5346 JUMP JUMPDEST DUP4 DUP9 ADD SWAP6 POP POP POP JUMPDEST POP POP POP SWAP3 SWAP2 POP POP JUMP JUMPDEST PUSH32 0x20506C6179657220776F6E2073706C69742068616E642E000000000000000000 DUP2 MSTORE POP JUMP JUMPDEST PUSH1 0x0 PUSH2 0x53A8 DUP3 DUP5 PUSH2 0x52F3 JUMP JUMPDEST SWAP2 POP PUSH2 0x53B3 DUP3 PUSH2 0x5376 JUMP JUMPDEST PUSH1 0x17 DUP3 ADD SWAP2 POP DUP2 SWAP1 POP SWAP3 SWAP2 POP POP JUMP JUMPDEST PUSH32 0x20506C61796572206C6F73742073706C69742068616E642E0000000000000000 DUP2 MSTORE POP JUMP JUMPDEST PUSH1 0x0 PUSH2 0x53F4 DUP3 DUP5 PUSH2 0x52F3 JUMP JUMPDEST SWAP2 POP PUSH2 0x53FF DUP3 PUSH2 0x53C2 JUMP JUMPDEST PUSH1 0x18 DUP3 ADD SWAP2 POP DUP2 SWAP1 POP SWAP3 SWAP2 POP POP JUMP JUMPDEST PUSH32 0x205374616E644F6666206F6E2073706C69742068616E64210000000000000000 DUP2 MSTORE POP JUMP JUMPDEST PUSH1 0x0 PUSH2 0x5440 DUP3 DUP5 PUSH2 0x52F3 JUMP JUMPDEST SWAP2 POP PUSH2 0x544B DUP3 PUSH2 0x540E JUMP JUMPDEST PUSH1 0x18 DUP3 ADD SWAP2 POP DUP2 SWAP1 POP SWAP3 SWAP2 POP POP JUMP INVALID MSTORE8 PUSH17 0x6C69742068616E6420636F6D706C657465 0x2E KECCAK256 POP PUSH13 0x617965722773205475726E2E50 PUSH13 0x617965722773205475726E2E20 JUMPI PUSH2 0x6E74 KECCAK256 0x49 PUSH15 0x737572616E63653F20506C61796572 KECCAK256 PUSH4 0x616E2044 PUSH16 0x75626C6520446F776E2E506C61796572 0x27 PUSH20 0x205475726E2E2057616E7420496E737572616E63 PUSH6 0x3F20506C6179 PUSH6 0x722063616E20 MSTORE8 PUSH17 0x6C69742E506C617965722773205475726E 0x2E KECCAK256 JUMPI PUSH2 0x6E74 KECCAK256 0x49 PUSH15 0x737572616E63653F20506C61796572 KECCAK256 PUSH4 0x616E2053 PUSH17 0x6C6974206F7220446F75626C6520446F77 PUSH15 0x2E506C617965722773205475726E2E KECCAK256 POP PUSH13 0x617965722063616E2053706C69 PUSH21 0x206F7220446F75626C6520446F776E2E506C617965 PUSH19 0x2773205475726E2E20506C617965722063616E KECCAK256 PREVRANDAO PUSH16 0x75626C6520446F776E2EA26469706673 PC 0x22 SLT KECCAK256 MSTORE 0x4E SWAP14 0xBF SWAP1 0xC2 SWAP6 CALLDATASIZE 0xCB 0x2E PUSH22 0x5F1D9502E21DE396B037C97617808E6BE6CD579B5D64 PUSH20 0x6F6C634300081400330000000000000000000000 "},"methodIdentifiers":{"CashOut()":"a1e564b1","DoubleDown()":"e8a80e9a","GetGame()":"9ad01e3e","Hit()":"39ae2133","Insurance()":"622e5026","PlaceBet(uint256)":"5a6d41a0","ShowTable()":"7ce2974d","Split()":"55d842d7","Stand()":"58c5a7cc","StartNewGame()":"24603eea"}}}}}