{
  "contractName": "Blackjack",
  "abi": [
    {
      "inputs": [
        {
          "internalType": "uint256",
          "name": "_minBet",
          "type": "uint256"
        },
        {
          "internalType": "uint256",
          "name": "_maxBet",
          "type": "uint256"
        }
      ],
      "stateMutability": "nonpayable",
      "type": "constructor"
    },
    {
      "anonymous": false,
      "inputs": [
        {
          "indexed": true,
          "internalType": "uint256",
          "name": "gameId",
          "type": "uint256"
        },
        {
          "indexed": true,
          "internalType": "address",
          "name": "recipient",
          "type": "address"
        },
        {
          "indexed": false,
          "internalType": "uint8",
          "name": "value",
          "type": "uint8"
        },
        {
          "indexed": false,
          "internalType": "uint8",
          "name": "suit",
          "type": "uint8"
        },
        {
          "indexed": false,
          "internalType": "bool",
          "name": "isDealer",
          "type": "bool"
        }
      ],
      "name": "CardDealt",
      "type": "event"
    },
    {
      "anonymous": false,
      "inputs": [
        {
          "indexed": true,
          "internalType": "uint256",
          "name": "gameId",
          "type": "uint256"
        },
        {
          "indexed": false,
          "internalType": "string",
          "name": "action",
          "type": "string"
        }
      ],
      "name": "DealerAction",
      "type": "event"
    },
    {
      "anonymous": false,
      "inputs": [
        {
          "indexed": true,
          "internalType": "uint256",
          "name": "gameId",
          "type": "uint256"
        }
      ],
      "name": "DealerTurn",
      "type": "event"
    },
    {
      "anonymous": false,
      "inputs": [
        {
          "indexed": true,
          "internalType": "uint256",
          "name": "gameId",
          "type": "uint256"
        },
        {
          "indexed": false,
          "internalType": "uint8",
          "name": "dealerScore",
          "type": "uint8"
        }
      ],
      "name": "DealerTurnComplete",
      "type": "event"
    },
    {
      "anonymous": false,
      "inputs": [
        {
          "indexed": true,
          "internalType": "uint256",
          "name": "gameId",
          "type": "uint256"
        },
        {
          "indexed": false,
          "internalType": "string",
          "name": "result",
          "type": "string"
        },
        {
          "indexed": false,
          "internalType": "uint256",
          "name": "payout",
          "type": "uint256"
        },
        {
          "indexed": false,
          "internalType": "uint8",
          "name": "playerScore",
          "type": "uint8"
        },
        {
          "indexed": false,
          "internalType": "uint8",
          "name": "dealerScore",
          "type": "uint8"
        }
      ],
      "name": "GameComplete",
      "type": "event"
    },
    {
      "anonymous": false,
      "inputs": [
        {
          "indexed": true,
          "internalType": "uint256",
          "name": "gameId",
          "type": "uint256"
        },
        {
          "indexed": true,
          "internalType": "address",
          "name": "player",
          "type": "address"
        },
        {
          "indexed": false,
          "internalType": "uint256",
          "name": "betAmount",
          "type": "uint256"
        }
      ],
      "name": "GameCreated",
      "type": "event"
    },
    {
      "anonymous": false,
      "inputs": [
        {
          "indexed": true,
          "internalType": "uint256",
          "name": "gameId",
          "type": "uint256"
        },
        {
          "indexed": false,
          "internalType": "bool",
          "name": "isSplitHand",
          "type": "bool"
        }
      ],
      "name": "HandBusted",
      "type": "event"
    },
    {
      "anonymous": false,
      "inputs": [
        {
          "indexed": true,
          "internalType": "uint256",
          "name": "lobbyId",
          "type": "uint256"
        },
        {
          "indexed": true,
          "internalType": "address",
          "name": "host",
          "type": "address"
        },
        {
          "indexed": false,
          "internalType": "uint256",
          "name": "refundAmount",
          "type": "uint256"
        }
      ],
      "name": "LobbyCancelled",
      "type": "event"
    },
    {
      "anonymous": false,
      "inputs": [
        {
          "indexed": true,
          "internalType": "uint256",
          "name": "lobbyId",
          "type": "uint256"
        },
        {
          "indexed": true,
          "internalType": "address",
          "name": "host",
          "type": "address"
        },
        {
          "indexed": false,
          "internalType": "uint256",
          "name": "betAmount",
          "type": "uint256"
        }
      ],
      "name": "LobbyCreated",
      "type": "event"
    },
    {
      "anonymous": false,
      "inputs": [
        {
          "indexed": true,
          "internalType": "uint256",
          "name": "lobbyId",
          "type": "uint256"
        },
        {
          "indexed": true,
          "internalType": "address",
          "name": "player",
          "type": "address"
        }
      ],
      "name": "LobbyJoined",
      "type": "event"
    },
    {
      "anonymous": false,
      "inputs": [
        {
          "indexed": true,
          "internalType": "uint256",
          "name": "lobbyId",
          "type": "uint256"
        }
      ],
      "name": "LobbyTimeout",
      "type": "event"
    },
    {
      "anonymous": false,
      "inputs": [
        {
          "indexed": true,
          "internalType": "uint256",
          "name": "gameId",
          "type": "uint256"
        },
        {
          "indexed": false,
          "internalType": "string",
          "name": "action",
          "type": "string"
        }
      ],
      "name": "PlayerAction",
      "type": "event"
    },
    {
      "anonymous": false,
      "inputs": [
        {
          "indexed": true,
          "internalType": "uint256",
          "name": "gameId",
          "type": "uint256"
        }
      ],
      "name": "PlayerTurn",
      "type": "event"
    },
    {
      "anonymous": false,
      "inputs": [
        {
          "indexed": true,
          "internalType": "uint256",
          "name": "gameId",
          "type": "uint256"
        }
      ],
      "name": "SplitHandStarted",
      "type": "event"
    },
    {
      "inputs": [],
      "name": "gameCounter",
      "outputs": [
        {
          "internalType": "uint256",
          "name": "",
          "type": "uint256"
        }
      ],
      "stateMutability": "view",
      "type": "function",
      "constant": true
    },
    {
      "inputs": [
        {
          "internalType": "uint256",
          "name": "",
          "type": "uint256"
        }
      ],
      "name": "games",
      "outputs": [
        {
          "internalType": "address payable",
          "name": "player",
          "type": "address"
        },
        {
          "internalType": "address payable",
          "name": "dealer",
          "type": "address"
        },
        {
          "internalType": "uint256",
          "name": "betAmount",
          "type": "uint256"
        },
        {
          "internalType": "uint256",
          "name": "dealerStake",
          "type": "uint256"
        },
        {
          "internalType": "uint256",
          "name": "gameId",
          "type": "uint256"
        },
        {
          "internalType": "enum Blackjack.GameState",
          "name": "state",
          "type": "uint8"
        },
        {
          "internalType": "enum Blackjack.ActionState",
          "name": "actionState",
          "type": "uint8"
        },
        {
          "internalType": "bool",
          "name": "isBlackjack",
          "type": "bool"
        },
        {
          "internalType": "bool",
          "name": "playerBusted",
          "type": "bool"
        },
        {
          "internalType": "bool",
          "name": "dealerBusted",
          "type": "bool"
        },
        {
          "internalType": "bool",
          "name": "isSplitHand",
          "type": "bool"
        },
        {
          "components": [
            {
              "internalType": "uint8",
              "name": "playerScore",
              "type": "uint8"
            },
            {
              "internalType": "uint8",
              "name": "dealerScore",
              "type": "uint8"
            }
          ],
          "internalType": "struct Blackjack.Scores",
          "name": "scores",
          "type": "tuple"
        },
        {
          "internalType": "uint256",
          "name": "lastActionTime",
          "type": "uint256"
        },
        {
          "internalType": "bool",
          "name": "splitHandCompleted",
          "type": "bool"
        },
        {
          "internalType": "uint256",
          "name": "splitBetAmount",
          "type": "uint256"
        },
        {
          "internalType": "bytes32",
          "name": "randomnessCommit",
          "type": "bytes32"
        }
      ],
      "stateMutability": "view",
      "type": "function",
      "constant": true
    },
    {
      "inputs": [
        {
          "internalType": "uint256",
          "name": "",
          "type": "uint256"
        }
      ],
      "name": "lobbies",
      "outputs": [
        {
          "internalType": "uint256",
          "name": "lobbyId",
          "type": "uint256"
        },
        {
          "internalType": "address payable",
          "name": "host",
          "type": "address"
        },
        {
          "internalType": "uint256",
          "name": "betAmount",
          "type": "uint256"
        },
        {
          "internalType": "enum Blackjack.LobbyStatus",
          "name": "status",
          "type": "uint8"
        },
        {
          "internalType": "uint256",
          "name": "gameId",
          "type": "uint256"
        },
        {
          "internalType": "uint256",
          "name": "creationTime",
          "type": "uint256"
        }
      ],
      "stateMutability": "view",
      "type": "function",
      "constant": true
    },
    {
      "inputs": [],
      "name": "lobbyCounter",
      "outputs": [
        {
          "internalType": "uint256",
          "name": "",
          "type": "uint256"
        }
      ],
      "stateMutability": "view",
      "type": "function",
      "constant": true
    },
    {
      "inputs": [],
      "name": "maxBet",
      "outputs": [
        {
          "internalType": "uint256",
          "name": "",
          "type": "uint256"
        }
      ],
      "stateMutability": "view",
      "type": "function",
      "constant": true
    },
    {
      "inputs": [],
      "name": "minBet",
      "outputs": [
        {
          "internalType": "uint256",
          "name": "",
          "type": "uint256"
        }
      ],
      "stateMutability": "view",
      "type": "function",
      "constant": true
    },
    {
      "inputs": [],
      "name": "getOpenLobbies",
      "outputs": [
        {
          "components": [
            {
              "internalType": "uint256",
              "name": "lobbyId",
              "type": "uint256"
            },
            {
              "internalType": "address payable",
              "name": "host",
              "type": "address"
            },
            {
              "internalType": "uint256",
              "name": "betAmount",
              "type": "uint256"
            },
            {
              "internalType": "enum Blackjack.LobbyStatus",
              "name": "status",
              "type": "uint8"
            },
            {
              "internalType": "uint256",
              "name": "gameId",
              "type": "uint256"
            },
            {
              "internalType": "uint256",
              "name": "creationTime",
              "type": "uint256"
            }
          ],
          "internalType": "struct Blackjack.Lobby[]",
          "name": "",
          "type": "tuple[]"
        }
      ],
      "stateMutability": "view",
      "type": "function",
      "constant": true
    },
    {
      "inputs": [],
      "name": "createLobby",
      "outputs": [],
      "stateMutability": "payable",
      "type": "function",
      "payable": true
    },
    {
      "inputs": [
        {
          "internalType": "uint256",
          "name": "lobbyId",
          "type": "uint256"
        }
      ],
      "name": "cancelLobby",
      "outputs": [],
      "stateMutability": "nonpayable",
      "type": "function"
    },
    {
      "inputs": [
        {
          "internalType": "uint256",
          "name": "lobbyId",
          "type": "uint256"
        }
      ],
      "name": "joinLobby",
      "outputs": [],
      "stateMutability": "payable",
      "type": "function",
      "payable": true
    },
    {
      "inputs": [],
      "name": "cleanupTimedOutLobbies",
      "outputs": [],
      "stateMutability": "nonpayable",
      "type": "function"
    },
    {
      "inputs": [
        {
          "internalType": "uint256",
          "name": "gameId",
          "type": "uint256"
        }
      ],
      "name": "hit",
      "outputs": [],
      "stateMutability": "nonpayable",
      "type": "function"
    },
    {
      "inputs": [
        {
          "internalType": "uint256",
          "name": "gameId",
          "type": "uint256"
        }
      ],
      "name": "stand",
      "outputs": [],
      "stateMutability": "nonpayable",
      "type": "function"
    },
    {
      "inputs": [
        {
          "internalType": "uint256",
          "name": "gameId",
          "type": "uint256"
        }
      ],
      "name": "doubleDown",
      "outputs": [],
      "stateMutability": "payable",
      "type": "function",
      "payable": true
    },
    {
      "inputs": [
        {
          "internalType": "uint256",
          "name": "gameId",
          "type": "uint256"
        }
      ],
      "name": "split",
      "outputs": [],
      "stateMutability": "payable",
      "type": "function",
      "payable": true
    },
    {
      "inputs": [
        {
          "internalType": "uint256",
          "name": "gameId",
          "type": "uint256"
        }
      ],
      "name": "getPlayerHand",
      "outputs": [
        {
          "components": [
            {
              "internalType": "uint8",
              "name": "value",
              "type": "uint8"
            },
            {
              "internalType": "uint8",
              "name": "suit",
              "type": "uint8"
            }
          ],
          "internalType": "struct CardLib.Card[]",
          "name": "",
          "type": "tuple[]"
        }
      ],
      "stateMutability": "view",
      "type": "function",
      "constant": true
    },
    {
      "inputs": [
        {
          "internalType": "uint256",
          "name": "gameId",
          "type": "uint256"
        }
      ],
      "name": "getDealerHand",
      "outputs": [
        {
          "components": [
            {
              "internalType": "uint8",
              "name": "value",
              "type": "uint8"
            },
            {
              "internalType": "uint8",
              "name": "suit",
              "type": "uint8"
            }
          ],
          "internalType": "struct CardLib.Card[]",
          "name": "",
          "type": "tuple[]"
        }
      ],
      "stateMutability": "view",
      "type": "function",
      "constant": true
    },
    {
      "inputs": [
        {
          "internalType": "uint256",
          "name": "gameId",
          "type": "uint256"
        }
      ],
      "name": "getSplitHand",
      "outputs": [
        {
          "components": [
            {
              "internalType": "uint8",
              "name": "value",
              "type": "uint8"
            },
            {
              "internalType": "uint8",
              "name": "suit",
              "type": "uint8"
            }
          ],
          "internalType": "struct CardLib.Card[]",
          "name": "",
          "type": "tuple[]"
        }
      ],
      "stateMutability": "view",
      "type": "function",
      "constant": true
    },
    {
      "inputs": [
        {
          "internalType": "uint256",
          "name": "gameId",
          "type": "uint256"
        }
      ],
      "name": "resolveStuckGame",
      "outputs": [],
      "stateMutability": "nonpayable",
      "type": "function"
    },
    {
      "inputs": [
        {
          "internalType": "uint256",
          "name": "gameId",
          "type": "uint256"
        }
      ],
      "name": "getGameState",
      "outputs": [
        {
          "internalType": "uint8",
          "name": "playerScore",
          "type": "uint8"
        },
        {
          "internalType": "uint8",
          "name": "dealerScore",
          "type": "uint8"
        },
        {
          "internalType": "bool",
          "name": "isPlayerTurn",
          "type": "bool"
        },
        {
          "internalType": "bool",
          "name": "isComplete",
          "type": "bool"
        },
        {
          "internalType": "uint256",
          "name": "betAmount",
          "type": "uint256"
        },
        {
          "internalType": "bool",
          "name": "canSplit",
          "type": "bool"
        },
        {
          "internalType": "bool",
          "name": "canDouble",
          "type": "bool"
        },
        {
          "internalType": "bool",
          "name": "isSplit",
          "type": "bool"
        }
      ],
      "stateMutability": "view",
      "type": "function",
      "constant": true
    }
  ],
  "bytecode": "0x608034620000bf57601f6200460e38819003918201601f19168301916001600160401b03831184841017620000c4578084926040948552833981010312620000bf57602081519101519080151580620000b4575b156200006f576004556005556040516145339081620000db8239f35b60405162461bcd60e51b815260206004820152601360248201527f496e76616c69642062657420616d6f756e7473000000000000000000000000006044820152606490fd5b508082101562000053565b600080fd5b634e487b7160e01b600052604160045260246000fdfe6080604052600436101561001257600080fd5b60003560e01c8063117a5b90146129ab57806314eda2391461297c57806327a1d9481461277c5780632e0be39a1461275e5780632e5b2168146127405780632ee7d80a1461271157806347086404146125875780636e8fb4c614612511578063778a606c146124d257806377f19522146124b45780639619367d1461249657806396b76c231461230e578063a4a9a4ad1461220a578063dbceb00514611f68578063dfdf759614611e42578063e57b70ec14611d77578063e9173b3a14610f57578063ebf6e91d146103a3578063faa5bf89146101ea5763ffde0c74146100f857600080fd5b346101e55760203660031901126101e55760043560005260006020526040600020600981015460088201549160ff83169060058210156101ae5760028214936002820154916002600461014a8361445a565b9201541491826101cc575b826101c4575b60081c60ff169260038410156101ae5760046001956101009860ff604051998181168b5260081c1660208a015260408901521460608701526080860152151560a0850152151560c08401521460e0820152f35b634e487b7160e01b600052602160045260246000fd5b86925061015b565b915060ff8260081c1660038110156101ae571591610155565b600080fd5b346101e55760003660031901126101e557600380549061020982612bd2565b9160009160005b8281106102e25750505061022381612bd2565b9160005b8281106102b35760408051602080825286518183018190528188019383019160005b8281106102565784840385f35b9091928260c0600192885180518252848060a01b038482015116848301526040810151604083015261029060608083015190840190612bad565b6080808201519083015260a0809101519082015201960191019492919094610249565b806102c16102dd9284612c5c565b516102cc8287612c5c565b526102d78186612c5c565b50612c4d565b610227565b806000526001602081815260ff8085604060002001541660048110156101ae5715610319575b50505061031490612c4d565b610210565b8360009792939497528383526040600020926040519461033886612ad6565b845486528401546001600160a01b0316908501526002830154604085015284830154169260048410156101ae57600561039a9361031495606084015260048101546080840152015460a082015261038f8289612c5c565b526102d78188612c5c565b93908680610308565b346101e55760203660031901126101e557600435600052600060205260406000206103d860018060a01b038254163314613861565b600881015460ff81169060058210156101ae576103f9600260ff931461389d565b60181c16610f1a576004356000526000602052604060002090600a8201549160348303610ed557600e81015461044661043b6004840154600585015490612cc3565b600684015490612cc3565b604051914260208401524460408401526004356060840152608083015260a082015260a0815261047581612ad6565b60208151910120604051906020828681520194600a84016000526020600020906000915b81601f840110610d0657966105b89285926105bd9798995491818110610cf0575b818110610cd7575b818110610cbe575b818110610ca5575b818110610c8d575b818110610c74575b818110610c5b575b818110610c42575b818110610c29575b818110610c10575b818110610bf7575b818110610bde575b818110610bc5575b818110610bac575b818110610b93575b818110610b7a575b818110610b61575b818110610b48575b818110610b2f575b818110610b16575b818110610afd575b818110610ae4575b818110610acb575b818110610ab2575b818110610a99575b818110610a80575b818110610a67575b818110610a4e575b818110610a35575b818110610a1c575b818110610a03575b106109f3575b500383612b0e565b613687565b9060ff825116600181101590816109e7575b50156109ad5760ff602083015116600181101590816109a1575b501561096857600d60ff61060281602086015116612d98565b160260ff81169081036109525761062760ff9161062183865116612d98565b90612d84565b1660ff61063782600a8501612cfe565b90549060031b1c166109195761065361066a91600a8401612cfe565b819291549060031b9060ff6001831b921b19161790565b9055600881015460281c60ff16156108c8576106898260068301612ed1565b60018060a01b039054169060ff602081835116920151166040519182526020820152600060408201526000805160206144de833981519152606060043592a35b600881015460281c60ff16156108a3576106ed6106e860068301612d2f565b612dab565b60ff60098301911660ff198254161790555b60098101601560ff82541611610755575b50600b429101556040516000805160206144be833981519152600435918061075081606090602081526003602082015262121a5d60ea1b60408201520190565b0390a2005b630100000063ff000000196008840154161780600884015560ff8160081c1660038110156101ae5760011480610894575b1561084c5750600c8201805460ff1990811660011790915560088301805465ff00ff00000019166501000000000017905560ff6107c86106e860068601612d2f565b16908254161790556040516000805160206144be833981519152600435918061081a8160609060208152601460208201527314ddda5d18da081d1bc81cdc1b1a5d081a185b9960621b60408201520190565b0390a26004357f1a327edcf6b43c60a10c1861bae195dec3be71c9a241bd49b8431259ca632045600080a25b81610710565b905060ff6040519160281c16151581527f28de5caf9fe9f11f1835aaec134bc9036528a0979f3503852cef0f8cfbc82bb9602060043592a261088f60043561403d565b610846565b5060ff600c8401541615610786565b6108b26106e860048301612d2f565b60ff60098301911660ff198254161790556106ff565b6108d58260048301612ed1565b60018060a01b039054169060ff602081835116920151166040519182526020820152600060408201526000805160206144de833981519152606060043592a36106c9565b60405162461bcd60e51b815260206004820152601160248201527010d85c9908185b1c9958591e481d5cd959607a1b6044820152606490fd5b634e487b7160e01b600052601160045260246000fd5b60405162461bcd60e51b8152602060048201526011602482015270125b9d985b1a590818d85c99081cdd5a5d607a1b6044820152606490fd5b600491501115846105e9565b60405162461bcd60e51b8152602060048201526012602482015271496e76616c696420636172642076616c756560701b6044820152606490fd5b600d91501115846105cf565b60f81c15158152602001886105b0565b92602060019160ff8560f01c16151581520193016105aa565b92602060019160ff8560e81c16151581520193016105a2565b92602060019160ff8560e01c161515815201930161059a565b92602060019160ff8560d81c1615158152019301610592565b92602060019160ff8560d01c161515815201930161058a565b92602060019160ff8560c81c1615158152019301610582565b92602060019160ff8560c01c161515815201930161057a565b92602060019160ff8560b81c1615158152019301610572565b92602060019160ff8560b01c161515815201930161056a565b92602060019160ff8560a81c1615158152019301610562565b92602060019160ff8560a01c161515815201930161055a565b92602060019160ff8560981c1615158152019301610552565b92602060019160ff8560901c161515815201930161054a565b92602060019160ff8560881c1615158152019301610542565b92602060019160ff8560801c161515815201930161053a565b92602060019160ff8560781c1615158152019301610532565b92602060019160ff8560701c161515815201930161052a565b92602060019160ff8560681c1615158152019301610522565b92602060019160ff8560601c161515815201930161051a565b92602060019160ff8560581c1615158152019301610512565b92602060019160ff8560501c161515815201930161050a565b92602060019160ff8560481c1615158152019301610502565b92602060019160ff8560401c16151581520193016104fa565b92602060019160ff8560381c16151581520193016104f2565b92602060019160ff8560301c16151581520193016104ea565b92602060019160ff8560281c16151581520193016104e2565b92602060019160ff85831c16151581520193016104da565b92602060019160ff8560181c16151581520193016104d2565b92602060019160ff8560101c16151581520193016104ca565b92602060019160ff8560081c16151581520193016104c2565b92602060019160ff8516151581520193016104ba565b9660016104006020928a5460ff81161515825260ff8160081c1615158583015260ff8160101c161515604083015260ff8160181c161515606083015260ff81861c161515608083015260ff8160281c16151560a083015260ff8160c0828260301c16151581860152828260381c16151560e0860152828260401c161515610100860152828260481c161515610120860152828260501c161515610140860152828260581c161515610160860152828260601c161515610180860152828260681c1615156101a0860152828260701c1615156101c0860152828260781c1615156101e0860152828260801c161515610200860152828260881c161515610220860152828260901c161515610240860152828260981c161515610260860152828260a01c161515610280860152828260a81c1615156102a0860152828260b01c1615156102c0860152828260b81c1615156102e08601521c16151561030083015260ff8160c81c16151561032083015260ff8160d01c16151561034083015260ff8160d81c16151561036083015260ff8160e01c16151561038083015260ff8160e81c1615156103a083015260ff8160f01c1615156103c083015260f81c15156103e0820152019801920191610499565b60405162461bcd60e51b815260206004820152601d60248201527f4361726420747261636b696e67206e6f7420696e697469616c697a65640000006044820152606490fd5b60405162461bcd60e51b8152602060048201526015602482015274141b185e595c88185b1c9958591e48189d5cdd1959605a1b6044820152606490fd5b60203660031901126101e557600435600052600160205260406000206003546004351015611d3f5760ff60038201541660048110156101ae57610f9a9015612c86565b60018101546001600160a01b03163314611cfa5760028101543403611cbe576004810154611c82576005810154610e108101809111610952574211611c49576002549081600052600060205260406000206bffffffffffffffffffffffff60a01b338183541617825560018060a01b0360018401541660018301918254161790556002820154806002830155806003810204600314811517156109525760030260011c60038201558260078201556008810165ffffffffffff19815416905561107c60405161106881612af2565b600081526000602082015260098301612cd0565b42600b820155600c810160ff1981541690556000600d8201556040514260208201524460408201523360601b60608201528360748201527f1234567890abcdef1234567890abcdef1234567890abcdef1234567890abcdef6094820152609481526110e681612ad6565b60208151910120600e820155600a8101546000600a83015580611c19575b5060405167ffffffffffffffff906106a0810182811182821017611c0357604052603481526106803660208301378051918211611c0357600160401b8211611c0357600a83015482600a850155808310611b9d575b5060200190600a830160005260206000209060005b8160051c8110611b575750601f198116808203611b07575b5050505060005b60348110611adf5750506002810154604051908152827f7dfb67e9ff596fca4da65c7eedb128cd1aac553af54b3c0cb733625a2480d8bd60203393a3816000526000602052604060002090600882015460ff811660058110156101ae57611aa15760ff1916600117600883015560005b600260ff8216106112fa575081601560ff61121e6106e86004809701612d2f565b81600985019116821982541617815561125561123f6106e860058701612d2f565b825461ff00191660089190911b61ff0016178255565b5416036112c157600801805462ff00001916620100001790556112778361403d565b611282600254612c4d565b60025560038101805460ff191660011790550155336004357fa31ecd4ef5c4170fc73b952e6c0344155875718dd9892919041e8a449246cb26600080a3005b600801805460ff19166002179055827f1a327edcf6b43c60a10c1861bae195dec3be71c9a241bd49b8431259ca632045600080a2611277565b61130384612efe565b836000526000602052604060002090600a82015460348103610ed557600e83015461134561133a6004860154600587015490612cc3565b600686015490612cc3565b604051906020820192428452446040840152896060840152608083015260a082015260a0815261137481612ad6565b519020604051906020828481520192600a86016000526020600020906000915b81601f8401106118cc57946105b89285926114b09754918181106118b6575b81811061189d575b818110611884575b81811061186b575b818110611853575b81811061183a575b818110611821575b818110611808575b8181106117ef575b8181106117d6575b8181106117bd575b8181106117a4575b81811061178b575b818110611772575b818110611759575b818110611740575b818110611727575b81811061170e575b8181106116f5575b8181106116dc575b8181106116c3575b8181106116aa575b818110611691575b818110611678575b81811061165f575b818110611646575b81811061162d575b818110611614575b8181106115fb575b8181106115e2575b8181106115c9575b106115b957500383612b0e565b60ff815116600181101590816115ad575b50156109ad5760ff602082015116600181101590816115a1575b501561096857600d60ff6114f481602085015116612d98565b16028060ff8116036109525761151a60ff918261151381865116612d98565b9116612d84565b1660ff61152a82600a8701612cfe565b90549060031b1c16610919576000805160206144de83398151915260608561155c6106538b95600a61159c9a01612cfe565b905561156b8560058301612ed1565b6001808060a01b03910154169360ff60208183511692015116604051918252602082015260016040820152a3612d1e565b6111fd565b600491501115876114db565b600d91501115876114c1565b60f81c151581526020018b6105b0565b92602060019160ff8560f01c16151581520193016114a3565b92602060019160ff8560e81c161515815201930161149b565b92602060019160ff8560e01c1615158152019301611493565b92602060019160ff8560d81c161515815201930161148b565b92602060019160ff8560d01c1615158152019301611483565b92602060019160ff8560c81c161515815201930161147b565b92602060019160ff8560c01c1615158152019301611473565b92602060019160ff8560b81c161515815201930161146b565b92602060019160ff8560b01c1615158152019301611463565b92602060019160ff8560a81c161515815201930161145b565b92602060019160ff8560a01c1615158152019301611453565b92602060019160ff8560981c161515815201930161144b565b92602060019160ff8560901c1615158152019301611443565b92602060019160ff8560881c161515815201930161143b565b92602060019160ff8560801c1615158152019301611433565b92602060019160ff8560781c161515815201930161142b565b92602060019160ff8560701c1615158152019301611423565b92602060019160ff8560681c161515815201930161141b565b92602060019160ff8560601c1615158152019301611413565b92602060019160ff8560581c161515815201930161140b565b92602060019160ff8560501c1615158152019301611403565b92602060019160ff8560481c16151581520193016113fb565b92602060019160ff8560401c16151581520193016113f3565b92602060019160ff8560381c16151581520193016113eb565b92602060019160ff8560301c16151581520193016113e3565b92602060019160ff8560281c16151581520193016113db565b92602060019160ff85831c16151581520193016113d3565b92602060019160ff8560181c16151581520193016113cb565b92602060019160ff8560101c16151581520193016113c3565b92602060019160ff8560081c16151581520193016113bb565b92602060019160ff8516151581520193016113b3565b9293946001610400602092865460ff81161515825260ff8160081c1615158583015260ff8160101c161515604083015260ff8160181c161515606083015260ff81861c161515608083015260ff8160281c16151560a083015260ff8160c0828260301c16151581860152828260381c16151560e0860152828260401c161515610100860152828260481c161515610120860152828260501c161515610140860152828260581c161515610160860152828260601c161515610180860152828260681c1615156101a0860152828260701c1615156101c0860152828260781c1615156101e0860152828260801c161515610200860152828260881c161515610220860152828260901c161515610240860152828260981c161515610260860152828260a01c161515610280860152828260a81c1615156102a0860152828260b01c1615156102c0860152828260b81c1615156102e08601521c16151561030083015260ff8160c81c16151561032083015260ff8160d01c16151561034083015260ff8160d81c16151561036083015260ff8160e01c16151561038083015260ff8160e81c1615156103a083015260ff8160f01c1615156103c083015260f81c15156103e082015201940192019194939294611394565b60405162461bcd60e51b815260206004820152601660248201527547616d65206e6f7420696e206f70656e20737461746560501b6044820152606490fd5b80611af0611b0292600a8501612cfe565b60ff82549160031b1b19169055612c4d565b61118d565b9260009360005b8184038110611b285750505060051c015583808080611186565b9091946020611b4d6001928489511515919060ff809160031b9316831b921b19161790565b9601929101611b0e565b6000805b60208110611b7057508382015560010161116e565b94906020611b946001928885511515919060ff809160031b9316831b921b19161790565b92019501611b5b565b600a84016000526020600020601f841680611be0575b50601f840160051c81015b601f830160051c82018110611bd4575050611159565b60008155600101611bbe565b6000199081601f870160051c8401019182549160200360031b1c16905587611bb3565b634e487b7160e01b600052604160045260246000fd5b600a82016000526020600020805b601f830160051c82018110611c3d575050611104565b60008155600101611c27565b60405162461bcd60e51b8152602060048201526011602482015270131bd8989e481a185cc8195e1c1a5c9959607a1b6044820152606490fd5b60405162461bcd60e51b815260206004820152601460248201527311d85b5948185b1c9958591e481cdd185c9d195960621b6044820152606490fd5b60405162461bcd60e51b8152602060048201526014602482015273125b98dbdc9c9958dd0818995d08185b5bdd5b9d60621b6044820152606490fd5b60405162461bcd60e51b815260206004820152601a60248201527f43616e6e6f74206a6f696e20796f7572206f776e206c6f6262790000000000006044820152606490fd5b60405162461bcd60e51b815260206004820152601060248201526f125b9d985b1a59081b1bd8989e48125160821b6044820152606490fd5b346101e55760203660031901126101e5576004358060005260006020526040600020600b810154610708810180911161095257421115611e085760080160ff81541660058110156101ae57611dcf6004821415613ff8565b60028103611df45750805463ff00000019166301000000179055611df29061403d565b005b6003915014611dff57005b611df290613929565b60405162461bcd60e51b815260206004820152601260248201527111d85b59481b9bdd081d1a5b5959081bdd5d60721b6044820152606490fd5b346101e55760003660031901126101e55760005b60038054821015611df25781600052600160209080825260ff83604060002001541660048110156101ae571580611f44575b611e9e575b505050611e9990612c4d565b611e56565b83600052808252600260406000208481018560ff19825416179055015483810293818504149015171561095257600084815291819052604082208101549192839283928392901c906001600160a01b0316828215611f3b575bf115611f2f5780611e99917f5734c28cc1d9ed1e4bdf39023ec1f4a7afbef43831fd767b44a4698de3cccea6600080a2908280611e8d565b6040513d6000823e3d90fd5b506108fc611ef7565b5083600052808252600560406000200154610e108101809111610952574211611e88565b6020806003193601126101e5576004359081600052600081526040600020611f9a60018060a01b038254163314613861565b600881019182549160ff831660058110156101ae576002611fbb911461389d565b6004810192835490600282036121c55760ff8160081c1660038110156101ae57612182576002830154611fef8134146138dd565b612009612004611ffe88612e89565b50612b30565b612e73565b60ff8061201b612004611ffe8b612e9e565b1691160361213f57600d84015561ff00191661010017855561203f611ffe85612e9e565b90801561212957600019016120548186612eb9565b959095612113576000805160206144be833981519152966120876120b9946106e894600060609a55845560068701612ed1565b61209089612efe565b65ff00000000001965010000000000818354161782556120af8a612efe565b8154169055612d2f565b60ff60098301911660ff19825416179055600b42910155600560405191857fdad747603709dae9a6d79283c9d79f7659296db1c2e3779f0f8174a3b64597d5600080a28083528201526414dc1b1a5d60da1b6040820152a2005b634e487b7160e01b600052600060045260246000fd5b634e487b7160e01b600052603160045260246000fd5b6064856040519062461bcd60e51b825280600483015260248201527f43616e206f6e6c792073706c697420657175616c2076616c75652063617264736044820152fd5b6064846040519062461bcd60e51b825280600483015260248201527f43616e6e6f742073706c6974206166746572206f7468657220616374696f6e736044820152fd5b60405162461bcd60e51b815260048101859052601b60248201527f43616e206f6e6c792073706c697420696e697469616c2068616e6400000000006044820152606490fd5b346101e55760203660031901126101e55760043580600052600160205260406000209060018060a01b03600183015416918233036122d257600381019081549160ff831660048110156101ae5760029361226660039215612c86565b60ff191617905501546003810290808204600314901517156109525760008080809360011c80968282156122c9575bf115611f2f576040519182527f901c4b3ed78d5e3b588d41243171cd614027f155b6ab58c0af1b6c75ca66d1e160203393a3005b506108fc612295565b60405162461bcd60e51b815260206004820152601460248201527313db9b1e481a1bdcdd0818d85b8818d85b98d95b60621b6044820152606490fd5b346101e55760203660031901126101e557600435806000526000602052604060002061234460018060a01b038254163314613861565b60088101805460ff811660058110156101ae576002612363911461389d565b60ff8160081c1660038110156101ae5760011480612487575b1561244a5750600c8201805460ff19908116600117909155815465ff0000000000191665010000000000179091556123b96106e860068401612d2f565b9060ff60098401921690825416179055816000805160206144be833981519152604051806124108160609060208152601460208201527314ddda5d18da081d1bc81cdc1b1a5d081a185b9960621b60408201520190565b0390a25b600b429101556000805160206144be833981519152606060405160208152600560208201526414dd185b9960da1b6040820152a2005b60ff19166003179055817fff773149b0a6d40de7532b973a8039a54964a8c109ea0b4c6e88bb04e15bbe12600080a261248282613929565b612414565b5060ff600c840154161561237c565b346101e55760003660031901126101e5576020600454604051908152f35b346101e55760003660031901126101e5576020600354604051908152f35b346101e55760203660031901126101e557600435600052600060205261250d6125016004604060002001612d2f565b60405191829182612b52565b0390f35b346101e55760203660031901126101e557600435600052600160205260c0604060002080549060018060a01b036001820154169061257b600282015460ff600384015416906005600485015494015494604051968752602087015260408601526060850190612bad565b608083015260a0820152f35b60003660031901126101e557600454600390818102908082048314901517156109525760011c341015806126f1575b156126ac573460011b34810460021434151715610952578190048154906040516125df81612ad6565b82815260208101338152604082019383855260608301946000865260808401926000845260a08501924284526000526001602052604060002094518555600185019060018060a01b039051166bffffffffffffffffffffffff60a01b82541617905551600284015585830194519160048310156101ae576126a89560059360ff8019835416911617905551600484015551910155825490604051908152817f0e5627a685207c8ab30875dcf6fa55cfe897bd9243ce8f1944c283a3d76a310360203393a3612c4d565b9055005b60405162461bcd60e51b815260206004820152601b60248201527f496e76616c6964206465616c6572207374616b6520616d6f756e7400000000006044820152606490fd5b50600554818102908082048314901517156109525760011c3411156125b6565b346101e55760203660031901126101e557600435600052600060205261250d6125016006604060002001612d2f565b346101e55760003660031901126101e5576020600554604051908152f35b346101e55760003660031901126101e5576020600254604051908152f35b6020806003193601126101e55760043590816000526000815260406000206127ae60018060a01b038254163314613861565b60088101805460ff811660058110156101ae5760026127cd911461389d565b6004830190600282540361292b576002840180546127ec8134146138dd565b60ff8360081c1660038110156101ae576128e657606095936102006000805160206144be8339815191529896946128439461282b6106e8953490612cc3565b905561ff00191617845561283e89612efe565b612d2f565b601560ff60098501921660ff19928184825416179055116000146128d05750630100000063ff00000019825416179055847f28de5caf9fe9f11f1835aaec134bc9036528a0979f3503852cef0f8cfbc82bb98360405160008152a26128a78561403d565b600b42910155600b604051918083528201526a2237bab13632902237bbb760a91b6040820152a2005b81541660031790556128e185613929565b6128a7565b60405162461bcd60e51b815260048101889052601960248201527f43616e6e6f7420646f75626c652061667465722073706c6974000000000000006044820152606490fd5b60405162461bcd60e51b8152600481018690526024808201527f43616e206f6e6c7920646f75626c6520646f776e206f6e20696e697469616c206044820152631a185b9960e21b6064820152608490fd5b346101e55760203660031901126101e557600435600052600060205261250d6125016005604060002001612d2f565b346101e55760203660031901126101e5576004356000526000602052604060002060018060a01b038082541690600183015416600283015492600381015493600782015494600883015460ff8160081c1696612a0960098601612b30565b90600b8601549360ff600c8801541695600e600d890154980154986040519a8b5260208b015260408a015260608901526080880152600560ff831610156101ae5760ff821660a088015260038810156101ae5760ff612aba926102209960c08a0152818160101c16151560e08a0152818160181c1615156101008a0152818160201c1615156101208a015260281c16151561014088015261016087019060ff60208092828151168552015116910152565b6101a085015215156101c08401526101e0830152610200820152f35b60c0810190811067ffffffffffffffff821117611c0357604052565b6040810190811067ffffffffffffffff821117611c0357604052565b90601f8019910116810190811067ffffffffffffffff821117611c0357604052565b90604051612b3d81612af2565b602060ff829454818116845260081c16910152565b60208082019080835283518092528060408094019401926000905b838210612b7c57505050505090565b9091929394838282612ba06001948a5160ff60208092828151168552015116910152565b0196019493920190612b6d565b9060048210156101ae5752565b67ffffffffffffffff8111611c035760051b60200190565b90612bdc82612bba565b604090612beb82519182612b0e565b8381528093612bfc601f1991612bba565b019160005b838110612c0e5750505050565b6020908251612c1c81612ad6565b60008152826000818301526000858301526000606083015260006080830152600060a0830152828601015201612c01565b60001981146109525760010190565b8051821015612c705760209160051b010190565b634e487b7160e01b600052603260045260246000fd5b15612c8d57565b60405162461bcd60e51b815260206004820152600e60248201526d2637b1313c903737ba1037b832b760911b6044820152606490fd5b9190820180921161095257565b60ff6020612cfc9382815116831985541617845501511661ff0082549160081b169061ff001916179055565b565b9190918054831015612c7057600052601f60206000208360051c01921690565b60ff1660ff81146109525760010190565b908154612d3b81612bba565b92612d496040519485612b0e565b818452600090815260208082208186015b848410612d68575050505050565b6001838192612d7685612b30565b815201920193019290612d5a565b9060ff8091169116019060ff821161095257565b60ff6000199116019060ff821161095257565b600080805b83519060ff9182851690811015612e2657600183612de1612dda612dd4858b612c5c565b51612e73565b9389612c5c565b51511603612e11575081612df6600b92612d1e565b93160190811161095257612e0a9092612d1e565b9190612db0565b612e0a9250612e209193612d84565b92612d1e565b5093505090505b60ff90818116906015821180612e68575b15612e615750600919018181116109525791168015610952576000190190612e2d565b9250505090565b508284161515612e3e565b5160ff16600a811115612e865750600a90565b90565b805415612c7057600052602060002090600090565b805460011015612c7057600052600160206000200190600090565b8054821015612c705760005260206000200190600090565b8054600160401b811015611c0357612eee91600182018155612eb9565b91909161211357612cfc91612cd0565b908160005260006020526040600020600a8101549260348403610ed557600e820154916004810192612f3961043b8554600585015490612cc3565b60405191426020840152446040840152846060840152608083015260a082015260a08152612f6681612ad6565b60208151910120604051906020828881520196600a84016000526020600020906000915b81601f8401106134c457986105b89285926130aa9798999a9b54918181106134ae575b818110613495575b81811061347c575b818110613463575b81811061344b575b818110613432575b818110613419575b818110613400575b8181106133e7575b8181106133ce575b8181106133b5575b81811061339c575b818110613383575b81811061336a575b818110613351575b818110613338575b81811061331f575b818110613306575b8181106132ed575b8181106132d4575b8181106132bb575b8181106132a2575b818110613289575b818110613270575b818110613257575b81811061323e575b818110613225575b81811061320c575b8181106131f3575b8181106131da575b8181106131c1575b106131b157500383612b0e565b9260ff80855116600181101590816131a5575b50156109ad5760208501908082511660018110159081613199575b501561096857600d816130ed81855116612d98565b16028181169081036109525761310a8291610621838a5116612d98565b168161311982600a8801612cfe565b90549060031b1c1661091957846060946131496106538594600a6000805160206144de8339815191529a01612cfe565b90558883600884015460281c166000146131905761316b915060068301612ed1565b60018060a01b03905416965116915116604051918252602082015260006040820152a3565b61316b91612ed1565b600491501115386130d8565b600d91501115386130bd565b60f81c15158152602001386105b0565b92602060019160ff8560f01c161515815201930161309d565b92602060019160ff8560e81c1615158152019301613095565b92602060019160ff8560e01c161515815201930161308d565b92602060019160ff8560d81c1615158152019301613085565b92602060019160ff8560d01c161515815201930161307d565b92602060019160ff8560c81c1615158152019301613075565b92602060019160ff8560c01c161515815201930161306d565b92602060019160ff8560b81c1615158152019301613065565b92602060019160ff8560b01c161515815201930161305d565b92602060019160ff8560a81c1615158152019301613055565b92602060019160ff8560a01c161515815201930161304d565b92602060019160ff8560981c1615158152019301613045565b92602060019160ff8560901c161515815201930161303d565b92602060019160ff8560881c1615158152019301613035565b92602060019160ff8560801c161515815201930161302d565b92602060019160ff8560781c1615158152019301613025565b92602060019160ff8560701c161515815201930161301d565b92602060019160ff8560681c1615158152019301613015565b92602060019160ff8560601c161515815201930161300d565b92602060019160ff8560581c1615158152019301613005565b92602060019160ff8560501c1615158152019301612ffd565b92602060019160ff8560481c1615158152019301612ff5565b92602060019160ff8560401c1615158152019301612fed565b92602060019160ff8560381c1615158152019301612fe5565b92602060019160ff8560301c1615158152019301612fdd565b92602060019160ff8560281c1615158152019301612fd5565b92602060019160ff85831c1615158152019301612fcd565b92602060019160ff8560181c1615158152019301612fc5565b92602060019160ff8560101c1615158152019301612fbd565b92602060019160ff8560081c1615158152019301612fb5565b92602060019160ff851615158152019301612fad565b9860016104006020928c5460ff80821615158352808260081c16151586840152808260101c1615156040840152808260181c16151560608401528082871c1615156080840152808260281c16151560a0840152808260c0828260301c16151581870152828260e092828260381c161515848a0152828260401c1615156101008a0152828260481c1615156101208a0152828260501c1615156101408a0152828260581c1615156101608a0152828260601c1615156101808a0152828260681c1615156101a08a0152828260701c1615156101c08a0152828260781c1615156101e08a0152828260801c1615156102008a0152828260881c1615156102208a0152828260901c1615156102408a0152828260981c1615156102608a0152828260a01c1615156102808a0152828260a81c1615156102a08a0152828260b01c1615156102c08a0152828260b81c1615156102e08a01521c161515610300870152828260c81c161515610320870152828260d01c161515610340870152828260d81c1615156103608701521c161515610380840152808260e81c1615156103a08401528160f01c1615156103c083015260f81c15156103e0820152019a01920191612f8a565b91909160409283519261369984612af2565b6000808552806020809601526034938484510361381d578190825b8681106137e9575081156137b057068193825b86811061370b57885162461bcd60e51b815260048101899052601660248201527510d85c990819d95b995c985d1a5bdb8819985a5b195960521b6044820152606490fd5b6137158183612c5c565b511561372a575b61372590612c4d565b6136c7565b948281146137465761373e61372591612c4d565b95905061371c565b50505093925093600d908183069460019283870180971161379c5760ff940492830180931161378857508290519461377d86612af2565b168452169082015290565b634e487b7160e01b81526011600452602490fd5b634e487b7160e01b82526011600452602482fd5b875162461bcd60e51b81526004810188905260126024820152714e6f20636172647320617661696c61626c6560701b6044820152606490fd5b6137f38187612c5c565b5115613808575b61380390612c4d565b6136b4565b9161381561380391612c4d565b9290506137fa565b865162461bcd60e51b815260048101879052601f60248201527f496e76616c69642075736564206361726473206172726179206c656e677468006044820152606490fd5b1561386857565b60405162461bcd60e51b815260206004820152600d60248201526c4e6f7420796f75722067616d6560981b6044820152606490fd5b156138a457565b60405162461bcd60e51b81526020600482015260116024820152702737ba10383630bcb2b913b9903a3ab93760791b6044820152606490fd5b156138e457565b60405162461bcd60e51b815260206004820152601760248201527f4d757374206d61746368206f726967696e616c206265740000000000000000006044820152606490fd5b80600052600060205260406000209160ff60088401541660058110156101ae57600303613f035761397c6139626106e860058601612d2f565b600985019061ff0082549160081b169061ff001916179055565b61399b60ff600985015460081c1661399660058601612d2f565b613f3c565b15613e5b578160005260006020526040600020600a81015460348103610ed557600e8201546139e16139d66004850154600586015490612cc3565b600685015490612cc3565b604051906020820192428452446040840152876060840152608083015260a082015260a08152613a1081612ad6565b519020604051906020828481520192600a85016000526020600020906000915b81601f840110613c8657946105b8928592613b2d9754918181106134ae578181106134955781811061347c578181106134635781811061344b578181106134325781811061341957818110613400578181106133e7578181106133ce578181106133b55781811061339c578181106133835781811061336a57818110613351578181106133385781811061331f57818110613306578181106132ed578181106132d4578181106132bb578181106132a25781811061328957818110613270578181106132575781811061323e578181106132255781811061320c578181106131f3578181106131da578181106131c157106131b157500383612b0e565b9060ff82511660018110159081613c7a575b50156109ad5760ff60208301511660018110159081613c6e575b501561096857600d60ff613b7281602086015116612d98565b160260ff811690810361095257613b9160ff9161062183865116612d98565b169060ff613ba283600a8401612cfe565b90549060031b1c1661091957606081613bd16106538895600a6000805160206144de8339815191529601612cfe565b9055613be08560058301612ed1565b6001808060a01b03910154169360ff60208183511692015116604051918252602082015260016040820152a3613c1e6139626106e860058601612d2f565b817fbf4b56bbb9bdb14e56bbe6172af19ea0186e1d51e3e595cd7680fc02ad786abb60405180613c6681606090602081526003602082015262121a5d60ea1b60408201520190565b0390a261397c565b60049150111538613b59565b600d9150111538613b3f565b9293946001610400602092865460ff81161515825260ff8160081c1615158583015260ff8160101c161515604083015260ff8160181c161515606083015260ff81861c161515608083015260ff8160281c16151560a083015260ff8160c0828260301c16151581860152828260381c16151560e0860152828260401c161515610100860152828260481c161515610120860152828260501c161515610140860152828260581c161515610160860152828260601c161515610180860152828260681c1615156101a0860152828260701c1615156101c0860152828260781c1615156101e0860152828260801c161515610200860152828260881c161515610220860152828260901c161515610240860152828260981c161515610260860152828260a01c161515610280860152828260a81c1615156102a0860152828260b01c1615156102c0860152828260b81c1615156102e08601521c16151561030083015260ff8160c81c16151561032083015260ff8160d01c16151561034083015260ff8160d81c16151561036083015260ff8160e01c16151561038083015260ff8160e81c1615156103a083015260ff8160f01c1615156103c083015260f81c15156103e082015201940192019194939294613a30565b9190807f17931d977fe8fe498db2fb3e401f5cd4b7e726151a15407892fe6fe0fcb65daf6020612cfc9460ff600982015460081c169060158211613ea7575b50604051908152a261403d565b600864010000000064ff0000000019828401541617910155837fbf4b56bbb9bdb14e56bbe6172af19ea0186e1d51e3e595cd7680fc02ad786abb606060405185815260048682015263109d5cdd60e21b6040820152a238613e9a565b60405162461bcd60e51b81526020600482015260116024820152702737ba103232b0b632b913b9903a3ab93760791b6044820152606490fd5b60ff8092166011811015613f5257505050600190565b601114613f60575050600090565b6000908190825b81519085851691821015613fe0576001918287613f848387612c5c565b51511603613f9e575050613f989093612d1e565b92613f67565b613f98925093612e2091959487600a918282613fba838a612c5c565b5151161115613fcb57505090612d84565b613fd791925086612c5c565b51511690612d84565b949350505082613fef57505090565b60069250161490565b15613fff57565b60405162461bcd60e51b815260206004820152601660248201527511d85b5948185b1c9958591e4818dbdb5c1b195d195960521b6044820152606490fd5b8060005260006020526040600020600881015460ff811660058110156101ae57600461406a911415613ff8565b60098201549060028301549061409f60ff8260101c1660ff8360201c1660ff8460181c168560ff8860081c1660ff89166143e8565b92600360ff8360081c1610156101ae57600160ff8360081c161461434c575b8315918261425957505050506040516140d681612af2565b600b81526a506c617965722057696e7360a81b602082015260005b828015801561422a575b5050801580156141f8575b5050908391600960ff19946004866008830154161760088201550154604051926080845282519283608086015260005b8481106141e0575050928260ff60a0937fbf4748a755ed16d5acf240ef7b8b8c54be4a1abc68dee208a707588adcde4fa1966000868698870101526020850152818116604085015260081c166060830152601f80199101168101030190a260005b6003548110156141db578060005260016020526040600020836004820154146141c957506141c490612c4d565b614197565b60030180549092166002179091555050565b505050565b602082820181015160a0888401015289975001614136565b6000808093819360018060a01b0360018a015416908390614221575bf115611f2f573880614106565b506108fc614214565b6000808093819360018060a01b038a5416908390614250575bf115611f2f5782386140fb565b506108fc614243565b92935090918261433c575b8261432d575b508161431a575b50156142d35760405161428381612af2565b60048152630a0eae6d60e31b6020820152600d830154916142b36142a78483612cc3565b93600386015492612cc3565b8103908111156140f157634e487b7160e01b600052601160045260246000fd5b6040516142df81612af2565b600b81526a4465616c65722057696e7360a81b602082015261431561430a6000936003860154612cc3565b600d85015490612cc3565b6140f1565b905060ff808260081c1691161438614271565b60201c60ff161591503861426a565b915060ff8260181c161591614264565b9261438c906143866143636106e860068901612d2f565b60ff8560201c1690601560ff82161190600d8a01549060ff8a60081c1690614392565b90612cc3565b926140be565b92939091936143df5780156143d0575b6143b85760ff809116911614612e865750600090565b50508060011b90808204600214901517156109525790565b5060ff811660ff8316116143a2565b50505050600090565b93919490926144505780614448575b8061443a575b61441d5780156143d0576143b85760ff809116911614612e865750600090565b505050609681029080820460961490151715610952576064900490565b50601560ff831614156143fd565b5080156143f7565b5050505050600090565b60048101906002825414908115916144a0575b5061449a5760ff80614493612004611ffe61448d612004611ffe88612e89565b95612e9e565b1691161490565b50600090565b60ff91506008015460081c1660038110156101ae5715153861446d56fecc08a4f861b097fd68048e30e86ac2db48198da16ddce9c022c76d60cfe4ae53a3b3e2532a51907c70564d7eb439a729f06dc722d859e88561a31f9a1579ecb6a2646970667358221220829347589cf083e7890244d740d8fe405d495054341b9a0cafa0aa159628fc6164736f6c63430008150033",
  "immutableReferences": {},
  "source": "// SPDX-License-Identifier: MIT\npragma solidity ^0.8.21;\n\nimport \"./CardLib.sol\";\n\ncontract Blackjack {\n    using CardLib for CardLib.Card;\n\n    // Enums\n    enum LobbyStatus { Open, InProgress, Completed, Cancelled }\n    enum GameState { Open, Dealing, PlayerTurn, DealerTurn, Complete }\n    enum ActionState { None, Split, Doubled }\n\n    // Constants\n    uint8 constant DEALER_MIN_STAND = 17;\n    uint8 constant BLACKJACK = 21;\n    uint8 constant ACE_HIGH = 11;\n    uint8 constant ACE_LOW = 1;\n    uint256 constant BLACKJACK_MULTIPLIER = 150; // 3:2 payout\n    uint256 constant NORMAL_MULTIPLIER = 200;    // 2:1 payout\n    uint256 constant MULTIPLIER_BASE = 100;      // Base for multiplier calculations\n    uint256 constant LOBBY_TIMEOUT = 1 hours;\n    uint256 constant GAME_TIMEOUT = 30 minutes;\n    bytes32 constant SALT_BASE = 0x1234567890abcdef1234567890abcdef1234567890abcdef1234567890abcdef;\n\n    // Using CardLib's Card struct\n    using CardLib for CardLib.Card;\n\n    // Card struct is now part of CardLib\n\n    // Scores struct to store player and dealer scores\n    struct Scores {\n        uint8 playerScore;\n        uint8 dealerScore;\n    }\n\n    // Lobby struct to handle game creation and joining\n    struct Lobby {\n        uint256 lobbyId;\n        address payable host;\n        uint256 betAmount;\n        LobbyStatus status;\n        uint256 gameId;\n        uint256 creationTime;\n    }\n\n    // Game struct to store all game-related data\n    struct Game {\n        address payable player;\n        address payable dealer;\n        uint256 betAmount;\n        uint256 dealerStake;\n        CardLib.Card[] playerHand;\n        CardLib.Card[] dealerHand;\n        CardLib.Card[] splitHand;\n        uint256 gameId;\n        GameState state;\n        ActionState actionState;\n        bool isBlackjack;\n        bool playerBusted;\n        bool dealerBusted;\n        bool isSplitHand;\n        Scores scores;\n        bool[] usedCards;\n        uint256 lastActionTime;\n        bool splitHandCompleted;\n        uint256 splitBetAmount;\n        bytes32 randomnessCommit;\n    }\n\n    // State variables\n    mapping(uint256 => Game) public games;\n    mapping(uint256 => Lobby) public lobbies;\n    uint256 public gameCounter;\n    uint256 public lobbyCounter;\n    uint256 public minBet;\n    uint256 public maxBet;\n\n    // Events\n    event LobbyCreated(uint256 indexed lobbyId, address indexed host, uint256 betAmount);\n    event LobbyJoined(uint256 indexed lobbyId, address indexed player);\n    event LobbyCancelled(uint256 indexed lobbyId, address indexed host, uint256 refundAmount);\n    event LobbyTimeout(uint256 indexed lobbyId);\n    event GameCreated(uint256 indexed gameId, address indexed player, uint256 betAmount);\n    event CardDealt(uint256 indexed gameId, address indexed recipient, uint8 value, uint8 suit, bool isDealer);\n    event PlayerAction(uint256 indexed gameId, string action);\n    event SplitHandStarted(uint256 indexed gameId);\n    event HandBusted(uint256 indexed gameId, bool isSplitHand);\n    event DealerAction(uint256 indexed gameId, string action);\n    event DealerTurnComplete(uint256 indexed gameId, uint8 dealerScore);\n    event GameComplete(uint256 indexed gameId, string result, uint256 payout, uint8 playerScore, uint8 dealerScore);\n    event PlayerTurn(uint256 indexed gameId);\n    event DealerTurn(uint256 indexed gameId);\n\n    constructor(uint256 _minBet, uint256 _maxBet) {\n        require(_minBet > 0 && _maxBet >= _minBet, \"Invalid bet amounts\");\n        minBet = _minBet;\n        maxBet = _maxBet;\n    }\n\n    // Get All Open Lobbies\n    function getOpenLobbies() external view returns (Lobby[] memory) {\n        Lobby[] memory openLobbies = new Lobby[](lobbyCounter);\n        uint256 openLobbiesCount = 0;\n\n        for (uint256 i = 0; i < lobbyCounter; i++) {\n            if (lobbies[i].status == LobbyStatus.Open) {\n                openLobbies[openLobbiesCount] = lobbies[i];\n                openLobbiesCount++;\n            }\n        }\n\n        // Trim the array to the actual number of open lobbies\n        Lobby[] memory trimmedLobbies = new Lobby[](openLobbiesCount);\n        for (uint256 i = 0; i < openLobbiesCount; i++) {\n            trimmedLobbies[i] = openLobbies[i];\n        }\n\n        return trimmedLobbies;\n    }\n\n    // Create a new lobby\n    function createLobby() external payable {\n        require(msg.value >= minBet * 3 / 2 && msg.value <= maxBet * 3 / 2, \"Invalid dealer stake amount\");\n\n        uint256 betAmount = msg.value * 2 / 3; // Dealer stakes 1.5x the bet amount\n        lobbies[lobbyCounter] = Lobby({\n            lobbyId: lobbyCounter,\n            host: payable(msg.sender),\n            betAmount: betAmount,\n            status: LobbyStatus.Open,\n            gameId: 0,\n            creationTime: block.timestamp\n        });\n\n        emit LobbyCreated(lobbyCounter, msg.sender, betAmount);\n        lobbyCounter++;\n    }\n\n    // Cancel lobby\n    function cancelLobby(uint256 lobbyId) external {\n        Lobby storage lobby = lobbies[lobbyId];\n        require(msg.sender == lobby.host, \"Only host can cancel\");\n        require(lobby.status == LobbyStatus.Open, \"Lobby not open\");\n\n        lobby.status = LobbyStatus.Cancelled;\n        uint256 refundAmount = lobby.betAmount * 3 / 2;\n        lobby.host.transfer(refundAmount);\n\n        emit LobbyCancelled(lobbyId, msg.sender, refundAmount);\n    }\n\n    // Join an existing lobby and start the game\n    function joinLobby(uint256 lobbyId) external payable {\n        Lobby storage lobby = lobbies[lobbyId];\n        require(lobbyId < lobbyCounter, \"Invalid lobby ID\");\n        require(lobby.status == LobbyStatus.Open, \"Lobby not open\");\n        require(msg.sender != lobby.host, \"Cannot join your own lobby\");\n        require(msg.value == lobby.betAmount, \"Incorrect bet amount\");\n        require(lobby.gameId == 0, \"Game already started\");\n        require(block.timestamp <= lobby.creationTime + LOBBY_TIMEOUT, \"Lobby has expired\");\n\n        // Start the game\n        uint256 gameId = _startGame(lobby, msg.sender);\n\n        // Update lobby status\n        lobby.status = LobbyStatus.InProgress;\n        lobby.gameId = gameId;\n\n        emit LobbyJoined(lobbyId, msg.sender);\n    }\n\n    // Cleanup timed-out lobbies\n    function cleanupTimedOutLobbies() external {\n        for (uint256 i = 0; i < lobbyCounter; i++) {\n            if (\n                lobbies[i].status == LobbyStatus.Open &&\n                block.timestamp > lobbies[i].creationTime + LOBBY_TIMEOUT\n            ) {\n                lobbies[i].status = LobbyStatus.Cancelled;\n                uint256 refundAmount = lobbies[i].betAmount * 3 / 2;\n                lobbies[i].host.transfer(refundAmount);\n                emit LobbyTimeout(i);\n            }\n        }\n    }\n\n    // Internal function to start a new game\n    function _startGame(Lobby storage lobby, address player) internal returns (uint256) {\n        uint256 currentGameId = gameCounter;\n\n        // Initialize game\n        Game storage newGame = games[currentGameId];\n        newGame.player = payable(player);\n        newGame.dealer = lobby.host;\n        newGame.betAmount = lobby.betAmount;\n        newGame.dealerStake = lobby.betAmount * 3 / 2;\n        newGame.gameId = currentGameId;\n        newGame.state = GameState.Open;\n        newGame.actionState = ActionState.None;\n        newGame.isBlackjack = false;\n        newGame.playerBusted = false;\n        newGame.dealerBusted = false;\n        newGame.isSplitHand = false;\n        newGame.scores = Scores(0, 0);\n        newGame.lastActionTime = block.timestamp;\n        newGame.splitHandCompleted = false;\n        newGame.splitBetAmount = 0;\n        newGame.randomnessCommit = _generateCommit(currentGameId);\n\n        // Initialize usedCards array with proper length\n        delete newGame.usedCards;\n        newGame.usedCards = new bool[](52);\n        for (uint256 i = 0; i < 52; i++) {\n            newGame.usedCards[i] = false;\n        }\n\n        emit GameCreated(currentGameId, player, lobby.betAmount);\n\n        // Deal initial cards\n        _dealInitialCards(currentGameId);\n\n        gameCounter++;\n        return currentGameId;\n    }\n\n    // Internal function to deal initial cards\n    function _dealInitialCards(uint256 gameId) internal {\n        Game storage game = games[gameId];\n        require(game.state == GameState.Open, \"Game not in open state\");\n\n        game.state = GameState.Dealing;\n\n        // Deal two cards each to player and dealer\n        for (uint8 i = 0; i < 2; i++) {\n            _dealCard(gameId, false); // To player\n            _dealCard(gameId, true);  // To dealer\n        }\n\n        // Calculate initial scores\n        game.scores.playerScore = CardLib.calculateHandValue(game.playerHand);\n        game.scores.dealerScore = CardLib.calculateHandValue(game.dealerHand);\n\n        // Check for blackjack\n        if (game.scores.playerScore == BLACKJACK) {\n            game.isBlackjack = true;\n            _endGame(gameId);\n        } else {\n            game.state = GameState.PlayerTurn;\n            emit PlayerTurn(gameId); // Emit PlayerTurn event\n        }\n    }\n\n    // Internal function to deal a single card\n    function _dealCard(uint256 gameId, bool toDealer) internal {\n        Game storage game = games[gameId];\n        require(game.usedCards.length == 52, \"Card tracking not initialized\");\n\n        // Generate a unique seed for randomness\n        uint256 seed = uint256(keccak256(abi.encodePacked(\n            block.timestamp,\n            block.prevrandao,\n            gameId,\n            game.randomnessCommit,\n            game.playerHand.length + game.dealerHand.length + game.splitHand.length\n        )));\n\n        // Generate a random card that hasn't been used\n        CardLib.Card memory newCard = CardLib.generateRandomCard(seed, game.usedCards);\n        \n        // Mark the card as used\n        uint256 cardIndex = CardLib.getCardIndex(newCard);\n        require(!game.usedCards[cardIndex], \"Card already used\");\n        game.usedCards[cardIndex] = true;\n\n        // Add card to appropriate hand\n        if (toDealer) {\n            game.dealerHand.push(newCard);\n            emit CardDealt(gameId, game.dealer, newCard.value, newCard.suit, true);\n        } else if (game.isSplitHand) {\n            game.splitHand.push(newCard);\n            emit CardDealt(gameId, game.player, newCard.value, newCard.suit, false);\n        } else {\n            game.playerHand.push(newCard);\n            emit CardDealt(gameId, game.player, newCard.value, newCard.suit, false);\n        }\n    }\n\n    // Internal helper to check if a card has already been used\n    function _isCardUsed(Game storage game, CardLib.Card memory card) internal view returns (bool) {\n        uint256 cardIndex = (card.suit - 1) * 13 + (card.value - 1);\n        return game.usedCards[cardIndex];\n    }\n\n    // Internal helper to mark a card as used\n    function _markCardAsUsed(Game storage game, CardLib.Card memory card) internal {\n        uint256 cardIndex = (card.suit - 1) * 13 + (card.value - 1);\n        game.usedCards[cardIndex] = true;\n    }\n\n    // Player action: Hit\n    function hit(uint256 gameId) external {\n        Game storage game = games[gameId];\n        require(msg.sender == game.player, \"Not your game\");\n        require(game.state == GameState.PlayerTurn, \"Not player's turn\");\n        require(!game.playerBusted, \"Player already busted\");\n\n        // Deal card\n        _dealCard(gameId, false);\n\n        // Update the correct hand's score\n        if (game.isSplitHand) {\n            game.scores.playerScore = CardLib.calculateHandValue(game.splitHand);\n        } else {\n            game.scores.playerScore = CardLib.calculateHandValue(game.playerHand);\n        }\n\n        if (game.scores.playerScore > BLACKJACK) {\n            game.playerBusted = true;\n            if (game.actionState == ActionState.Split && !game.splitHandCompleted) {\n                // Switch to split hand\n                game.splitHandCompleted = true;\n                game.isSplitHand = true;\n                game.playerBusted = false;\n                game.scores.playerScore = CardLib.calculateHandValue(game.splitHand);\n                emit PlayerAction(gameId, \"Switch to split hand\");\n                emit PlayerTurn(gameId); // Emit PlayerTurn for split hand\n            } else {\n                emit HandBusted(gameId, game.isSplitHand);\n                _endGame(gameId);\n            }\n        }\n\n        game.lastActionTime = block.timestamp;\n        emit PlayerAction(gameId, \"Hit\");\n    }\n\n\n    // Player action: Stand\n    function stand(uint256 gameId) external {\n        Game storage game = games[gameId];\n        require(msg.sender == game.player, \"Not your game\");\n        require(game.state == GameState.PlayerTurn, \"Not player's turn\");\n\n        if (game.actionState == ActionState.Split && !game.splitHandCompleted) {\n            // Switch to the split hand\n            game.splitHandCompleted = true;\n            game.isSplitHand = true;\n            game.scores.playerScore = CardLib.calculateHandValue(game.splitHand);\n            emit PlayerAction(gameId, \"Switch to split hand\");\n        } else {\n            game.state = GameState.DealerTurn;\n            emit DealerTurn(gameId); // Emit DealerTurn event\n            _dealerTurn(gameId);\n        }\n\n        game.lastActionTime = block.timestamp;\n        emit PlayerAction(gameId, \"Stand\");\n    }\n\n\n    // Player action: Double Down\n    function doubleDown(uint256 gameId) external payable {\n        Game storage game = games[gameId];\n        require(msg.sender == game.player, \"Not your game\");\n        require(game.state == GameState.PlayerTurn, \"Not player's turn\");\n        require(game.playerHand.length == 2, \"Can only double down on initial hand\");\n        require(msg.value == game.betAmount, \"Must match original bet\");\n        require(game.actionState == ActionState.None, \"Cannot double after split\");\n\n        game.betAmount += msg.value;\n        game.actionState = ActionState.Doubled;\n\n        // Deal one card and end player's turn\n        _dealCard(gameId, false);\n        game.scores.playerScore = CardLib.calculateHandValue(game.playerHand);\n\n        if (game.scores.playerScore > BLACKJACK) {\n            game.playerBusted = true;\n            emit HandBusted(gameId, false);\n            _endGame(gameId);\n        } else {\n            game.state = GameState.DealerTurn;\n            _dealerTurn(gameId);\n        }\n\n        game.lastActionTime = block.timestamp;\n        emit PlayerAction(gameId, \"Double Down\");\n    }\n\n    // Player action: Split\n    function split(uint256 gameId) external payable {\n        Game storage game = games[gameId];\n        _validateSplitConditions(game, msg.sender, msg.value);\n\n        _executeSplit(game, gameId);\n\n        game.lastActionTime = block.timestamp;\n        emit SplitHandStarted(gameId);\n        emit PlayerAction(gameId, \"Split\");\n    }\n\n    // Internal function to validate split conditions\n    function _validateSplitConditions(\n        Game storage game,\n        address sender,\n        uint256 value\n    ) internal view {\n        require(sender == game.player, \"Not your game\");\n        require(game.state == GameState.PlayerTurn, \"Not player's turn\");\n        require(game.playerHand.length == 2, \"Can only split initial hand\");\n        require(game.actionState == ActionState.None, \"Cannot split after other actions\");\n        require(value == game.betAmount, \"Must match original bet\");\n\n        // Get card values, handling face cards\n        uint8 card1Value = CardLib.getCardValue(game.playerHand[0]);\n        uint8 card2Value = CardLib.getCardValue(game.playerHand[1]);\n        require(card1Value == card2Value, \"Can only split equal value cards\");\n    }\n\n    // Internal function to execute split\n    function _executeSplit(Game storage game, uint256 gameId) internal {\n        game.splitBetAmount = game.betAmount;\n        game.actionState = ActionState.Split;\n\n        // Remove second card from player's hand\n        CardLib.Card memory secondCard = game.playerHand[1];\n        game.playerHand.pop();\n\n        // Initialize split hand and add the second card\n        game.splitHand.push(secondCard);\n\n        // Deal new cards to both hands\n        _dealCard(gameId, false); // To first hand\n        game.isSplitHand = true; // Next card goes to split hand\n        _dealCard(gameId, false); // To split hand\n        game.isSplitHand = false; // Reset back to first hand\n\n        // Update scores\n        game.scores.playerScore = CardLib.calculateHandValue(game.playerHand);\n    }\n\n    // Dealer's turn implementation\n    function _dealerTurn(uint256 gameId) internal {\n        Game storage game = games[gameId];\n        require(game.state == GameState.DealerTurn, \"Not dealer's turn\");\n\n        _executeDealerActions(game, gameId);\n        _checkDealerBust(game, gameId);\n        _finishDealerTurn(game, gameId);\n    }\n\n    // Internal function to execute dealer actions\n    function _executeDealerActions(Game storage game, uint256 gameId) internal {\n        game.scores.dealerScore = CardLib.calculateHandValue(game.dealerHand);\n\n        while (_shouldDealerHit(game.dealerHand, game.scores.dealerScore)) {\n            _dealCard(gameId, true);\n            game.scores.dealerScore = CardLib.calculateHandValue(game.dealerHand);\n            emit DealerAction(gameId, \"Hit\");\n        }\n    }\n\n    // Internal function to check if dealer busted\n    function _checkDealerBust(Game storage game, uint256 gameId) internal {\n        if (game.scores.dealerScore > BLACKJACK) {\n            game.dealerBusted = true;\n            emit DealerAction(gameId, \"Bust\");\n        }\n    }\n\n    // Internal function to finish dealer's turn\n    function _finishDealerTurn(Game storage game, uint256 gameId) internal {\n        emit DealerTurnComplete(gameId, game.scores.dealerScore);\n        _endGame(gameId);\n    }\n\n    // Internal function to determine if dealer should hit\n    function _shouldDealerHit(CardLib.Card[] memory hand, uint8 score) internal pure returns (bool) {\n        if (score >= DEALER_MIN_STAND) {\n            // Check for soft 17 (Ace + 6)\n            if (score == 17) {\n                bool hasAce = false;\n                uint8 nonAceSum = 0;\n\n                for (uint8 i = 0; i < hand.length; i++) {\n                    if (hand[i].value == 1) { // Ace\n                        hasAce = true;\n                    } else {\n                        nonAceSum += (hand[i].value > 10 ? 10 : hand[i].value);\n                    }\n                }\n\n                // If it's a soft 17 (Ace counting as 11 + 6), dealer must hit\n                return hasAce && nonAceSum == 6;\n            }\n            return false;\n        }\n        return true;\n    }\n\n    // Game resolution\n    function _endGame(uint256 gameId) internal {\n        Game storage game = games[gameId];\n        require(game.state != GameState.Complete, \"Game already completed\");\n\n        (uint256 payoutToPlayer, uint256 payoutToDealer, string memory result) = _calculateGamePayout(game);\n\n        // Handle payouts\n        if (payoutToPlayer > 0) {\n            payable(game.player).transfer(payoutToPlayer);\n        }\n\n        if (payoutToDealer > 0) {\n            payable(game.dealer).transfer(payoutToDealer);\n        }\n\n        _finalizeGameState(gameId, game, result, payoutToPlayer);\n\n        // Update lobby status\n        for (uint256 i = 0; i < lobbyCounter; i++) {\n            if (lobbies[i].gameId == gameId) {\n                lobbies[i].status = LobbyStatus.Completed;\n                break;\n            }\n        }\n    }\n\n    // Internal function to calculate game payout\n    function _calculateGamePayout(Game storage game)\n        internal\n        view\n        returns (uint256 payoutToPlayer, uint256 payoutToDealer, string memory result)\n    {\n        uint256 playerPayout = _calculateMainHandPayout(game);\n\n        if (game.actionState == ActionState.Split) {\n            playerPayout += _calculateSplitHandPayout(game);\n        }\n\n        if (playerPayout > 0) {\n            result = \"Player Wins\";\n            payoutToPlayer = playerPayout;\n            payoutToDealer = 0;\n        } else if (playerPayout == 0 && !game.playerBusted && !game.dealerBusted && game.scores.playerScore == game.scores.dealerScore) {\n            // Push - return bets\n            result = \"Push\";\n            payoutToPlayer = game.betAmount + game.splitBetAmount; // Return player's bets\n            payoutToDealer = game.dealerStake - (game.betAmount + game.splitBetAmount); // Return remaining dealer stake\n        } else {\n            result = \"Dealer Wins\";\n            payoutToPlayer = 0;\n            payoutToDealer = game.dealerStake + game.betAmount + game.splitBetAmount; // Dealer takes the bets\n        }\n    }\n\n    // Internal function to calculate main hand payout\n    function _calculateMainHandPayout(Game storage game) internal view returns (uint256) {\n        return _determineHandPayout(\n            game.scores.playerScore,\n            game.scores.dealerScore,\n            game.betAmount,\n            game.playerBusted,\n            game.dealerBusted,\n            game.isBlackjack\n        );\n    }\n\n    // Internal function to calculate split hand payout\n    function _calculateSplitHandPayout(Game storage game) internal view returns (uint256) {\n        uint8 splitScore = CardLib.calculateHandValue(game.splitHand);\n        bool splitBusted = splitScore > BLACKJACK;\n\n        return _determineHandPayout(\n            splitScore,\n            game.scores.dealerScore,\n            game.splitBetAmount,\n            splitBusted,\n            game.dealerBusted,\n            false\n        );\n    }\n\n    // Internal pure function to determine hand payout\n    function _determineHandPayout(\n        uint8 playerScore,\n        uint8 dealerScore,\n        uint256 betAmount,\n        bool playerBusted,\n        bool dealerBusted,\n        bool isBlackjack\n    ) internal pure returns (uint256) {\n        if (playerBusted) {\n            return 0;\n        }\n\n        if (isBlackjack && !dealerBusted && dealerScore != BLACKJACK) {\n            // Blackjack pays 3:2\n            return (betAmount * BLACKJACK_MULTIPLIER) / MULTIPLIER_BASE;\n        }\n\n        if (dealerBusted || (!playerBusted && playerScore > dealerScore)) {\n            // Regular win pays 1:1\n            return betAmount * 2;\n        }\n\n        if (!playerBusted && playerScore == dealerScore) {\n            // Push - return original bet\n            return betAmount;\n        }\n\n        return 0;\n    }\n\n    // Internal function to finalize game state\n    function _finalizeGameState(\n        uint256 gameId,\n        Game storage game,\n        string memory result,\n        uint256 payoutToPlayer\n    ) internal {\n        game.state = GameState.Complete;\n        emit GameComplete(gameId, result, payoutToPlayer, game.scores.playerScore, game.scores.dealerScore);\n    }\n\n    // ------------------ Helper Functions ------------------\n\n    /**\n     * @dev Returns the player's hand for a specific game.\n     * @param gameId The ID of the game.\n     * @return An array of Card structs representing the player's hand.\n     */\n    function getPlayerHand(uint256 gameId) external view returns (CardLib.Card[] memory) {\n        return games[gameId].playerHand;\n    }\n\n    /**\n     * @dev Returns the dealer's hand for a specific game.\n     * @param gameId The ID of the game.\n     * @return An array of Card structs representing the dealer's hand.\n     */\n    function getDealerHand(uint256 gameId) external view returns (CardLib.Card[] memory) {\n        return games[gameId].dealerHand;\n    }\n\n    /**\n     * @dev Returns the split hand for a specific game, if any.\n     * @param gameId The ID of the game.\n     * @return An array of Card structs representing the split hand.\n     */\n    function getSplitHand(uint256 gameId) external view returns (CardLib.Card[] memory) {\n        return games[gameId].splitHand;\n    }\n\n    // Helper function to generate commit for randomness\n    function _generateCommit(uint256 gameId) internal view returns (bytes32) {\n        return keccak256(abi.encodePacked(\n            block.timestamp,\n            block.prevrandao,\n            msg.sender,\n            gameId,\n            SALT_BASE\n        ));\n    }\n\n    // Generate secure random number (placeholder - needs secure implementation)\n    function _generateSecureRandom(uint256 gameId, bytes32 commit) internal view returns (uint256) {\n        return uint256(keccak256(abi.encodePacked(\n            commit,\n            block.timestamp,\n            block.prevrandao,\n            msg.sender,\n            gameId\n        )));\n    }\n\n    // Function to handle stuck games\n    function resolveStuckGame(uint256 gameId) external {\n        Game storage game = games[gameId];\n        require(block.timestamp > game.lastActionTime + GAME_TIMEOUT, \"Game not timed out\");\n        require(game.state != GameState.Complete, \"Game already completed\");\n\n        if (game.state == GameState.PlayerTurn) {\n            // If player timed out, they forfeit\n            game.playerBusted = true;\n            _endGame(gameId);\n        } else if (game.state == GameState.DealerTurn) {\n            // If stuck in dealer's turn, complete the game\n            _dealerTurn(gameId);\n        }\n    }\n\n    // Get game state\n    function getGameState(uint256 gameId)\n        external\n        view\n        returns (\n            uint8 playerScore,\n            uint8 dealerScore,\n            bool isPlayerTurn,\n            bool isComplete,\n            uint256 betAmount,\n            bool canSplit,\n            bool canDouble,\n            bool isSplit\n        )\n    {\n        Game storage game = games[gameId];\n\n        return (\n            game.scores.playerScore,\n            game.scores.dealerScore,\n            game.state == GameState.PlayerTurn,\n            game.state == GameState.Complete,\n            game.betAmount,\n            _canSplitHand(game),\n            _canDoubleDown(game),\n            game.actionState == ActionState.Split\n        );\n    }\n\n    // Internal helper to check if hand can be split\n    function _canSplitHand(Game storage game) internal view returns (bool) {\n        if (game.playerHand.length != 2 || game.actionState != ActionState.None) {\n            return false;\n        }\n\n        uint8 card1Value = CardLib.getCardValue(game.playerHand[0]);\n        uint8 card2Value = CardLib.getCardValue(game.playerHand[1]);\n\n        return card1Value == card2Value;\n    }\n\n    // Internal helper to check if hand can be doubled down\n    function _canDoubleDown(Game storage game) internal view returns (bool) {\n        return game.playerHand.length == 2 &&\n            game.actionState == ActionState.None &&\n            game.state == GameState.PlayerTurn;\n    }\n}\n\n",
  "sourcePath": "/Users/keyurstudent/block-wager/CSC-196D-Block-Wager/truffle/contracts/blackjack.sol",
  "compiler": {
    "name": "solc",
    "version": "0.8.21+commit.d9974bed.Emscripten.clang"
  },
  "schemaVersion": "3.4.16",
  "updatedAt": "2024-11-27T07:04:40.626Z",
  "networkType": "ethereum",
  "devdoc": {
    "kind": "dev",
    "methods": {
      "getDealerHand(uint256)": {
        "details": "Returns the dealer's hand for a specific game.",
        "params": {
          "gameId": "The ID of the game."
        },
        "returns": {
          "_0": "An array of Card structs representing the dealer's hand."
        }
      },
      "getPlayerHand(uint256)": {
        "details": "Returns the player's hand for a specific game.",
        "params": {
          "gameId": "The ID of the game."
        },
        "returns": {
          "_0": "An array of Card structs representing the player's hand."
        }
      },
      "getSplitHand(uint256)": {
        "details": "Returns the split hand for a specific game, if any.",
        "params": {
          "gameId": "The ID of the game."
        },
        "returns": {
          "_0": "An array of Card structs representing the split hand."
        }
      }
    },
    "version": 1
  },
  "userdoc": {
    "kind": "user",
    "methods": {},
    "version": 1
  }
}