{
  "contractName": "Blackjack",
  "abi": [
    {
      "inputs": [
        {
          "internalType": "uint256",
          "name": "_minBet",
          "type": "uint256"
        },
        {
          "internalType": "uint256",
          "name": "_maxBet",
          "type": "uint256"
        }
      ],
      "stateMutability": "nonpayable",
      "type": "constructor"
    },
    {
      "anonymous": false,
      "inputs": [
        {
          "indexed": true,
          "internalType": "uint256",
          "name": "gameId",
          "type": "uint256"
        },
        {
          "indexed": true,
          "internalType": "address",
          "name": "recipient",
          "type": "address"
        },
        {
          "indexed": false,
          "internalType": "uint8",
          "name": "value",
          "type": "uint8"
        },
        {
          "indexed": false,
          "internalType": "uint8",
          "name": "suit",
          "type": "uint8"
        },
        {
          "indexed": false,
          "internalType": "bool",
          "name": "isDealer",
          "type": "bool"
        }
      ],
      "name": "CardDealt",
      "type": "event"
    },
    {
      "anonymous": false,
      "inputs": [
        {
          "indexed": true,
          "internalType": "uint256",
          "name": "gameId",
          "type": "uint256"
        },
        {
          "indexed": false,
          "internalType": "string",
          "name": "action",
          "type": "string"
        }
      ],
      "name": "DealerAction",
      "type": "event"
    },
    {
      "anonymous": false,
      "inputs": [
        {
          "indexed": true,
          "internalType": "uint256",
          "name": "gameId",
          "type": "uint256"
        }
      ],
      "name": "DealerTurn",
      "type": "event"
    },
    {
      "anonymous": false,
      "inputs": [
        {
          "indexed": true,
          "internalType": "uint256",
          "name": "gameId",
          "type": "uint256"
        },
        {
          "indexed": false,
          "internalType": "uint8",
          "name": "dealerScore",
          "type": "uint8"
        }
      ],
      "name": "DealerTurnComplete",
      "type": "event"
    },
    {
      "anonymous": false,
      "inputs": [
        {
          "indexed": true,
          "internalType": "uint256",
          "name": "gameId",
          "type": "uint256"
        },
        {
          "indexed": false,
          "internalType": "string",
          "name": "result",
          "type": "string"
        },
        {
          "indexed": false,
          "internalType": "uint256",
          "name": "playerPayout",
          "type": "uint256"
        },
        {
          "indexed": false,
          "internalType": "uint256",
          "name": "dealerPayout",
          "type": "uint256"
        },
        {
          "indexed": false,
          "internalType": "uint8",
          "name": "playerScore",
          "type": "uint8"
        },
        {
          "indexed": false,
          "internalType": "uint8",
          "name": "dealerScore",
          "type": "uint8"
        }
      ],
      "name": "GameComplete",
      "type": "event"
    },
    {
      "anonymous": false,
      "inputs": [
        {
          "indexed": true,
          "internalType": "uint256",
          "name": "gameId",
          "type": "uint256"
        },
        {
          "indexed": true,
          "internalType": "address",
          "name": "player",
          "type": "address"
        },
        {
          "indexed": true,
          "internalType": "address",
          "name": "dealer",
          "type": "address"
        },
        {
          "indexed": false,
          "internalType": "uint256",
          "name": "betAmount",
          "type": "uint256"
        }
      ],
      "name": "GameCreated",
      "type": "event"
    },
    {
      "anonymous": false,
      "inputs": [
        {
          "indexed": true,
          "internalType": "uint256",
          "name": "gameId",
          "type": "uint256"
        },
        {
          "indexed": false,
          "internalType": "bool",
          "name": "isSplitHand",
          "type": "bool"
        }
      ],
      "name": "HandBusted",
      "type": "event"
    },
    {
      "anonymous": false,
      "inputs": [
        {
          "indexed": true,
          "internalType": "uint256",
          "name": "lobbyId",
          "type": "uint256"
        },
        {
          "indexed": true,
          "internalType": "address",
          "name": "host",
          "type": "address"
        },
        {
          "indexed": false,
          "internalType": "uint256",
          "name": "refundAmount",
          "type": "uint256"
        }
      ],
      "name": "LobbyCancelled",
      "type": "event"
    },
    {
      "anonymous": false,
      "inputs": [
        {
          "indexed": true,
          "internalType": "uint256",
          "name": "lobbyId",
          "type": "uint256"
        },
        {
          "indexed": true,
          "internalType": "address",
          "name": "host",
          "type": "address"
        },
        {
          "indexed": false,
          "internalType": "uint256",
          "name": "betAmount",
          "type": "uint256"
        }
      ],
      "name": "LobbyCreated",
      "type": "event"
    },
    {
      "anonymous": false,
      "inputs": [
        {
          "indexed": true,
          "internalType": "uint256",
          "name": "lobbyId",
          "type": "uint256"
        },
        {
          "indexed": true,
          "internalType": "address",
          "name": "player",
          "type": "address"
        }
      ],
      "name": "LobbyJoined",
      "type": "event"
    },
    {
      "anonymous": false,
      "inputs": [
        {
          "indexed": true,
          "internalType": "uint256",
          "name": "lobbyId",
          "type": "uint256"
        }
      ],
      "name": "LobbyTimeout",
      "type": "event"
    },
    {
      "anonymous": false,
      "inputs": [
        {
          "indexed": true,
          "internalType": "uint256",
          "name": "gameId",
          "type": "uint256"
        },
        {
          "indexed": false,
          "internalType": "string",
          "name": "action",
          "type": "string"
        }
      ],
      "name": "PlayerAction",
      "type": "event"
    },
    {
      "anonymous": false,
      "inputs": [
        {
          "indexed": true,
          "internalType": "uint256",
          "name": "gameId",
          "type": "uint256"
        }
      ],
      "name": "PlayerTurn",
      "type": "event"
    },
    {
      "anonymous": false,
      "inputs": [
        {
          "indexed": true,
          "internalType": "uint256",
          "name": "gameId",
          "type": "uint256"
        }
      ],
      "name": "SplitHandStarted",
      "type": "event"
    },
    {
      "inputs": [],
      "name": "gameCounter",
      "outputs": [
        {
          "internalType": "uint256",
          "name": "",
          "type": "uint256"
        }
      ],
      "stateMutability": "view",
      "type": "function",
      "constant": true
    },
    {
      "inputs": [
        {
          "internalType": "uint256",
          "name": "",
          "type": "uint256"
        }
      ],
      "name": "games",
      "outputs": [
        {
          "internalType": "address payable",
          "name": "player",
          "type": "address"
        },
        {
          "internalType": "address payable",
          "name": "dealer",
          "type": "address"
        },
        {
          "internalType": "uint256",
          "name": "betAmount",
          "type": "uint256"
        },
        {
          "internalType": "uint256",
          "name": "dealerStake",
          "type": "uint256"
        },
        {
          "internalType": "uint256",
          "name": "gameId",
          "type": "uint256"
        },
        {
          "internalType": "enum Blackjack.GameState",
          "name": "state",
          "type": "uint8"
        },
        {
          "internalType": "enum Blackjack.ActionState",
          "name": "actionState",
          "type": "uint8"
        },
        {
          "internalType": "bool",
          "name": "isBlackjack",
          "type": "bool"
        },
        {
          "internalType": "bool",
          "name": "playerBusted",
          "type": "bool"
        },
        {
          "internalType": "bool",
          "name": "dealerBusted",
          "type": "bool"
        },
        {
          "internalType": "bool",
          "name": "isSplitHand",
          "type": "bool"
        },
        {
          "components": [
            {
              "internalType": "uint8",
              "name": "playerScore",
              "type": "uint8"
            },
            {
              "internalType": "uint8",
              "name": "dealerScore",
              "type": "uint8"
            }
          ],
          "internalType": "struct Blackjack.Scores",
          "name": "scores",
          "type": "tuple"
        },
        {
          "internalType": "uint256",
          "name": "lastActionTime",
          "type": "uint256"
        },
        {
          "internalType": "bool",
          "name": "splitHandCompleted",
          "type": "bool"
        },
        {
          "internalType": "uint256",
          "name": "splitBetAmount",
          "type": "uint256"
        },
        {
          "internalType": "bytes32",
          "name": "randomnessCommit",
          "type": "bytes32"
        }
      ],
      "stateMutability": "view",
      "type": "function",
      "constant": true
    },
    {
      "inputs": [
        {
          "internalType": "uint256",
          "name": "",
          "type": "uint256"
        }
      ],
      "name": "lobbies",
      "outputs": [
        {
          "internalType": "uint256",
          "name": "lobbyId",
          "type": "uint256"
        },
        {
          "internalType": "address payable",
          "name": "host",
          "type": "address"
        },
        {
          "internalType": "uint256",
          "name": "betAmount",
          "type": "uint256"
        },
        {
          "internalType": "enum Blackjack.LobbyStatus",
          "name": "status",
          "type": "uint8"
        },
        {
          "internalType": "uint256",
          "name": "gameId",
          "type": "uint256"
        },
        {
          "internalType": "uint256",
          "name": "creationTime",
          "type": "uint256"
        }
      ],
      "stateMutability": "view",
      "type": "function",
      "constant": true
    },
    {
      "inputs": [],
      "name": "lobbyCounter",
      "outputs": [
        {
          "internalType": "uint256",
          "name": "",
          "type": "uint256"
        }
      ],
      "stateMutability": "view",
      "type": "function",
      "constant": true
    },
    {
      "inputs": [],
      "name": "maxBet",
      "outputs": [
        {
          "internalType": "uint256",
          "name": "",
          "type": "uint256"
        }
      ],
      "stateMutability": "view",
      "type": "function",
      "constant": true
    },
    {
      "inputs": [],
      "name": "minBet",
      "outputs": [
        {
          "internalType": "uint256",
          "name": "",
          "type": "uint256"
        }
      ],
      "stateMutability": "view",
      "type": "function",
      "constant": true
    },
    {
      "inputs": [],
      "name": "getOpenLobbies",
      "outputs": [
        {
          "components": [
            {
              "internalType": "uint256",
              "name": "lobbyId",
              "type": "uint256"
            },
            {
              "internalType": "address payable",
              "name": "host",
              "type": "address"
            },
            {
              "internalType": "uint256",
              "name": "betAmount",
              "type": "uint256"
            },
            {
              "internalType": "enum Blackjack.LobbyStatus",
              "name": "status",
              "type": "uint8"
            },
            {
              "internalType": "uint256",
              "name": "gameId",
              "type": "uint256"
            },
            {
              "internalType": "uint256",
              "name": "creationTime",
              "type": "uint256"
            }
          ],
          "internalType": "struct Blackjack.Lobby[]",
          "name": "",
          "type": "tuple[]"
        }
      ],
      "stateMutability": "view",
      "type": "function",
      "constant": true
    },
    {
      "inputs": [],
      "name": "createLobby",
      "outputs": [],
      "stateMutability": "payable",
      "type": "function",
      "payable": true
    },
    {
      "inputs": [
        {
          "internalType": "uint256",
          "name": "lobbyId",
          "type": "uint256"
        }
      ],
      "name": "cancelLobby",
      "outputs": [],
      "stateMutability": "nonpayable",
      "type": "function"
    },
    {
      "inputs": [
        {
          "internalType": "uint256",
          "name": "lobbyId",
          "type": "uint256"
        }
      ],
      "name": "joinLobby",
      "outputs": [],
      "stateMutability": "payable",
      "type": "function",
      "payable": true
    },
    {
      "inputs": [],
      "name": "cleanupTimedOutLobbies",
      "outputs": [],
      "stateMutability": "nonpayable",
      "type": "function"
    },
    {
      "inputs": [
        {
          "internalType": "uint256",
          "name": "gameId",
          "type": "uint256"
        }
      ],
      "name": "hit",
      "outputs": [],
      "stateMutability": "nonpayable",
      "type": "function"
    },
    {
      "inputs": [
        {
          "internalType": "uint256",
          "name": "gameId",
          "type": "uint256"
        }
      ],
      "name": "stand",
      "outputs": [],
      "stateMutability": "nonpayable",
      "type": "function"
    },
    {
      "inputs": [
        {
          "internalType": "uint256",
          "name": "gameId",
          "type": "uint256"
        }
      ],
      "name": "doubleDown",
      "outputs": [],
      "stateMutability": "payable",
      "type": "function",
      "payable": true
    },
    {
      "inputs": [
        {
          "internalType": "uint256",
          "name": "gameId",
          "type": "uint256"
        }
      ],
      "name": "split",
      "outputs": [],
      "stateMutability": "payable",
      "type": "function",
      "payable": true
    },
    {
      "inputs": [
        {
          "internalType": "uint256",
          "name": "gameId",
          "type": "uint256"
        }
      ],
      "name": "dealerHit",
      "outputs": [],
      "stateMutability": "nonpayable",
      "type": "function"
    },
    {
      "inputs": [
        {
          "internalType": "uint256",
          "name": "gameId",
          "type": "uint256"
        }
      ],
      "name": "dealerStand",
      "outputs": [],
      "stateMutability": "nonpayable",
      "type": "function"
    },
    {
      "inputs": [
        {
          "internalType": "uint256",
          "name": "gameId",
          "type": "uint256"
        }
      ],
      "name": "getPlayerHand",
      "outputs": [
        {
          "components": [
            {
              "internalType": "uint8",
              "name": "value",
              "type": "uint8"
            },
            {
              "internalType": "uint8",
              "name": "suit",
              "type": "uint8"
            }
          ],
          "internalType": "struct CardLib.Card[]",
          "name": "",
          "type": "tuple[]"
        }
      ],
      "stateMutability": "view",
      "type": "function",
      "constant": true
    },
    {
      "inputs": [
        {
          "internalType": "uint256",
          "name": "gameId",
          "type": "uint256"
        }
      ],
      "name": "getDealerHand",
      "outputs": [
        {
          "components": [
            {
              "internalType": "uint8",
              "name": "value",
              "type": "uint8"
            },
            {
              "internalType": "uint8",
              "name": "suit",
              "type": "uint8"
            }
          ],
          "internalType": "struct CardLib.Card[]",
          "name": "",
          "type": "tuple[]"
        }
      ],
      "stateMutability": "view",
      "type": "function",
      "constant": true
    },
    {
      "inputs": [
        {
          "internalType": "uint256",
          "name": "gameId",
          "type": "uint256"
        }
      ],
      "name": "getSplitHand",
      "outputs": [
        {
          "components": [
            {
              "internalType": "uint8",
              "name": "value",
              "type": "uint8"
            },
            {
              "internalType": "uint8",
              "name": "suit",
              "type": "uint8"
            }
          ],
          "internalType": "struct CardLib.Card[]",
          "name": "",
          "type": "tuple[]"
        }
      ],
      "stateMutability": "view",
      "type": "function",
      "constant": true
    },
    {
      "inputs": [
        {
          "internalType": "uint256",
          "name": "gameId",
          "type": "uint256"
        }
      ],
      "name": "resolveStuckGame",
      "outputs": [],
      "stateMutability": "nonpayable",
      "type": "function"
    },
    {
      "inputs": [
        {
          "internalType": "uint256",
          "name": "gameId",
          "type": "uint256"
        }
      ],
      "name": "getGameState",
      "outputs": [
        {
          "internalType": "uint8",
          "name": "playerScore",
          "type": "uint8"
        },
        {
          "internalType": "uint8",
          "name": "dealerScore",
          "type": "uint8"
        },
        {
          "internalType": "bool",
          "name": "isPlayerTurn",
          "type": "bool"
        },
        {
          "internalType": "bool",
          "name": "isComplete",
          "type": "bool"
        },
        {
          "internalType": "uint256",
          "name": "betAmount",
          "type": "uint256"
        },
        {
          "internalType": "bool",
          "name": "canSplit",
          "type": "bool"
        },
        {
          "internalType": "bool",
          "name": "canDouble",
          "type": "bool"
        },
        {
          "internalType": "bool",
          "name": "isSplit",
          "type": "bool"
        }
      ],
      "stateMutability": "view",
      "type": "function",
      "constant": true
    }
  ],
  "bytecode": "0x608034620000bf57601f6200452b38819003918201601f19168301916001600160401b03831184841017620000c4578084926040948552833981010312620000bf57602081519101519080151580620000b4575b156200006f576004556005556040516144509081620000db8239f35b60405162461bcd60e51b815260206004820152601360248201527f496e76616c69642062657420616d6f756e7473000000000000000000000000006044820152606490fd5b508082101562000053565b600080fd5b634e487b7160e01b600052604160045260246000fdfe6080604052600436101561001257600080fd5b60003560e01c8063117a5b901461298957806314eda2391461295a57806327a1d948146122975780632e0be39a146122795780632e5b21681461225b5780632ee7d80a1461222c57806347086404146120a2578063541d335c14611f055780636e8fb4c614611e8f578063778a606c14611e5057806377f1952214611e325780639619367d14611e1457806396b76c2314611c85578063a4a9a4ad14611b81578063ba5e50f314611a9f578063dbceb005146117fd578063dfdf7596146116d7578063e57b70ec14611609578063e9173b3a14610f6b578063ebf6e91d146103b9578063faa5bf89146102005763ffde0c741461010e57600080fd5b346101fb5760203660031901126101fb5760043560005260006020526040600020600981015460088201549160ff83169060058210156101c45760028214936002820154916002600461016083614377565b9201541491826101e2575b826101da575b60081c60ff169260038410156101c45760046001956101009860ff604051998181168b5260081c1660208a015260408901521460608701526080860152151560a0850152151560c08401521460e0820152f35b634e487b7160e01b600052602160045260246000fd5b869250610171565b915060ff8260081c1660038110156101c457159161016b565b600080fd5b346101fb5760003660031901126101fb57600380549061021f82612bb0565b9160009160005b8281106102f85750505061023981612bb0565b9160005b8281106102c95760408051602080825286518183018190528188019383019160005b82811061026c5784840385f35b9091928260c0600192885180518252848060a01b03848201511684830152604081015160408301526102a660608083015190840190612b8b565b6080808201519083015260a080910151908201520196019101949291909461025f565b806102d76102f39284612c3a565b516102e28287612c3a565b526102ed8186612c3a565b50612c2b565b61023d565b806000526001602081815260ff8085604060002001541660048110156101c4571561032f575b50505061032a90612c2b565b610226565b8360009792939497528383526040600020926040519461034e86612ab4565b845486528401546001600160a01b0316908501526002830154604085015284830154169260048410156101c45760056103b09361032a95606084015260048101546080840152015460a08201526103a58289612c3a565b526102ed8188612c3a565b9390868061031e565b346101fb5760203660031901126101fb57600435600052600060205260406000206103ee60018060a01b038254163314613d48565b600881015460ff81169060058210156101c45761040f600260ff9314613d84565b60181c16610f2e576004356000526000602052604060002090600a8201549160348303610ee957600e81015461045c6104516004840154600585015490612ca1565b600684015490612ca1565b6040519060208201924284524460408401526004356060840152608083015260a082015260a0815261048d81612ab4565b519020604051906020828681520194600a84016000526020600020906000915b81601f840110610d1a57966105cc9285926105d19798995491818110610d04575b818110610ceb575b818110610cd2575b818110610cb9575b818110610ca1575b818110610c88575b818110610c6f575b818110610c56575b818110610c3d575b818110610c24575b818110610c0b575b818110610bf2575b818110610bd9575b818110610bc0575b818110610ba7575b818110610b8e575b818110610b75575b818110610b5c575b818110610b43575b818110610b2a575b818110610b11575b818110610af8575b818110610adf575b818110610ac6575b818110610aad575b818110610a94575b818110610a7b575b818110610a62575b818110610a49575b818110610a30575b818110610a17575b10610a07575b500383612aec565b613b6e565b9060ff825116600181101590816109fb575b50156109c15760ff602083015116600181101590816109b5575b501561097c57600d60ff61061681602086015116612d76565b160260ff81169081036109665761063b60ff9161063583865116612d76565b90612d62565b1660ff61064b82600a8501612cdc565b90549060031b1c1661092d5761066761067e91600a8401612cdc565b819291549060031b9060ff6001831b921b19161790565b9055600881015460281c60ff16156108dc5761069d8260068301612eaf565b60018060a01b039054169060ff602081835116920151166040519182526020820152600060408201526000805160206143fb833981519152606060043592a35b600881015460281c60ff16156108b7576107016106fc60068301612d0d565b612d89565b60ff60098301911660ff198254161790555b60098101601560ff82541611610769575b50600b429101556040516000805160206143db833981519152600435918061076481606090602081526003602082015262121a5d60ea1b60408201520190565b0390a2005b630100000063ff000000196008840154161780600884015560ff8160081c1660038110156101c457600114806108a8575b156108605750600c8201805460ff1990811660011790915560088301805465ff00ff00000019166501000000000017905560ff6107dc6106fc60068601612d0d565b16908254161790556040516000805160206143db833981519152600435918061082e8160609060208152601460208201527314ddda5d18da081d1bc81cdc1b1a5d081a185b9960621b60408201520190565b0390a26004357f1a327edcf6b43c60a10c1861bae195dec3be71c9a241bd49b8431259ca632045600080a25b81610724565b905060ff6040519160281c16151581527f28de5caf9fe9f11f1835aaec134bc9036528a0979f3503852cef0f8cfbc82bb9602060043592a26108a3600435613f50565b61085a565b5060ff600c840154161561079a565b6108c66106fc60048301612d0d565b60ff60098301911660ff19825416179055610713565b6108e98260048301612eaf565b60018060a01b039054169060ff602081835116920151166040519182526020820152600060408201526000805160206143fb833981519152606060043592a36106dd565b60405162461bcd60e51b815260206004820152601160248201527010d85c9908185b1c9958591e481d5cd959607a1b6044820152606490fd5b634e487b7160e01b600052601160045260246000fd5b60405162461bcd60e51b8152602060048201526011602482015270125b9d985b1a590818d85c99081cdd5a5d607a1b6044820152606490fd5b600491501115846105fd565b60405162461bcd60e51b8152602060048201526012602482015271496e76616c696420636172642076616c756560701b6044820152606490fd5b600d91501115846105e3565b60f81c15158152602001886105c4565b92602060019160ff8560f01c16151581520193016105be565b92602060019160ff8560e81c16151581520193016105b6565b92602060019160ff8560e01c16151581520193016105ae565b92602060019160ff8560d81c16151581520193016105a6565b92602060019160ff8560d01c161515815201930161059e565b92602060019160ff8560c81c1615158152019301610596565b92602060019160ff8560c01c161515815201930161058e565b92602060019160ff8560b81c1615158152019301610586565b92602060019160ff8560b01c161515815201930161057e565b92602060019160ff8560a81c1615158152019301610576565b92602060019160ff8560a01c161515815201930161056e565b92602060019160ff8560981c1615158152019301610566565b92602060019160ff8560901c161515815201930161055e565b92602060019160ff8560881c1615158152019301610556565b92602060019160ff8560801c161515815201930161054e565b92602060019160ff8560781c1615158152019301610546565b92602060019160ff8560701c161515815201930161053e565b92602060019160ff8560681c1615158152019301610536565b92602060019160ff8560601c161515815201930161052e565b92602060019160ff8560581c1615158152019301610526565b92602060019160ff8560501c161515815201930161051e565b92602060019160ff8560481c1615158152019301610516565b92602060019160ff8560401c161515815201930161050e565b92602060019160ff8560381c1615158152019301610506565b92602060019160ff8560301c16151581520193016104fe565b92602060019160ff8560281c16151581520193016104f6565b92602060019160ff85831c16151581520193016104ee565b92602060019160ff8560181c16151581520193016104e6565b92602060019160ff8560101c16151581520193016104de565b92602060019160ff8560081c16151581520193016104d6565b92602060019160ff8516151581520193016104ce565b9660016104006020928a5460ff81161515825260ff8160081c1615158583015260ff8160101c161515604083015260ff8160181c161515606083015260ff81861c161515608083015260ff8160281c16151560a083015260ff8160c0828260301c16151581860152828260381c16151560e0860152828260401c161515610100860152828260481c161515610120860152828260501c161515610140860152828260581c161515610160860152828260601c161515610180860152828260681c1615156101a0860152828260701c1615156101c0860152828260781c1615156101e0860152828260801c161515610200860152828260881c161515610220860152828260901c161515610240860152828260981c161515610260860152828260a01c161515610280860152828260a81c1615156102a0860152828260b01c1615156102c0860152828260b81c1615156102e08601521c16151561030083015260ff8160c81c16151561032083015260ff8160d01c16151561034083015260ff8160d81c16151561036083015260ff8160e01c16151561038083015260ff8160e81c1615156103a083015260ff8160f01c1615156103c083015260f81c15156103e08201520198019201916104ad565b60405162461bcd60e51b815260206004820152601d60248201527f4361726420747261636b696e67206e6f7420696e697469616c697a65640000006044820152606490fd5b60405162461bcd60e51b8152602060048201526015602482015274141b185e595c88185b1c9958591e48189d5cdd1959605a1b6044820152606490fd5b60203660031901126101fb576004356000526001602052604060002060035460043510156115d15760ff60038201541660048110156101c457610fae9015612c64565b60018101546001600160a01b0316331461158c5760028101543403611550576004810154611514576005810154610e1081018091116109665742116114db576002549081600052600060205260406000206bffffffffffffffffffffffff60a01b338183541617825560018060a01b0360018401541660018301918254161790556002820154806002830155806003810204600314811517156109665760030260011c60038201558260078201556008810165ffffffffffff19815416905561109060405161107c81612ad0565b600081526000602082015260098301612cae565b42600b820155600c810160ff1981541690556000600d82015560405160208101904282524460408201523360601b60608201528460748201527f1234567890abcdef1234567890abcdef1234567890abcdef1234567890abcdef6094820152609481526110fc81612ab4565b519020600e820155600a8101546000600a830155806114ab575b5060405167ffffffffffffffff906106a08101828111828210176114955760405260348152610680366020830137805191821161149557600160401b821161149557600a83015482600a85015580831061142f575b5060200190600a830160005260206000209060005b8160051c81106113e95750601f198116808203611399575b5050505060005b6034811061137157505060018060a01b036001820154166002820154604051908152837f6200407c0ea392b8107b21a9be480acd41fda186d04bed28cc7da2d4b53d56e260203393a481600052600060205260406000206008810190815460ff811660058110156101c4576113335760ff1916600117825560005b600260ff821610611313575090601560ff8361127461125e6106fc60056112486106fc6004809c9b01612d0d565b9486600982019616871987541617865501612d0d565b825461ff00191660089190911b61ff0016178255565b5416036112dd57805462ff000019166201000017905561129383613f50565b61129e600254612c2b565b60025560038101805460ff191660011790550155336004357fa31ecd4ef5c4170fc73b952e6c0344155875718dd9892919041e8a449246cb26600080a3005b805460ff19166002179055827f1a327edcf6b43c60a10c1861bae195dec3be71c9a241bd49b8431259ca632045600080a2611293565b61132e9061132086613717565b61132986612edc565b612cfc565b61121a565b60405162461bcd60e51b815260206004820152601660248201527547616d65206e6f7420696e206f70656e20737461746560501b6044820152606490fd5b8061138261139492600a8501612cdc565b60ff82549160031b1b19169055612c2b565b61119f565b9260009360005b81840381106113ba5750505060051c015583808080611198565b90919460206113df6001928489511515919060ff809160031b9316831b921b19161790565b96019291016113a0565b6000805b60208110611402575083820155600101611180565b949060206114266001928885511515919060ff809160031b9316831b921b19161790565b920195016113ed565b600a84016000526020600020601f841680611472575b50601f840160051c81015b601f830160051c8201811061146657505061116b565b60008155600101611450565b6000199081601f870160051c8401019182549160200360031b1c16905587611445565b634e487b7160e01b600052604160045260246000fd5b600a82016000526020600020805b601f830160051c820181106114cf575050611116565b600081556001016114b9565b60405162461bcd60e51b8152602060048201526011602482015270131bd8989e481a185cc8195e1c1a5c9959607a1b6044820152606490fd5b60405162461bcd60e51b815260206004820152601460248201527311d85b5948185b1c9958591e481cdd185c9d195960621b6044820152606490fd5b60405162461bcd60e51b8152602060048201526014602482015273125b98dbdc9c9958dd0818995d08185b5bdd5b9d60621b6044820152606490fd5b60405162461bcd60e51b815260206004820152601a60248201527f43616e6e6f74206a6f696e20796f7572206f776e206c6f6262790000000000006044820152606490fd5b60405162461bcd60e51b815260206004820152601060248201526f125b9d985b1a59081b1bd8989e48125160821b6044820152606490fd5b346101fb5760203660031901126101fb576004358060005260006020526040600020600b81015461070881018091116109665742111561169d576008019081549160ff831660058110156101c4576116646004821415613f0b565b60028103611687575063010000006116859363ff0000001916179055613f50565b005b9192505060031461169457005b61168590613ea8565b60405162461bcd60e51b815260206004820152601260248201527111d85b59481b9bdd081d1a5b5959081bdd5d60721b6044820152606490fd5b346101fb5760003660031901126101fb5760005b600380548210156116855781600052600160209080825260ff83604060002001541660048110156101c45715806117d9575b611733575b50505061172e90612c2b565b6116eb565b83600052808252600260406000208481018560ff19825416179055015483810293818504149015171561096657600084815291819052604082208101549192839283928392901c906001600160a01b03168282156117d0575bf1156117c4578061172e917f5734c28cc1d9ed1e4bdf39023ec1f4a7afbef43831fd767b44a4698de3cccea6600080a2908280611722565b6040513d6000823e3d90fd5b506108fc61178c565b5083600052808252600560406000200154610e10810180911161096657421161171d565b6020806003193601126101fb57600435908160005260008152604060002061182f60018060a01b038254163314613d48565b600881019182549160ff831660058110156101c45760026118509114613d84565b600481019283549060028203611a5a5760ff8160081c1660038110156101c457611a17576002830154611884813414613dc4565b61189e61189961189388612e67565b50612b0e565b612e51565b60ff806118b06118996118938b612e7c565b169116036119d457600d84015561ff0019166101001785556118d461189385612e7c565b9080156119be57600019016118e98186612e97565b9590956119a8576000805160206143db8339815191529661191c61194e946106fc94600060609a55845560068701612eaf565b61192589613717565b65ff00000000001965010000000000818354161782556119448a613717565b8154169055612d0d565b60ff60098301911660ff19825416179055600b42910155600560405191857fdad747603709dae9a6d79283c9d79f7659296db1c2e3779f0f8174a3b64597d5600080a28083528201526414dc1b1a5d60da1b6040820152a2005b634e487b7160e01b600052600060045260246000fd5b634e487b7160e01b600052603160045260246000fd5b6064856040519062461bcd60e51b825280600483015260248201527f43616e206f6e6c792073706c697420657175616c2076616c75652063617264736044820152fd5b6064846040519062461bcd60e51b825280600483015260248201527f43616e6e6f742073706c6974206166746572206f7468657220616374696f6e736044820152fd5b60405162461bcd60e51b815260048101859052601b60248201527f43616e206f6e6c792073706c697420696e697469616c2068616e6400000000006044820152606490fd5b346101fb5760203660031901126101fb57600435806000526000602052604060002090611ad960018060a01b036001840154163314613e10565b60ff60088301541660058110156101c4577f17931d977fe8fe498db2fb3e401f5cd4b7e726151a15407892fe6fe0fcb65daf602060ff600961168596611b226003889714613e68565b857fbf4b56bbb9bdb14e56bbe6172af19ea0186e1d51e3e595cd7680fc02ad786abb60405180611b6c8160609060208152600560208201526414dd185b9960da1b60408201520190565b0390a2015460081c16604051908152a2613f50565b346101fb5760203660031901126101fb5760043580600052600160205260406000209060018060a01b0360018301541691823303611c4957600381019081549160ff831660048110156101c457600293611bdd60039215612c64565b60ff191617905501546003810290808204600314901517156109665760008080809360011c8096828215611c40575bf1156117c4576040519182527f901c4b3ed78d5e3b588d41243171cd614027f155b6ab58c0af1b6c75ca66d1e160203393a3005b506108fc611c0c565b60405162461bcd60e51b815260206004820152601460248201527313db9b1e481a1bdcdd0818d85b8818d85b98d95b60621b6044820152606490fd5b346101fb5760203660031901126101fb576004358060005260006020526040600020611cbb60018060a01b038254163314613d48565b60088101805460ff811660058110156101c4576002611cda9114613d84565b60ff8160081c1660038110156101c45760011480611e05575b15611dc85750600c8201805460ff19908116600117909155815465ff000000000019166501000000000017909155611d306106fc60068401612d0d565b9060ff60098401921690825416179055816000805160206143db83398151915260405180611d878160609060208152601460208201527314ddda5d18da081d1bc81cdc1b1a5d081a185b9960621b60408201520190565b0390a25b600b429101556000805160206143db833981519152604051806107648160609060208152600560208201526414dd185b9960da1b60408201520190565b60ff19166003179055817fff773149b0a6d40de7532b973a8039a54964a8c109ea0b4c6e88bb04e15bbe12600080a2611e0082613ea8565b611d8b565b5060ff600c8401541615611cf3565b346101fb5760003660031901126101fb576020600454604051908152f35b346101fb5760003660031901126101fb576020600354604051908152f35b346101fb5760203660031901126101fb576004356000526000602052611e8b611e7f6004604060002001612d0d565b60405191829182612b30565b0390f35b346101fb5760203660031901126101fb57600435600052600160205260c0604060002080549060018060a01b0360018201541690611ef9600282015460ff600384015416906005600485015494015494604051968752602087015260408601526060850190612b8b565b608083015260a0820152f35b346101fb576020806003193601126101fb57600435908160005260008152604060002090611f4060018060a01b036001840154163314613e10565b60088201805460ff81169060058210156101c457611f62600360ff9314613e68565b831c1661206557908391611f7583612edc565b601560ff611f886106fc60058801612d0d565b611fa76009880191829061ff0082549160081b169061ff001916179055565b5460081c1611612002575b505050600b429101557fbf4b56bbb9bdb14e56bbe6172af19ea0186e1d51e3e595cd7680fc02ad786abb6040518061076481606090602081526003602082015262121a5d60ea1b60408201520190565b7fbf4b56bbb9bdb14e56bbe6172af19ea0186e1d51e3e595cd7680fc02ad786abb9160609164010000000064ff000000001982541617905560046040519180835282015263109d5cdd60e21b6040820152a261205d82613f50565b818380611fb2565b60405162461bcd60e51b81526004810183905260156024820152741119585b195c88185b1c9958591e48189d5cdd1959605a1b6044820152606490fd5b60003660031901126101fb57600454600390818102908082048314901517156109665760011c3410158061220c575b156121c7573460011b34810460021434151715610966578190048154906040516120fa81612ab4565b82815260208101338152604082019383855260608301946000865260808401926000845260a08501924284526000526001602052604060002094518555600185019060018060a01b039051166bffffffffffffffffffffffff60a01b82541617905551600284015585830194519160048310156101c4576121c39560059360ff8019835416911617905551600484015551910155825490604051908152817f0e5627a685207c8ab30875dcf6fa55cfe897bd9243ce8f1944c283a3d76a310360203393a3612c2b565b9055005b60405162461bcd60e51b815260206004820152601b60248201527f496e76616c6964206465616c6572207374616b6520616d6f756e7400000000006044820152606490fd5b50600554818102908082048314901517156109665760011c3411156120d1565b346101fb5760203660031901126101fb576004356000526000602052611e8b611e7f6006604060002001612d0d565b346101fb5760003660031901126101fb576020600554604051908152f35b346101fb5760003660031901126101fb576020600254604051908152f35b60203660031901126101fb57600435600052600060205260406000206122c760018060a01b038254163314613d48565b600881015460ff811660058110156101c45760026122e59114613d84565b6002600483015403612909576002820190815491612304833414613dc4565b60ff8260081c1660038110156101c4576128c457612326610200933490612ca1565b905561ff0019161760088201556004356000526000602052604060002090600a8201549160348303610ee957600e81015461236d6104516004840154600585015490612ca1565b604051914260208401524460408401526004356060840152608083015260a082015260a0815261239c81612ab4565b60208151910120604051906020828681520194600a84016000526020600020906000915b81601f8401106126f557966105cc9285926124bf9798995491818110610d0457818110610ceb57818110610cd257818110610cb957818110610ca157818110610c8857818110610c6f57818110610c5657818110610c3d57818110610c2457818110610c0b57818110610bf257818110610bd957818110610bc057818110610ba757818110610b8e57818110610b7557818110610b5c57818110610b4357818110610b2a57818110610b1157818110610af857818110610adf57818110610ac657818110610aad57818110610a9457818110610a7b57818110610a6257818110610a4957818110610a3057818110610a175710610a0757500383612aec565b9060ff825116600181101590816126e9575b50156109c15760ff602083015116600181101590816126dd575b501561097c57600d60ff61250481602086015116612d76565b160260ff81169081036109665761252360ff9161063583865116612d76565b1660ff61253382600a8501612cdc565b90549060031b1c1661092d5761066761254f91600a8401612cdc565b9055600881015460281c60ff161561268c5761256e8260068301612eaf565b60018060a01b039054169060ff602081835116920151166040519182526020820152600060408201526000805160206143fb833981519152606060043592a35b6125bd6106fc60048301612d0d565b601560ff60098401921660ff199281848254161790551160001461266d5750630100000063ff00000019600883015416176008820155604051600081527f28de5caf9fe9f11f1835aaec134bc9036528a0979f3503852cef0f8cfbc82bb9602060043592a261262d600435613f50565b600b4291015560405160208152600b60208201526a2237bab13632902237bbb760a91b60408201526000805160206143db833981519152606060043592a2005b600390600883015416176008820155612687600435613ea8565b61262d565b6126998260048301612eaf565b60018060a01b039054169060ff602081835116920151166040519182526020820152600060408201526000805160206143fb833981519152606060043592a36125ae565b600491501115846124eb565b600d91501115846124d1565b9660016104006020928a5460ff81161515825260ff8160081c1615158583015260ff8160101c161515604083015260ff8160181c161515606083015260ff81861c161515608083015260ff8160281c16151560a083015260ff8160c0828260301c16151581860152828260381c16151560e0860152828260401c161515610100860152828260481c161515610120860152828260501c161515610140860152828260581c161515610160860152828260601c161515610180860152828260681c1615156101a0860152828260701c1615156101c0860152828260781c1615156101e0860152828260801c161515610200860152828260881c161515610220860152828260901c161515610240860152828260981c161515610260860152828260a01c161515610280860152828260a81c1615156102a0860152828260b01c1615156102c0860152828260b81c1615156102e08601521c16151561030083015260ff8160c81c16151561032083015260ff8160d01c16151561034083015260ff8160d81c16151561036083015260ff8160e01c16151561038083015260ff8160e81c1615156103a083015260ff8160f01c1615156103c083015260f81c15156103e08201520198019201916123c0565b60405162461bcd60e51b815260206004820152601960248201527f43616e6e6f7420646f75626c652061667465722073706c6974000000000000006044820152606490fd5b60405162461bcd60e51b8152602060048201526024808201527f43616e206f6e6c7920646f75626c6520646f776e206f6e20696e697469616c206044820152631a185b9960e21b6064820152608490fd5b346101fb5760203660031901126101fb576004356000526000602052611e8b611e7f6005604060002001612d0d565b346101fb5760203660031901126101fb576004356000526000602052604060002060018060a01b038082541690600183015416600283015492600381015493600782015494600883015460ff8160081c16966129e760098601612b0e565b90600b8601549360ff600c8801541695600e600d890154980154986040519a8b5260208b015260408a015260608901526080880152600560ff831610156101c45760ff821660a088015260038810156101c45760ff612a98926102209960c08a0152818160101c16151560e08a0152818160181c1615156101008a0152818160201c1615156101208a015260281c16151561014088015261016087019060ff60208092828151168552015116910152565b6101a085015215156101c08401526101e0830152610200820152f35b60c0810190811067ffffffffffffffff82111761149557604052565b6040810190811067ffffffffffffffff82111761149557604052565b90601f8019910116810190811067ffffffffffffffff82111761149557604052565b90604051612b1b81612ad0565b602060ff829454818116845260081c16910152565b60208082019080835283518092528060408094019401926000905b838210612b5a57505050505090565b9091929394838282612b7e6001948a5160ff60208092828151168552015116910152565b0196019493920190612b4b565b9060048210156101c45752565b67ffffffffffffffff81116114955760051b60200190565b90612bba82612b98565b604090612bc982519182612aec565b8381528093612bda601f1991612b98565b019160005b838110612bec5750505050565b6020908251612bfa81612ab4565b60008152826000818301526000858301526000606083015260006080830152600060a0830152828601015201612bdf565b60001981146109665760010190565b8051821015612c4e5760209160051b010190565b634e487b7160e01b600052603260045260246000fd5b15612c6b57565b60405162461bcd60e51b815260206004820152600e60248201526d2637b1313c903737ba1037b832b760911b6044820152606490fd5b9190820180921161096657565b60ff6020612cda9382815116831985541617845501511661ff0082549160081b169061ff001916179055565b565b9190918054831015612c4e57600052601f60206000208360051c01921690565b60ff1660ff81146109665760010190565b908154612d1981612b98565b92612d276040519485612aec565b818452600090815260208082208186015b848410612d46575050505050565b6001838192612d5485612b0e565b815201920193019290612d38565b9060ff8091169116019060ff821161096657565b60ff6000199116019060ff821161096657565b600080805b83519060ff9182851690811015612e0457600183612dbf612db8612db2858b612c3a565b51612e51565b9389612c3a565b51511603612def575081612dd4600b92612cfc565b93160190811161096657612de89092612cfc565b9190612d8e565b612de89250612dfe9193612d62565b92612cfc565b5093505090505b60ff90818116906015821180612e46575b15612e3f5750600919018181116109665791168015610966576000190190612e0b565b9250505090565b508284161515612e1c565b5160ff16600a811115612e645750600a90565b90565b805415612c4e57600052602060002090600090565b805460011015612c4e57600052600160206000200190600090565b8054821015612c4e5760005260206000200190600090565b8054600160401b81101561149557612ecc91600182018155612e97565b9190916119a857612cda91612cae565b806000526000602052604060002090600a82015460348103610ee957600e8301546004918285015491612f23612f186005880194855490612ca1565b600688015490612ca1565b604051906020820192428452446040840152876060840152608083015260a082015260a08152612f5281612ab4565b519020604051906020828481520192600a88016000526020600020906000915b81601f84011061354e57946105cc92859261308e975491818110613538575b81811061351f575b818110613506575b8181106134ed575b8181106134d5575b8181106134bc575b8181106134a3575b81811061348a575b818110613471575b818110613458575b81811061343f575b818110613426575b81811061340d575b8181106133f4575b8181106133db575b8181106133c2575b8181106133a9575b818110613390575b818110613377575b81811061335e575b818110613345575b81811061332c575b818110613313575b8181106132fa575b8181106132e1575b8181106132c8575b8181106132af575b818110613296575b81811061327d575b818110613264575b81811061324b575b1061323b57500383612aec565b9360ff91828651166001811015908161322f575b50156131f65760208601938385511681600182101591826131eb575b5050156131b357600d846130d481885116612d76565b160284811690810361319e576130f18591610635838b5116612d76565b16908461310183600a8701612cdc565b90549060031b1c166131665750928261313f888394613138610667606099600a6000805160206143fb8339815191529c9a01612cdc565b9055612eaf565b6001808060a01b0391015416965116915116604051918252602082015260016040820152a3565b60649060206040519162461bcd60e51b8352820152601160248201527010d85c9908185b1c9958591e481d5cd959607a1b6044820152fd5b601182634e487b7160e01b6000525260246000fd5b60649060206040519162461bcd60e51b83528201526011602482015270125b9d985b1a590818d85c99081cdd5a5d607a1b6044820152fd5b1115905081386130be565b60405162461bcd60e51b81526020818601526012602482015271496e76616c696420636172642076616c756560701b6044820152606490fd5b600d91501115386130a2565b60f81c15158152602001386105c4565b92602060019160ff8560f01c1615158152019301613081565b92602060019160ff8560e81c1615158152019301613079565b92602060019160ff8560e01c1615158152019301613071565b92602060019160ff8560d81c1615158152019301613069565b92602060019160ff8560d01c1615158152019301613061565b92602060019160ff8560c81c1615158152019301613059565b92602060019160ff8560c01c1615158152019301613051565b92602060019160ff8560b81c1615158152019301613049565b92602060019160ff8560b01c1615158152019301613041565b92602060019160ff8560a81c1615158152019301613039565b92602060019160ff8560a01c1615158152019301613031565b92602060019160ff8560981c1615158152019301613029565b92602060019160ff8560901c1615158152019301613021565b92602060019160ff8560881c1615158152019301613019565b92602060019160ff8560801c1615158152019301613011565b92602060019160ff8560781c1615158152019301613009565b92602060019160ff8560701c1615158152019301613001565b92602060019160ff8560681c1615158152019301612ff9565b92602060019160ff8560601c1615158152019301612ff1565b92602060019160ff8560581c1615158152019301612fe9565b92602060019160ff8560501c1615158152019301612fe1565b92602060019160ff8560481c1615158152019301612fd9565b92602060019160ff8560401c1615158152019301612fd1565b92602060019160ff8560381c1615158152019301612fc9565b92602060019160ff8560301c1615158152019301612fc1565b92602060019160ff8560281c1615158152019301612fb9565b92602060019160ff85831c1615158152019301612fb1565b92602060019160ff8560181c1615158152019301612fa9565b92602060019160ff8560101c1615158152019301612fa1565b92602060019160ff8560081c1615158152019301612f99565b92602060019160ff851615158152019301612f91565b9293946001610400602092865460ff80821615158352808260081c16151586840152808260101c1615156040840152808260181c16151560608401528082871c1615156080840152808260281c16151560a0840152808260c0828260301c16151581870152828260e092828260381c161515848a0152828260401c1615156101008a0152828260481c1615156101208a0152828260501c1615156101408a0152828260581c1615156101608a0152828260601c1615156101808a0152828260681c1615156101a08a0152828260701c1615156101c08a0152828260781c1615156101e08a0152828260801c1615156102008a0152828260881c1615156102208a0152828260901c1615156102408a0152828260981c1615156102608a0152828260a01c1615156102808a0152828260a81c1615156102a08a0152828260b01c1615156102c08a0152828260b81c1615156102e08a01521c161515610300870152828260c81c161515610320870152828260d01c161515610340870152828260d81c1615156103608701521c161515610380840152808260e81c1615156103a08401528160f01c1615156103c083015260f81c15156103e082015201940192019194939294612f72565b908160005260006020526040600020600a8101549260348403610ee957600e8201549160048101926137526104518554600585015490612ca1565b60405191426020840152446040840152846060840152608083015260a082015260a0815261377f81612ab4565b60208151910120604051906020828881520196600a84016000526020600020906000915b81601f8401106139ab57986105cc9285926138a49798999a9b54918181106135385781811061351f57818110613506578181106134ed578181106134d5578181106134bc578181106134a35781811061348a57818110613471578181106134585781811061343f578181106134265781811061340d578181106133f4578181106133db578181106133c2578181106133a957818110613390578181106133775781811061335e578181106133455781811061332c57818110613313578181106132fa578181106132e1578181106132c8578181106132af578181106132965781811061327d578181106132645781811061324b571061323b57500383612aec565b9260ff808551166001811015908161399f575b50156109c15760208501908082511660018110159081613993575b501561097c57600d816138e781855116612d76565b1602818116908103610966576139048291610635838a5116612d76565b168161391382600a8801612cdc565b90549060031b1c1661092d57846060946139436106678594600a6000805160206143fb8339815191529a01612cdc565b90558883600884015460281c1660001461398a57613965915060068301612eaf565b60018060a01b03905416965116915116604051918252602082015260006040820152a3565b61396591612eaf565b600491501115386138d2565b600d91501115386138b7565b9860016104006020928c5460ff80821615158352808260081c16151586840152808260101c1615156040840152808260181c16151560608401528082871c1615156080840152808260281c16151560a0840152808260c0828260301c16151581870152828260e092828260381c161515848a0152828260401c1615156101008a0152828260481c1615156101208a0152828260501c1615156101408a0152828260581c1615156101608a0152828260601c1615156101808a0152828260681c1615156101a08a0152828260701c1615156101c08a0152828260781c1615156101e08a0152828260801c1615156102008a0152828260881c1615156102208a0152828260901c1615156102408a0152828260981c1615156102608a0152828260a01c1615156102808a0152828260a81c1615156102a08a0152828260b01c1615156102c08a0152828260b81c1615156102e08a01521c161515610300870152828260c81c161515610320870152828260d01c161515610340870152828260d81c1615156103608701521c161515610380840152808260e81c1615156103a08401528160f01c1615156103c083015260f81c15156103e0820152019a019201916137a3565b919091604092835192613b8084612ad0565b60008085528060208096015260349384845103613d04578190825b868110613cd057508115613c9757068193825b868110613bf257885162461bcd60e51b815260048101899052601660248201527510d85c990819d95b995c985d1a5bdb8819985a5b195960521b6044820152606490fd5b613bfc8183612c3a565b5115613c11575b613c0c90612c2b565b613bae565b94828114613c2d57613c25613c0c91612c2b565b959050613c03565b50505093925093600d9081830694600192838701809711613c835760ff9404928301809311613c6f575082905194613c6486612ad0565b168452169082015290565b634e487b7160e01b81526011600452602490fd5b634e487b7160e01b82526011600452602482fd5b875162461bcd60e51b81526004810188905260126024820152714e6f20636172647320617661696c61626c6560701b6044820152606490fd5b613cda8187612c3a565b5115613cef575b613cea90612c2b565b613b9b565b91613cfc613cea91612c2b565b929050613ce1565b865162461bcd60e51b815260048101879052601f60248201527f496e76616c69642075736564206361726473206172726179206c656e677468006044820152606490fd5b15613d4f57565b60405162461bcd60e51b815260206004820152600d60248201526c4e6f7420796f75722067616d6560981b6044820152606490fd5b15613d8b57565b60405162461bcd60e51b81526020600482015260116024820152702737ba10383630bcb2b913b9903a3ab93760791b6044820152606490fd5b15613dcb57565b60405162461bcd60e51b815260206004820152601760248201527f4d757374206d61746368206f726967696e616c206265740000000000000000006044820152606490fd5b15613e1757565b60405162461bcd60e51b815260206004820152602360248201527f4f6e6c79206465616c65722063616e20706572666f726d20746869732061637460448201526234b7b760e91b6064820152608490fd5b15613e6f57565b60405162461bcd60e51b81526020600482015260116024820152702737ba103232b0b632b913b9903a3ab93760791b6044820152606490fd5b60008181528060205260ff6008604083200154166005811015613ef75790613ef360037fff773149b0a6d40de7532b973a8039a54964a8c109ea0b4c6e88bb04e15bbe129314613e68565b80a2565b634e487b7160e01b82526021600452602482fd5b15613f1257565b60405162461bcd60e51b815260206004820152601660248201527511d85b5948185b1c9958591e4818dbdb5c1b195d195960521b6044820152606490fd5b6000818152602091818352604090818320916008830193845460ff9485821695600587101561429b57613f87600480981415613f0b565b606091600981019384548b848083169260081c166002850154928685818160181c16941c1687613fc0818860101c168387898888614305565b9660081c16600381101561428857600114614251575b8515938461416f575050505050509385915b86838780158015614131575b5050909181159081156140f4575b5050505090879493929160ff199a8a8c825416179055549087519460a086528c8551958660a0890152895b8781106140dc57505092859260c095928897958b888a987f25385962b4e4e118e0eb9a2e0390e6f5a84d21567cf1c28a2351a3bd413c4ca69c0101528601528a850152818116606085015260081c166080830152601f80199101168101030190a2805b6003548110156140d357808252600187528282208486820154146140bd57506140b890612c2b565b614090565b6003018054909616600217909555505050505050565b50505050505050565b81810183015189820160c001528c99508f920161402d565b600101548392839283926001600160a01b0316908390614128575bf11561411e5785823880614002565b86513d87823e3d90fd5b506108fc61410f565b84548493508392839290916001600160a01b0316908390614166575bf11561415c5786838738613ff4565b87513d88823e3d90fd5b506108fc61414d565b91939550919398975084614248575b508361423f575b5082614235575b5050156141ef57855161419e81612ad0565b888152630a0eae6d60e31b8b82015292600d820154946141cd6141c18783612ca1565b96600385015492612ca1565b81039081116141dc5791613fe8565b634e487b7160e01b875260118a52602487fd5b85516141fa81612ad0565b600b81526a4465616c65722057696e7360a81b8b8201529261422f61422487966003850154612ca1565b600d84015490612ca1565b91613fe8565b149050388061418c565b15925038614185565b1593503861417e565b946142829061427c876142696106fc60068c01612d0d565b60158c8216119087600d8d0154916142af565b90612ca1565b94613fd6565b634e487b7160e01b8c5260218f5260248cfd5b634e487b7160e01b84526021600452602484fd5b92939091936142fc5780156142ed575b6142d55760ff809116911614612e645750600090565b50508060011b90808204600214901517156109665790565b5060ff811660ff8316116142bf565b50505050600090565b939194909261436d5780614365575b80614357575b61433a5780156142ed576142d55760ff809116911614612e645750600090565b505050609681029080820460961490151715610966576064900490565b50601560ff8316141561431a565b508015614314565b5050505050600090565b60048101906002825414908115916143bd575b506143b75760ff806143b06118996118936143aa61189961189388612e67565b95612e7c565b1691161490565b50600090565b60ff91506008015460081c1660038110156101c45715153861438a56fecc08a4f861b097fd68048e30e86ac2db48198da16ddce9c022c76d60cfe4ae53a3b3e2532a51907c70564d7eb439a729f06dc722d859e88561a31f9a1579ecb6a26469706673582212206eaffabc72902cad517571fcb3087153388b3675bb0076c8190a01e63803e9a564736f6c63430008150033",
  "immutableReferences": {},
  "source": "// SPDX-License-Identifier: MIT\npragma solidity ^0.8.21;\n\nimport \"./CardLib.sol\";\n\ncontract Blackjack {\n    using CardLib for CardLib.Card;\n\n    // Enums\n    enum LobbyStatus { Open, InProgress, Completed, Cancelled }\n    enum GameState { Open, Dealing, PlayerTurn, DealerTurn, Complete }\n    enum ActionState { None, Split, Doubled }\n\n    // Constants\n    uint8 constant DEALER_MIN_STAND = 17;\n    uint8 constant BLACKJACK = 21;\n    uint8 constant ACE_HIGH = 11;\n    uint8 constant ACE_LOW = 1;\n    uint256 constant BLACKJACK_MULTIPLIER = 150; // 3:2 payout\n    uint256 constant NORMAL_MULTIPLIER = 200;    // 2:1 payout\n    uint256 constant MULTIPLIER_BASE = 100;      // Base for multiplier calculations\n    uint256 constant LOBBY_TIMEOUT = 1 hours;\n    uint256 constant GAME_TIMEOUT = 30 minutes;\n    bytes32 constant SALT_BASE = 0x1234567890abcdef1234567890abcdef1234567890abcdef1234567890abcdef;\n\n    // Using CardLib's Card struct\n    using CardLib for CardLib.Card;\n\n    // Card struct is now part of CardLib\n\n    // Scores struct to store player and dealer scores\n    struct Scores {\n        uint8 playerScore;\n        uint8 dealerScore;\n    }\n\n    // Lobby struct to handle game creation and joining\n    struct Lobby {\n        uint256 lobbyId;\n        address payable host;\n        uint256 betAmount;\n        LobbyStatus status;\n        uint256 gameId;\n        uint256 creationTime;\n    }\n\n    // Game struct to store all game-related data\n    struct Game {\n        address payable player;\n        address payable dealer;\n        uint256 betAmount;\n        uint256 dealerStake;\n        CardLib.Card[] playerHand;\n        CardLib.Card[] dealerHand;\n        CardLib.Card[] splitHand;\n        uint256 gameId;\n        GameState state;\n        ActionState actionState;\n        bool isBlackjack;\n        bool playerBusted;\n        bool dealerBusted;\n        bool isSplitHand;\n        Scores scores;\n        bool[] usedCards;\n        uint256 lastActionTime;\n        bool splitHandCompleted;\n        uint256 splitBetAmount;\n        bytes32 randomnessCommit;\n    }\n\n    // State variables\n    mapping(uint256 => Game) public games;\n    mapping(uint256 => Lobby) public lobbies;\n    uint256 public gameCounter;\n    uint256 public lobbyCounter;\n    uint256 public minBet;\n    uint256 public maxBet;\n\n    // Events\n    event LobbyCreated(uint256 indexed lobbyId, address indexed host, uint256 betAmount);\n    event LobbyJoined(uint256 indexed lobbyId, address indexed player);\n    event LobbyCancelled(uint256 indexed lobbyId, address indexed host, uint256 refundAmount);\n    event LobbyTimeout(uint256 indexed lobbyId);\n    event GameCreated(uint256 indexed gameId, address indexed player, address indexed dealer, uint256 betAmount);\n    event CardDealt(uint256 indexed gameId, address indexed recipient, uint8 value, uint8 suit, bool isDealer);\n    event PlayerAction(uint256 indexed gameId, string action);\n    event SplitHandStarted(uint256 indexed gameId);\n    event HandBusted(uint256 indexed gameId, bool isSplitHand);\n    event DealerAction(uint256 indexed gameId, string action);\n    event DealerTurnComplete(uint256 indexed gameId, uint8 dealerScore);\n    event GameComplete(uint256 indexed gameId, string result, uint256 playerPayout, uint256 dealerPayout, uint8 playerScore, uint8 dealerScore);\n    event PlayerTurn(uint256 indexed gameId);\n    event DealerTurn(uint256 indexed gameId);\n\n    constructor(uint256 _minBet, uint256 _maxBet) {\n        require(_minBet > 0 && _maxBet >= _minBet, \"Invalid bet amounts\");\n        minBet = _minBet;\n        maxBet = _maxBet;\n    }\n\n    // Get All Open Lobbies\n    function getOpenLobbies() external view returns (Lobby[] memory) {\n        Lobby[] memory openLobbies = new Lobby[](lobbyCounter);\n        uint256 openLobbiesCount = 0;\n\n        for (uint256 i = 0; i < lobbyCounter; i++) {\n            if (lobbies[i].status == LobbyStatus.Open) {\n                openLobbies[openLobbiesCount] = lobbies[i];\n                openLobbiesCount++;\n            }\n        }\n\n        // Trim the array to the actual number of open lobbies\n        Lobby[] memory trimmedLobbies = new Lobby[](openLobbiesCount);\n        for (uint256 i = 0; i < openLobbiesCount; i++) {\n            trimmedLobbies[i] = openLobbies[i];\n        }\n\n        return trimmedLobbies;\n    }\n\n    // Create a new lobby\n    function createLobby() external payable {\n        require(msg.value >= minBet * 3 / 2 && msg.value <= maxBet * 3 / 2, \"Invalid dealer stake amount\");\n\n        uint256 betAmount = msg.value * 2 / 3; // Dealer stakes 1.5x the bet amount\n        lobbies[lobbyCounter] = Lobby({\n            lobbyId: lobbyCounter,\n            host: payable(msg.sender),\n            betAmount: betAmount,\n            status: LobbyStatus.Open,\n            gameId: 0,\n            creationTime: block.timestamp\n        });\n\n        emit LobbyCreated(lobbyCounter, msg.sender, betAmount);\n        lobbyCounter++;\n    }\n\n    // Cancel lobby\n    function cancelLobby(uint256 lobbyId) external {\n        Lobby storage lobby = lobbies[lobbyId];\n        require(msg.sender == lobby.host, \"Only host can cancel\");\n        require(lobby.status == LobbyStatus.Open, \"Lobby not open\");\n\n        lobby.status = LobbyStatus.Cancelled;\n        uint256 refundAmount = lobby.betAmount * 3 / 2;\n        lobby.host.transfer(refundAmount);\n\n        emit LobbyCancelled(lobbyId, msg.sender, refundAmount);\n    }\n\n    // Join an existing lobby and start the game\n    function joinLobby(uint256 lobbyId) external payable {\n        Lobby storage lobby = lobbies[lobbyId];\n        require(lobbyId < lobbyCounter, \"Invalid lobby ID\");\n        require(lobby.status == LobbyStatus.Open, \"Lobby not open\");\n        require(msg.sender != lobby.host, \"Cannot join your own lobby\");\n        require(msg.value == lobby.betAmount, \"Incorrect bet amount\");\n        require(lobby.gameId == 0, \"Game already started\");\n        require(block.timestamp <= lobby.creationTime + LOBBY_TIMEOUT, \"Lobby has expired\");\n\n        // Start the game\n        uint256 gameId = _startGame(lobby, msg.sender);\n\n        // Update lobby status\n        lobby.status = LobbyStatus.InProgress;\n        lobby.gameId = gameId;\n\n        emit LobbyJoined(lobbyId, msg.sender);\n    }\n\n    // Cleanup timed-out lobbies\n    function cleanupTimedOutLobbies() external {\n        for (uint256 i = 0; i < lobbyCounter; i++) {\n            if (\n                lobbies[i].status == LobbyStatus.Open &&\n                block.timestamp > lobbies[i].creationTime + LOBBY_TIMEOUT\n            ) {\n                lobbies[i].status = LobbyStatus.Cancelled;\n                uint256 refundAmount = lobbies[i].betAmount * 3 / 2;\n                lobbies[i].host.transfer(refundAmount);\n                emit LobbyTimeout(i);\n            }\n        }\n    }\n\n    // Internal function to start a new game\n    function _startGame(Lobby storage lobby, address player) internal returns (uint256) {\n        uint256 currentGameId = gameCounter;\n\n        // Initialize game\n        Game storage newGame = games[currentGameId];\n        newGame.player = payable(player);\n        newGame.dealer = lobby.host;\n        newGame.betAmount = lobby.betAmount;\n        newGame.dealerStake = lobby.betAmount * 3 / 2;\n        newGame.gameId = currentGameId;\n        newGame.state = GameState.Open;\n        newGame.actionState = ActionState.None;\n        newGame.isBlackjack = false;\n        newGame.playerBusted = false;\n        newGame.dealerBusted = false;\n        newGame.isSplitHand = false;\n        newGame.scores = Scores(0, 0);\n        newGame.lastActionTime = block.timestamp;\n        newGame.splitHandCompleted = false;\n        newGame.splitBetAmount = 0;\n        newGame.randomnessCommit = _generateCommit(currentGameId);\n\n        // Initialize usedCards array with proper length\n        delete newGame.usedCards;\n        newGame.usedCards = new bool[](52);\n        for (uint256 i = 0; i < 52; i++) {\n            newGame.usedCards[i] = false;\n        }\n\n        emit GameCreated(currentGameId, player, lobby.host, lobby.betAmount);\n\n        // Deal initial cards\n        _dealInitialCards(currentGameId);\n\n        gameCounter++;\n        return currentGameId;\n    }\n\n    // Internal function to deal initial cards\n    function _dealInitialCards(uint256 gameId) internal {\n        Game storage game = games[gameId];\n        require(game.state == GameState.Open, \"Game not in open state\");\n\n        game.state = GameState.Dealing;\n\n        // Deal two cards each to player and dealer\n        for (uint8 i = 0; i < 2; i++) {\n            _dealCard(gameId, false); // To player\n            _dealCard(gameId, true);  // To dealer\n        }\n\n        // Calculate initial scores\n        game.scores.playerScore = CardLib.calculateHandValue(game.playerHand);\n        game.scores.dealerScore = CardLib.calculateHandValue(game.dealerHand);\n\n        // Check for blackjack\n        if (game.scores.playerScore == BLACKJACK) {\n            game.isBlackjack = true;\n            _endGame(gameId);\n        } else {\n            game.state = GameState.PlayerTurn;\n            emit PlayerTurn(gameId); // Emit PlayerTurn event\n        }\n    }\n\n    // Internal function to deal a single card\n    function _dealCard(uint256 gameId, bool toDealer) internal {\n        Game storage game = games[gameId];\n        require(game.usedCards.length == 52, \"Card tracking not initialized\");\n\n        // Generate a unique seed for randomness\n        uint256 seed = uint256(keccak256(abi.encodePacked(\n            block.timestamp,\n            block.prevrandao,\n            gameId,\n            game.randomnessCommit,\n            game.playerHand.length + game.dealerHand.length + game.splitHand.length\n        )));\n\n        // Generate a random card that hasn't been used\n        CardLib.Card memory newCard = CardLib.generateRandomCard(seed, game.usedCards);\n        \n        // Mark the card as used\n        uint256 cardIndex = CardLib.getCardIndex(newCard);\n        require(!game.usedCards[cardIndex], \"Card already used\");\n        game.usedCards[cardIndex] = true;\n\n        // Add card to appropriate hand\n        if (toDealer) {\n            game.dealerHand.push(newCard);\n            emit CardDealt(gameId, game.dealer, newCard.value, newCard.suit, true);\n        } else if (game.isSplitHand) {\n            game.splitHand.push(newCard);\n            emit CardDealt(gameId, game.player, newCard.value, newCard.suit, false);\n        } else {\n            game.playerHand.push(newCard);\n            emit CardDealt(gameId, game.player, newCard.value, newCard.suit, false);\n        }\n    }\n\n    // Internal helper to check if a card has already been used\n    function _isCardUsed(Game storage game, CardLib.Card memory card) internal view returns (bool) {\n        uint256 cardIndex = (card.suit - 1) * 13 + (card.value - 1);\n        return game.usedCards[cardIndex];\n    }\n\n    // Internal helper to mark a card as used\n    function _markCardAsUsed(Game storage game, CardLib.Card memory card) internal {\n        uint256 cardIndex = (card.suit - 1) * 13 + (card.value - 1);\n        game.usedCards[cardIndex] = true;\n    }\n\n    // Player action: Hit\n    function hit(uint256 gameId) external {\n        Game storage game = games[gameId];\n        require(msg.sender == game.player, \"Not your game\");\n        require(game.state == GameState.PlayerTurn, \"Not player's turn\");\n        require(!game.playerBusted, \"Player already busted\");\n\n        // Deal card\n        _dealCard(gameId, false);\n\n        // Update the correct hand's score\n        if (game.isSplitHand) {\n            game.scores.playerScore = CardLib.calculateHandValue(game.splitHand);\n        } else {\n            game.scores.playerScore = CardLib.calculateHandValue(game.playerHand);\n        }\n\n        if (game.scores.playerScore > BLACKJACK) {\n            game.playerBusted = true;\n            if (game.actionState == ActionState.Split && !game.splitHandCompleted) {\n                // Switch to split hand\n                game.splitHandCompleted = true;\n                game.isSplitHand = true;\n                game.playerBusted = false;\n                game.scores.playerScore = CardLib.calculateHandValue(game.splitHand);\n                emit PlayerAction(gameId, \"Switch to split hand\");\n                emit PlayerTurn(gameId); // Emit PlayerTurn for split hand\n            } else {\n                emit HandBusted(gameId, game.isSplitHand);\n                _endGame(gameId);\n            }\n        }\n\n        game.lastActionTime = block.timestamp;\n        emit PlayerAction(gameId, \"Hit\");\n    }\n\n\n    // Player action: Stand\n    function stand(uint256 gameId) external {\n        Game storage game = games[gameId];\n        require(msg.sender == game.player, \"Not your game\");\n        require(game.state == GameState.PlayerTurn, \"Not player's turn\");\n\n        if (game.actionState == ActionState.Split && !game.splitHandCompleted) {\n            // Switch to the split hand\n            game.splitHandCompleted = true;\n            game.isSplitHand = true;\n            game.scores.playerScore = CardLib.calculateHandValue(game.splitHand);\n            emit PlayerAction(gameId, \"Switch to split hand\");\n        } else {\n            game.state = GameState.DealerTurn;\n            emit DealerTurn(gameId); // Emit DealerTurn event\n            _dealerTurn(gameId);\n        }\n\n        game.lastActionTime = block.timestamp;\n        emit PlayerAction(gameId, \"Stand\");\n    }\n\n\n    // Player action: Double Down\n    function doubleDown(uint256 gameId) external payable {\n        Game storage game = games[gameId];\n        require(msg.sender == game.player, \"Not your game\");\n        require(game.state == GameState.PlayerTurn, \"Not player's turn\");\n        require(game.playerHand.length == 2, \"Can only double down on initial hand\");\n        require(msg.value == game.betAmount, \"Must match original bet\");\n        require(game.actionState == ActionState.None, \"Cannot double after split\");\n\n        game.betAmount += msg.value;\n        game.actionState = ActionState.Doubled;\n\n        // Deal one card and end player's turn\n        _dealCard(gameId, false);\n        game.scores.playerScore = CardLib.calculateHandValue(game.playerHand);\n\n        if (game.scores.playerScore > BLACKJACK) {\n            game.playerBusted = true;\n            emit HandBusted(gameId, false);\n            _endGame(gameId);\n        } else {\n            game.state = GameState.DealerTurn;\n            _dealerTurn(gameId);\n        }\n\n        game.lastActionTime = block.timestamp;\n        emit PlayerAction(gameId, \"Double Down\");\n    }\n\n    // Player action: Split\n    function split(uint256 gameId) external payable {\n        Game storage game = games[gameId];\n        _validateSplitConditions(game, msg.sender, msg.value);\n\n        _executeSplit(game, gameId);\n\n        game.lastActionTime = block.timestamp;\n        emit SplitHandStarted(gameId);\n        emit PlayerAction(gameId, \"Split\");\n    }\n\n    // Internal function to validate split conditions\n    function _validateSplitConditions(\n        Game storage game,\n        address sender,\n        uint256 value\n    ) internal view {\n        require(sender == game.player, \"Not your game\");\n        require(game.state == GameState.PlayerTurn, \"Not player's turn\");\n        require(game.playerHand.length == 2, \"Can only split initial hand\");\n        require(game.actionState == ActionState.None, \"Cannot split after other actions\");\n        require(value == game.betAmount, \"Must match original bet\");\n\n        // Get card values, handling face cards\n        uint8 card1Value = CardLib.getCardValue(game.playerHand[0]);\n        uint8 card2Value = CardLib.getCardValue(game.playerHand[1]);\n        require(card1Value == card2Value, \"Can only split equal value cards\");\n    }\n\n    // Internal function to execute split\n    function _executeSplit(Game storage game, uint256 gameId) internal {\n        game.splitBetAmount = game.betAmount;\n        game.actionState = ActionState.Split;\n\n        // Remove second card from player's hand\n        CardLib.Card memory secondCard = game.playerHand[1];\n        game.playerHand.pop();\n\n        // Initialize split hand and add the second card\n        game.splitHand.push(secondCard);\n\n        // Deal new cards to both hands\n        _dealCard(gameId, false); // To first hand\n        game.isSplitHand = true; // Next card goes to split hand\n        _dealCard(gameId, false); // To split hand\n        game.isSplitHand = false; // Reset back to first hand\n\n        // Update scores\n        game.scores.playerScore = CardLib.calculateHandValue(game.playerHand);\n    }\n\n    // Modified dealer turn to be manual instead of automatic\n    function dealerHit(uint256 gameId) external {\n        Game storage game = games[gameId];\n        require(msg.sender == game.dealer, \"Only dealer can perform this action\");\n        require(game.state == GameState.DealerTurn, \"Not dealer's turn\");\n        require(!game.dealerBusted, \"Dealer already busted\");\n\n        _dealCard(gameId, true);\n        game.scores.dealerScore = CardLib.calculateHandValue(game.dealerHand);\n\n        if (game.scores.dealerScore > BLACKJACK) {\n            game.dealerBusted = true;\n            emit DealerAction(gameId, \"Bust\");\n            _endGame(gameId);\n        }\n\n        game.lastActionTime = block.timestamp;\n        emit DealerAction(gameId, \"Hit\");\n    }\n\n    function dealerStand(uint256 gameId) external {\n        Game storage game = games[gameId];\n        require(msg.sender == game.dealer, \"Only dealer can perform this action\");\n        require(game.state == GameState.DealerTurn, \"Not dealer's turn\");\n\n        emit DealerAction(gameId, \"Stand\");\n        emit DealerTurnComplete(gameId, game.scores.dealerScore);\n        _endGame(gameId);\n    }\n\n    // Remove the automatic _dealerTurn implementation\n    function _dealerTurn(uint256 gameId) internal {\n        Game storage game = games[gameId];\n        require(game.state == GameState.DealerTurn, \"Not dealer's turn\");\n        emit DealerTurn(gameId);\n    }\n\n    // Internal function to determine if dealer should hit\n    function _shouldDealerHit(CardLib.Card[] memory hand, uint8 score) internal pure returns (bool) {\n        if (score >= DEALER_MIN_STAND) {\n            // Check for soft 17 (Ace + 6)\n            if (score == 17) {\n                bool hasAce = false;\n                uint8 nonAceSum = 0;\n\n                for (uint8 i = 0; i < hand.length; i++) {\n                    if (hand[i].value == 1) { // Ace\n                        hasAce = true;\n                    } else {\n                        nonAceSum += (hand[i].value > 10 ? 10 : hand[i].value);\n                    }\n                }\n\n                // If it's a soft 17 (Ace counting as 11 + 6), dealer must hit\n                return hasAce && nonAceSum == 6;\n            }\n            return false;\n        }\n        return true;\n    }\n\n    // Game resolution\n    function _endGame(uint256 gameId) internal {\n        Game storage game = games[gameId];\n        require(game.state != GameState.Complete, \"Game already completed\");\n\n        (uint256 payoutToPlayer, uint256 payoutToDealer, string memory result) = _calculateGamePayout(game);\n\n        // Handle payouts\n        if (payoutToPlayer > 0) {\n            payable(game.player).transfer(payoutToPlayer);\n        }\n\n        if (payoutToDealer > 0) {\n            payable(game.dealer).transfer(payoutToDealer);\n        }\n\n        _finalizeGameState(gameId, game, result, payoutToPlayer, payoutToDealer);\n\n        // Update lobby status\n        for (uint256 i = 0; i < lobbyCounter; i++) {\n            if (lobbies[i].gameId == gameId) {\n                lobbies[i].status = LobbyStatus.Completed;\n                break;\n            }\n        }\n    }\n\n    // Internal function to calculate game payout\n    function _calculateGamePayout(Game storage game)\n        internal\n        view\n        returns (uint256 payoutToPlayer, uint256 payoutToDealer, string memory result)\n    {\n        uint256 playerPayout = _calculateMainHandPayout(game);\n\n        if (game.actionState == ActionState.Split) {\n            playerPayout += _calculateSplitHandPayout(game);\n        }\n\n        if (playerPayout > 0) {\n            //result = \"Player Wins\";\n            payoutToPlayer = playerPayout;\n            payoutToDealer = 0;\n        } else if (playerPayout == 0 && !game.playerBusted && !game.dealerBusted && game.scores.playerScore == game.scores.dealerScore) {\n            // Push - return bets\n            result = \"Push\";\n            payoutToPlayer = game.betAmount + game.splitBetAmount; // Return player's bets\n            payoutToDealer = game.dealerStake - (game.betAmount + game.splitBetAmount); // Return remaining dealer stake\n        } else {\n            result = \"Dealer Wins\";\n            payoutToPlayer = 0;\n            payoutToDealer = game.dealerStake + game.betAmount + game.splitBetAmount; // Dealer takes the bets\n        }\n    }\n\n    // Internal function to calculate main hand payout\n    function _calculateMainHandPayout(Game storage game) internal view returns (uint256) {\n        return _determineHandPayout(\n            game.scores.playerScore,\n            game.scores.dealerScore,\n            game.betAmount,\n            game.playerBusted,\n            game.dealerBusted,\n            game.isBlackjack\n        );\n    }\n\n    // Internal function to calculate split hand payout\n    function _calculateSplitHandPayout(Game storage game) internal view returns (uint256) {\n        uint8 splitScore = CardLib.calculateHandValue(game.splitHand);\n        bool splitBusted = splitScore > BLACKJACK;\n\n        return _determineHandPayout(\n            splitScore,\n            game.scores.dealerScore,\n            game.splitBetAmount,\n            splitBusted,\n            game.dealerBusted,\n            false\n        );\n    }\n\n    // Internal pure function to determine hand payout\n    function _determineHandPayout(\n        uint8 playerScore,\n        uint8 dealerScore,\n        uint256 betAmount,\n        bool playerBusted,\n        bool dealerBusted,\n        bool isBlackjack\n    ) internal pure returns (uint256) {\n        if (playerBusted) {\n            return 0;\n        }\n\n        if (isBlackjack && !dealerBusted && dealerScore != BLACKJACK) {\n            // Blackjack pays 3:2\n            return (betAmount * BLACKJACK_MULTIPLIER) / MULTIPLIER_BASE;\n        }\n\n        if (dealerBusted || (!playerBusted && playerScore > dealerScore)) {\n            // Regular win pays 1:1\n            return betAmount * 2;\n        }\n\n        if (!playerBusted && playerScore == dealerScore) {\n            // Push - return original bet\n            return betAmount;\n        }\n\n        return 0;\n    }\n\n    // Internal function to finalize game state\n    function _finalizeGameState(\n        uint256 gameId,\n        Game storage game,\n        string memory result,\n        uint256 payoutToPlayer,\n        uint256 payoutToDealer\n    ) internal {\n        game.state = GameState.Complete;\n        emit GameComplete(gameId, result, payoutToPlayer, payoutToDealer, game.scores.playerScore, game.scores.dealerScore);\n    }\n\n    // ------------------ Helper Functions ------------------\n\n    /**\n     * @dev Returns the player's hand for a specific game.\n     * @param gameId The ID of the game.\n     * @return An array of Card structs representing the player's hand.\n     */\n    function getPlayerHand(uint256 gameId) external view returns (CardLib.Card[] memory) {\n        return games[gameId].playerHand;\n    }\n\n    /**\n     * @dev Returns the dealer's hand for a specific game.\n     * @param gameId The ID of the game.\n     * @return An array of Card structs representing the dealer's hand.\n     */\n    function getDealerHand(uint256 gameId) external view returns (CardLib.Card[] memory) {\n        return games[gameId].dealerHand;\n    }\n\n    /**\n     * @dev Returns the split hand for a specific game, if any.\n     * @param gameId The ID of the game.\n     * @return An array of Card structs representing the split hand.\n     */\n    function getSplitHand(uint256 gameId) external view returns (CardLib.Card[] memory) {\n        return games[gameId].splitHand;\n    }\n\n    // Helper function to generate commit for randomness\n    function _generateCommit(uint256 gameId) internal view returns (bytes32) {\n        return keccak256(abi.encodePacked(\n            block.timestamp,\n            block.prevrandao,\n            msg.sender,\n            gameId,\n            SALT_BASE\n        ));\n    }\n\n    // Generate secure random number (placeholder - needs secure implementation)\n    function _generateSecureRandom(uint256 gameId, bytes32 commit) internal view returns (uint256) {\n        return uint256(keccak256(abi.encodePacked(\n            commit,\n            block.timestamp,\n            block.prevrandao,\n            msg.sender,\n            gameId\n        )));\n    }\n\n    // Function to handle stuck games\n    function resolveStuckGame(uint256 gameId) external {\n        Game storage game = games[gameId];\n        require(block.timestamp > game.lastActionTime + GAME_TIMEOUT, \"Game not timed out\");\n        require(game.state != GameState.Complete, \"Game already completed\");\n\n        if (game.state == GameState.PlayerTurn) {\n            // If player timed out, they forfeit\n            game.playerBusted = true;\n            _endGame(gameId);\n        } else if (game.state == GameState.DealerTurn) {\n            // If stuck in dealer's turn, complete the game\n            _dealerTurn(gameId);\n        }\n    }\n\n    // Get game state\n    function getGameState(uint256 gameId)\n        external\n        view\n        returns (\n            uint8 playerScore,\n            uint8 dealerScore,\n            bool isPlayerTurn,\n            bool isComplete,\n            uint256 betAmount,\n            bool canSplit,\n            bool canDouble,\n            bool isSplit\n        )\n    {\n        Game storage game = games[gameId];\n\n        return (\n            game.scores.playerScore,\n            game.scores.dealerScore,\n            game.state == GameState.PlayerTurn,\n            game.state == GameState.Complete,\n            game.betAmount,\n            _canSplitHand(game),\n            _canDoubleDown(game),\n            game.actionState == ActionState.Split\n        );\n    }\n\n    // Internal helper to check if hand can be split\n    function _canSplitHand(Game storage game) internal view returns (bool) {\n        if (game.playerHand.length != 2 || game.actionState != ActionState.None) {\n            return false;\n        }\n\n        uint8 card1Value = CardLib.getCardValue(game.playerHand[0]);\n        uint8 card2Value = CardLib.getCardValue(game.playerHand[1]);\n\n        return card1Value == card2Value;\n    }\n\n    // Internal helper to check if hand can be doubled down\n    function _canDoubleDown(Game storage game) internal view returns (bool) {\n        return game.playerHand.length == 2 &&\n            game.actionState == ActionState.None &&\n            game.state == GameState.PlayerTurn;\n    }\n}\n\n",
  "sourcePath": "/Users/keyurstudent/block-wager/CSC-196D-Block-Wager/truffle/contracts/blackjack.sol",
  "compiler": {
    "name": "solc",
    "version": "0.8.21+commit.d9974bed.Emscripten.clang"
  },
  "schemaVersion": "3.4.16",
  "updatedAt": "2024-11-27T13:37:16.283Z",
  "networkType": "ethereum",
  "devdoc": {
    "kind": "dev",
    "methods": {
      "getDealerHand(uint256)": {
        "details": "Returns the dealer's hand for a specific game.",
        "params": {
          "gameId": "The ID of the game."
        },
        "returns": {
          "_0": "An array of Card structs representing the dealer's hand."
        }
      },
      "getPlayerHand(uint256)": {
        "details": "Returns the player's hand for a specific game.",
        "params": {
          "gameId": "The ID of the game."
        },
        "returns": {
          "_0": "An array of Card structs representing the player's hand."
        }
      },
      "getSplitHand(uint256)": {
        "details": "Returns the split hand for a specific game, if any.",
        "params": {
          "gameId": "The ID of the game."
        },
        "returns": {
          "_0": "An array of Card structs representing the split hand."
        }
      }
    },
    "version": 1
  },
  "userdoc": {
    "kind": "user",
    "methods": {},
    "version": 1
  }
}