{
  "contractName": "CoinFlip",
  "abi": [
    {
      "anonymous": false,
      "inputs": [
        {
          "indexed": false,
          "internalType": "uint256",
          "name": "lobbyId",
          "type": "uint256"
        },
        {
          "indexed": false,
          "internalType": "string",
          "name": "result",
          "type": "string"
        }
      ],
      "name": "CoinFlipped",
      "type": "event"
    },
    {
      "anonymous": false,
      "inputs": [
        {
          "indexed": false,
          "internalType": "uint256",
          "name": "lobbyId",
          "type": "uint256"
        },
        {
          "indexed": false,
          "internalType": "address",
          "name": "host",
          "type": "address"
        },
        {
          "indexed": false,
          "internalType": "uint256",
          "name": "betAmount",
          "type": "uint256"
        },
        {
          "indexed": false,
          "internalType": "string",
          "name": "choice",
          "type": "string"
        }
      ],
      "name": "LobbyCreated",
      "type": "event"
    },
    {
      "anonymous": false,
      "inputs": [
        {
          "indexed": false,
          "internalType": "uint256",
          "name": "lobbyId",
          "type": "uint256"
        },
        {
          "indexed": false,
          "internalType": "address",
          "name": "joinedUser",
          "type": "address"
        }
      ],
      "name": "LobbyJoined",
      "type": "event"
    },
    {
      "inputs": [
        {
          "internalType": "uint256",
          "name": "",
          "type": "uint256"
        }
      ],
      "name": "lobbies",
      "outputs": [
        {
          "internalType": "address payable",
          "name": "host",
          "type": "address"
        },
        {
          "internalType": "uint256",
          "name": "betAmount",
          "type": "uint256"
        },
        {
          "internalType": "string",
          "name": "choice",
          "type": "string"
        },
        {
          "internalType": "address payable",
          "name": "joinedUser",
          "type": "address"
        },
        {
          "internalType": "string",
          "name": "result",
          "type": "string"
        },
        {
          "internalType": "string",
          "name": "status",
          "type": "string"
        }
      ],
      "stateMutability": "view",
      "type": "function",
      "constant": true
    },
    {
      "inputs": [],
      "name": "lobbyCounter",
      "outputs": [
        {
          "internalType": "uint256",
          "name": "",
          "type": "uint256"
        }
      ],
      "stateMutability": "view",
      "type": "function",
      "constant": true
    },
    {
      "inputs": [
        {
          "internalType": "string",
          "name": "choice",
          "type": "string"
        }
      ],
      "name": "createLobby",
      "outputs": [],
      "stateMutability": "payable",
      "type": "function",
      "payable": true
    },
    {
      "inputs": [
        {
          "internalType": "uint256",
          "name": "lobbyId",
          "type": "uint256"
        }
      ],
      "name": "joinLobby",
      "outputs": [],
      "stateMutability": "payable",
      "type": "function",
      "payable": true
    }
  ],
  "bytecode": "0x6080806040523461001657610eba908161001c8239f35b600080fdfe6080604052600436101561001257600080fd5b60003560e01c806344152a58146106705780636e8fb4c6146105c457806377f19522146105a65763e9173b3a1461004857600080fd5b6020806003193601126105a15760043590816000526000815260406000209060058201604051917f8f5d8ba7f4bf26b6e2e2060e5bd28107042be35460fbd828c9d29a2d8af144458184018461009e8286610e01565b03946100b2601f1996878101835282610c35565b51902003610564576003840180546001600160a01b03939190848116610528578487541633146104e55760018097015434036104a9576001600160a01b03191633179055805461010b9061010590610c57565b82610d94565b601067466c697070696e6760c01b0190557fa31ecd4ef5c4170fc73b952e6c0344155875718dd9892919041e8a449246cb26604080518781523384820152a18460005260008152604060002092600584017ff50e5540edb56f0b102c5d76a0a466e0f6951d9f7bd2c0086e0cc3593f0ea0256040518481019061019e816101928487610e01565b03868101835282610c35565b519020036104645760405190838201914283524460408201523360601b606082015260548152608081019067ffffffffffffffff938183108584111761042d5760408390528151902089166104435750506040516101fb81610c19565b6005815264486561647360d81b85820152915b82516004880191811161042d5761022f816102298454610c57565b84610dbc565b85601f82116001146103a85791817f8267de97e9e9544223efef3950909bca0e0956a48e9216237ae894080da3761f94928b9c9460009c9b9c9161039d575b50600019600383901b1c1916908a1b1790555b61028e6101058254610c57565b600a64115b99195960da1b019055604051908152604085820152806102b66040820185610d58565b0390a16040516102e28482816102d58183019687815193849201610d35565b8101038084520182610c35565b5190209161030a60405191820192826102fe8560028b01610e01565b03908101835282610c35565b5190200361036c5782541691015480921b9180830460021490151715610356576000808093819382821561034d575bf11561034157005b6040513d6000823e3d90fd5b506108fc610339565b634e487b7160e01b600052601160045260246000fd5b60038301541691015480921b9180830460021490151715610356576000808093819382821561034d57f11561034157005b90508601513861026e565b8582169083600052876000209160005b8181106104185750928b9c94928c9b9c92827f8267de97e9e9544223efef3950909bca0e0956a48e9216237ae894080da3761f9896106103ff575b5050811b019055610281565b88015160001960f88460031b161c1916905538806103f3565b878301518455928c01929189019189016103b8565b634e487b7160e01b600052604160045260246000fd5b60a0645461696c7360d81b9161045884610c19565b6005845201529161020e565b60405162461bcd60e51b815260048101849052601960248201527f47616d65206973206e6f7420726561647920746f20666c6970000000000000006044820152606490fd5b60405162461bcd60e51b8152600481018590526014602482015273125b98dbdc9c9958dd0818995d08185b5bdd5b9d60621b6044820152606490fd5b6064846040519062461bcd60e51b825280600483015260248201527f486f73742063616e6e6f74206a6f696e207468656972206f776e206c6f6262796044820152fd5b60405162461bcd60e51b8152600481018590526014602482015273131bd8989e48185b1c9958591e481a9bda5b995960621b6044820152606490fd5b6064906040519062461bcd60e51b8252600482015260166024820152754c6f626279206973206e6f7420617661696c61626c6560501b6044820152fd5b600080fd5b346105a15760003660031901126105a1576020600154604051908152f35b346105a15760203660031901126105a1576004356000526000602052604060002060018060a01b0361066c818354169161065e60018501549461060960028201610c91565b926003820154169061064b61062c600561062560048501610c91565b9301610c91565b946040519889988952602089015260c0604089015260c0880190610d58565b9160608701528582036080870152610d58565b9083820360a0850152610d58565b0390f35b60203660031901126105a15760043567ffffffffffffffff81116105a157366023820112156105a157602490600481013567ffffffffffffffff8111610a18576106c5601f8201601f19166020016080610c35565b608081905260a091368183018501116105a157816000928560209301853760800101527fa6013de8991fab770e3fa2931c14473f1e230c715b5e8ee3b7ed3ba596e9bd5a60405160208101906107256020826080516102d581878a610d35565b51902014908115610bcd575b5015610b98573415610b4a5760405160c0810181811067ffffffffffffffff821117610a185760405233815260208101913483526040820160808152600060608401526040516020810181811067ffffffffffffffff821117610b35576040526000815260808401526040516107a681610c19565b600481526327b832b760e11b602082015260a0840152600154600052600060205260406000209360018060a01b038451166bffffffffffffffffffffffff60a01b8654161785555160018501555192835167ffffffffffffffff8111610a1857610820816108176002850154610c57565b60028501610dbc565b6020601f8211600114610ac6578192939495600092610abb575b50508160011b916000199060031b1c19161760028201555b6003810160018060a01b036060850151166bffffffffffffffffffffffff60a01b82541617905560048101608084015180519067ffffffffffffffff8211610aa6576108a8826108a28554610c57565b85610dbc565b602090601f8311600114610a385791806005949260a09694600092610a2d575b50508160011b916000199060031b1c19161790555b0192015191825167ffffffffffffffff8111610a1857610901816102298454610c57565b6020601f82116001146109b257819293946000926109a7575b50508160011b916000199060031b1c19161790555b6001547f61f27d25065dae618a19f1bd7061c08fa58092f436d65ab6ac28fa840649c764604051828152336020820152346040820152608060608201528061097b608082016080610d58565b0390a1600019811461099257600101600155600080f35b50634e487b7160e01b60009081526011600452fd5b01519050848061091a565b601f198216908360005260206000209160005b818110610a00575095836001959697106109e7575b505050811b01905561092f565b015160001960f88460031b161c191690558480806109da565b9192602060018192868b0151815501940192016109c5565b82634e487b7160e01b60005260416004526000fd5b0151905088806108c8565b90601f198316918460005260206000209260005b818110610a8e575092600192859260a098966005989610610a75575b505050811b0190556108dd565b015160001960f88460031b161c19169055888080610a68565b92936020600181928786015181550195019301610a4c565b84634e487b7160e01b60005260416004526000fd5b01519050858061083a565b6002830160005260206000209060005b601f1984168110610b1d575060019394959683601f19811610610b04575b505050811b016002820155610852565b015160001960f88460031b161c19169055858080610af4565b9091602060018192858b015181550193019101610ad6565b83634e487b7160e01b60005260416004526000fd5b60849060216040519162461bcd60e51b8352602060048401528201527f42657420616d6f756e74206d7573742062652067726561746572207468616e206044820152600360fc1b6064820152fd5b606490600e6040519162461bcd60e51b8352602060048401528201526d496e76616c69642063686f69636560901b6044820152fd5b7f4db9a9fdf16922aeeb4424ad20c6ae897ce2cc81d9403af65a3865cf80092e0e91506102d590610c0f60206040518093828201958691608051928391610d35565b5190201482610731565b6040810190811067ffffffffffffffff82111761042d57604052565b90601f8019910116810190811067ffffffffffffffff82111761042d57604052565b90600182811c92168015610c87575b6020831014610c7157565b634e487b7160e01b600052602260045260246000fd5b91607f1691610c66565b90604051918260008254610ca481610c57565b908184526020946001918281169081600014610d135750600114610cd4575b505050610cd292500383610c35565b565b600090815285812095935091905b818310610cfb575050610cd29350820101388080610cc3565b85548884018501529485019487945091830191610ce2565b92505050610cd294925060ff191682840152151560051b820101388080610cc3565b60005b838110610d485750506000910152565b8181015183820152602001610d38565b90602091610d7181518092818552858086019101610d35565b601f01601f1916010190565b818110610d88575050565b60008155600101610d7d565b90601f8111610da1575050565b610cd291600052601f6020600020910160051c810190610d7d565b9190601f8111610dcb57505050565b610cd2926000526020600020906020601f840160051c83019310610df7575b601f0160051c0190610d7d565b9091508190610dea565b600092918154610e1081610c57565b92600191808316908115610e695750600114610e2d575b50505050565b90919293945060005260209081600020906000915b858310610e585750505050019038808080610e27565b805485840152918301918101610e42565b60ff1916845250505081151590910201915038808080610e2756fea2646970667358221220b72db089607978f818dfbfb4f3aa1c6b8fb59cff88c947de86a1bf601e7be2f064736f6c63430008150033",
  "immutableReferences": {},
  "source": "// SPDX-License-Identifier: MIT\npragma solidity ^0.8.21;\n\ncontract CoinFlip {\n    struct Lobby {\n        address payable host; // Mark host as payable\n        uint256 betAmount;\n        string choice; // \"Heads\" or \"Tails\"\n        address payable joinedUser; // Mark joinedUser as payable\n        string result; // \"Heads\" or \"Tails\"\n        string status; // \"Open\", \"Flipping\", \"Ended\"\n    }\n\n    mapping(uint256 => Lobby) public lobbies;\n    uint256 public lobbyCounter;\n\n    event LobbyCreated(uint256 lobbyId, address host, uint256 betAmount, string choice);\n    event LobbyJoined(uint256 lobbyId, address joinedUser);\n    event CoinFlipped(uint256 lobbyId, string result);\n\n    function createLobby(string memory choice) external payable {\n        require(\n            keccak256(abi.encodePacked(choice)) == keccak256(\"Heads\") ||\n            keccak256(abi.encodePacked(choice)) == keccak256(\"Tails\"),\n            \"Invalid choice\"\n        );\n        require(msg.value > 0, \"Bet amount must be greater than 0\");\n\n        lobbies[lobbyCounter] = Lobby({\n            host: payable(msg.sender), // Explicitly cast msg.sender to payable\n            betAmount: msg.value,\n            choice: choice,\n            joinedUser: payable(address(0)), // Explicitly cast address(0) to payable\n            result: \"\",\n            status: \"Open\"\n        });\n\n        emit LobbyCreated(lobbyCounter, msg.sender, msg.value, choice);\n        lobbyCounter++;\n    }\n\n    function joinLobby(uint256 lobbyId) external payable {\n        Lobby storage lobby = lobbies[lobbyId];\n        require(\n            keccak256(abi.encodePacked(lobby.status)) == keccak256(\"Open\"),\n            \"Lobby is not available\"\n        );\n        require(lobby.joinedUser == payable(address(0)), \"Lobby already joined\"); // Explicitly cast address(0) to payable\n        require(lobby.host != msg.sender, \"Host cannot join their own lobby\");\n        require(msg.value == lobby.betAmount, \"Incorrect bet amount\");\n\n        lobby.joinedUser = payable(msg.sender); // Explicitly cast msg.sender to payable\n        lobby.status = \"Flipping\";\n\n        emit LobbyJoined(lobbyId, msg.sender);\n\n        // Automatically flip the coin after a short delay (simulated)\n        flipCoin(lobbyId);\n    }\n\n    function flipCoin(uint256 lobbyId) internal {\n        Lobby storage lobby = lobbies[lobbyId];\n        require(\n            keccak256(abi.encodePacked(lobby.status)) == keccak256(\"Flipping\"),\n            \"Game is not ready to flip\"\n        );\n\n        // Randomly determine the result\n        uint256 random = uint256(\n            keccak256(\n                abi.encodePacked(block.timestamp, block.prevrandao, msg.sender)\n            )\n        ) % 2;\n\n        string memory result = random == 0 ? \"Heads\" : \"Tails\";\n\n        lobby.result = result;\n        lobby.status = \"Ended\";\n\n        emit CoinFlipped(lobbyId, result);\n\n        // Determine winner and transfer funds\n        if (keccak256(abi.encodePacked(result)) == keccak256(abi.encodePacked(lobby.choice))) {\n            // Host wins\n            lobby.host.transfer(lobby.betAmount * 2);\n        } else {\n            // Joined user wins\n            lobby.joinedUser.transfer(lobby.betAmount * 2);\n        }\n    }\n}\n",
  "sourcePath": "/Users/keyurstudent/block-wager/CSC-196D-Block-Wager/truffle/contracts/coinlfip.sol",
  "compiler": {
    "name": "solc",
    "version": "0.8.21+commit.d9974bed.Emscripten.clang"
  },
  "schemaVersion": "3.4.16",
  "updatedAt": "2024-11-27T13:37:16.395Z",
  "networkType": "ethereum",
  "devdoc": {
    "kind": "dev",
    "methods": {},
    "version": 1
  },
  "userdoc": {
    "kind": "user",
    "methods": {},
    "version": 1
  }
}