{
  "contractName": "Blackjack",
  "abi": [
    {
      "inputs": [
        {
          "internalType": "uint256",
          "name": "_minBet",
          "type": "uint256"
        },
        {
          "internalType": "uint256",
          "name": "_maxBet",
          "type": "uint256"
        }
      ],
      "stateMutability": "nonpayable",
      "type": "constructor"
    },
    {
      "anonymous": false,
      "inputs": [
        {
          "indexed": true,
          "internalType": "uint256",
          "name": "gameId",
          "type": "uint256"
        },
        {
          "indexed": true,
          "internalType": "address",
          "name": "recipient",
          "type": "address"
        },
        {
          "indexed": false,
          "internalType": "uint8",
          "name": "value",
          "type": "uint8"
        },
        {
          "indexed": false,
          "internalType": "uint8",
          "name": "suit",
          "type": "uint8"
        },
        {
          "indexed": false,
          "internalType": "bool",
          "name": "isDealer",
          "type": "bool"
        }
      ],
      "name": "CardDealt",
      "type": "event"
    },
    {
      "anonymous": false,
      "inputs": [
        {
          "indexed": true,
          "internalType": "uint256",
          "name": "gameId",
          "type": "uint256"
        },
        {
          "indexed": false,
          "internalType": "string",
          "name": "action",
          "type": "string"
        }
      ],
      "name": "DealerAction",
      "type": "event"
    },
    {
      "anonymous": false,
      "inputs": [
        {
          "indexed": true,
          "internalType": "uint256",
          "name": "gameId",
          "type": "uint256"
        }
      ],
      "name": "DealerTurn",
      "type": "event"
    },
    {
      "anonymous": false,
      "inputs": [
        {
          "indexed": true,
          "internalType": "uint256",
          "name": "gameId",
          "type": "uint256"
        },
        {
          "indexed": false,
          "internalType": "uint8",
          "name": "dealerScore",
          "type": "uint8"
        }
      ],
      "name": "DealerTurnComplete",
      "type": "event"
    },
    {
      "anonymous": false,
      "inputs": [
        {
          "indexed": true,
          "internalType": "uint256",
          "name": "gameId",
          "type": "uint256"
        },
        {
          "indexed": false,
          "internalType": "string",
          "name": "result",
          "type": "string"
        },
        {
          "indexed": false,
          "internalType": "uint256",
          "name": "payout",
          "type": "uint256"
        },
        {
          "indexed": false,
          "internalType": "uint8",
          "name": "playerScore",
          "type": "uint8"
        },
        {
          "indexed": false,
          "internalType": "uint8",
          "name": "dealerScore",
          "type": "uint8"
        },
        {
          "indexed": false,
          "internalType": "uint8[]",
          "name": "playerCards",
          "type": "uint8[]"
        },
        {
          "indexed": false,
          "internalType": "uint8[]",
          "name": "dealerCards",
          "type": "uint8[]"
        }
      ],
      "name": "GameComplete",
      "type": "event"
    },
    {
      "anonymous": false,
      "inputs": [
        {
          "indexed": true,
          "internalType": "uint256",
          "name": "gameId",
          "type": "uint256"
        },
        {
          "indexed": true,
          "internalType": "address",
          "name": "player",
          "type": "address"
        },
        {
          "indexed": false,
          "internalType": "uint256",
          "name": "betAmount",
          "type": "uint256"
        }
      ],
      "name": "GameCreated",
      "type": "event"
    },
    {
      "anonymous": false,
      "inputs": [
        {
          "indexed": true,
          "internalType": "uint256",
          "name": "gameId",
          "type": "uint256"
        },
        {
          "indexed": false,
          "internalType": "bool",
          "name": "isSplitHand",
          "type": "bool"
        }
      ],
      "name": "HandBusted",
      "type": "event"
    },
    {
      "anonymous": false,
      "inputs": [
        {
          "indexed": true,
          "internalType": "uint256",
          "name": "lobbyId",
          "type": "uint256"
        },
        {
          "indexed": true,
          "internalType": "address",
          "name": "host",
          "type": "address"
        },
        {
          "indexed": false,
          "internalType": "uint256",
          "name": "refundAmount",
          "type": "uint256"
        }
      ],
      "name": "LobbyCancelled",
      "type": "event"
    },
    {
      "anonymous": false,
      "inputs": [
        {
          "indexed": true,
          "internalType": "uint256",
          "name": "lobbyId",
          "type": "uint256"
        },
        {
          "indexed": true,
          "internalType": "address",
          "name": "host",
          "type": "address"
        },
        {
          "indexed": false,
          "internalType": "uint256",
          "name": "betAmount",
          "type": "uint256"
        }
      ],
      "name": "LobbyCreated",
      "type": "event"
    },
    {
      "anonymous": false,
      "inputs": [
        {
          "indexed": true,
          "internalType": "uint256",
          "name": "lobbyId",
          "type": "uint256"
        },
        {
          "indexed": true,
          "internalType": "address",
          "name": "player",
          "type": "address"
        }
      ],
      "name": "LobbyJoined",
      "type": "event"
    },
    {
      "anonymous": false,
      "inputs": [
        {
          "indexed": true,
          "internalType": "uint256",
          "name": "lobbyId",
          "type": "uint256"
        }
      ],
      "name": "LobbyTimeout",
      "type": "event"
    },
    {
      "anonymous": false,
      "inputs": [
        {
          "indexed": true,
          "internalType": "uint256",
          "name": "gameId",
          "type": "uint256"
        },
        {
          "indexed": false,
          "internalType": "string",
          "name": "action",
          "type": "string"
        }
      ],
      "name": "PlayerAction",
      "type": "event"
    },
    {
      "anonymous": false,
      "inputs": [
        {
          "indexed": true,
          "internalType": "uint256",
          "name": "gameId",
          "type": "uint256"
        }
      ],
      "name": "PlayerTurn",
      "type": "event"
    },
    {
      "anonymous": false,
      "inputs": [
        {
          "indexed": true,
          "internalType": "uint256",
          "name": "gameId",
          "type": "uint256"
        }
      ],
      "name": "SplitHandStarted",
      "type": "event"
    },
    {
      "inputs": [],
      "name": "gameCounter",
      "outputs": [
        {
          "internalType": "uint256",
          "name": "",
          "type": "uint256"
        }
      ],
      "stateMutability": "view",
      "type": "function",
      "constant": true
    },
    {
      "inputs": [
        {
          "internalType": "uint256",
          "name": "",
          "type": "uint256"
        }
      ],
      "name": "games",
      "outputs": [
        {
          "internalType": "address payable",
          "name": "player",
          "type": "address"
        },
        {
          "internalType": "address payable",
          "name": "dealer",
          "type": "address"
        },
        {
          "internalType": "uint256",
          "name": "betAmount",
          "type": "uint256"
        },
        {
          "internalType": "uint256",
          "name": "dealerStake",
          "type": "uint256"
        },
        {
          "internalType": "uint256",
          "name": "gameId",
          "type": "uint256"
        },
        {
          "internalType": "enum Blackjack.GameState",
          "name": "state",
          "type": "uint8"
        },
        {
          "internalType": "enum Blackjack.ActionState",
          "name": "actionState",
          "type": "uint8"
        },
        {
          "internalType": "bool",
          "name": "isBlackjack",
          "type": "bool"
        },
        {
          "internalType": "bool",
          "name": "playerBusted",
          "type": "bool"
        },
        {
          "internalType": "bool",
          "name": "dealerBusted",
          "type": "bool"
        },
        {
          "internalType": "bool",
          "name": "isSplitHand",
          "type": "bool"
        },
        {
          "components": [
            {
              "internalType": "uint8",
              "name": "playerScore",
              "type": "uint8"
            },
            {
              "internalType": "uint8",
              "name": "dealerScore",
              "type": "uint8"
            }
          ],
          "internalType": "struct Blackjack.Scores",
          "name": "scores",
          "type": "tuple"
        },
        {
          "internalType": "uint256",
          "name": "lastActionTime",
          "type": "uint256"
        },
        {
          "internalType": "bool",
          "name": "splitHandCompleted",
          "type": "bool"
        },
        {
          "internalType": "uint256",
          "name": "splitBetAmount",
          "type": "uint256"
        },
        {
          "internalType": "bytes32",
          "name": "randomnessCommit",
          "type": "bytes32"
        }
      ],
      "stateMutability": "view",
      "type": "function",
      "constant": true
    },
    {
      "inputs": [
        {
          "internalType": "uint256",
          "name": "",
          "type": "uint256"
        }
      ],
      "name": "lobbies",
      "outputs": [
        {
          "internalType": "uint256",
          "name": "lobbyId",
          "type": "uint256"
        },
        {
          "internalType": "address payable",
          "name": "host",
          "type": "address"
        },
        {
          "internalType": "uint256",
          "name": "betAmount",
          "type": "uint256"
        },
        {
          "internalType": "enum Blackjack.LobbyStatus",
          "name": "status",
          "type": "uint8"
        },
        {
          "internalType": "uint256",
          "name": "gameId",
          "type": "uint256"
        },
        {
          "internalType": "uint256",
          "name": "creationTime",
          "type": "uint256"
        }
      ],
      "stateMutability": "view",
      "type": "function",
      "constant": true
    },
    {
      "inputs": [],
      "name": "lobbyCounter",
      "outputs": [
        {
          "internalType": "uint256",
          "name": "",
          "type": "uint256"
        }
      ],
      "stateMutability": "view",
      "type": "function",
      "constant": true
    },
    {
      "inputs": [],
      "name": "maxBet",
      "outputs": [
        {
          "internalType": "uint256",
          "name": "",
          "type": "uint256"
        }
      ],
      "stateMutability": "view",
      "type": "function",
      "constant": true
    },
    {
      "inputs": [],
      "name": "minBet",
      "outputs": [
        {
          "internalType": "uint256",
          "name": "",
          "type": "uint256"
        }
      ],
      "stateMutability": "view",
      "type": "function",
      "constant": true
    },
    {
      "inputs": [],
      "name": "getOpenLobbies",
      "outputs": [
        {
          "components": [
            {
              "internalType": "uint256",
              "name": "lobbyId",
              "type": "uint256"
            },
            {
              "internalType": "address payable",
              "name": "host",
              "type": "address"
            },
            {
              "internalType": "uint256",
              "name": "betAmount",
              "type": "uint256"
            },
            {
              "internalType": "enum Blackjack.LobbyStatus",
              "name": "status",
              "type": "uint8"
            },
            {
              "internalType": "uint256",
              "name": "gameId",
              "type": "uint256"
            },
            {
              "internalType": "uint256",
              "name": "creationTime",
              "type": "uint256"
            }
          ],
          "internalType": "struct Blackjack.Lobby[]",
          "name": "",
          "type": "tuple[]"
        }
      ],
      "stateMutability": "view",
      "type": "function",
      "constant": true
    },
    {
      "inputs": [],
      "name": "createLobby",
      "outputs": [],
      "stateMutability": "payable",
      "type": "function",
      "payable": true
    },
    {
      "inputs": [
        {
          "internalType": "uint256",
          "name": "lobbyId",
          "type": "uint256"
        }
      ],
      "name": "cancelLobby",
      "outputs": [],
      "stateMutability": "nonpayable",
      "type": "function"
    },
    {
      "inputs": [
        {
          "internalType": "uint256",
          "name": "lobbyId",
          "type": "uint256"
        }
      ],
      "name": "joinLobby",
      "outputs": [],
      "stateMutability": "payable",
      "type": "function",
      "payable": true
    },
    {
      "inputs": [],
      "name": "cleanupTimedOutLobbies",
      "outputs": [],
      "stateMutability": "nonpayable",
      "type": "function"
    },
    {
      "inputs": [
        {
          "internalType": "uint256",
          "name": "gameId",
          "type": "uint256"
        }
      ],
      "name": "hit",
      "outputs": [],
      "stateMutability": "nonpayable",
      "type": "function"
    },
    {
      "inputs": [
        {
          "internalType": "uint256",
          "name": "gameId",
          "type": "uint256"
        }
      ],
      "name": "stand",
      "outputs": [],
      "stateMutability": "nonpayable",
      "type": "function"
    },
    {
      "inputs": [
        {
          "internalType": "uint256",
          "name": "gameId",
          "type": "uint256"
        }
      ],
      "name": "doubleDown",
      "outputs": [],
      "stateMutability": "payable",
      "type": "function",
      "payable": true
    },
    {
      "inputs": [
        {
          "internalType": "uint256",
          "name": "gameId",
          "type": "uint256"
        }
      ],
      "name": "split",
      "outputs": [],
      "stateMutability": "payable",
      "type": "function",
      "payable": true
    },
    {
      "inputs": [
        {
          "internalType": "uint256",
          "name": "gameId",
          "type": "uint256"
        }
      ],
      "name": "getPlayerHand",
      "outputs": [
        {
          "components": [
            {
              "internalType": "uint8",
              "name": "value",
              "type": "uint8"
            },
            {
              "internalType": "uint8",
              "name": "suit",
              "type": "uint8"
            }
          ],
          "internalType": "struct CardLib.Card[]",
          "name": "",
          "type": "tuple[]"
        }
      ],
      "stateMutability": "view",
      "type": "function",
      "constant": true
    },
    {
      "inputs": [
        {
          "internalType": "uint256",
          "name": "gameId",
          "type": "uint256"
        }
      ],
      "name": "getDealerHand",
      "outputs": [
        {
          "components": [
            {
              "internalType": "uint8",
              "name": "value",
              "type": "uint8"
            },
            {
              "internalType": "uint8",
              "name": "suit",
              "type": "uint8"
            }
          ],
          "internalType": "struct CardLib.Card[]",
          "name": "",
          "type": "tuple[]"
        }
      ],
      "stateMutability": "view",
      "type": "function",
      "constant": true
    },
    {
      "inputs": [
        {
          "internalType": "uint256",
          "name": "gameId",
          "type": "uint256"
        }
      ],
      "name": "getSplitHand",
      "outputs": [
        {
          "components": [
            {
              "internalType": "uint8",
              "name": "value",
              "type": "uint8"
            },
            {
              "internalType": "uint8",
              "name": "suit",
              "type": "uint8"
            }
          ],
          "internalType": "struct CardLib.Card[]",
          "name": "",
          "type": "tuple[]"
        }
      ],
      "stateMutability": "view",
      "type": "function",
      "constant": true
    },
    {
      "inputs": [
        {
          "internalType": "uint256",
          "name": "gameId",
          "type": "uint256"
        }
      ],
      "name": "resolveStuckGame",
      "outputs": [],
      "stateMutability": "nonpayable",
      "type": "function"
    },
    {
      "inputs": [
        {
          "internalType": "uint256",
          "name": "gameId",
          "type": "uint256"
        }
      ],
      "name": "getGameState",
      "outputs": [
        {
          "internalType": "uint8",
          "name": "playerScore",
          "type": "uint8"
        },
        {
          "internalType": "uint8",
          "name": "dealerScore",
          "type": "uint8"
        },
        {
          "internalType": "bool",
          "name": "isPlayerTurn",
          "type": "bool"
        },
        {
          "internalType": "bool",
          "name": "isComplete",
          "type": "bool"
        },
        {
          "internalType": "uint256",
          "name": "betAmount",
          "type": "uint256"
        },
        {
          "internalType": "bool",
          "name": "canSplit",
          "type": "bool"
        },
        {
          "internalType": "bool",
          "name": "canDouble",
          "type": "bool"
        },
        {
          "internalType": "bool",
          "name": "isSplit",
          "type": "bool"
        }
      ],
      "stateMutability": "view",
      "type": "function",
      "constant": true
    }
  ],
  "bytecode": "0x608034620000bf57601f6200438938819003918201601f19168301916001600160401b03831184841017620000c4578084926040948552833981010312620000bf57602081519101519080151580620000b4575b156200006f576004556005556040516142ae9081620000db8239f35b60405162461bcd60e51b815260206004820152601360248201527f496e76616c69642062657420616d6f756e7473000000000000000000000000006044820152606490fd5b508082101562000053565b600080fd5b634e487b7160e01b600052604160045260246000fdfe6080604052600436101561001257600080fd5b60003560e01c8063117a5b901461214457806314eda2391461211557806327a1d94814611f155780632e0be39a14611ef75780632e5b216814611ed95780632ee7d80a14611eaa5780634708640414611d205780636e8fb4c614611caa578063778a606c14611c6b57806377f1952214611c4d5780639619367d14611c2f57806396b76c2314611aa7578063a4a9a4ad146119a3578063dbceb00514611701578063dfdf7596146115db578063e57b70ec14611510578063e9173b3a14610632578063ebf6e91d146103a3578063faa5bf89146101ea5763ffde0c74146100f857600080fd5b346101e55760203660031901126101e55760043560005260006020526040600020600981015460088201549160ff83169060058210156101ae5760028214936002820154916002600461014a836141f5565b9201541491826101cc575b826101c4575b60081c60ff169260038410156101ae5760046001956101009860ff604051998181168b5260081c1660208a015260408901521460608701526080860152151560a0850152151560c08401521460e0820152f35b634e487b7160e01b600052602160045260246000fd5b86925061015b565b915060ff8260081c1660038110156101ae571591610155565b600080fd5b346101e55760003660031901126101e557600380549061020982612369565b9160009160005b8281106102e25750505061022381612369565b9160005b8281106102b35760408051602080825286518183018190528188019383019160005b8281106102565784840385f35b9091928260c0600192885180518252848060a01b038482015116848301526040810151604083015261029060608083015190840190612344565b6080808201519083015260a0809101519082015201960191019492919094610249565b806102c16102dd92846123f3565b516102cc82876123f3565b526102d781866123f3565b506123e4565b610227565b806000526001602081815260ff8085604060002001541660048110156101ae5715610319575b505050610314906123e4565b610210565b836000979293949752838352604060002092604051946103388661226d565b845486528401546001600160a01b0316908501526002830154604085015284830154169260048410156101ae57600561039a9361031495606084015260048101546080840152015460a082015261038f82896123f3565b526102d781886123f3565b93908680610308565b346101e55760203660031901126101e55760043580600052600060205260406000206103d960018060a01b038254163314613111565b6008810180549060ff918281169060058210156101ae576103fd600285931461314d565b60181c166105f55761040e84612695565b805460281c8216156105d15761042e610429600685016124c6565b612542565b8260098501911660ff198254161790555b600983019160158184541611610493575b505050600b429101556000805160206142598339815191526040518061048e81606090602081526003602082015262121a5d60ea1b60408201520190565b0390a2005b630100000063ff0000001983541617808355818160081c169060038210156101ae576001879214806105c3575b1561057f575050600c8401805460ff19908116600117909155825465ff00ff000000191665010000000000179092556104fe610429600686016124c6565b1690825416179055816000805160206142598339815191526040518061054d8160609060208152601460208201527314ddda5d18da081d1bc81cdc1b1a5d081a185b9960621b60408201520190565b0390a2817f1a327edcf6b43c60a10c1861bae195dec3be71c9a241bd49b8431259ca632045600080a25b828080610450565b9093507f28de5caf9fe9f11f1835aaec134bc9036528a0979f3503852cef0f8cfbc82bb992506020916040519160281c1615158152a26105be82613c0e565b610577565b5082600c87015416156104c0565b6105e0610429600485016124c6565b8260098501911660ff1982541617905561043f565b60405162461bcd60e51b8152602060048201526015602482015274141b185e595c88185b1c9958591e48189d5cdd1959605a1b6044820152606490fd5b60203660031901126101e5576004356000526001602052604060002060035460043510156114d85760ff60038201541660048110156101ae57610675901561241d565b600181019060018060a01b038254163314611493576002810154340361145757600481015461141b576005810154610e1081018091116113cc5742116113e257600254918260005260006020526040600020906bffffffffffffffffffffffff60a01b90338284541617835560018060a01b0390541660018301918254161790556002820154806002830155806003810204600314811517156113cc5760030260011c60038201558260078201556008810165ffffffffffff19815416905561075760405161074381612289565b600081526000602082015260098301612467565b42600b82015560ff19600c82015416600c8201556000600d82015560405160208101904282524460408201523360601b60608201528460748201527f1234567890abcdef1234567890abcdef1234567890abcdef1234567890abcdef6094820152609481526107c58161226d565b519020600e820155600a8101546000600a8301558061139c575b5060405167ffffffffffffffff906106a08101828111828210176113865760405260348152610680366020830137805191821161138657600160401b821161138657600a83015482600a850155808310611320575b5060200190600a830160005260206000209060005b8160051c81106112da5750601f19811680820361128a575b5050505060005b603481106112625750506002810154604051908152827f7dfb67e9ff596fca4da65c7eedb128cd1aac553af54b3c0cb733625a2480d8bd60203393a3816000526000602052604060002090600882015460ff811660058110156101ae576112245760ff1916600117600883015560005b600260ff8216106109d5575081601560ff6108f961042960048097016124c6565b81600985019116821982541617815561093061091a610429600587016124c6565b825461ff00191660089190911b61ff0016178255565b54160361099c57600801805462ff000019166201000017905561095283613c0e565b61095d6002546123e4565b60025560038101805460ff191660011790550155336004357fa31ecd4ef5c4170fc73b952e6c0344155875718dd9892919041e8a449246cb26600080a3005b600801805460ff19166002179055827f1a327edcf6b43c60a10c1861bae195dec3be71c9a241bd49b8431259ca632045600080a2610952565b6109de84612695565b836000526000602052604060002090600a820154603481036111df57600e830154610a20610a15600486015460058701549061245a565b60068601549061245a565b604051906020820192428452446040840152896060840152608083015260a082015260a08152610a4f8161226d565b519020604051906020828481520192600a86016000526020600020906000915b81601f84011061100a5794610b8c928592610b91975491818110610ff4575b818110610fdb575b818110610fc2575b818110610fa9575b818110610f91575b818110610f78575b818110610f5f575b818110610f46575b818110610f2d575b818110610f14575b818110610efb575b818110610ee2575b818110610ec9575b818110610eb0575b818110610e97575b818110610e7e575b818110610e65575b818110610e4c575b818110610e33575b818110610e1a575b818110610e01575b818110610de8575b818110610dcf575b818110610db6575b818110610d9d575b818110610d84575b818110610d6b575b818110610d52575b818110610d39575b818110610d20575b818110610d07575b10610cf7575b5003836122a5565b612ea1565b610bab60ff82511660018110159081610ceb575b5061307b565b610bc860ff60208301511660018110159081610cdf575b506130bc565b60ff610bf6610be4610bdf8360208601511661252f565b6130fc565b610bf08385511661252f565b9061251b565b1660ff610c0682600a8701612495565b90549060031b1c16610ca6577fa3b3e2532a51907c70564d7eb439a729f06dc722d859e88561a31f9a1579ecb6606085610c61610c4a8b95600a610ca19a01612495565b819291549060031b9060ff6001831b921b19161790565b9055610c708560058301612668565b6001808060a01b03910154169360ff60208183511692015116604051918252602082015260016040820152a36124b5565b6108d8565b60405162461bcd60e51b815260206004820152601160248201527010d85c9908185b1c9958591e481d5cd959607a1b6044820152606490fd5b60049150111588610bc2565b600d9150111588610ba5565b60f81c151581526020018b610b84565b92602060019160ff8560f01c1615158152019301610b7e565b92602060019160ff8560e81c1615158152019301610b76565b92602060019160ff8560e01c1615158152019301610b6e565b92602060019160ff8560d81c1615158152019301610b66565b92602060019160ff8560d01c1615158152019301610b5e565b92602060019160ff8560c81c1615158152019301610b56565b92602060019160ff8560c01c1615158152019301610b4e565b92602060019160ff8560b81c1615158152019301610b46565b92602060019160ff8560b01c1615158152019301610b3e565b92602060019160ff8560a81c1615158152019301610b36565b92602060019160ff8560a01c1615158152019301610b2e565b92602060019160ff8560981c1615158152019301610b26565b92602060019160ff8560901c1615158152019301610b1e565b92602060019160ff8560881c1615158152019301610b16565b92602060019160ff8560801c1615158152019301610b0e565b92602060019160ff8560781c1615158152019301610b06565b92602060019160ff8560701c1615158152019301610afe565b92602060019160ff8560681c1615158152019301610af6565b92602060019160ff8560601c1615158152019301610aee565b92602060019160ff8560581c1615158152019301610ae6565b92602060019160ff8560501c1615158152019301610ade565b92602060019160ff8560481c1615158152019301610ad6565b92602060019160ff8560401c1615158152019301610ace565b92602060019160ff8560381c1615158152019301610ac6565b92602060019160ff8560301c1615158152019301610abe565b92602060019160ff8560281c1615158152019301610ab6565b92602060019160ff85831c1615158152019301610aae565b92602060019160ff8560181c1615158152019301610aa6565b92602060019160ff8560101c1615158152019301610a9e565b92602060019160ff8560081c1615158152019301610a96565b92602060019160ff851615158152019301610a8e565b9293946001610400602092865460ff81161515825260ff8160081c1615158583015260ff8160101c161515604083015260ff8160181c161515606083015260ff81861c161515608083015260ff8160281c16151560a083015260ff8160c0828260301c16151581860152828260381c16151560e0860152828260401c161515610100860152828260481c161515610120860152828260501c161515610140860152828260581c161515610160860152828260601c161515610180860152828260681c1615156101a0860152828260701c1615156101c0860152828260781c1615156101e0860152828260801c161515610200860152828260881c161515610220860152828260901c161515610240860152828260981c161515610260860152828260a01c161515610280860152828260a81c1615156102a0860152828260b01c1615156102c0860152828260b81c1615156102e08601521c16151561030083015260ff8160c81c16151561032083015260ff8160d01c16151561034083015260ff8160d81c16151561036083015260ff8160e01c16151561038083015260ff8160e81c1615156103a083015260ff8160f01c1615156103c083015260f81c15156103e082015201940192019194939294610a6f565b60405162461bcd60e51b815260206004820152601d60248201527f4361726420747261636b696e67206e6f7420696e697469616c697a65640000006044820152606490fd5b60405162461bcd60e51b815260206004820152601660248201527547616d65206e6f7420696e206f70656e20737461746560501b6044820152606490fd5b8061127361128592600a8501612495565b60ff82549160031b1b191690556123e4565b610868565b9260009360005b81840381106112ab5750505060051c015583808080610861565b90919460206112d06001928489511515919060ff809160031b9316831b921b19161790565b9601929101611291565b6000805b602081106112f3575083820155600101610849565b949060206113176001928885511515919060ff809160031b9316831b921b19161790565b920195016112de565b600a84016000526020600020601f841680611363575b50601f840160051c81015b601f830160051c82018110611357575050610834565b60008155600101611341565b6000199081601f870160051c8401019182549160200360031b1c16905587611336565b634e487b7160e01b600052604160045260246000fd5b600a82016000526020600020805b601f830160051c820181106113c05750506107df565b600081556001016113aa565b634e487b7160e01b600052601160045260246000fd5b60405162461bcd60e51b8152602060048201526011602482015270131bd8989e481a185cc8195e1c1a5c9959607a1b6044820152606490fd5b60405162461bcd60e51b815260206004820152601460248201527311d85b5948185b1c9958591e481cdd185c9d195960621b6044820152606490fd5b60405162461bcd60e51b8152602060048201526014602482015273125b98dbdc9c9958dd0818995d08185b5bdd5b9d60621b6044820152606490fd5b60405162461bcd60e51b815260206004820152601a60248201527f43616e6e6f74206a6f696e20796f7572206f776e206c6f6262790000000000006044820152606490fd5b60405162461bcd60e51b815260206004820152601060248201526f125b9d985b1a59081b1bd8989e48125160821b6044820152606490fd5b346101e55760203660031901126101e5576004358060005260006020526040600020600b81015461070881018091116113cc574211156115a15760080160ff81541660058110156101ae576115686004821415613bc9565b6002810361158d5750805463ff0000001916630100000017905561158b90613c0e565b005b600391501461159857005b61158b906131d9565b60405162461bcd60e51b815260206004820152601260248201527111d85b59481b9bdd081d1a5b5959081bdd5d60721b6044820152606490fd5b346101e55760003660031901126101e55760005b6003805482101561158b5781600052600160209080825260ff83604060002001541660048110156101ae5715806116dd575b611637575b505050611632906123e4565b6115ef565b83600052808252600260406000208481018560ff1982541617905501548381029381850414901517156113cc57600084815291819052604082208101549192839283928392901c906001600160a01b03168282156116d4575bf1156116c85780611632917f5734c28cc1d9ed1e4bdf39023ec1f4a7afbef43831fd767b44a4698de3cccea6600080a2908280611626565b6040513d6000823e3d90fd5b506108fc611690565b5083600052808252600560406000200154610e1081018091116113cc574211611621565b6020806003193601126101e557600435908160005260008152604060002061173360018060a01b038254163314613111565b600881019182549160ff831660058110156101ae576002611754911461314d565b60048101928354906002820361195e5760ff8160081c1660038110156101ae5761191b57600283015461178881341461318d565b6117a261179d61179788612620565b506122c7565b61260a565b60ff806117b461179d6117978b612635565b169116036118d857600d84015561ff0019166101001785556117d861179785612635565b9080156118c257600019016117ed8186612650565b9590956118ac57600080516020614259833981519152966118206118529461042994600060609a55845560068701612668565b61182989612695565b65ff00000000001965010000000000818354161782556118488a612695565b81541690556124c6565b60ff60098301911660ff19825416179055600b42910155600560405191857fdad747603709dae9a6d79283c9d79f7659296db1c2e3779f0f8174a3b64597d5600080a28083528201526414dc1b1a5d60da1b6040820152a2005b634e487b7160e01b600052600060045260246000fd5b634e487b7160e01b600052603160045260246000fd5b6064856040519062461bcd60e51b825280600483015260248201527f43616e206f6e6c792073706c697420657175616c2076616c75652063617264736044820152fd5b6064846040519062461bcd60e51b825280600483015260248201527f43616e6e6f742073706c6974206166746572206f7468657220616374696f6e736044820152fd5b60405162461bcd60e51b815260048101859052601b60248201527f43616e206f6e6c792073706c697420696e697469616c2068616e6400000000006044820152606490fd5b346101e55760203660031901126101e55760043580600052600160205260406000209060018060a01b0360018301541691823303611a6b57600381019081549160ff831660048110156101ae576002936119ff6003921561241d565b60ff191617905501546003810290808204600314901517156113cc5760008080809360011c8096828215611a62575bf1156116c8576040519182527f901c4b3ed78d5e3b588d41243171cd614027f155b6ab58c0af1b6c75ca66d1e160203393a3005b506108fc611a2e565b60405162461bcd60e51b815260206004820152601460248201527313db9b1e481a1bdcdd0818d85b8818d85b98d95b60621b6044820152606490fd5b346101e55760203660031901126101e5576004358060005260006020526040600020611add60018060a01b038254163314613111565b60088101805460ff811660058110156101ae576002611afc911461314d565b60ff8160081c1660038110156101ae5760011480611c20575b15611be35750600c8201805460ff19908116600117909155815465ff000000000019166501000000000017909155611b52610429600684016124c6565b9060ff600984019216908254161790558160008051602061425983398151915260405180611ba98160609060208152601460208201527314ddda5d18da081d1bc81cdc1b1a5d081a185b9960621b60408201520190565b0390a25b600b42910155600080516020614259833981519152606060405160208152600560208201526414dd185b9960da1b6040820152a2005b60ff19166003179055817fff773149b0a6d40de7532b973a8039a54964a8c109ea0b4c6e88bb04e15bbe12600080a2611c1b826131d9565b611bad565b5060ff600c8401541615611b15565b346101e55760003660031901126101e5576020600454604051908152f35b346101e55760003660031901126101e5576020600354604051908152f35b346101e55760203660031901126101e5576004356000526000602052611ca6611c9a60046040600020016124c6565b604051918291826122e9565b0390f35b346101e55760203660031901126101e557600435600052600160205260c0604060002080549060018060a01b0360018201541690611d14600282015460ff600384015416906005600485015494015494604051968752602087015260408601526060850190612344565b608083015260a0820152f35b60003660031901126101e557600454600390818102908082048314901517156113cc5760011c34101580611e8a575b15611e45573460011b348104600214341517156113cc57819004815490604051611d788161226d565b82815260208101338152604082019383855260608301946000865260808401926000845260a08501924284526000526001602052604060002094518555600185019060018060a01b039051166bffffffffffffffffffffffff60a01b82541617905551600284015585830194519160048310156101ae57611e419560059360ff8019835416911617905551600484015551910155825490604051908152817f0e5627a685207c8ab30875dcf6fa55cfe897bd9243ce8f1944c283a3d76a310360203393a36123e4565b9055005b60405162461bcd60e51b815260206004820152601b60248201527f496e76616c6964206465616c6572207374616b6520616d6f756e7400000000006044820152606490fd5b50600554818102908082048314901517156113cc5760011c341115611d4f565b346101e55760203660031901126101e5576004356000526000602052611ca6611c9a60066040600020016124c6565b346101e55760003660031901126101e5576020600554604051908152f35b346101e55760003660031901126101e5576020600254604051908152f35b6020806003193601126101e5576004359081600052600081526040600020611f4760018060a01b038254163314613111565b60088101805460ff811660058110156101ae576002611f66911461314d565b600483019060028254036120c457600284018054611f8581341461318d565b60ff8360081c1660038110156101ae5761207f5760609593610200600080516020614259833981519152989694611fdc94611fc461042995349061245a565b905561ff001916178455611fd789612695565b6124c6565b601560ff60098501921660ff19928184825416179055116000146120695750630100000063ff00000019825416179055847f28de5caf9fe9f11f1835aaec134bc9036528a0979f3503852cef0f8cfbc82bb98360405160008152a261204085613c0e565b600b42910155600b604051918083528201526a2237bab13632902237bbb760a91b6040820152a2005b815416600317905561207a856131d9565b612040565b60405162461bcd60e51b815260048101889052601960248201527f43616e6e6f7420646f75626c652061667465722073706c6974000000000000006044820152606490fd5b60405162461bcd60e51b8152600481018690526024808201527f43616e206f6e6c7920646f75626c6520646f776e206f6e20696e697469616c206044820152631a185b9960e21b6064820152608490fd5b346101e55760203660031901126101e5576004356000526000602052611ca6611c9a60056040600020016124c6565b346101e55760203660031901126101e5576004356000526000602052604060002060018060a01b038082541690600183015416600283015492600381015493600782015494600883015460ff81169660ff8260081c16976121a7600987016122c7565b91600b8701549460ff600c8901541696600e600d8a0154990154996040519b8c5260208c015260408b015260608a0152608089015260058110156101ae5760a088015260038810156101ae5760ff612251926102209960c08a0152818160101c16151560e08a0152818160181c1615156101008a0152818160201c1615156101208a015260281c16151561014088015261016087019060ff60208092828151168552015116910152565b6101a085015215156101c08401526101e0830152610200820152f35b60c0810190811067ffffffffffffffff82111761138657604052565b6040810190811067ffffffffffffffff82111761138657604052565b90601f8019910116810190811067ffffffffffffffff82111761138657604052565b906040516122d481612289565b602060ff829454818116845260081c16910152565b60208082019080835283518092528060408094019401926000905b83821061231357505050505090565b90919293948382826123376001948a5160ff60208092828151168552015116910152565b0196019493920190612304565b9060048210156101ae5752565b67ffffffffffffffff81116113865760051b60200190565b9061237382612351565b604090612382825191826122a5565b8381528093612393601f1991612351565b019160005b8381106123a55750505050565b60209082516123b38161226d565b60008152826000818301526000858301526000606083015260006080830152600060a0830152828601015201612398565b60001981146113cc5760010190565b80518210156124075760209160051b010190565b634e487b7160e01b600052603260045260246000fd5b1561242457565b60405162461bcd60e51b815260206004820152600e60248201526d2637b1313c903737ba1037b832b760911b6044820152606490fd5b919082018092116113cc57565b60ff60206124939382815116831985541617845501511661ff0082549160081b169061ff001916179055565b565b919091805483101561240757600052601f60206000208360051c01921690565b60ff1660ff81146113cc5760010190565b9081546124d281612351565b926124e060405194856122a5565b818452600090815260208082208186015b8484106124ff575050505050565b600183819261250d856122c7565b8152019201930192906124f1565b9060ff8091169116019060ff82116113cc57565b60ff6000199116019060ff82116113cc57565b600080805b83519060ff91828516908110156125bd5760018361257861257161256b858b6123f3565b5161260a565b93896123f3565b515116036125a857508161258d600b926124b5565b9316019081116113cc576125a190926124b5565b9190612547565b6125a192506125b7919361251b565b926124b5565b5093505090505b60ff908181169060158211806125ff575b156125f85750600919018181116113cc57911680156113cc5760001901906125c4565b9250505090565b5082841615156125d5565b5160ff16600a81111561261d5750600a90565b90565b80541561240757600052602060002090600090565b80546001101561240757600052600160206000200190600090565b80548210156124075760005260206000200190600090565b8054600160401b8110156113865761268591600182018155612650565b9190916118ac5761249391612467565b600090808252602082815260409283812093600a850192835460348103612e5e57600e8701549660048101916126d1835460058401549061245a565b986126e2600684019a8b549061245a565b8651908682019242845244898401528b6060840152608083015260a082015260a0815261270e8161226d565b519020855190858083858152018a8a5288828b208b905b87601f830110612c9057916128499787949286610b8c97955493838310612c79575b838310612c5f575b838310612c45575b838310612c2b575b838310612c12575b838310612bf8575b838310612bde575b838310612bc4575b838310612bac575b50828210612b94575b828210612b7c575b828210612b64575b828210612b4c575b828210612b34575b828210612b1c575b828210612b04575b828210612aec575b828210612ad4575b828210612abc575b828210612aa4575b828210612a8c575b828210612a74575b828210612a5c575b828210612a44575b828210612a2c575b828210612a14575b8282106129fc575b8282106129e4575b8282106129cc575b8282106129b4575b82821061299c575b501061298c575b50905003836122a5565b9760ff92612865848b511660018110159081612980575061307b565b848a019784808c8b828082511660018110156128a495610bf0946128958361289c95610bdf9561297457506130bc565b511661252f565b92511661252f565b1690856128b18383612495565b90549060031b1c1661293c57928b8694936128f8610c4a60609c9a98957fa3b3e2532a51907c70564d7eb439a729f06dc722d859e88561a31f9a1579ecb69e9c9a97612495565b9055600884015460281c851615612932575061291391612668565b60018060a01b03905416995116945116908251948552840152820152a3565b6129139250612668565b875162461bcd60e51b815260048101889052601160248201527010d85c9908185b1c9958591e481d5cd959607a1b6044820152606490fd5b60049150111538610bc2565b600d9150111538610ba5565b60f81c151581520188903861283f565b6001919460ff8560f01c161515815201930184612838565b6001919460ff8560e81c161515815201930184612830565b6001919460ff8560e01c161515815201930184612828565b6001919460ff8560d81c161515815201930184612820565b6001919460ff8560d01c161515815201930184612818565b6001919460ff8560c81c161515815201930184612810565b6001919460ff8560c01c161515815201930184612808565b6001919460ff8560b81c161515815201930184612800565b6001919460ff8560b01c1615158152019301846127f8565b6001919460ff8560a81c1615158152019301846127f0565b6001919460ff8560a01c1615158152019301846127e8565b6001919460ff8560981c1615158152019301846127e0565b6001919460ff8560901c1615158152019301846127d8565b6001919460ff8560881c1615158152019301846127d0565b6001919460ff8560801c1615158152019301846127c8565b6001919460ff8560781c1615158152019301846127c0565b6001919460ff8560701c1615158152019301846127b8565b6001919460ff8560681c1615158152019301846127b0565b6001919460ff8560601c1615158152019301846127a8565b6001919460ff8560581c1615158152019301846127a0565b6001919460ff8560501c161515815201930184612798565b6001919460ff8560481c161515815201930184612790565b9460ff85600194971c1615158152019301848e612787565b91948160019160ff8760381c16151581520195019161277f565b91948160019160ff8760301c161515815201950191612777565b91948160019160ff8760281c16151581520195019161276f565b91948160019160ff87831c161515815201950191612767565b91948160019160ff8760181c16151581520195019161275f565b91948160019160ff8760101c161515815201950191612757565b91948160019160ff8760081c16151581520195019161274f565b91948160019160ff87161515815201950191612747565b949596939160019193610400918754809160ff91829182821615158652828260081c16151589870152828260101c16151581870152828260181c161515606087015282828a1c1615156080870152828260281c16151560a0870152828260c0828260301c161515818a0152828260e095828260381c161515878d01521c1615156101008a0152828260481c1615156101208a0152828260501c1615156101408a0152828260581c1615156101608a0152828260601c1615156101808a0152828260681c1615156101a08a0152828260701c1615156101c08a0152828260781c1615156101e08a0152828260801c1615156102008a0152828260881c1615156102208a0152828260901c1615156102408a0152828260981c1615156102608a0152828260a01c1615156102808a0152828260a81c1615156102a08a0152828260b01c1615156102c08a0152828260b81c1615156102e08a01521c161515610300870152828260c81c161515610320870152828260d01c161515610340870152828260d81c1615156103608701521c161515610380840152808260e81c1615156103a08401528160f01c1615156103c083015260f81c15156103e082015201940191018990899396959492612725565b50606491519062461bcd60e51b82526004820152601d60248201527f4361726420747261636b696e67206e6f7420696e697469616c697a65640000006044820152fd5b919091604092835192612eb384612289565b60008085528060208096015260349384845103613037578190825b86811061300357508115612fca57068193825b868110612f2557885162461bcd60e51b815260048101899052601660248201527510d85c990819d95b995c985d1a5bdb8819985a5b195960521b6044820152606490fd5b612f2f81836123f3565b5115612f44575b612f3f906123e4565b612ee1565b94828114612f6057612f58612f3f916123e4565b959050612f36565b50505093925093600d9081830694600192838701809711612fb65760ff9404928301809311612fa2575082905194612f9786612289565b168452169082015290565b634e487b7160e01b81526011600452602490fd5b634e487b7160e01b82526011600452602482fd5b875162461bcd60e51b81526004810188905260126024820152714e6f20636172647320617661696c61626c6560701b6044820152606490fd5b61300d81876123f3565b5115613022575b61301d906123e4565b612ece565b9161302f61301d916123e4565b929050613014565b865162461bcd60e51b815260048101879052601f60248201527f496e76616c69642075736564206361726473206172726179206c656e677468006044820152606490fd5b1561308257565b60405162461bcd60e51b8152602060048201526012602482015271496e76616c696420636172642076616c756560701b6044820152606490fd5b156130c357565b60405162461bcd60e51b8152602060048201526011602482015270125b9d985b1a590818d85c99081cdd5a5d607a1b6044820152606490fd5b60ff600d9116029060ff82169182036113cc57565b1561311857565b60405162461bcd60e51b815260206004820152600d60248201526c4e6f7420796f75722067616d6560981b6044820152606490fd5b1561315457565b60405162461bcd60e51b81526020600482015260116024820152702737ba10383630bcb2b913b9903a3ab93760791b6044820152606490fd5b1561319457565b60405162461bcd60e51b815260206004820152601760248201527f4d757374206d61746368206f726967696e616c206265740000000000000000006044820152606490fd5b80600052600060205260406000209160ff60088401541660058110156101ae57600303613ad45761322c613212610429600586016124c6565b600985019061ff0082549160081b169061ff001916179055565b61324b60ff600985015460081c16613246600586016124c6565b613b0d565b15613a2c578160005260006020526040600020600a810154603481036111df57600e820154613291613286600485015460058601549061245a565b60068501549061245a565b604051906020820192428452446040840152876060840152608083015260a082015260a081526132c08161226d565b519020604051906020828481520192600a85016000526020600020906000915b81601f8401106138575794610b8c9285926133fc975491818110613841575b818110613828575b81811061380f575b8181106137f6575b8181106137de575b8181106137c5575b8181106137ac575b818110613793575b81811061377a575b818110613761575b818110613748575b81811061372f575b818110613716575b8181106136fd575b8181106136e4575b8181106136cb575b8181106136b2575b818110613699575b818110613680575b818110613667575b81811061364e575b818110613635575b81811061361c575b818110613603575b8181106135ea575b8181106135d1575b8181106135b8575b81811061359f575b818110613586575b81811061356d575b818110613554575b10613544575003836122a5565b9061341660ff83511660018110159081612980575061307b565b61343260ff6020840151166001811015908161297457506130bc565b60ff613455613449610bdf8360208701511661252f565b610bf08386511661252f565b169060ff61346683600a8401612495565b90549060031b1c16610ca6576060816134a7610c4a8895600a7fa3b3e2532a51907c70564d7eb439a729f06dc722d859e88561a31f9a1579ecb69601612495565b90556134b68560058301612668565b6001808060a01b03910154169360ff60208183511692015116604051918252602082015260016040820152a36134f4613212610429600586016124c6565b817fbf4b56bbb9bdb14e56bbe6172af19ea0186e1d51e3e595cd7680fc02ad786abb6040518061353c81606090602081526003602082015262121a5d60ea1b60408201520190565b0390a261322c565b60f81c1515815260200138610b84565b92602060019160ff8560f01c16151581520193016133ef565b92602060019160ff8560e81c16151581520193016133e7565b92602060019160ff8560e01c16151581520193016133df565b92602060019160ff8560d81c16151581520193016133d7565b92602060019160ff8560d01c16151581520193016133cf565b92602060019160ff8560c81c16151581520193016133c7565b92602060019160ff8560c01c16151581520193016133bf565b92602060019160ff8560b81c16151581520193016133b7565b92602060019160ff8560b01c16151581520193016133af565b92602060019160ff8560a81c16151581520193016133a7565b92602060019160ff8560a01c161515815201930161339f565b92602060019160ff8560981c1615158152019301613397565b92602060019160ff8560901c161515815201930161338f565b92602060019160ff8560881c1615158152019301613387565b92602060019160ff8560801c161515815201930161337f565b92602060019160ff8560781c1615158152019301613377565b92602060019160ff8560701c161515815201930161336f565b92602060019160ff8560681c1615158152019301613367565b92602060019160ff8560601c161515815201930161335f565b92602060019160ff8560581c1615158152019301613357565b92602060019160ff8560501c161515815201930161334f565b92602060019160ff8560481c1615158152019301613347565b92602060019160ff8560401c161515815201930161333f565b92602060019160ff8560381c1615158152019301613337565b92602060019160ff8560301c161515815201930161332f565b92602060019160ff8560281c1615158152019301613327565b92602060019160ff85831c161515815201930161331f565b92602060019160ff8560181c1615158152019301613317565b92602060019160ff8560101c161515815201930161330f565b92602060019160ff8560081c1615158152019301613307565b92602060019160ff8516151581520193016132ff565b9293946001610400602092865460ff81161515825260ff8160081c1615158583015260ff8160101c161515604083015260ff8160181c161515606083015260ff81861c161515608083015260ff8160281c16151560a083015260ff8160c0828260301c16151581860152828260381c16151560e0860152828260401c161515610100860152828260481c161515610120860152828260501c161515610140860152828260581c161515610160860152828260601c161515610180860152828260681c1615156101a0860152828260701c1615156101c0860152828260781c1615156101e0860152828260801c161515610200860152828260881c161515610220860152828260901c161515610240860152828260981c161515610260860152828260a01c161515610280860152828260a81c1615156102a0860152828260b01c1615156102c0860152828260b81c1615156102e08601521c16151561030083015260ff8160c81c16151561032083015260ff8160d01c16151561034083015260ff8160d81c16151561036083015260ff8160e01c16151561038083015260ff8160e81c1615156103a083015260ff8160f01c1615156103c083015260f81c15156103e0820152019401920191949392946132e0565b9190807f17931d977fe8fe498db2fb3e401f5cd4b7e726151a15407892fe6fe0fcb65daf60206124939460ff600982015460081c169060158211613a78575b50604051908152a2613c0e565b600864010000000064ff0000000019828401541617910155837fbf4b56bbb9bdb14e56bbe6172af19ea0186e1d51e3e595cd7680fc02ad786abb606060405185815260048682015263109d5cdd60e21b6040820152a238613a6b565b60405162461bcd60e51b81526020600482015260116024820152702737ba103232b0b632b913b9903a3ab93760791b6044820152606490fd5b60ff8092166011811015613b2357505050600190565b601114613b31575050600090565b6000908190825b81519085851691821015613bb1576001918287613b5583876123f3565b51511603613b6f575050613b6990936124b5565b92613b38565b613b699250936125b791959487600a918282613b8b838a6123f3565b5151161115613b9c5750509061251b565b613ba8919250866123f3565b5151169061251b565b949350505082613bc057505090565b60069250161490565b15613bd057565b60405162461bcd60e51b815260206004820152601660248201527511d85b5948185b1c9958591e4818dbdb5c1b195d195960521b6044820152606490fd5b60008181526020918183526040808320926008840180549060ff9586831696600588101561405c57613c44600480991415613bc9565b600982019283548a838083169260081c166002860154928589818160181c16941c1686613c7a818c60101c1683878988886140c6565b9a60081c16600381101561404957600114614011575b89159384613f35575050505050508651613ca981612289565b600b81526a506c617965722057696e7360a81b8b8201529490865b878380158015613efb575b5050908015908115613ebf575b5050508894929593918b918b60ff198254161790558a83019384546005613d0282614138565b9501805491613d1083614138565b978c5b828110613e81575050508a5b828110613e3957505050549089519560c08752898151918260c08a0152815b838110613e0d575050937f2f60ae731c134df56bd622d628b3ddc75d331a9fe6c983e75da473ea3c641d459899613daf94613dbd9794848b9a9860e080978d010152601f80199101168a01938a01528d828216908a015260081c16606088015281878203016080880152019061416a565b9083820360a085015261416a565b0390a2805b600354811015613e055780825260018652828220848682015414613def5750613dea906123e4565b613dc2565b600301805460ff19166002179055505050505050565b505050505050565b86939597999b989a508092508194969101015160e0828c0101520191898e94928d99979a989694613d3e565b90929450613e719193959799969850613e5d613e586117978386612650565b6141a1565b87613e68838c6123f3565b911690526123e4565b918d93918c989699979593613d1f565b9092949650613ead91939597999b989a50613ea2613e586117978386612650565b89613e68838d6123f3565b918f9593918e9a989b99979593613d13565b82809291819260018060a01b0360018b015416908390613ef2575bf115613ee857863880613cdc565b87513d88823e3d90fd5b506108fc613eda565b87548392839283926001600160a01b0316908390613f2c575bf115613f2257878338613ccf565b88513d89823e3d90fd5b506108fc613f14565b909192938095969a5094614008575b5083613fff575b5082613ff5575b505015613fb0578651613f6481612289565b898152630a0eae6d60e31b8b82015294600d84015491613f93613f87848361245a565b9360038701549261245a565b810390811115613cc457634e487b7160e01b885260118b52602488fd5b8651613fbb81612289565b600b81526a4465616c65722057696e7360a81b8b82015294613ff0613fe58893600387015461245a565b600d8601549061245a565b613cc4565b1490503880613f52565b15925038613f4b565b15935038613f44565b986140439061403d8b8a8a87600d6015614030610429600687016124c6565b9384161193015491614070565b9061245a565b98613c90565b634e487b7160e01b8c5260218f5260248cfd5b634e487b7160e01b85526021600452602485fd5b92939091936140bd5780156140ae575b6140965760ff80911691161461261d5750600090565b50508060011b90808204600214901517156113cc5790565b5060ff811660ff831611614080565b50505050600090565b939194909261412e5780614126575b80614118575b6140fb5780156140ae576140965760ff80911691161461261d5750600090565b5050506096810290808204609614901517156113cc576064900490565b50601560ff831614156140db565b5080156140d5565b5050505050600090565b9061414282612351565b61414f60405191826122a5565b8281528092614160601f1991612351565b0190602036910137565b90815180825260208080930193019160005b82811061418a575050505090565b835160ff168552938101939281019260010161417c565b60016141e99160ff92816141c38580945116858110159081612980575061307b565b610bf08361289c610bdf8260208601612895828251168b811015908161297457506130bc565b16019081116113cc5790565b600481019060028254149081159161423b575b506142355760ff8061422e61179d61179761422861179d61179788612620565b95612635565b1691161490565b50600090565b60ff91506008015460081c1660038110156101ae5715153861420856fecc08a4f861b097fd68048e30e86ac2db48198da16ddce9c022c76d60cfe4ae53a2646970667358221220ba95fd3fadb8607443ca6a4f795206596540c9ee01332e6bd84f3d8cbdbdc09464736f6c63430008150033",
  "immutableReferences": {},
  "source": "// SPDX-License-Identifier: MIT\r\npragma solidity ^0.8.21;\r\n\r\nimport \"./CardLib.sol\";\r\n\r\ncontract Blackjack {\r\n    using CardLib for CardLib.Card;\r\n\r\n    // Enums\r\n    enum LobbyStatus { Open, InProgress, Completed, Cancelled }\r\n    enum GameState { Open, Dealing, PlayerTurn, DealerTurn, Complete }\r\n    enum ActionState { None, Split, Doubled }\r\n\r\n    // Constants\r\n    uint8 constant DEALER_MIN_STAND = 17;\r\n    uint8 constant BLACKJACK = 21;\r\n    uint8 constant ACE_HIGH = 11;\r\n    uint8 constant ACE_LOW = 1;\r\n    uint256 constant BLACKJACK_MULTIPLIER = 150; // 3:2 payout\r\n    uint256 constant NORMAL_MULTIPLIER = 200;    // 2:1 payout\r\n    uint256 constant MULTIPLIER_BASE = 100;      // Base for multiplier calculations\r\n    uint256 constant LOBBY_TIMEOUT = 1 hours;\r\n    uint256 constant GAME_TIMEOUT = 30 minutes;\r\n    bytes32 constant SALT_BASE = 0x1234567890abcdef1234567890abcdef1234567890abcdef1234567890abcdef;\r\n\r\n    // Using CardLib's Card struct\r\n    using CardLib for CardLib.Card;\r\n\r\n    // Card struct is now part of CardLib\r\n\r\n    // Scores struct to store player and dealer scores\r\n    struct Scores {\r\n        uint8 playerScore;\r\n        uint8 dealerScore;\r\n    }\r\n\r\n    // Lobby struct to handle game creation and joining\r\n    struct Lobby {\r\n        uint256 lobbyId;\r\n        address payable host;\r\n        uint256 betAmount;\r\n        LobbyStatus status;\r\n        uint256 gameId;\r\n        uint256 creationTime;\r\n    }\r\n\r\n    // Game struct to store all game-related data\r\n    struct Game {\r\n        address payable player;\r\n        address payable dealer;\r\n        uint256 betAmount;\r\n        uint256 dealerStake;\r\n        CardLib.Card[] playerHand;\r\n        CardLib.Card[] dealerHand;\r\n        CardLib.Card[] splitHand;\r\n        uint256 gameId;\r\n        GameState state;\r\n        ActionState actionState;\r\n        bool isBlackjack;\r\n        bool playerBusted;\r\n        bool dealerBusted;\r\n        bool isSplitHand;\r\n        Scores scores;\r\n        bool[] usedCards;\r\n        uint256 lastActionTime;\r\n        bool splitHandCompleted;\r\n        uint256 splitBetAmount;\r\n        bytes32 randomnessCommit;\r\n    }\r\n\r\n    // State variables\r\n    mapping(uint256 => Game) public games;\r\n    mapping(uint256 => Lobby) public lobbies;\r\n    uint256 public gameCounter;\r\n    uint256 public lobbyCounter;\r\n    uint256 public minBet;\r\n    uint256 public maxBet;\r\n\r\n    // Events\r\n    event LobbyCreated(uint256 indexed lobbyId, address indexed host, uint256 betAmount);\r\n    event LobbyJoined(uint256 indexed lobbyId, address indexed player);\r\n    event LobbyCancelled(uint256 indexed lobbyId, address indexed host, uint256 refundAmount);\r\n    event LobbyTimeout(uint256 indexed lobbyId);\r\n    event GameCreated(uint256 indexed gameId, address indexed player, uint256 betAmount);\r\n    event CardDealt(uint256 indexed gameId, address indexed recipient, uint8 value, uint8 suit, bool isDealer);\r\n    event PlayerAction(uint256 indexed gameId, string action);\r\n    event SplitHandStarted(uint256 indexed gameId);\r\n    event HandBusted(uint256 indexed gameId, bool isSplitHand);\r\n    event DealerAction(uint256 indexed gameId, string action);\r\n    event DealerTurnComplete(uint256 indexed gameId, uint8 dealerScore);\r\n    event GameComplete(uint256 indexed gameId, string result, uint256 payout, uint8 playerScore, uint8 dealerScore, uint8[] playerCards, uint8[] dealerCards);\r\n    event PlayerTurn(uint256 indexed gameId);\r\n    event DealerTurn(uint256 indexed gameId);\r\n\r\n    constructor(uint256 _minBet, uint256 _maxBet) {\r\n        require(_minBet > 0 && _maxBet >= _minBet, \"Invalid bet amounts\");\r\n        minBet = _minBet;\r\n        maxBet = _maxBet;\r\n    }\r\n\r\n    // Get All Open Lobbies\r\n    function getOpenLobbies() external view returns (Lobby[] memory) {\r\n        Lobby[] memory openLobbies = new Lobby[](lobbyCounter);\r\n        uint256 openLobbiesCount = 0;\r\n\r\n        for (uint256 i = 0; i < lobbyCounter; i++) {\r\n            if (lobbies[i].status == LobbyStatus.Open) {\r\n                openLobbies[openLobbiesCount] = lobbies[i];\r\n                openLobbiesCount++;\r\n            }\r\n        }\r\n\r\n        // Trim the array to the actual number of open lobbies\r\n        Lobby[] memory trimmedLobbies = new Lobby[](openLobbiesCount);\r\n        for (uint256 i = 0; i < openLobbiesCount; i++) {\r\n            trimmedLobbies[i] = openLobbies[i];\r\n        }\r\n\r\n        return trimmedLobbies;\r\n    }\r\n\r\n    // Create a new lobby\r\n    function createLobby() external payable {\r\n        require(msg.value >= minBet * 3 / 2 && msg.value <= maxBet * 3 / 2, \"Invalid dealer stake amount\");\r\n\r\n        uint256 betAmount = msg.value * 2 / 3; // Dealer stakes 1.5x the bet amount\r\n        lobbies[lobbyCounter] = Lobby({\r\n            lobbyId: lobbyCounter,\r\n            host: payable(msg.sender),\r\n            betAmount: betAmount,\r\n            status: LobbyStatus.Open,\r\n            gameId: 0,\r\n            creationTime: block.timestamp\r\n        });\r\n\r\n        emit LobbyCreated(lobbyCounter, msg.sender, betAmount);\r\n        lobbyCounter++;\r\n    }\r\n\r\n    // Cancel lobby\r\n    function cancelLobby(uint256 lobbyId) external {\r\n        Lobby storage lobby = lobbies[lobbyId];\r\n        require(msg.sender == lobby.host, \"Only host can cancel\");\r\n        require(lobby.status == LobbyStatus.Open, \"Lobby not open\");\r\n\r\n        lobby.status = LobbyStatus.Cancelled;\r\n        uint256 refundAmount = lobby.betAmount * 3 / 2;\r\n        lobby.host.transfer(refundAmount);\r\n\r\n        emit LobbyCancelled(lobbyId, msg.sender, refundAmount);\r\n    }\r\n\r\n    // Join an existing lobby and start the game\r\n    function joinLobby(uint256 lobbyId) external payable {\r\n        Lobby storage lobby = lobbies[lobbyId];\r\n        require(lobbyId < lobbyCounter, \"Invalid lobby ID\");\r\n        require(lobby.status == LobbyStatus.Open, \"Lobby not open\");\r\n        require(msg.sender != lobby.host, \"Cannot join your own lobby\");\r\n        require(msg.value == lobby.betAmount, \"Incorrect bet amount\");\r\n        require(lobby.gameId == 0, \"Game already started\");\r\n        require(block.timestamp <= lobby.creationTime + LOBBY_TIMEOUT, \"Lobby has expired\");\r\n\r\n        // Start the game\r\n        uint256 gameId = _startGame(lobby, msg.sender);\r\n\r\n        // Update lobby status\r\n        lobby.status = LobbyStatus.InProgress;\r\n        lobby.gameId = gameId;\r\n\r\n        emit LobbyJoined(lobbyId, msg.sender);\r\n    }\r\n\r\n    // Cleanup timed-out lobbies\r\n    function cleanupTimedOutLobbies() external {\r\n        for (uint256 i = 0; i < lobbyCounter; i++) {\r\n            if (\r\n                lobbies[i].status == LobbyStatus.Open &&\r\n                block.timestamp > lobbies[i].creationTime + LOBBY_TIMEOUT\r\n            ) {\r\n                lobbies[i].status = LobbyStatus.Cancelled;\r\n                uint256 refundAmount = lobbies[i].betAmount * 3 / 2;\r\n                lobbies[i].host.transfer(refundAmount);\r\n                emit LobbyTimeout(i);\r\n            }\r\n        }\r\n    }\r\n\r\n    // Internal function to start a new game\r\n    function _startGame(Lobby storage lobby, address player) internal returns (uint256) {\r\n        uint256 currentGameId = gameCounter;\r\n\r\n        // Initialize game\r\n        Game storage newGame = games[currentGameId];\r\n        newGame.player = payable(player);\r\n        newGame.dealer = lobby.host;\r\n        newGame.betAmount = lobby.betAmount;\r\n        newGame.dealerStake = lobby.betAmount * 3 / 2;\r\n        newGame.gameId = currentGameId;\r\n        newGame.state = GameState.Open;\r\n        newGame.actionState = ActionState.None;\r\n        newGame.isBlackjack = false;\r\n        newGame.playerBusted = false;\r\n        newGame.dealerBusted = false;\r\n        newGame.isSplitHand = false;\r\n        newGame.scores = Scores(0, 0);\r\n        newGame.lastActionTime = block.timestamp;\r\n        newGame.splitHandCompleted = false;\r\n        newGame.splitBetAmount = 0;\r\n        newGame.randomnessCommit = _generateCommit(currentGameId);\r\n\r\n        // Initialize usedCards array with proper length\r\n        delete newGame.usedCards;\r\n        newGame.usedCards = new bool[](52);\r\n        for (uint256 i = 0; i < 52; i++) {\r\n            newGame.usedCards[i] = false;\r\n        }\r\n\r\n        emit GameCreated(currentGameId, player, lobby.betAmount);\r\n\r\n        // Deal initial cards\r\n        _dealInitialCards(currentGameId);\r\n\r\n        gameCounter++;\r\n        return currentGameId;\r\n    }\r\n\r\n    // Internal function to deal initial cards\r\n    function _dealInitialCards(uint256 gameId) internal {\r\n        Game storage game = games[gameId];\r\n        require(game.state == GameState.Open, \"Game not in open state\");\r\n\r\n        game.state = GameState.Dealing;\r\n\r\n        // Deal two cards each to player and dealer\r\n        for (uint8 i = 0; i < 2; i++) {\r\n            _dealCard(gameId, false); // To player\r\n            _dealCard(gameId, true);  // To dealer\r\n        }\r\n\r\n        // Calculate initial scores\r\n        game.scores.playerScore = CardLib.calculateHandValue(game.playerHand);\r\n        game.scores.dealerScore = CardLib.calculateHandValue(game.dealerHand);\r\n\r\n        // Check for blackjack\r\n        if (game.scores.playerScore == BLACKJACK) {\r\n            game.isBlackjack = true;\r\n            _endGame(gameId);\r\n        } else {\r\n            game.state = GameState.PlayerTurn;\r\n            emit PlayerTurn(gameId); // Emit PlayerTurn event\r\n        }\r\n    }\r\n\r\n    // Internal function to deal a single card\r\n    function _dealCard(uint256 gameId, bool toDealer) internal {\r\n        Game storage game = games[gameId];\r\n        require(game.usedCards.length == 52, \"Card tracking not initialized\");\r\n\r\n        // Generate a unique seed for randomness\r\n        uint256 seed = uint256(keccak256(abi.encodePacked(\r\n            block.timestamp,\r\n            block.prevrandao,\r\n            gameId,\r\n            game.randomnessCommit,\r\n            game.playerHand.length + game.dealerHand.length + game.splitHand.length\r\n        )));\r\n\r\n        // Generate a random card that hasn't been used\r\n        CardLib.Card memory newCard = CardLib.generateRandomCard(seed, game.usedCards);\r\n        \r\n        // Mark the card as used\r\n        uint256 cardIndex = CardLib.getCardIndex(newCard);\r\n        require(!game.usedCards[cardIndex], \"Card already used\");\r\n        game.usedCards[cardIndex] = true;\r\n\r\n        // Add card to appropriate hand\r\n        if (toDealer) {\r\n            game.dealerHand.push(newCard);\r\n            emit CardDealt(gameId, game.dealer, newCard.value, newCard.suit, true);\r\n        } else if (game.isSplitHand) {\r\n            game.splitHand.push(newCard);\r\n            emit CardDealt(gameId, game.player, newCard.value, newCard.suit, false);\r\n        } else {\r\n            game.playerHand.push(newCard);\r\n            emit CardDealt(gameId, game.player, newCard.value, newCard.suit, false);\r\n        }\r\n    }\r\n\r\n    // Internal helper to check if a card has already been used\r\n    function _isCardUsed(Game storage game, CardLib.Card memory card) internal view returns (bool) {\r\n        uint256 cardIndex = (card.suit - 1) * 13 + (card.value - 1);\r\n        return game.usedCards[cardIndex];\r\n    }\r\n\r\n    // Internal helper to mark a card as used\r\n    function _markCardAsUsed(Game storage game, CardLib.Card memory card) internal {\r\n        uint256 cardIndex = (card.suit - 1) * 13 + (card.value - 1);\r\n        game.usedCards[cardIndex] = true;\r\n    }\r\n\r\n    // Player action: Hit\r\n    function hit(uint256 gameId) external {\r\n        Game storage game = games[gameId];\r\n        require(msg.sender == game.player, \"Not your game\");\r\n        require(game.state == GameState.PlayerTurn, \"Not player's turn\");\r\n        require(!game.playerBusted, \"Player already busted\");\r\n\r\n        // Deal card\r\n        _dealCard(gameId, false);\r\n\r\n        // Update the correct hand's score\r\n        if (game.isSplitHand) {\r\n            game.scores.playerScore = CardLib.calculateHandValue(game.splitHand);\r\n        } else {\r\n            game.scores.playerScore = CardLib.calculateHandValue(game.playerHand);\r\n        }\r\n\r\n        if (game.scores.playerScore > BLACKJACK) {\r\n            game.playerBusted = true;\r\n            if (game.actionState == ActionState.Split && !game.splitHandCompleted) {\r\n                // Switch to split hand\r\n                game.splitHandCompleted = true;\r\n                game.isSplitHand = true;\r\n                game.playerBusted = false;\r\n                game.scores.playerScore = CardLib.calculateHandValue(game.splitHand);\r\n                emit PlayerAction(gameId, \"Switch to split hand\");\r\n                emit PlayerTurn(gameId); // Emit PlayerTurn for split hand\r\n            } else {\r\n                emit HandBusted(gameId, game.isSplitHand);\r\n                _endGame(gameId);\r\n            }\r\n        }\r\n\r\n        game.lastActionTime = block.timestamp;\r\n        emit PlayerAction(gameId, \"Hit\");\r\n    }\r\n\r\n\r\n    // Player action: Stand\r\n    function stand(uint256 gameId) external {\r\n        Game storage game = games[gameId];\r\n        require(msg.sender == game.player, \"Not your game\");\r\n        require(game.state == GameState.PlayerTurn, \"Not player's turn\");\r\n\r\n        if (game.actionState == ActionState.Split && !game.splitHandCompleted) {\r\n            // Switch to the split hand\r\n            game.splitHandCompleted = true;\r\n            game.isSplitHand = true;\r\n            game.scores.playerScore = CardLib.calculateHandValue(game.splitHand);\r\n            emit PlayerAction(gameId, \"Switch to split hand\");\r\n        } else {\r\n            game.state = GameState.DealerTurn;\r\n            emit DealerTurn(gameId); // Emit DealerTurn event\r\n            _dealerTurn(gameId);\r\n        }\r\n\r\n        game.lastActionTime = block.timestamp;\r\n        emit PlayerAction(gameId, \"Stand\");\r\n    }\r\n\r\n\r\n    // Player action: Double Down\r\n    function doubleDown(uint256 gameId) external payable {\r\n        Game storage game = games[gameId];\r\n        require(msg.sender == game.player, \"Not your game\");\r\n        require(game.state == GameState.PlayerTurn, \"Not player's turn\");\r\n        require(game.playerHand.length == 2, \"Can only double down on initial hand\");\r\n        require(msg.value == game.betAmount, \"Must match original bet\");\r\n        require(game.actionState == ActionState.None, \"Cannot double after split\");\r\n\r\n        game.betAmount += msg.value;\r\n        game.actionState = ActionState.Doubled;\r\n\r\n        // Deal one card and end player's turn\r\n        _dealCard(gameId, false);\r\n        game.scores.playerScore = CardLib.calculateHandValue(game.playerHand);\r\n\r\n        if (game.scores.playerScore > BLACKJACK) {\r\n            game.playerBusted = true;\r\n            emit HandBusted(gameId, false);\r\n            _endGame(gameId);\r\n        } else {\r\n            game.state = GameState.DealerTurn;\r\n            _dealerTurn(gameId);\r\n        }\r\n\r\n        game.lastActionTime = block.timestamp;\r\n        emit PlayerAction(gameId, \"Double Down\");\r\n    }\r\n\r\n    // Player action: Split\r\n    function split(uint256 gameId) external payable {\r\n        Game storage game = games[gameId];\r\n        _validateSplitConditions(game, msg.sender, msg.value);\r\n\r\n        _executeSplit(game, gameId);\r\n\r\n        game.lastActionTime = block.timestamp;\r\n        emit SplitHandStarted(gameId);\r\n        emit PlayerAction(gameId, \"Split\");\r\n    }\r\n\r\n    // Internal function to validate split conditions\r\n    function _validateSplitConditions(\r\n        Game storage game,\r\n        address sender,\r\n        uint256 value\r\n    ) internal view {\r\n        require(sender == game.player, \"Not your game\");\r\n        require(game.state == GameState.PlayerTurn, \"Not player's turn\");\r\n        require(game.playerHand.length == 2, \"Can only split initial hand\");\r\n        require(game.actionState == ActionState.None, \"Cannot split after other actions\");\r\n        require(value == game.betAmount, \"Must match original bet\");\r\n\r\n        // Get card values, handling face cards\r\n        uint8 card1Value = CardLib.getCardValue(game.playerHand[0]);\r\n        uint8 card2Value = CardLib.getCardValue(game.playerHand[1]);\r\n        require(card1Value == card2Value, \"Can only split equal value cards\");\r\n    }\r\n\r\n    // Internal function to execute split\r\n    function _executeSplit(Game storage game, uint256 gameId) internal {\r\n        game.splitBetAmount = game.betAmount;\r\n        game.actionState = ActionState.Split;\r\n\r\n        // Remove second card from player's hand\r\n        CardLib.Card memory secondCard = game.playerHand[1];\r\n        game.playerHand.pop();\r\n\r\n        // Initialize split hand and add the second card\r\n        game.splitHand.push(secondCard);\r\n\r\n        // Deal new cards to both hands\r\n        _dealCard(gameId, false); // To first hand\r\n        game.isSplitHand = true; // Next card goes to split hand\r\n        _dealCard(gameId, false); // To split hand\r\n        game.isSplitHand = false; // Reset back to first hand\r\n\r\n        // Update scores\r\n        game.scores.playerScore = CardLib.calculateHandValue(game.playerHand);\r\n    }\r\n\r\n    // Dealer's turn implementation\r\n    function _dealerTurn(uint256 gameId) internal {\r\n        Game storage game = games[gameId];\r\n        require(game.state == GameState.DealerTurn, \"Not dealer's turn\");\r\n\r\n        _executeDealerActions(game, gameId);\r\n        _checkDealerBust(game, gameId);\r\n        _finishDealerTurn(game, gameId);\r\n    }\r\n\r\n    // Internal function to execute dealer actions\r\n    function _executeDealerActions(Game storage game, uint256 gameId) internal {\r\n        game.scores.dealerScore = CardLib.calculateHandValue(game.dealerHand);\r\n\r\n        while (_shouldDealerHit(game.dealerHand, game.scores.dealerScore)) {\r\n            _dealCard(gameId, true);\r\n            game.scores.dealerScore = CardLib.calculateHandValue(game.dealerHand);\r\n            emit DealerAction(gameId, \"Hit\");\r\n        }\r\n    }\r\n\r\n    // Internal function to check if dealer busted\r\n    function _checkDealerBust(Game storage game, uint256 gameId) internal {\r\n        if (game.scores.dealerScore > BLACKJACK) {\r\n            game.dealerBusted = true;\r\n            emit DealerAction(gameId, \"Bust\");\r\n        }\r\n    }\r\n\r\n    // Internal function to finish dealer's turn\r\n    function _finishDealerTurn(Game storage game, uint256 gameId) internal {\r\n        emit DealerTurnComplete(gameId, game.scores.dealerScore);\r\n        _endGame(gameId);\r\n    }\r\n\r\n    // Internal function to determine if dealer should hit\r\n    function _shouldDealerHit(CardLib.Card[] memory hand, uint8 score) internal pure returns (bool) {\r\n        if (score >= DEALER_MIN_STAND) {\r\n            // Check for soft 17 (Ace + 6)\r\n            if (score == 17) {\r\n                bool hasAce = false;\r\n                uint8 nonAceSum = 0;\r\n\r\n                for (uint8 i = 0; i < hand.length; i++) {\r\n                    if (hand[i].value == 1) { // Ace\r\n                        hasAce = true;\r\n                    } else {\r\n                        nonAceSum += (hand[i].value > 10 ? 10 : hand[i].value);\r\n                    }\r\n                }\r\n\r\n                // If it's a soft 17 (Ace counting as 11 + 6), dealer must hit\r\n                return hasAce && nonAceSum == 6;\r\n            }\r\n            return false;\r\n        }\r\n        return true;\r\n    }\r\n\r\n    // Game resolution\r\n    function _endGame(uint256 gameId) internal {\r\n        Game storage game = games[gameId];\r\n        require(game.state != GameState.Complete, \"Game already completed\");\r\n\r\n        (uint256 payoutToPlayer, uint256 payoutToDealer, string memory result) = _calculateGamePayout(game);\r\n\r\n        // Handle payouts\r\n        if (payoutToPlayer > 0) {\r\n            payable(game.player).transfer(payoutToPlayer);\r\n        }\r\n\r\n        if (payoutToDealer > 0) {\r\n            payable(game.dealer).transfer(payoutToDealer);\r\n        }\r\n\r\n        _finalizeGameState(gameId, game, result, payoutToPlayer);\r\n\r\n        // Update lobby status\r\n        for (uint256 i = 0; i < lobbyCounter; i++) {\r\n            if (lobbies[i].gameId == gameId) {\r\n                lobbies[i].status = LobbyStatus.Completed;\r\n                break;\r\n            }\r\n        }\r\n    }\r\n\r\n    // Internal function to calculate game payout\r\n    function _calculateGamePayout(Game storage game)\r\n        internal\r\n        view\r\n        returns (uint256 payoutToPlayer, uint256 payoutToDealer, string memory result)\r\n    {\r\n        uint256 playerPayout = _calculateMainHandPayout(game);\r\n\r\n        if (game.actionState == ActionState.Split) {\r\n            playerPayout += _calculateSplitHandPayout(game);\r\n        }\r\n\r\n        if (playerPayout > 0) {\r\n            result = \"Player Wins\";\r\n            payoutToPlayer = playerPayout;\r\n            payoutToDealer = 0;\r\n        } else if (playerPayout == 0 && !game.playerBusted && !game.dealerBusted && game.scores.playerScore == game.scores.dealerScore) {\r\n            // Push - return bets\r\n            result = \"Push\";\r\n            payoutToPlayer = game.betAmount + game.splitBetAmount; // Return player's bets\r\n            payoutToDealer = game.dealerStake - (game.betAmount + game.splitBetAmount); // Return remaining dealer stake\r\n        } else {\r\n            result = \"Dealer Wins\";\r\n            payoutToPlayer = 0;\r\n            payoutToDealer = game.dealerStake + game.betAmount + game.splitBetAmount; // Dealer takes the bets\r\n        }\r\n    }\r\n\r\n    // Internal function to calculate main hand payout\r\n    function _calculateMainHandPayout(Game storage game) internal view returns (uint256) {\r\n        return _determineHandPayout(\r\n            game.scores.playerScore,\r\n            game.scores.dealerScore,\r\n            game.betAmount,\r\n            game.playerBusted,\r\n            game.dealerBusted,\r\n            game.isBlackjack\r\n        );\r\n    }\r\n\r\n    // Internal function to calculate split hand payout\r\n    function _calculateSplitHandPayout(Game storage game) internal view returns (uint256) {\r\n        uint8 splitScore = CardLib.calculateHandValue(game.splitHand);\r\n        bool splitBusted = splitScore > BLACKJACK;\r\n\r\n        return _determineHandPayout(\r\n            splitScore,\r\n            game.scores.dealerScore,\r\n            game.splitBetAmount,\r\n            splitBusted,\r\n            game.dealerBusted,\r\n            false\r\n        );\r\n    }\r\n\r\n    // Internal pure function to determine hand payout\r\n    function _determineHandPayout(\r\n        uint8 playerScore,\r\n        uint8 dealerScore,\r\n        uint256 betAmount,\r\n        bool playerBusted,\r\n        bool dealerBusted,\r\n        bool isBlackjack\r\n    ) internal pure returns (uint256) {\r\n        if (playerBusted) {\r\n            return 0;\r\n        }\r\n\r\n        if (isBlackjack && !dealerBusted && dealerScore != BLACKJACK) {\r\n            // Blackjack pays 3:2\r\n            return (betAmount * BLACKJACK_MULTIPLIER) / MULTIPLIER_BASE;\r\n        }\r\n\r\n        if (dealerBusted || (!playerBusted && playerScore > dealerScore)) {\r\n            // Regular win pays 1:1\r\n            return betAmount * 2;\r\n        }\r\n\r\n        if (!playerBusted && playerScore == dealerScore) {\r\n            // Push - return original bet\r\n            return betAmount;\r\n        }\r\n\r\n        return 0;\r\n    }\r\n\r\n    // Internal function to finalize game state\r\nfunction _finalizeGameState(\r\n    uint256 gameId,\r\n    Game storage game,\r\n    string memory result,\r\n    uint256 payoutToPlayer\r\n) internal {\r\n    game.state = GameState.Complete;\r\n\r\n    uint8[] memory playerCards = new uint8[](game.playerHand.length);\r\n    uint8[] memory dealerCards = new uint8[](game.dealerHand.length);\r\n\r\n    for (uint256 i = 0; i < game.playerHand.length; i++) {\r\n        playerCards[i] = CardLib.encodeCard(game.playerHand[i]);\r\n    }\r\n    for (uint256 i = 0; i < game.dealerHand.length; i++) {\r\n        dealerCards[i] = CardLib.encodeCard(game.dealerHand[i]);\r\n    }\r\n\r\n    emit GameComplete(\r\n        gameId,\r\n        result,\r\n        payoutToPlayer,\r\n        game.scores.playerScore,\r\n        game.scores.dealerScore,\r\n        playerCards,\r\n        dealerCards\r\n    );\r\n}\r\n\r\n    // ------------------ Helper Functions ------------------\r\n\r\n    /**\r\n     * @dev Returns the player's hand for a specific game.\r\n     * @param gameId The ID of the game.\r\n     * @return An array of Card structs representing the player's hand.\r\n     */\r\n    function getPlayerHand(uint256 gameId) external view returns (CardLib.Card[] memory) {\r\n        return games[gameId].playerHand;\r\n    }\r\n\r\n    /**\r\n     * @dev Returns the dealer's hand for a specific game.\r\n     * @param gameId The ID of the game.\r\n     * @return An array of Card structs representing the dealer's hand.\r\n     */\r\n    function getDealerHand(uint256 gameId) external view returns (CardLib.Card[] memory) {\r\n        return games[gameId].dealerHand;\r\n    }\r\n\r\n    /**\r\n     * @dev Returns the split hand for a specific game, if any.\r\n     * @param gameId The ID of the game.\r\n     * @return An array of Card structs representing the split hand.\r\n     */\r\n    function getSplitHand(uint256 gameId) external view returns (CardLib.Card[] memory) {\r\n        return games[gameId].splitHand;\r\n    }\r\n\r\n    // Helper function to generate commit for randomness\r\n    function _generateCommit(uint256 gameId) internal view returns (bytes32) {\r\n        return keccak256(abi.encodePacked(\r\n            block.timestamp,\r\n            block.prevrandao,\r\n            msg.sender,\r\n            gameId,\r\n            SALT_BASE\r\n        ));\r\n    }\r\n\r\n    // Generate secure random number (placeholder - needs secure implementation)\r\n    function _generateSecureRandom(uint256 gameId, bytes32 commit) internal view returns (uint256) {\r\n        return uint256(keccak256(abi.encodePacked(\r\n            commit,\r\n            block.timestamp,\r\n            block.prevrandao,\r\n            msg.sender,\r\n            gameId\r\n        )));\r\n    }\r\n\r\n    // Function to handle stuck games\r\n    function resolveStuckGame(uint256 gameId) external {\r\n        Game storage game = games[gameId];\r\n        require(block.timestamp > game.lastActionTime + GAME_TIMEOUT, \"Game not timed out\");\r\n        require(game.state != GameState.Complete, \"Game already completed\");\r\n\r\n        if (game.state == GameState.PlayerTurn) {\r\n            // If player timed out, they forfeit\r\n            game.playerBusted = true;\r\n            _endGame(gameId);\r\n        } else if (game.state == GameState.DealerTurn) {\r\n            // If stuck in dealer's turn, complete the game\r\n            _dealerTurn(gameId);\r\n        }\r\n    }\r\n\r\n    // Get game state\r\n    function getGameState(uint256 gameId)\r\n        external\r\n        view\r\n        returns (\r\n            uint8 playerScore,\r\n            uint8 dealerScore,\r\n            bool isPlayerTurn,\r\n            bool isComplete,\r\n            uint256 betAmount,\r\n            bool canSplit,\r\n            bool canDouble,\r\n            bool isSplit\r\n        )\r\n    {\r\n        Game storage game = games[gameId];\r\n\r\n        return (\r\n            game.scores.playerScore,\r\n            game.scores.dealerScore,\r\n            game.state == GameState.PlayerTurn,\r\n            game.state == GameState.Complete,\r\n            game.betAmount,\r\n            _canSplitHand(game),\r\n            _canDoubleDown(game),\r\n            game.actionState == ActionState.Split\r\n        );\r\n    }\r\n\r\n    // Internal helper to check if hand can be split\r\n    function _canSplitHand(Game storage game) internal view returns (bool) {\r\n        if (game.playerHand.length != 2 || game.actionState != ActionState.None) {\r\n            return false;\r\n        }\r\n\r\n        uint8 card1Value = CardLib.getCardValue(game.playerHand[0]);\r\n        uint8 card2Value = CardLib.getCardValue(game.playerHand[1]);\r\n\r\n        return card1Value == card2Value;\r\n    }\r\n\r\n    // Internal helper to check if hand can be doubled down\r\n    function _canDoubleDown(Game storage game) internal view returns (bool) {\r\n        return game.playerHand.length == 2 &&\r\n            game.actionState == ActionState.None &&\r\n            game.state == GameState.PlayerTurn;\r\n    }\r\n}\r\n\r\n",
  "sourcePath": "C:\\Users\\rjqui\\Documents\\GitHub\\CSC-196D-Block-Wager\\truffle\\contracts\\blackjack.sol",
  "compiler": {
    "name": "solc",
    "version": "0.8.21+commit.d9974bed.Emscripten.clang"
  },
  "schemaVersion": "3.4.16",
  "updatedAt": "2024-11-27T22:40:29.700Z",
  "networkType": "ethereum",
  "devdoc": {
    "kind": "dev",
    "methods": {
      "getDealerHand(uint256)": {
        "details": "Returns the dealer's hand for a specific game.",
        "params": {
          "gameId": "The ID of the game."
        },
        "returns": {
          "_0": "An array of Card structs representing the dealer's hand."
        }
      },
      "getPlayerHand(uint256)": {
        "details": "Returns the player's hand for a specific game.",
        "params": {
          "gameId": "The ID of the game."
        },
        "returns": {
          "_0": "An array of Card structs representing the player's hand."
        }
      },
      "getSplitHand(uint256)": {
        "details": "Returns the split hand for a specific game, if any.",
        "params": {
          "gameId": "The ID of the game."
        },
        "returns": {
          "_0": "An array of Card structs representing the split hand."
        }
      }
    },
    "version": 1
  },
  "userdoc": {
    "kind": "user",
    "methods": {},
    "version": 1
  }
}