{
  "contractName": "Blackjack",
  "abi": [
    {
      "inputs": [
        {
          "internalType": "uint256",
          "name": "_minBet",
          "type": "uint256"
        },
        {
          "internalType": "uint256",
          "name": "_maxBet",
          "type": "uint256"
        }
      ],
      "stateMutability": "nonpayable",
      "type": "constructor"
    },
    {
      "anonymous": false,
      "inputs": [
        {
          "indexed": true,
          "internalType": "uint256",
          "name": "gameId",
          "type": "uint256"
        },
        {
          "indexed": true,
          "internalType": "address",
          "name": "recipient",
          "type": "address"
        },
        {
          "indexed": false,
          "internalType": "uint8",
          "name": "value",
          "type": "uint8"
        },
        {
          "indexed": false,
          "internalType": "uint8",
          "name": "suit",
          "type": "uint8"
        },
        {
          "indexed": false,
          "internalType": "bool",
          "name": "isDealer",
          "type": "bool"
        }
      ],
      "name": "CardDealt",
      "type": "event"
    },
    {
      "anonymous": false,
      "inputs": [
        {
          "indexed": true,
          "internalType": "uint256",
          "name": "gameId",
          "type": "uint256"
        },
        {
          "indexed": false,
          "internalType": "string",
          "name": "action",
          "type": "string"
        }
      ],
      "name": "DealerAction",
      "type": "event"
    },
    {
      "anonymous": false,
      "inputs": [
        {
          "indexed": true,
          "internalType": "uint256",
          "name": "gameId",
          "type": "uint256"
        }
      ],
      "name": "DealerTurn",
      "type": "event"
    },
    {
      "anonymous": false,
      "inputs": [
        {
          "indexed": true,
          "internalType": "uint256",
          "name": "gameId",
          "type": "uint256"
        },
        {
          "indexed": false,
          "internalType": "uint8",
          "name": "dealerScore",
          "type": "uint8"
        }
      ],
      "name": "DealerTurnComplete",
      "type": "event"
    },
    {
      "anonymous": false,
      "inputs": [
        {
          "indexed": true,
          "internalType": "uint256",
          "name": "gameId",
          "type": "uint256"
        },
        {
          "indexed": false,
          "internalType": "string",
          "name": "result",
          "type": "string"
        },
        {
          "indexed": false,
          "internalType": "uint256",
          "name": "payout",
          "type": "uint256"
        },
        {
          "indexed": false,
          "internalType": "uint8",
          "name": "playerScore",
          "type": "uint8"
        },
        {
          "indexed": false,
          "internalType": "uint8",
          "name": "dealerScore",
          "type": "uint8"
        }
      ],
      "name": "GameComplete",
      "type": "event"
    },
    {
      "anonymous": false,
      "inputs": [
        {
          "indexed": true,
          "internalType": "uint256",
          "name": "gameId",
          "type": "uint256"
        },
        {
          "indexed": true,
          "internalType": "address",
          "name": "player",
          "type": "address"
        },
        {
          "indexed": true,
          "internalType": "address",
          "name": "dealer",
          "type": "address"
        },
        {
          "indexed": false,
          "internalType": "uint256",
          "name": "betAmount",
          "type": "uint256"
        }
      ],
      "name": "GameCreated",
      "type": "event"
    },
    {
      "anonymous": false,
      "inputs": [
        {
          "indexed": true,
          "internalType": "uint256",
          "name": "gameId",
          "type": "uint256"
        },
        {
          "indexed": false,
          "internalType": "bool",
          "name": "isSplitHand",
          "type": "bool"
        }
      ],
      "name": "HandBusted",
      "type": "event"
    },
    {
      "anonymous": false,
      "inputs": [
        {
          "indexed": true,
          "internalType": "uint256",
          "name": "lobbyId",
          "type": "uint256"
        },
        {
          "indexed": true,
          "internalType": "address",
          "name": "host",
          "type": "address"
        },
        {
          "indexed": false,
          "internalType": "uint256",
          "name": "refundAmount",
          "type": "uint256"
        }
      ],
      "name": "LobbyCancelled",
      "type": "event"
    },
    {
      "anonymous": false,
      "inputs": [
        {
          "indexed": true,
          "internalType": "uint256",
          "name": "lobbyId",
          "type": "uint256"
        },
        {
          "indexed": true,
          "internalType": "address",
          "name": "host",
          "type": "address"
        },
        {
          "indexed": false,
          "internalType": "uint256",
          "name": "betAmount",
          "type": "uint256"
        }
      ],
      "name": "LobbyCreated",
      "type": "event"
    },
    {
      "anonymous": false,
      "inputs": [
        {
          "indexed": true,
          "internalType": "uint256",
          "name": "lobbyId",
          "type": "uint256"
        },
        {
          "indexed": true,
          "internalType": "address",
          "name": "player",
          "type": "address"
        }
      ],
      "name": "LobbyJoined",
      "type": "event"
    },
    {
      "anonymous": false,
      "inputs": [
        {
          "indexed": true,
          "internalType": "uint256",
          "name": "lobbyId",
          "type": "uint256"
        }
      ],
      "name": "LobbyTimeout",
      "type": "event"
    },
    {
      "anonymous": false,
      "inputs": [
        {
          "indexed": true,
          "internalType": "uint256",
          "name": "gameId",
          "type": "uint256"
        },
        {
          "indexed": false,
          "internalType": "string",
          "name": "action",
          "type": "string"
        }
      ],
      "name": "PlayerAction",
      "type": "event"
    },
    {
      "anonymous": false,
      "inputs": [
        {
          "indexed": true,
          "internalType": "uint256",
          "name": "gameId",
          "type": "uint256"
        }
      ],
      "name": "PlayerTurn",
      "type": "event"
    },
    {
      "anonymous": false,
      "inputs": [
        {
          "indexed": true,
          "internalType": "uint256",
          "name": "gameId",
          "type": "uint256"
        }
      ],
      "name": "SplitHandStarted",
      "type": "event"
    },
    {
      "inputs": [],
      "name": "gameCounter",
      "outputs": [
        {
          "internalType": "uint256",
          "name": "",
          "type": "uint256"
        }
      ],
      "stateMutability": "view",
      "type": "function",
      "constant": true
    },
    {
      "inputs": [
        {
          "internalType": "uint256",
          "name": "",
          "type": "uint256"
        }
      ],
      "name": "games",
      "outputs": [
        {
          "internalType": "address payable",
          "name": "player",
          "type": "address"
        },
        {
          "internalType": "address payable",
          "name": "dealer",
          "type": "address"
        },
        {
          "internalType": "uint256",
          "name": "betAmount",
          "type": "uint256"
        },
        {
          "internalType": "uint256",
          "name": "dealerStake",
          "type": "uint256"
        },
        {
          "internalType": "uint256",
          "name": "gameId",
          "type": "uint256"
        },
        {
          "internalType": "enum Blackjack.GameState",
          "name": "state",
          "type": "uint8"
        },
        {
          "internalType": "enum Blackjack.ActionState",
          "name": "actionState",
          "type": "uint8"
        },
        {
          "internalType": "bool",
          "name": "isBlackjack",
          "type": "bool"
        },
        {
          "internalType": "bool",
          "name": "playerBusted",
          "type": "bool"
        },
        {
          "internalType": "bool",
          "name": "dealerBusted",
          "type": "bool"
        },
        {
          "internalType": "bool",
          "name": "isSplitHand",
          "type": "bool"
        },
        {
          "components": [
            {
              "internalType": "uint8",
              "name": "playerScore",
              "type": "uint8"
            },
            {
              "internalType": "uint8",
              "name": "dealerScore",
              "type": "uint8"
            }
          ],
          "internalType": "struct Blackjack.Scores",
          "name": "scores",
          "type": "tuple"
        },
        {
          "internalType": "uint256",
          "name": "lastActionTime",
          "type": "uint256"
        },
        {
          "internalType": "bool",
          "name": "splitHandCompleted",
          "type": "bool"
        },
        {
          "internalType": "uint256",
          "name": "splitBetAmount",
          "type": "uint256"
        },
        {
          "internalType": "bytes32",
          "name": "randomnessCommit",
          "type": "bytes32"
        }
      ],
      "stateMutability": "view",
      "type": "function",
      "constant": true
    },
    {
      "inputs": [
        {
          "internalType": "uint256",
          "name": "",
          "type": "uint256"
        }
      ],
      "name": "lobbies",
      "outputs": [
        {
          "internalType": "uint256",
          "name": "lobbyId",
          "type": "uint256"
        },
        {
          "internalType": "address payable",
          "name": "host",
          "type": "address"
        },
        {
          "internalType": "uint256",
          "name": "betAmount",
          "type": "uint256"
        },
        {
          "internalType": "enum Blackjack.LobbyStatus",
          "name": "status",
          "type": "uint8"
        },
        {
          "internalType": "uint256",
          "name": "gameId",
          "type": "uint256"
        },
        {
          "internalType": "uint256",
          "name": "creationTime",
          "type": "uint256"
        }
      ],
      "stateMutability": "view",
      "type": "function",
      "constant": true
    },
    {
      "inputs": [],
      "name": "lobbyCounter",
      "outputs": [
        {
          "internalType": "uint256",
          "name": "",
          "type": "uint256"
        }
      ],
      "stateMutability": "view",
      "type": "function",
      "constant": true
    },
    {
      "inputs": [],
      "name": "maxBet",
      "outputs": [
        {
          "internalType": "uint256",
          "name": "",
          "type": "uint256"
        }
      ],
      "stateMutability": "view",
      "type": "function",
      "constant": true
    },
    {
      "inputs": [],
      "name": "minBet",
      "outputs": [
        {
          "internalType": "uint256",
          "name": "",
          "type": "uint256"
        }
      ],
      "stateMutability": "view",
      "type": "function",
      "constant": true
    },
    {
      "inputs": [],
      "name": "getOpenLobbies",
      "outputs": [
        {
          "components": [
            {
              "internalType": "uint256",
              "name": "lobbyId",
              "type": "uint256"
            },
            {
              "internalType": "address payable",
              "name": "host",
              "type": "address"
            },
            {
              "internalType": "uint256",
              "name": "betAmount",
              "type": "uint256"
            },
            {
              "internalType": "enum Blackjack.LobbyStatus",
              "name": "status",
              "type": "uint8"
            },
            {
              "internalType": "uint256",
              "name": "gameId",
              "type": "uint256"
            },
            {
              "internalType": "uint256",
              "name": "creationTime",
              "type": "uint256"
            }
          ],
          "internalType": "struct Blackjack.Lobby[]",
          "name": "",
          "type": "tuple[]"
        }
      ],
      "stateMutability": "view",
      "type": "function",
      "constant": true
    },
    {
      "inputs": [],
      "name": "createLobby",
      "outputs": [],
      "stateMutability": "payable",
      "type": "function",
      "payable": true
    },
    {
      "inputs": [
        {
          "internalType": "uint256",
          "name": "lobbyId",
          "type": "uint256"
        }
      ],
      "name": "cancelLobby",
      "outputs": [],
      "stateMutability": "nonpayable",
      "type": "function"
    },
    {
      "inputs": [
        {
          "internalType": "uint256",
          "name": "lobbyId",
          "type": "uint256"
        }
      ],
      "name": "joinLobby",
      "outputs": [],
      "stateMutability": "payable",
      "type": "function",
      "payable": true
    },
    {
      "inputs": [],
      "name": "cleanupTimedOutLobbies",
      "outputs": [],
      "stateMutability": "nonpayable",
      "type": "function"
    },
    {
      "inputs": [
        {
          "internalType": "uint256",
          "name": "gameId",
          "type": "uint256"
        }
      ],
      "name": "hit",
      "outputs": [],
      "stateMutability": "nonpayable",
      "type": "function"
    },
    {
      "inputs": [
        {
          "internalType": "uint256",
          "name": "gameId",
          "type": "uint256"
        }
      ],
      "name": "stand",
      "outputs": [],
      "stateMutability": "nonpayable",
      "type": "function"
    },
    {
      "inputs": [
        {
          "internalType": "uint256",
          "name": "gameId",
          "type": "uint256"
        }
      ],
      "name": "doubleDown",
      "outputs": [],
      "stateMutability": "payable",
      "type": "function",
      "payable": true
    },
    {
      "inputs": [
        {
          "internalType": "uint256",
          "name": "gameId",
          "type": "uint256"
        }
      ],
      "name": "split",
      "outputs": [],
      "stateMutability": "payable",
      "type": "function",
      "payable": true
    },
    {
      "inputs": [
        {
          "internalType": "uint256",
          "name": "gameId",
          "type": "uint256"
        }
      ],
      "name": "dealerHit",
      "outputs": [],
      "stateMutability": "nonpayable",
      "type": "function"
    },
    {
      "inputs": [
        {
          "internalType": "uint256",
          "name": "gameId",
          "type": "uint256"
        }
      ],
      "name": "dealerStand",
      "outputs": [],
      "stateMutability": "nonpayable",
      "type": "function"
    },
    {
      "inputs": [
        {
          "internalType": "uint256",
          "name": "gameId",
          "type": "uint256"
        }
      ],
      "name": "getPlayerHand",
      "outputs": [
        {
          "components": [
            {
              "internalType": "uint8",
              "name": "value",
              "type": "uint8"
            },
            {
              "internalType": "uint8",
              "name": "suit",
              "type": "uint8"
            }
          ],
          "internalType": "struct CardLib.Card[]",
          "name": "",
          "type": "tuple[]"
        }
      ],
      "stateMutability": "view",
      "type": "function",
      "constant": true
    },
    {
      "inputs": [
        {
          "internalType": "uint256",
          "name": "gameId",
          "type": "uint256"
        }
      ],
      "name": "getDealerHand",
      "outputs": [
        {
          "components": [
            {
              "internalType": "uint8",
              "name": "value",
              "type": "uint8"
            },
            {
              "internalType": "uint8",
              "name": "suit",
              "type": "uint8"
            }
          ],
          "internalType": "struct CardLib.Card[]",
          "name": "",
          "type": "tuple[]"
        }
      ],
      "stateMutability": "view",
      "type": "function",
      "constant": true
    },
    {
      "inputs": [
        {
          "internalType": "uint256",
          "name": "gameId",
          "type": "uint256"
        }
      ],
      "name": "getSplitHand",
      "outputs": [
        {
          "components": [
            {
              "internalType": "uint8",
              "name": "value",
              "type": "uint8"
            },
            {
              "internalType": "uint8",
              "name": "suit",
              "type": "uint8"
            }
          ],
          "internalType": "struct CardLib.Card[]",
          "name": "",
          "type": "tuple[]"
        }
      ],
      "stateMutability": "view",
      "type": "function",
      "constant": true
    },
    {
      "inputs": [
        {
          "internalType": "uint256",
          "name": "gameId",
          "type": "uint256"
        }
      ],
      "name": "resolveStuckGame",
      "outputs": [],
      "stateMutability": "nonpayable",
      "type": "function"
    },
    {
      "inputs": [
        {
          "internalType": "uint256",
          "name": "gameId",
          "type": "uint256"
        }
      ],
      "name": "getGameState",
      "outputs": [
        {
          "internalType": "uint8",
          "name": "playerScore",
          "type": "uint8"
        },
        {
          "internalType": "uint8",
          "name": "dealerScore",
          "type": "uint8"
        },
        {
          "internalType": "bool",
          "name": "isPlayerTurn",
          "type": "bool"
        },
        {
          "internalType": "bool",
          "name": "isComplete",
          "type": "bool"
        },
        {
          "internalType": "uint256",
          "name": "betAmount",
          "type": "uint256"
        },
        {
          "internalType": "bool",
          "name": "canSplit",
          "type": "bool"
        },
        {
          "internalType": "bool",
          "name": "canDouble",
          "type": "bool"
        },
        {
          "internalType": "bool",
          "name": "isSplit",
          "type": "bool"
        }
      ],
      "stateMutability": "view",
      "type": "function",
      "constant": true
    }
  ],
  "bytecode": "0x608034620000bf57601f620049f238819003918201601f19168301916001600160401b03831184841017620000c4578084926040948552833981010312620000bf57602081519101519080151580620000b4575b156200006f576004556005556040516149179081620000db8239f35b60405162461bcd60e51b815260206004820152601360248201527f496e76616c69642062657420616d6f756e7473000000000000000000000000006044820152606490fd5b508082101562000053565b600080fd5b634e487b7160e01b600052604160045260246000fdfe6080604052600436101561001257600080fd5b60003560e01c8063117a5b9014612e5a57806314eda23914612e2b57806327a1d948146127685780632e0be39a1461274a5780632e5b21681461272c5780632ee7d80a146126fd5780634708640414612573578063541d335c146123d65780636e8fb4c614612360578063778a606c1461232157806377f19522146123035780639619367d146122e557806396b76c2314612156578063a4a9a4ad14612052578063ba5e50f314611f70578063dbceb005146117fd578063dfdf7596146116d7578063e57b70ec14611609578063e9173b3a14610f6b578063ebf6e91d146103b9578063faa5bf89146102005763ffde0c741461010e57600080fd5b346101fb5760203660031901126101fb5760043560005260006020526040600020600981015460088201549160ff83169060058210156101c4576002821493600282015491600260046101608361483e565b9201541491826101e2575b826101da575b60081c60ff169260038410156101c45760046001956101009860ff604051998181168b5260081c1660208a015260408901521460608701526080860152151560a0850152151560c08401521460e0820152f35b634e487b7160e01b600052602160045260246000fd5b869250610171565b915060ff8260081c1660038110156101c457159161016b565b600080fd5b346101fb5760003660031901126101fb57600380549061021f82613081565b9160009160005b8281106102f85750505061023981613081565b9160005b8281106102c95760408051602080825286518183018190528188019383019160005b82811061026c5784840385f35b9091928260c0600192885180518252848060a01b03848201511684830152604081015160408301526102a66060808301519084019061305c565b6080808201519083015260a080910151908201520196019101949291909461025f565b806102d76102f3928461310b565b516102e2828761310b565b526102ed818661310b565b506130fc565b61023d565b806000526001602081815260ff8085604060002001541660048110156101c4571561032f575b50505061032a906130fc565b610226565b8360009792939497528383526040600020926040519461034e86612f85565b845486528401546001600160a01b0316908501526002830154604085015284830154169260048410156101c45760056103b09361032a95606084015260048101546080840152015460a08201526103a5828961310b565b526102ed818861310b565b9390868061031e565b346101fb5760203660031901126101fb57600435600052600060205260406000206103ee60018060a01b038254163314614219565b600881015460ff81169060058210156101c45761040f600260ff9314614255565b60181c16610f2e576004356000526000602052604060002090600a8201549160348303610ee957600e81015461045c6104516004840154600585015490613172565b600684015490613172565b6040519060208201924284524460408401526004356060840152608083015260a082015260a0815261048d81612f85565b519020604051906020828681520194600a84016000526020600020906000915b81601f840110610d1a57966105cc9285926105d19798995491818110610d04575b818110610ceb575b818110610cd2575b818110610cb9575b818110610ca1575b818110610c88575b818110610c6f575b818110610c56575b818110610c3d575b818110610c24575b818110610c0b575b818110610bf2575b818110610bd9575b818110610bc0575b818110610ba7575b818110610b8e575b818110610b75575b818110610b5c575b818110610b43575b818110610b2a575b818110610b11575b818110610af8575b818110610adf575b818110610ac6575b818110610aad575b818110610a94575b818110610a7b575b818110610a62575b818110610a49575b818110610a30575b818110610a17575b10610a07575b500383612fbd565b61403f565b9060ff825116600181101590816109fb575b50156109c15760ff602083015116600181101590816109b5575b501561097c57600d60ff61061681602086015116613247565b160260ff81169081036109665761063b60ff9161063583865116613247565b90613233565b1660ff61064b82600a85016131ad565b90549060031b1c1661092d5761066761067e91600a84016131ad565b819291549060031b9060ff6001831b921b19161790565b9055600881015460281c60ff16156108dc5761069d8260068301613380565b60018060a01b039054169060ff602081835116920151166040519182526020820152600060408201526000805160206148c2833981519152606060043592a35b600881015460281c60ff16156108b7576107016106fc600683016131de565b61325a565b60ff60098301911660ff198254161790555b60098101601560ff82541611610769575b50600b429101556040516000805160206148a2833981519152600435918061076481606090602081526003602082015262121a5d60ea1b60408201520190565b0390a2005b630100000063ff000000196008840154161780600884015560ff8160081c1660038110156101c457600114806108a8575b156108605750600c8201805460ff1990811660011790915560088301805465ff00ff00000019166501000000000017905560ff6107dc6106fc600686016131de565b16908254161790556040516000805160206148a2833981519152600435918061082e8160609060208152601460208201527314ddda5d18da081d1bc81cdc1b1a5d081a185b9960621b60408201520190565b0390a26004357f1a327edcf6b43c60a10c1861bae195dec3be71c9a241bd49b8431259ca632045600080a25b81610724565b905060ff6040519160281c16151581527f28de5caf9fe9f11f1835aaec134bc9036528a0979f3503852cef0f8cfbc82bb9602060043592a26108a3600435614421565b61085a565b5060ff600c840154161561079a565b6108c66106fc600483016131de565b60ff60098301911660ff19825416179055610713565b6108e98260048301613380565b60018060a01b039054169060ff602081835116920151166040519182526020820152600060408201526000805160206148c2833981519152606060043592a36106dd565b60405162461bcd60e51b815260206004820152601160248201527010d85c9908185b1c9958591e481d5cd959607a1b6044820152606490fd5b634e487b7160e01b600052601160045260246000fd5b60405162461bcd60e51b8152602060048201526011602482015270125b9d985b1a590818d85c99081cdd5a5d607a1b6044820152606490fd5b600491501115846105fd565b60405162461bcd60e51b8152602060048201526012602482015271496e76616c696420636172642076616c756560701b6044820152606490fd5b600d91501115846105e3565b60f81c15158152602001886105c4565b92602060019160ff8560f01c16151581520193016105be565b92602060019160ff8560e81c16151581520193016105b6565b92602060019160ff8560e01c16151581520193016105ae565b92602060019160ff8560d81c16151581520193016105a6565b92602060019160ff8560d01c161515815201930161059e565b92602060019160ff8560c81c1615158152019301610596565b92602060019160ff8560c01c161515815201930161058e565b92602060019160ff8560b81c1615158152019301610586565b92602060019160ff8560b01c161515815201930161057e565b92602060019160ff8560a81c1615158152019301610576565b92602060019160ff8560a01c161515815201930161056e565b92602060019160ff8560981c1615158152019301610566565b92602060019160ff8560901c161515815201930161055e565b92602060019160ff8560881c1615158152019301610556565b92602060019160ff8560801c161515815201930161054e565b92602060019160ff8560781c1615158152019301610546565b92602060019160ff8560701c161515815201930161053e565b92602060019160ff8560681c1615158152019301610536565b92602060019160ff8560601c161515815201930161052e565b92602060019160ff8560581c1615158152019301610526565b92602060019160ff8560501c161515815201930161051e565b92602060019160ff8560481c1615158152019301610516565b92602060019160ff8560401c161515815201930161050e565b92602060019160ff8560381c1615158152019301610506565b92602060019160ff8560301c16151581520193016104fe565b92602060019160ff8560281c16151581520193016104f6565b92602060019160ff85831c16151581520193016104ee565b92602060019160ff8560181c16151581520193016104e6565b92602060019160ff8560101c16151581520193016104de565b92602060019160ff8560081c16151581520193016104d6565b92602060019160ff8516151581520193016104ce565b9660016104006020928a5460ff81161515825260ff8160081c1615158583015260ff8160101c161515604083015260ff8160181c161515606083015260ff81861c161515608083015260ff8160281c16151560a083015260ff8160c0828260301c16151581860152828260381c16151560e0860152828260401c161515610100860152828260481c161515610120860152828260501c161515610140860152828260581c161515610160860152828260601c161515610180860152828260681c1615156101a0860152828260701c1615156101c0860152828260781c1615156101e0860152828260801c161515610200860152828260881c161515610220860152828260901c161515610240860152828260981c161515610260860152828260a01c161515610280860152828260a81c1615156102a0860152828260b01c1615156102c0860152828260b81c1615156102e08601521c16151561030083015260ff8160c81c16151561032083015260ff8160d01c16151561034083015260ff8160d81c16151561036083015260ff8160e01c16151561038083015260ff8160e81c1615156103a083015260ff8160f01c1615156103c083015260f81c15156103e08201520198019201916104ad565b60405162461bcd60e51b815260206004820152601d60248201527f4361726420747261636b696e67206e6f7420696e697469616c697a65640000006044820152606490fd5b60405162461bcd60e51b8152602060048201526015602482015274141b185e595c88185b1c9958591e48189d5cdd1959605a1b6044820152606490fd5b60203660031901126101fb576004356000526001602052604060002060035460043510156115d15760ff60038201541660048110156101c457610fae9015613135565b60018101546001600160a01b0316331461158c5760028101543403611550576004810154611514576005810154610e1081018091116109665742116114db576002549081600052600060205260406000206bffffffffffffffffffffffff60a01b338183541617825560018060a01b0360018401541660018301918254161790556002820154806002830155806003810204600314811517156109665760030260011c60038201558260078201556008810165ffffffffffff19815416905561109060405161107c81612fa1565b60008152600060208201526009830161317f565b42600b820155600c810160ff1981541690556000600d82015560405160208101904282524460408201523360601b60608201528460748201527f1234567890abcdef1234567890abcdef1234567890abcdef1234567890abcdef6094820152609481526110fc81612f85565b519020600e820155600a8101546000600a830155806114ab575b5060405167ffffffffffffffff906106a08101828111828210176114955760405260348152610680366020830137805191821161149557600160401b821161149557600a83015482600a85015580831061142f575b5060200190600a830160005260206000209060005b8160051c81106113e95750601f198116808203611399575b5050505060005b6034811061137157505060018060a01b036001820154166002820154604051908152837f6200407c0ea392b8107b21a9be480acd41fda186d04bed28cc7da2d4b53d56e260203393a481600052600060205260406000206008810190815460ff811660058110156101c4576113335760ff1916600117825560005b600260ff821610611313575090601560ff8361127461125e6106fc60056112486106fc6004809c9b016131de565b94866009820196168719875416178655016131de565b825461ff00191660089190911b61ff0016178255565b5416036112dd57805462ff000019166201000017905561129383614421565b61129e6002546130fc565b60025560038101805460ff191660011790550155336004357fa31ecd4ef5c4170fc73b952e6c0344155875718dd9892919041e8a449246cb26600080a3005b805460ff19166002179055827f1a327edcf6b43c60a10c1861bae195dec3be71c9a241bd49b8431259ca632045600080a2611293565b61132e9061132086613be8565b611329866133ad565b6131cd565b61121a565b60405162461bcd60e51b815260206004820152601660248201527547616d65206e6f7420696e206f70656e20737461746560501b6044820152606490fd5b8061138261139492600a85016131ad565b60ff82549160031b1b191690556130fc565b61119f565b9260009360005b81840381106113ba5750505060051c015583808080611198565b90919460206113df6001928489511515919060ff809160031b9316831b921b19161790565b96019291016113a0565b6000805b60208110611402575083820155600101611180565b949060206114266001928885511515919060ff809160031b9316831b921b19161790565b920195016113ed565b600a84016000526020600020601f841680611472575b50601f840160051c81015b601f830160051c8201811061146657505061116b565b60008155600101611450565b6000199081601f870160051c8401019182549160200360031b1c16905587611445565b634e487b7160e01b600052604160045260246000fd5b600a82016000526020600020805b601f830160051c820181106114cf575050611116565b600081556001016114b9565b60405162461bcd60e51b8152602060048201526011602482015270131bd8989e481a185cc8195e1c1a5c9959607a1b6044820152606490fd5b60405162461bcd60e51b815260206004820152601460248201527311d85b5948185b1c9958591e481cdd185c9d195960621b6044820152606490fd5b60405162461bcd60e51b8152602060048201526014602482015273125b98dbdc9c9958dd0818995d08185b5bdd5b9d60621b6044820152606490fd5b60405162461bcd60e51b815260206004820152601a60248201527f43616e6e6f74206a6f696e20796f7572206f776e206c6f6262790000000000006044820152606490fd5b60405162461bcd60e51b815260206004820152601060248201526f125b9d985b1a59081b1bd8989e48125160821b6044820152606490fd5b346101fb5760203660031901126101fb576004358060005260006020526040600020600b81015461070881018091116109665742111561169d576008019081549160ff831660058110156101c45761166460048214156143dc565b60028103611687575063010000006116859363ff0000001916179055614421565b005b9192505060031461169457005b61168590614379565b60405162461bcd60e51b815260206004820152601260248201527111d85b59481b9bdd081d1a5b5959081bdd5d60721b6044820152606490fd5b346101fb5760003660031901126101fb5760005b600380548210156116855781600052600160209080825260ff83604060002001541660048110156101c45715806117d9575b611733575b50505061172e906130fc565b6116eb565b83600052808252600260406000208481018560ff19825416179055015483810293818504149015171561096657600084815291819052604082208101549192839283928392901c906001600160a01b03168282156117d0575bf1156117c4578061172e917f5734c28cc1d9ed1e4bdf39023ec1f4a7afbef43831fd767b44a4698de3cccea6600080a2908280611722565b6040513d6000823e3d90fd5b506108fc61178c565b5083600052808252600560406000200154610e10810180911161096657421161171d565b60203660031901126101fb576004356000526000602052604060002061182d60018060a01b038254163314614219565b600881015460ff811660058110156101c457600261184b9114614255565b60048201549060028203611f2b5760ff8160081c1660038110156101c457611ee75760028301549061187e823414614295565b61189b61189661189060048701613338565b50612fdf565b613322565b60ff806118b061189661189060048a0161334d565b16911603611ea35761010091600d85015561ff0019161760088301556118db6118906004840161334d565b908015611e8d5760001901906118f48260048501613368565b929092611e775760006119109355600484015560068301613380565b6004356000526000602052604060002090600a8201549160348303610ee957600e81015461194a6104516004840154600585015490613172565b604051914260208401524460408401526004356060840152608083015260a082015260a0815261197981612f85565b60208151910120604051906020828681520194600a84016000526020600020906000915b81601f840110611ca857966105cc928592611a9c9798995491818110610d0457818110610ceb57818110610cd257818110610cb957818110610ca157818110610c8857818110610c6f57818110610c5657818110610c3d57818110610c2457818110610c0b57818110610bf257818110610bd957818110610bc057818110610ba757818110610b8e57818110610b7557818110610b5c57818110610b4357818110610b2a57818110610b1157818110610af857818110610adf57818110610ac657818110610aad57818110610a9457818110610a7b57818110610a6257818110610a4957818110610a3057818110610a175710610a0757500383612fbd565b9060ff82511660018110159081611c9c575b50156109c15760ff60208301511660018110159081611c90575b501561097c57600d60ff611ae181602086015116613247565b160260ff811690810361096657611b0060ff9161063583865116613247565b1660ff611b1082600a85016131ad565b90549060031b1c1661092d57610667611b2c91600a84016131ad565b9055600881015460281c60ff1615611c3f57611b4b8260068301613380565b60018060a01b039054169060ff602081835116920151166040519182526020820152600060408201526000805160206148c2833981519152606060043592a35b65ff0000000000196501000000000081600884015416176008830155611bb2600435613be8565b6008820154166008820155611bcc6106fc600483016131de565b60ff60098301911660ff19825416179055600b429101556040516004357fdad747603709dae9a6d79283c9d79f7659296db1c2e3779f0f8174a3b64597d5600080a260208152600560208201526414dc1b1a5d60da1b60408201526000805160206148a2833981519152606060043592a2005b611c4c8260048301613380565b60018060a01b039054169060ff602081835116920151166040519182526020820152600060408201526000805160206148c2833981519152606060043592a3611b8b565b60049150111584611ac8565b600d9150111584611aae565b9660016104006020928a5460ff81161515825260ff8160081c1615158583015260ff8160101c161515604083015260ff8160181c161515606083015260ff81861c161515608083015260ff8160281c16151560a083015260ff8160c0828260301c16151581860152828260381c16151560e0860152828260401c161515610100860152828260481c161515610120860152828260501c161515610140860152828260581c161515610160860152828260601c161515610180860152828260681c1615156101a0860152828260701c1615156101c0860152828260781c1615156101e0860152828260801c161515610200860152828260881c161515610220860152828260901c161515610240860152828260981c161515610260860152828260a01c161515610280860152828260a81c1615156102a0860152828260b01c1615156102c0860152828260b81c1615156102e08601521c16151561030083015260ff8160c81c16151561032083015260ff8160d01c16151561034083015260ff8160d81c16151561036083015260ff8160e01c16151561038083015260ff8160e81c1615156103a083015260ff8160f01c1615156103c083015260f81c15156103e082015201980192019161199d565b634e487b7160e01b600052600060045260246000fd5b634e487b7160e01b600052603160045260246000fd5b606460405162461bcd60e51b815260206004820152602060248201527f43616e206f6e6c792073706c697420657175616c2076616c75652063617264736044820152fd5b606460405162461bcd60e51b815260206004820152602060248201527f43616e6e6f742073706c6974206166746572206f7468657220616374696f6e736044820152fd5b60405162461bcd60e51b815260206004820152601b60248201527f43616e206f6e6c792073706c697420696e697469616c2068616e6400000000006044820152606490fd5b346101fb5760203660031901126101fb57600435806000526000602052604060002090611faa60018060a01b0360018401541633146142e1565b60ff60088301541660058110156101c4577f17931d977fe8fe498db2fb3e401f5cd4b7e726151a15407892fe6fe0fcb65daf602060ff600961168596611ff36003889714614339565b857fbf4b56bbb9bdb14e56bbe6172af19ea0186e1d51e3e595cd7680fc02ad786abb6040518061203d8160609060208152600560208201526414dd185b9960da1b60408201520190565b0390a2015460081c16604051908152a2614421565b346101fb5760203660031901126101fb5760043580600052600160205260406000209060018060a01b036001830154169182330361211a57600381019081549160ff831660048110156101c4576002936120ae60039215613135565b60ff191617905501546003810290808204600314901517156109665760008080809360011c8096828215612111575bf1156117c4576040519182527f901c4b3ed78d5e3b588d41243171cd614027f155b6ab58c0af1b6c75ca66d1e160203393a3005b506108fc6120dd565b60405162461bcd60e51b815260206004820152601460248201527313db9b1e481a1bdcdd0818d85b8818d85b98d95b60621b6044820152606490fd5b346101fb5760203660031901126101fb57600435806000526000602052604060002061218c60018060a01b038254163314614219565b60088101805460ff811660058110156101c45760026121ab9114614255565b60ff8160081c1660038110156101c457600114806122d6575b156122995750600c8201805460ff19908116600117909155815465ff0000000000191665010000000000179091556122016106fc600684016131de565b9060ff60098401921690825416179055816000805160206148a2833981519152604051806122588160609060208152601460208201527314ddda5d18da081d1bc81cdc1b1a5d081a185b9960621b60408201520190565b0390a25b600b429101556000805160206148a2833981519152604051806107648160609060208152600560208201526414dd185b9960da1b60408201520190565b60ff19166003179055817fff773149b0a6d40de7532b973a8039a54964a8c109ea0b4c6e88bb04e15bbe12600080a26122d182614379565b61225c565b5060ff600c84015416156121c4565b346101fb5760003660031901126101fb576020600454604051908152f35b346101fb5760003660031901126101fb576020600354604051908152f35b346101fb5760203660031901126101fb57600435600052600060205261235c61235060046040600020016131de565b60405191829182613001565b0390f35b346101fb5760203660031901126101fb57600435600052600160205260c0604060002080549060018060a01b03600182015416906123ca600282015460ff60038401541690600560048501549401549460405196875260208701526040860152606085019061305c565b608083015260a0820152f35b346101fb576020806003193601126101fb5760043590816000526000815260406000209061241160018060a01b0360018401541633146142e1565b60088201805460ff81169060058210156101c457612433600360ff9314614339565b831c1661253657908391612446836133ad565b601560ff6124596106fc600588016131de565b6124786009880191829061ff0082549160081b169061ff001916179055565b5460081c16116124d3575b505050600b429101557fbf4b56bbb9bdb14e56bbe6172af19ea0186e1d51e3e595cd7680fc02ad786abb6040518061076481606090602081526003602082015262121a5d60ea1b60408201520190565b7fbf4b56bbb9bdb14e56bbe6172af19ea0186e1d51e3e595cd7680fc02ad786abb9160609164010000000064ff000000001982541617905560046040519180835282015263109d5cdd60e21b6040820152a261252e82614421565b818380612483565b60405162461bcd60e51b81526004810183905260156024820152741119585b195c88185b1c9958591e48189d5cdd1959605a1b6044820152606490fd5b60003660031901126101fb57600454600390818102908082048314901517156109665760011c341015806126dd575b15612698573460011b34810460021434151715610966578190048154906040516125cb81612f85565b82815260208101338152604082019383855260608301946000865260808401926000845260a08501924284526000526001602052604060002094518555600185019060018060a01b039051166bffffffffffffffffffffffff60a01b82541617905551600284015585830194519160048310156101c4576126949560059360ff8019835416911617905551600484015551910155825490604051908152817f0e5627a685207c8ab30875dcf6fa55cfe897bd9243ce8f1944c283a3d76a310360203393a36130fc565b9055005b60405162461bcd60e51b815260206004820152601b60248201527f496e76616c6964206465616c6572207374616b6520616d6f756e7400000000006044820152606490fd5b50600554818102908082048314901517156109665760011c3411156125a2565b346101fb5760203660031901126101fb57600435600052600060205261235c61235060066040600020016131de565b346101fb5760003660031901126101fb576020600554604051908152f35b346101fb5760003660031901126101fb576020600254604051908152f35b60203660031901126101fb576004356000526000602052604060002061279860018060a01b038254163314614219565b600881015460ff811660058110156101c45760026127b69114614255565b6002600483015403612dda5760028201908154916127d5833414614295565b60ff8260081c1660038110156101c457612d95576127f7610200933490613172565b905561ff0019161760088201556004356000526000602052604060002090600a8201549160348303610ee957600e81015461283e6104516004840154600585015490613172565b604051914260208401524460408401526004356060840152608083015260a082015260a0815261286d81612f85565b60208151910120604051906020828681520194600a84016000526020600020906000915b81601f840110612bc657966105cc9285926129909798995491818110610d0457818110610ceb57818110610cd257818110610cb957818110610ca157818110610c8857818110610c6f57818110610c5657818110610c3d57818110610c2457818110610c0b57818110610bf257818110610bd957818110610bc057818110610ba757818110610b8e57818110610b7557818110610b5c57818110610b4357818110610b2a57818110610b1157818110610af857818110610adf57818110610ac657818110610aad57818110610a9457818110610a7b57818110610a6257818110610a4957818110610a3057818110610a175710610a0757500383612fbd565b9060ff82511660018110159081612bba575b50156109c15760ff60208301511660018110159081612bae575b501561097c57600d60ff6129d581602086015116613247565b160260ff8116908103610966576129f460ff9161063583865116613247565b1660ff612a0482600a85016131ad565b90549060031b1c1661092d57610667612a2091600a84016131ad565b9055600881015460281c60ff1615612b5d57612a3f8260068301613380565b60018060a01b039054169060ff602081835116920151166040519182526020820152600060408201526000805160206148c2833981519152606060043592a35b612a8e6106fc600483016131de565b601560ff60098401921660ff1992818482541617905511600014612b3e5750630100000063ff00000019600883015416176008820155604051600081527f28de5caf9fe9f11f1835aaec134bc9036528a0979f3503852cef0f8cfbc82bb9602060043592a2612afe600435614421565b600b4291015560405160208152600b60208201526a2237bab13632902237bbb760a91b60408201526000805160206148a2833981519152606060043592a2005b600390600883015416176008820155612b58600435614379565b612afe565b612b6a8260048301613380565b60018060a01b039054169060ff602081835116920151166040519182526020820152600060408201526000805160206148c2833981519152606060043592a3612a7f565b600491501115846129bc565b600d91501115846129a2565b9660016104006020928a5460ff81161515825260ff8160081c1615158583015260ff8160101c161515604083015260ff8160181c161515606083015260ff81861c161515608083015260ff8160281c16151560a083015260ff8160c0828260301c16151581860152828260381c16151560e0860152828260401c161515610100860152828260481c161515610120860152828260501c161515610140860152828260581c161515610160860152828260601c161515610180860152828260681c1615156101a0860152828260701c1615156101c0860152828260781c1615156101e0860152828260801c161515610200860152828260881c161515610220860152828260901c161515610240860152828260981c161515610260860152828260a01c161515610280860152828260a81c1615156102a0860152828260b01c1615156102c0860152828260b81c1615156102e08601521c16151561030083015260ff8160c81c16151561032083015260ff8160d01c16151561034083015260ff8160d81c16151561036083015260ff8160e01c16151561038083015260ff8160e81c1615156103a083015260ff8160f01c1615156103c083015260f81c15156103e0820152019801920191612891565b60405162461bcd60e51b815260206004820152601960248201527f43616e6e6f7420646f75626c652061667465722073706c6974000000000000006044820152606490fd5b60405162461bcd60e51b8152602060048201526024808201527f43616e206f6e6c7920646f75626c6520646f776e206f6e20696e697469616c206044820152631a185b9960e21b6064820152608490fd5b346101fb5760203660031901126101fb57600435600052600060205261235c61235060056040600020016131de565b346101fb5760203660031901126101fb576004356000526000602052604060002060018060a01b038082541690600183015416600283015492600381015493600782015494600883015460ff8160081c1696612eb860098601612fdf565b90600b8601549360ff600c8801541695600e600d890154980154986040519a8b5260208b015260408a015260608901526080880152600560ff831610156101c45760ff821660a088015260038810156101c45760ff612f69926102209960c08a0152818160101c16151560e08a0152818160181c1615156101008a0152818160201c1615156101208a015260281c16151561014088015261016087019060ff60208092828151168552015116910152565b6101a085015215156101c08401526101e0830152610200820152f35b60c0810190811067ffffffffffffffff82111761149557604052565b6040810190811067ffffffffffffffff82111761149557604052565b90601f8019910116810190811067ffffffffffffffff82111761149557604052565b90604051612fec81612fa1565b602060ff829454818116845260081c16910152565b60208082019080835283518092528060408094019401926000905b83821061302b57505050505090565b909192939483828261304f6001948a5160ff60208092828151168552015116910152565b019601949392019061301c565b9060048210156101c45752565b67ffffffffffffffff81116114955760051b60200190565b9061308b82613069565b60409061309a82519182612fbd565b83815280936130ab601f1991613069565b019160005b8381106130bd5750505050565b60209082516130cb81612f85565b60008152826000818301526000858301526000606083015260006080830152600060a08301528286010152016130b0565b60001981146109665760010190565b805182101561311f5760209160051b010190565b634e487b7160e01b600052603260045260246000fd5b1561313c57565b60405162461bcd60e51b815260206004820152600e60248201526d2637b1313c903737ba1037b832b760911b6044820152606490fd5b9190820180921161096657565b60ff60206131ab9382815116831985541617845501511661ff0082549160081b169061ff001916179055565b565b919091805483101561311f57600052601f60206000208360051c01921690565b60ff1660ff81146109665760010190565b9081546131ea81613069565b926131f86040519485612fbd565b818452600090815260208082208186015b848410613217575050505050565b600183819261322585612fdf565b815201920193019290613209565b9060ff8091169116019060ff821161096657565b60ff6000199116019060ff821161096657565b600080805b83519060ff91828516908110156132d557600183613290613289613283858b61310b565b51613322565b938961310b565b515116036132c05750816132a5600b926131cd565b931601908111610966576132b990926131cd565b919061325f565b6132b992506132cf9193613233565b926131cd565b5093505090505b60ff90818116906015821180613317575b1561331057506009190181811161096657911680156109665760001901906132dc565b9250505090565b5082841615156132ed565b5160ff16600a8111156133355750600a90565b90565b80541561311f57600052602060002090600090565b80546001101561311f57600052600160206000200190600090565b805482101561311f5760005260206000200190600090565b8054600160401b8110156114955761339d91600182018155613368565b919091611e77576131ab9161317f565b806000526000602052604060002090600a82015460348103610ee957600e83015460049182850154916133f46133e96005880194855490613172565b600688015490613172565b604051906020820192428452446040840152876060840152608083015260a082015260a0815261342381612f85565b519020604051906020828481520192600a88016000526020600020906000915b81601f840110613a1f57946105cc92859261355f975491818110613a09575b8181106139f0575b8181106139d7575b8181106139be575b8181106139a6575b81811061398d575b818110613974575b81811061395b575b818110613942575b818110613929575b818110613910575b8181106138f7575b8181106138de575b8181106138c5575b8181106138ac575b818110613893575b81811061387a575b818110613861575b818110613848575b81811061382f575b818110613816575b8181106137fd575b8181106137e4575b8181106137cb575b8181106137b2575b818110613799575b818110613780575b818110613767575b81811061374e575b818110613735575b81811061371c575b1061370c57500383612fbd565b9360ff918286511660018110159081613700575b50156136c75760208601938385511681600182101591826136bc575b50501561368457600d846135a581885116613247565b160284811690810361366f576135c28591610635838b5116613247565b1690846135d283600a87016131ad565b90549060031b1c1661363757509282613610888394613609610667606099600a6000805160206148c28339815191529c9a016131ad565b9055613380565b6001808060a01b0391015416965116915116604051918252602082015260016040820152a3565b60649060206040519162461bcd60e51b8352820152601160248201527010d85c9908185b1c9958591e481d5cd959607a1b6044820152fd5b601182634e487b7160e01b6000525260246000fd5b60649060206040519162461bcd60e51b83528201526011602482015270125b9d985b1a590818d85c99081cdd5a5d607a1b6044820152fd5b11159050813861358f565b60405162461bcd60e51b81526020818601526012602482015271496e76616c696420636172642076616c756560701b6044820152606490fd5b600d9150111538613573565b60f81c15158152602001386105c4565b92602060019160ff8560f01c1615158152019301613552565b92602060019160ff8560e81c161515815201930161354a565b92602060019160ff8560e01c1615158152019301613542565b92602060019160ff8560d81c161515815201930161353a565b92602060019160ff8560d01c1615158152019301613532565b92602060019160ff8560c81c161515815201930161352a565b92602060019160ff8560c01c1615158152019301613522565b92602060019160ff8560b81c161515815201930161351a565b92602060019160ff8560b01c1615158152019301613512565b92602060019160ff8560a81c161515815201930161350a565b92602060019160ff8560a01c1615158152019301613502565b92602060019160ff8560981c16151581520193016134fa565b92602060019160ff8560901c16151581520193016134f2565b92602060019160ff8560881c16151581520193016134ea565b92602060019160ff8560801c16151581520193016134e2565b92602060019160ff8560781c16151581520193016134da565b92602060019160ff8560701c16151581520193016134d2565b92602060019160ff8560681c16151581520193016134ca565b92602060019160ff8560601c16151581520193016134c2565b92602060019160ff8560581c16151581520193016134ba565b92602060019160ff8560501c16151581520193016134b2565b92602060019160ff8560481c16151581520193016134aa565b92602060019160ff8560401c16151581520193016134a2565b92602060019160ff8560381c161515815201930161349a565b92602060019160ff8560301c1615158152019301613492565b92602060019160ff8560281c161515815201930161348a565b92602060019160ff85831c1615158152019301613482565b92602060019160ff8560181c161515815201930161347a565b92602060019160ff8560101c1615158152019301613472565b92602060019160ff8560081c161515815201930161346a565b92602060019160ff851615158152019301613462565b9293946001610400602092865460ff80821615158352808260081c16151586840152808260101c1615156040840152808260181c16151560608401528082871c1615156080840152808260281c16151560a0840152808260c0828260301c16151581870152828260e092828260381c161515848a0152828260401c1615156101008a0152828260481c1615156101208a0152828260501c1615156101408a0152828260581c1615156101608a0152828260601c1615156101808a0152828260681c1615156101a08a0152828260701c1615156101c08a0152828260781c1615156101e08a0152828260801c1615156102008a0152828260881c1615156102208a0152828260901c1615156102408a0152828260981c1615156102608a0152828260a01c1615156102808a0152828260a81c1615156102a08a0152828260b01c1615156102c08a0152828260b81c1615156102e08a01521c161515610300870152828260c81c161515610320870152828260d01c161515610340870152828260d81c1615156103608701521c161515610380840152808260e81c1615156103a08401528160f01c1615156103c083015260f81c15156103e082015201940192019194939294613443565b908160005260006020526040600020600a8101549260348403610ee957600e820154916004810192613c236104518554600585015490613172565b60405191426020840152446040840152846060840152608083015260a082015260a08152613c5081612f85565b60208151910120604051906020828881520196600a84016000526020600020906000915b81601f840110613e7c57986105cc928592613d759798999a9b5491818110613a09578181106139f0578181106139d7578181106139be578181106139a65781811061398d578181106139745781811061395b578181106139425781811061392957818110613910578181106138f7578181106138de578181106138c5578181106138ac578181106138935781811061387a57818110613861578181106138485781811061382f57818110613816578181106137fd578181106137e4578181106137cb578181106137b25781811061379957818110613780578181106137675781811061374e578181106137355781811061371c571061370c57500383612fbd565b9260ff8085511660018110159081613e70575b50156109c15760208501908082511660018110159081613e64575b501561097c57600d81613db881855116613247565b160281811690810361096657613dd58291610635838a5116613247565b1681613de482600a88016131ad565b90549060031b1c1661092d5784606094613e146106678594600a6000805160206148c28339815191529a016131ad565b90558883600884015460281c16600014613e5b57613e36915060068301613380565b60018060a01b03905416965116915116604051918252602082015260006040820152a3565b613e3691613380565b60049150111538613da3565b600d9150111538613d88565b9860016104006020928c5460ff80821615158352808260081c16151586840152808260101c1615156040840152808260181c16151560608401528082871c1615156080840152808260281c16151560a0840152808260c0828260301c16151581870152828260e092828260381c161515848a0152828260401c1615156101008a0152828260481c1615156101208a0152828260501c1615156101408a0152828260581c1615156101608a0152828260601c1615156101808a0152828260681c1615156101a08a0152828260701c1615156101c08a0152828260781c1615156101e08a0152828260801c1615156102008a0152828260881c1615156102208a0152828260901c1615156102408a0152828260981c1615156102608a0152828260a01c1615156102808a0152828260a81c1615156102a08a0152828260b01c1615156102c08a0152828260b81c1615156102e08a01521c161515610300870152828260c81c161515610320870152828260d01c161515610340870152828260d81c1615156103608701521c161515610380840152808260e81c1615156103a08401528160f01c1615156103c083015260f81c15156103e0820152019a01920191613c74565b91909160409283519261405184612fa1565b600080855280602080960152603493848451036141d5578190825b8681106141a15750811561416857068193825b8681106140c357885162461bcd60e51b815260048101899052601660248201527510d85c990819d95b995c985d1a5bdb8819985a5b195960521b6044820152606490fd5b6140cd818361310b565b51156140e2575b6140dd906130fc565b61407f565b948281146140fe576140f66140dd916130fc565b9590506140d4565b50505093925093600d90818306946001928387018097116141545760ff940492830180931161414057508290519461413586612fa1565b168452169082015290565b634e487b7160e01b81526011600452602490fd5b634e487b7160e01b82526011600452602482fd5b875162461bcd60e51b81526004810188905260126024820152714e6f20636172647320617661696c61626c6560701b6044820152606490fd5b6141ab818761310b565b51156141c0575b6141bb906130fc565b61406c565b916141cd6141bb916130fc565b9290506141b2565b865162461bcd60e51b815260048101879052601f60248201527f496e76616c69642075736564206361726473206172726179206c656e677468006044820152606490fd5b1561422057565b60405162461bcd60e51b815260206004820152600d60248201526c4e6f7420796f75722067616d6560981b6044820152606490fd5b1561425c57565b60405162461bcd60e51b81526020600482015260116024820152702737ba10383630bcb2b913b9903a3ab93760791b6044820152606490fd5b1561429c57565b60405162461bcd60e51b815260206004820152601760248201527f4d757374206d61746368206f726967696e616c206265740000000000000000006044820152606490fd5b156142e857565b60405162461bcd60e51b815260206004820152602360248201527f4f6e6c79206465616c65722063616e20706572666f726d20746869732061637460448201526234b7b760e91b6064820152608490fd5b1561434057565b60405162461bcd60e51b81526020600482015260116024820152702737ba103232b0b632b913b9903a3ab93760791b6044820152606490fd5b60008181528060205260ff60086040832001541660058110156143c857906143c460037fff773149b0a6d40de7532b973a8039a54964a8c109ea0b4c6e88bb04e15bbe129314614339565b80a2565b634e487b7160e01b82526021600452602482fd5b156143e357565b60405162461bcd60e51b815260206004820152601660248201527511d85b5948185b1c9958591e4818dbdb5c1b195d195960521b6044820152606490fd5b8060005260006020526040600020600881015460ff811660058110156101c457600461444e9114156143dc565b60098201549060028301549061448360ff8260101c1660ff8360201c1660ff8460181c168560ff8860081c1660ff89166147cc565b92600360ff8360081c1610156101c457600160ff8360081c1614614730575b8315918261463d57505050506040516144ba81612fa1565b600b81526a506c617965722057696e7360a81b602082015260005b828015801561460e575b5050801580156145dc575b5050908391600960ff19946004866008830154161760088201550154604051926080845282519283608086015260005b8481106145c4575050928260ff60a0937fbf4748a755ed16d5acf240ef7b8b8c54be4a1abc68dee208a707588adcde4fa1966000868698870101526020850152818116604085015260081c166060830152601f80199101168101030190a260005b6003548110156145bf578060005260016020526040600020836004820154146145ad57506145a8906130fc565b61457b565b60030180549092166002179091555050565b505050565b602082820181015160a088840101528997500161451a565b6000808093819360018060a01b0360018a015416908390614605575bf1156117c45738806144ea565b506108fc6145f8565b6000808093819360018060a01b038a5416908390614634575bf1156117c45782386144df565b506108fc614627565b929350909182614720575b82614711575b50816146fe575b50156146b75760405161466781612fa1565b60048152630a0eae6d60e31b6020820152600d8301549161469761468b8483613172565b93600386015492613172565b8103908111156144d557634e487b7160e01b600052601160045260246000fd5b6040516146c381612fa1565b600b81526a4465616c65722057696e7360a81b60208201526146f96146ee6000936003860154613172565b600d85015490613172565b6144d5565b905060ff808260081c1691161438614655565b60201c60ff161591503861464e565b915060ff8260181c161591614648565b926147709061476a6147476106fc600689016131de565b60ff8560201c1690601560ff82161190600d8a01549060ff8a60081c1690614776565b90613172565b926144a2565b92939091936147c35780156147b4575b61479c5760ff8091169116146133355750600090565b50508060011b90808204600214901517156109665790565b5060ff811660ff831611614786565b50505050600090565b9391949092614834578061482c575b8061481e575b6148015780156147b45761479c5760ff8091169116146133355750600090565b505050609681029080820460961490151715610966576064900490565b50601560ff831614156147e1565b5080156147db565b5050505050600090565b6004810190600282541490811591614884575b5061487e5760ff8061487761189661189061487161189661189088613338565b9561334d565b1691161490565b50600090565b60ff91506008015460081c1660038110156101c45715153861485156fecc08a4f861b097fd68048e30e86ac2db48198da16ddce9c022c76d60cfe4ae53a3b3e2532a51907c70564d7eb439a729f06dc722d859e88561a31f9a1579ecb6a2646970667358221220c7c0cc51cdf6e2ef318829f0f66f1c4b0908a244c4d69b4ab599c9aecf7f5bea64736f6c63430008150033",
  "immutableReferences": {},
  "source": "// SPDX-License-Identifier: MIT\npragma solidity ^0.8.21;\n\nimport \"./CardLib.sol\";\n\ncontract Blackjack {\n    using CardLib for CardLib.Card;\n\n    // Enums\n    enum LobbyStatus { Open, InProgress, Completed, Cancelled }\n    enum GameState { Open, Dealing, PlayerTurn, DealerTurn, Complete }\n    enum ActionState { None, Split, Doubled }\n\n    // Constants\n    uint8 constant DEALER_MIN_STAND = 17;\n    uint8 constant BLACKJACK = 21;\n    uint8 constant ACE_HIGH = 11;\n    uint8 constant ACE_LOW = 1;\n    uint256 constant BLACKJACK_MULTIPLIER = 150; // 3:2 payout\n    uint256 constant NORMAL_MULTIPLIER = 200;    // 2:1 payout\n    uint256 constant MULTIPLIER_BASE = 100;      // Base for multiplier calculations\n    uint256 constant LOBBY_TIMEOUT = 1 hours;\n    uint256 constant GAME_TIMEOUT = 30 minutes;\n    bytes32 constant SALT_BASE = 0x1234567890abcdef1234567890abcdef1234567890abcdef1234567890abcdef;\n\n    // Using CardLib's Card struct\n    using CardLib for CardLib.Card;\n\n    // Card struct is now part of CardLib\n\n    // Scores struct to store player and dealer scores\n    struct Scores {\n        uint8 playerScore;\n        uint8 dealerScore;\n    }\n\n    // Lobby struct to handle game creation and joining\n    struct Lobby {\n        uint256 lobbyId;\n        address payable host;\n        uint256 betAmount;\n        LobbyStatus status;\n        uint256 gameId;\n        uint256 creationTime;\n    }\n\n    // Game struct to store all game-related data\n    struct Game {\n        address payable player;\n        address payable dealer;\n        uint256 betAmount;\n        uint256 dealerStake;\n        CardLib.Card[] playerHand;\n        CardLib.Card[] dealerHand;\n        CardLib.Card[] splitHand;\n        uint256 gameId;\n        GameState state;\n        ActionState actionState;\n        bool isBlackjack;\n        bool playerBusted;\n        bool dealerBusted;\n        bool isSplitHand;\n        Scores scores;\n        bool[] usedCards;\n        uint256 lastActionTime;\n        bool splitHandCompleted;\n        uint256 splitBetAmount;\n        bytes32 randomnessCommit;\n    }\n\n    // State variables\n    mapping(uint256 => Game) public games;\n    mapping(uint256 => Lobby) public lobbies;\n    uint256 public gameCounter;\n    uint256 public lobbyCounter;\n    uint256 public minBet;\n    uint256 public maxBet;\n\n    // Events\n    event LobbyCreated(uint256 indexed lobbyId, address indexed host, uint256 betAmount);\n    event LobbyJoined(uint256 indexed lobbyId, address indexed player);\n    event LobbyCancelled(uint256 indexed lobbyId, address indexed host, uint256 refundAmount);\n    event LobbyTimeout(uint256 indexed lobbyId);\n    event GameCreated(uint256 indexed gameId, address indexed player, address indexed dealer, uint256 betAmount);\n    event CardDealt(uint256 indexed gameId, address indexed recipient, uint8 value, uint8 suit, bool isDealer);\n    event PlayerAction(uint256 indexed gameId, string action);\n    event SplitHandStarted(uint256 indexed gameId);\n    event HandBusted(uint256 indexed gameId, bool isSplitHand);\n    event DealerAction(uint256 indexed gameId, string action);\n    event DealerTurnComplete(uint256 indexed gameId, uint8 dealerScore);\n    event GameComplete(uint256 indexed gameId, string result, uint256 payout, uint8 playerScore, uint8 dealerScore);\n    event PlayerTurn(uint256 indexed gameId);\n    event DealerTurn(uint256 indexed gameId);\n\n    constructor(uint256 _minBet, uint256 _maxBet) {\n        require(_minBet > 0 && _maxBet >= _minBet, \"Invalid bet amounts\");\n        minBet = _minBet;\n        maxBet = _maxBet;\n    }\n\n    // Get All Open Lobbies\n    function getOpenLobbies() external view returns (Lobby[] memory) {\n        Lobby[] memory openLobbies = new Lobby[](lobbyCounter);\n        uint256 openLobbiesCount = 0;\n\n        for (uint256 i = 0; i < lobbyCounter; i++) {\n            if (lobbies[i].status == LobbyStatus.Open) {\n                openLobbies[openLobbiesCount] = lobbies[i];\n                openLobbiesCount++;\n            }\n        }\n\n        // Trim the array to the actual number of open lobbies\n        Lobby[] memory trimmedLobbies = new Lobby[](openLobbiesCount);\n        for (uint256 i = 0; i < openLobbiesCount; i++) {\n            trimmedLobbies[i] = openLobbies[i];\n        }\n\n        return trimmedLobbies;\n    }\n\n    // Create a new lobby\n    function createLobby() external payable {\n        require(msg.value >= minBet * 3 / 2 && msg.value <= maxBet * 3 / 2, \"Invalid dealer stake amount\");\n\n        uint256 betAmount = msg.value * 2 / 3; // Dealer stakes 1.5x the bet amount\n        lobbies[lobbyCounter] = Lobby({\n            lobbyId: lobbyCounter,\n            host: payable(msg.sender),\n            betAmount: betAmount,\n            status: LobbyStatus.Open,\n            gameId: 0,\n            creationTime: block.timestamp\n        });\n\n        emit LobbyCreated(lobbyCounter, msg.sender, betAmount);\n        lobbyCounter++;\n    }\n\n    // Cancel lobby\n    function cancelLobby(uint256 lobbyId) external {\n        Lobby storage lobby = lobbies[lobbyId];\n        require(msg.sender == lobby.host, \"Only host can cancel\");\n        require(lobby.status == LobbyStatus.Open, \"Lobby not open\");\n\n        lobby.status = LobbyStatus.Cancelled;\n        uint256 refundAmount = lobby.betAmount * 3 / 2;\n        lobby.host.transfer(refundAmount);\n\n        emit LobbyCancelled(lobbyId, msg.sender, refundAmount);\n    }\n\n    // Join an existing lobby and start the game\n    function joinLobby(uint256 lobbyId) external payable {\n        Lobby storage lobby = lobbies[lobbyId];\n        require(lobbyId < lobbyCounter, \"Invalid lobby ID\");\n        require(lobby.status == LobbyStatus.Open, \"Lobby not open\");\n        require(msg.sender != lobby.host, \"Cannot join your own lobby\");\n        require(msg.value == lobby.betAmount, \"Incorrect bet amount\");\n        require(lobby.gameId == 0, \"Game already started\");\n        require(block.timestamp <= lobby.creationTime + LOBBY_TIMEOUT, \"Lobby has expired\");\n\n        // Start the game\n        uint256 gameId = _startGame(lobby, msg.sender);\n\n        // Update lobby status\n        lobby.status = LobbyStatus.InProgress;\n        lobby.gameId = gameId;\n\n        emit LobbyJoined(lobbyId, msg.sender);\n    }\n\n    // Cleanup timed-out lobbies\n    function cleanupTimedOutLobbies() external {\n        for (uint256 i = 0; i < lobbyCounter; i++) {\n            if (\n                lobbies[i].status == LobbyStatus.Open &&\n                block.timestamp > lobbies[i].creationTime + LOBBY_TIMEOUT\n            ) {\n                lobbies[i].status = LobbyStatus.Cancelled;\n                uint256 refundAmount = lobbies[i].betAmount * 3 / 2;\n                lobbies[i].host.transfer(refundAmount);\n                emit LobbyTimeout(i);\n            }\n        }\n    }\n\n    // Internal function to start a new game\n    function _startGame(Lobby storage lobby, address player) internal returns (uint256) {\n        uint256 currentGameId = gameCounter;\n\n        // Initialize game\n        Game storage newGame = games[currentGameId];\n        newGame.player = payable(player);\n        newGame.dealer = lobby.host;\n        newGame.betAmount = lobby.betAmount;\n        newGame.dealerStake = lobby.betAmount * 3 / 2;\n        newGame.gameId = currentGameId;\n        newGame.state = GameState.Open;\n        newGame.actionState = ActionState.None;\n        newGame.isBlackjack = false;\n        newGame.playerBusted = false;\n        newGame.dealerBusted = false;\n        newGame.isSplitHand = false;\n        newGame.scores = Scores(0, 0);\n        newGame.lastActionTime = block.timestamp;\n        newGame.splitHandCompleted = false;\n        newGame.splitBetAmount = 0;\n        newGame.randomnessCommit = _generateCommit(currentGameId);\n\n        // Initialize usedCards array with proper length\n        delete newGame.usedCards;\n        newGame.usedCards = new bool[](52);\n        for (uint256 i = 0; i < 52; i++) {\n            newGame.usedCards[i] = false;\n        }\n\n        emit GameCreated(currentGameId, player, lobby.host, lobby.betAmount);\n\n        // Deal initial cards\n        _dealInitialCards(currentGameId);\n\n        gameCounter++;\n        return currentGameId;\n    }\n\n    // Internal function to deal initial cards\n    function _dealInitialCards(uint256 gameId) internal {\n        Game storage game = games[gameId];\n        require(game.state == GameState.Open, \"Game not in open state\");\n\n        game.state = GameState.Dealing;\n\n        // Deal two cards each to player and dealer\n        for (uint8 i = 0; i < 2; i++) {\n            _dealCard(gameId, false); // To player\n            _dealCard(gameId, true);  // To dealer\n        }\n\n        // Calculate initial scores\n        game.scores.playerScore = CardLib.calculateHandValue(game.playerHand);\n        game.scores.dealerScore = CardLib.calculateHandValue(game.dealerHand);\n\n        // Check for blackjack\n        if (game.scores.playerScore == BLACKJACK) {\n            game.isBlackjack = true;\n            _endGame(gameId);\n        } else {\n            game.state = GameState.PlayerTurn;\n            emit PlayerTurn(gameId); // Emit PlayerTurn event\n        }\n    }\n\n    // Internal function to deal a single card\n    function _dealCard(uint256 gameId, bool toDealer) internal {\n        Game storage game = games[gameId];\n        require(game.usedCards.length == 52, \"Card tracking not initialized\");\n\n        // Generate a unique seed for randomness\n        uint256 seed = uint256(keccak256(abi.encodePacked(\n            block.timestamp,\n            block.prevrandao,\n            gameId,\n            game.randomnessCommit,\n            game.playerHand.length + game.dealerHand.length + game.splitHand.length\n        )));\n\n        // Generate a random card that hasn't been used\n        CardLib.Card memory newCard = CardLib.generateRandomCard(seed, game.usedCards);\n        \n        // Mark the card as used\n        uint256 cardIndex = CardLib.getCardIndex(newCard);\n        require(!game.usedCards[cardIndex], \"Card already used\");\n        game.usedCards[cardIndex] = true;\n\n        // Add card to appropriate hand\n        if (toDealer) {\n            game.dealerHand.push(newCard);\n            emit CardDealt(gameId, game.dealer, newCard.value, newCard.suit, true);\n        } else if (game.isSplitHand) {\n            game.splitHand.push(newCard);\n            emit CardDealt(gameId, game.player, newCard.value, newCard.suit, false);\n        } else {\n            game.playerHand.push(newCard);\n            emit CardDealt(gameId, game.player, newCard.value, newCard.suit, false);\n        }\n    }\n\n    // Internal helper to check if a card has already been used\n    function _isCardUsed(Game storage game, CardLib.Card memory card) internal view returns (bool) {\n        uint256 cardIndex = (card.suit - 1) * 13 + (card.value - 1);\n        return game.usedCards[cardIndex];\n    }\n\n    // Internal helper to mark a card as used\n    function _markCardAsUsed(Game storage game, CardLib.Card memory card) internal {\n        uint256 cardIndex = (card.suit - 1) * 13 + (card.value - 1);\n        game.usedCards[cardIndex] = true;\n    }\n\n    // Player action: Hit\n    function hit(uint256 gameId) external {\n        Game storage game = games[gameId];\n        require(msg.sender == game.player, \"Not your game\");\n        require(game.state == GameState.PlayerTurn, \"Not player's turn\");\n        require(!game.playerBusted, \"Player already busted\");\n\n        // Deal card\n        _dealCard(gameId, false);\n\n        // Update the correct hand's score\n        if (game.isSplitHand) {\n            game.scores.playerScore = CardLib.calculateHandValue(game.splitHand);\n        } else {\n            game.scores.playerScore = CardLib.calculateHandValue(game.playerHand);\n        }\n\n        if (game.scores.playerScore > BLACKJACK) {\n            game.playerBusted = true;\n            if (game.actionState == ActionState.Split && !game.splitHandCompleted) {\n                // Switch to split hand\n                game.splitHandCompleted = true;\n                game.isSplitHand = true;\n                game.playerBusted = false;\n                game.scores.playerScore = CardLib.calculateHandValue(game.splitHand);\n                emit PlayerAction(gameId, \"Switch to split hand\");\n                emit PlayerTurn(gameId); // Emit PlayerTurn for split hand\n            } else {\n                emit HandBusted(gameId, game.isSplitHand);\n                _endGame(gameId);\n            }\n        }\n\n        game.lastActionTime = block.timestamp;\n        emit PlayerAction(gameId, \"Hit\");\n    }\n\n\n    // Player action: Stand\n    function stand(uint256 gameId) external {\n        Game storage game = games[gameId];\n        require(msg.sender == game.player, \"Not your game\");\n        require(game.state == GameState.PlayerTurn, \"Not player's turn\");\n\n        if (game.actionState == ActionState.Split && !game.splitHandCompleted) {\n            // Switch to the split hand\n            game.splitHandCompleted = true;\n            game.isSplitHand = true;\n            game.scores.playerScore = CardLib.calculateHandValue(game.splitHand);\n            emit PlayerAction(gameId, \"Switch to split hand\");\n        } else {\n            game.state = GameState.DealerTurn;\n            emit DealerTurn(gameId); // Emit DealerTurn event\n            _dealerTurn(gameId);\n        }\n\n        game.lastActionTime = block.timestamp;\n        emit PlayerAction(gameId, \"Stand\");\n    }\n\n\n    // Player action: Double Down\n    function doubleDown(uint256 gameId) external payable {\n        Game storage game = games[gameId];\n        require(msg.sender == game.player, \"Not your game\");\n        require(game.state == GameState.PlayerTurn, \"Not player's turn\");\n        require(game.playerHand.length == 2, \"Can only double down on initial hand\");\n        require(msg.value == game.betAmount, \"Must match original bet\");\n        require(game.actionState == ActionState.None, \"Cannot double after split\");\n\n        game.betAmount += msg.value;\n        game.actionState = ActionState.Doubled;\n\n        // Deal one card and end player's turn\n        _dealCard(gameId, false);\n        game.scores.playerScore = CardLib.calculateHandValue(game.playerHand);\n\n        if (game.scores.playerScore > BLACKJACK) {\n            game.playerBusted = true;\n            emit HandBusted(gameId, false);\n            _endGame(gameId);\n        } else {\n            game.state = GameState.DealerTurn;\n            _dealerTurn(gameId);\n        }\n\n        game.lastActionTime = block.timestamp;\n        emit PlayerAction(gameId, \"Double Down\");\n    }\n\n    // Player action: Split\n    function split(uint256 gameId) external payable {\n        Game storage game = games[gameId];\n        _validateSplitConditions(game, msg.sender, msg.value);\n\n        _executeSplit(game, gameId);\n\n        game.lastActionTime = block.timestamp;\n        emit SplitHandStarted(gameId);\n        emit PlayerAction(gameId, \"Split\");\n    }\n\n    // Internal function to validate split conditions\n    function _validateSplitConditions(\n        Game storage game,\n        address sender,\n        uint256 value\n    ) internal view {\n        require(sender == game.player, \"Not your game\");\n        require(game.state == GameState.PlayerTurn, \"Not player's turn\");\n        require(game.playerHand.length == 2, \"Can only split initial hand\");\n        require(game.actionState == ActionState.None, \"Cannot split after other actions\");\n        require(value == game.betAmount, \"Must match original bet\");\n\n        // Get card values, handling face cards\n        uint8 card1Value = CardLib.getCardValue(game.playerHand[0]);\n        uint8 card2Value = CardLib.getCardValue(game.playerHand[1]);\n        require(card1Value == card2Value, \"Can only split equal value cards\");\n    }\n\n    // Internal function to execute split\n    function _executeSplit(Game storage game, uint256 gameId) internal {\n        game.splitBetAmount = game.betAmount;\n        game.actionState = ActionState.Split;\n\n        // Remove second card from player's hand\n        CardLib.Card memory secondCard = game.playerHand[1];\n        game.playerHand.pop();\n\n        // Initialize split hand and add the second card\n        game.splitHand.push(secondCard);\n\n        // Deal new cards to both hands\n        _dealCard(gameId, false); // To first hand\n        game.isSplitHand = true; // Next card goes to split hand\n        _dealCard(gameId, false); // To split hand\n        game.isSplitHand = false; // Reset back to first hand\n\n        // Update scores\n        game.scores.playerScore = CardLib.calculateHandValue(game.playerHand);\n    }\n\n    // Modified dealer turn to be manual instead of automatic\n    function dealerHit(uint256 gameId) external {\n        Game storage game = games[gameId];\n        require(msg.sender == game.dealer, \"Only dealer can perform this action\");\n        require(game.state == GameState.DealerTurn, \"Not dealer's turn\");\n        require(!game.dealerBusted, \"Dealer already busted\");\n\n        _dealCard(gameId, true);\n        game.scores.dealerScore = CardLib.calculateHandValue(game.dealerHand);\n\n        if (game.scores.dealerScore > BLACKJACK) {\n            game.dealerBusted = true;\n            emit DealerAction(gameId, \"Bust\");\n            _endGame(gameId);\n        }\n\n        game.lastActionTime = block.timestamp;\n        emit DealerAction(gameId, \"Hit\");\n    }\n\n    function dealerStand(uint256 gameId) external {\n        Game storage game = games[gameId];\n        require(msg.sender == game.dealer, \"Only dealer can perform this action\");\n        require(game.state == GameState.DealerTurn, \"Not dealer's turn\");\n\n        emit DealerAction(gameId, \"Stand\");\n        emit DealerTurnComplete(gameId, game.scores.dealerScore);\n        _endGame(gameId);\n    }\n\n    // Remove the automatic _dealerTurn implementation\n    function _dealerTurn(uint256 gameId) internal {\n        Game storage game = games[gameId];\n        require(game.state == GameState.DealerTurn, \"Not dealer's turn\");\n        emit DealerTurn(gameId);\n    }\n\n    // Internal function to determine if dealer should hit\n    function _shouldDealerHit(CardLib.Card[] memory hand, uint8 score) internal pure returns (bool) {\n        if (score >= DEALER_MIN_STAND) {\n            // Check for soft 17 (Ace + 6)\n            if (score == 17) {\n                bool hasAce = false;\n                uint8 nonAceSum = 0;\n\n                for (uint8 i = 0; i < hand.length; i++) {\n                    if (hand[i].value == 1) { // Ace\n                        hasAce = true;\n                    } else {\n                        nonAceSum += (hand[i].value > 10 ? 10 : hand[i].value);\n                    }\n                }\n\n                // If it's a soft 17 (Ace counting as 11 + 6), dealer must hit\n                return hasAce && nonAceSum == 6;\n            }\n            return false;\n        }\n        return true;\n    }\n\n    // Game resolution\n    function _endGame(uint256 gameId) internal {\n        Game storage game = games[gameId];\n        require(game.state != GameState.Complete, \"Game already completed\");\n\n        (uint256 payoutToPlayer, uint256 payoutToDealer, string memory result) = _calculateGamePayout(game);\n\n        // Handle payouts\n        if (payoutToPlayer > 0) {\n            payable(game.player).transfer(payoutToPlayer);\n        }\n\n        if (payoutToDealer > 0) {\n            payable(game.dealer).transfer(payoutToDealer);\n        }\n\n        _finalizeGameState(gameId, game, result, payoutToPlayer);\n\n        // Update lobby status\n        for (uint256 i = 0; i < lobbyCounter; i++) {\n            if (lobbies[i].gameId == gameId) {\n                lobbies[i].status = LobbyStatus.Completed;\n                break;\n            }\n        }\n    }\n\n    // Internal function to calculate game payout\n    function _calculateGamePayout(Game storage game)\n        internal\n        view\n        returns (uint256 payoutToPlayer, uint256 payoutToDealer, string memory result)\n    {\n        uint256 playerPayout = _calculateMainHandPayout(game);\n\n        if (game.actionState == ActionState.Split) {\n            playerPayout += _calculateSplitHandPayout(game);\n        }\n\n        if (playerPayout > 0) {\n            result = \"Player Wins\";\n            payoutToPlayer = playerPayout;\n            payoutToDealer = 0;\n        } else if (playerPayout == 0 && !game.playerBusted && !game.dealerBusted && game.scores.playerScore == game.scores.dealerScore) {\n            // Push - return bets\n            result = \"Push\";\n            payoutToPlayer = game.betAmount + game.splitBetAmount; // Return player's bets\n            payoutToDealer = game.dealerStake - (game.betAmount + game.splitBetAmount); // Return remaining dealer stake\n        } else {\n            result = \"Dealer Wins\";\n            payoutToPlayer = 0;\n            payoutToDealer = game.dealerStake + game.betAmount + game.splitBetAmount; // Dealer takes the bets\n        }\n    }\n\n    // Internal function to calculate main hand payout\n    function _calculateMainHandPayout(Game storage game) internal view returns (uint256) {\n        return _determineHandPayout(\n            game.scores.playerScore,\n            game.scores.dealerScore,\n            game.betAmount,\n            game.playerBusted,\n            game.dealerBusted,\n            game.isBlackjack\n        );\n    }\n\n    // Internal function to calculate split hand payout\n    function _calculateSplitHandPayout(Game storage game) internal view returns (uint256) {\n        uint8 splitScore = CardLib.calculateHandValue(game.splitHand);\n        bool splitBusted = splitScore > BLACKJACK;\n\n        return _determineHandPayout(\n            splitScore,\n            game.scores.dealerScore,\n            game.splitBetAmount,\n            splitBusted,\n            game.dealerBusted,\n            false\n        );\n    }\n\n    // Internal pure function to determine hand payout\n    function _determineHandPayout(\n        uint8 playerScore,\n        uint8 dealerScore,\n        uint256 betAmount,\n        bool playerBusted,\n        bool dealerBusted,\n        bool isBlackjack\n    ) internal pure returns (uint256) {\n        if (playerBusted) {\n            return 0;\n        }\n\n        if (isBlackjack && !dealerBusted && dealerScore != BLACKJACK) {\n            // Blackjack pays 3:2\n            return (betAmount * BLACKJACK_MULTIPLIER) / MULTIPLIER_BASE;\n        }\n\n        if (dealerBusted || (!playerBusted && playerScore > dealerScore)) {\n            // Regular win pays 1:1\n            return betAmount * 2;\n        }\n\n        if (!playerBusted && playerScore == dealerScore) {\n            // Push - return original bet\n            return betAmount;\n        }\n\n        return 0;\n    }\n\n    // Internal function to finalize game state\n    function _finalizeGameState(\n        uint256 gameId,\n        Game storage game,\n        string memory result,\n        uint256 payoutToPlayer\n    ) internal {\n        game.state = GameState.Complete;\n        emit GameComplete(gameId, result, payoutToPlayer, game.scores.playerScore, game.scores.dealerScore);\n    }\n\n    // ------------------ Helper Functions ------------------\n\n    /**\n     * @dev Returns the player's hand for a specific game.\n     * @param gameId The ID of the game.\n     * @return An array of Card structs representing the player's hand.\n     */\n    function getPlayerHand(uint256 gameId) external view returns (CardLib.Card[] memory) {\n        return games[gameId].playerHand;\n    }\n\n    /**\n     * @dev Returns the dealer's hand for a specific game.\n     * @param gameId The ID of the game.\n     * @return An array of Card structs representing the dealer's hand.\n     */\n    function getDealerHand(uint256 gameId) external view returns (CardLib.Card[] memory) {\n        return games[gameId].dealerHand;\n    }\n\n    /**\n     * @dev Returns the split hand for a specific game, if any.\n     * @param gameId The ID of the game.\n     * @return An array of Card structs representing the split hand.\n     */\n    function getSplitHand(uint256 gameId) external view returns (CardLib.Card[] memory) {\n        return games[gameId].splitHand;\n    }\n\n    // Helper function to generate commit for randomness\n    function _generateCommit(uint256 gameId) internal view returns (bytes32) {\n        return keccak256(abi.encodePacked(\n            block.timestamp,\n            block.prevrandao,\n            msg.sender,\n            gameId,\n            SALT_BASE\n        ));\n    }\n\n    // Generate secure random number (placeholder - needs secure implementation)\n    function _generateSecureRandom(uint256 gameId, bytes32 commit) internal view returns (uint256) {\n        return uint256(keccak256(abi.encodePacked(\n            commit,\n            block.timestamp,\n            block.prevrandao,\n            msg.sender,\n            gameId\n        )));\n    }\n\n    // Function to handle stuck games\n    function resolveStuckGame(uint256 gameId) external {\n        Game storage game = games[gameId];\n        require(block.timestamp > game.lastActionTime + GAME_TIMEOUT, \"Game not timed out\");\n        require(game.state != GameState.Complete, \"Game already completed\");\n\n        if (game.state == GameState.PlayerTurn) {\n            // If player timed out, they forfeit\n            game.playerBusted = true;\n            _endGame(gameId);\n        } else if (game.state == GameState.DealerTurn) {\n            // If stuck in dealer's turn, complete the game\n            _dealerTurn(gameId);\n        }\n    }\n\n    // Get game state\n    function getGameState(uint256 gameId)\n        external\n        view\n        returns (\n            uint8 playerScore,\n            uint8 dealerScore,\n            bool isPlayerTurn,\n            bool isComplete,\n            uint256 betAmount,\n            bool canSplit,\n            bool canDouble,\n            bool isSplit\n        )\n    {\n        Game storage game = games[gameId];\n\n        return (\n            game.scores.playerScore,\n            game.scores.dealerScore,\n            game.state == GameState.PlayerTurn,\n            game.state == GameState.Complete,\n            game.betAmount,\n            _canSplitHand(game),\n            _canDoubleDown(game),\n            game.actionState == ActionState.Split\n        );\n    }\n\n    // Internal helper to check if hand can be split\n    function _canSplitHand(Game storage game) internal view returns (bool) {\n        if (game.playerHand.length != 2 || game.actionState != ActionState.None) {\n            return false;\n        }\n\n        uint8 card1Value = CardLib.getCardValue(game.playerHand[0]);\n        uint8 card2Value = CardLib.getCardValue(game.playerHand[1]);\n\n        return card1Value == card2Value;\n    }\n\n    // Internal helper to check if hand can be doubled down\n    function _canDoubleDown(Game storage game) internal view returns (bool) {\n        return game.playerHand.length == 2 &&\n            game.actionState == ActionState.None &&\n            game.state == GameState.PlayerTurn;\n    }\n}\n\n",
  "sourcePath": "/Users/keyurstudent/block-wager/CSC-196D-Block-Wager/truffle/contracts/blackjack.sol",
  "compiler": {
    "name": "solc",
    "version": "0.8.21+commit.d9974bed.Emscripten.clang"
  },
  "schemaVersion": "3.4.16",
  "updatedAt": "2024-11-27T12:29:45.432Z",
  "networkType": "ethereum",
  "devdoc": {
    "kind": "dev",
    "methods": {
      "getDealerHand(uint256)": {
        "details": "Returns the dealer's hand for a specific game.",
        "params": {
          "gameId": "The ID of the game."
        },
        "returns": {
          "_0": "An array of Card structs representing the dealer's hand."
        }
      },
      "getPlayerHand(uint256)": {
        "details": "Returns the player's hand for a specific game.",
        "params": {
          "gameId": "The ID of the game."
        },
        "returns": {
          "_0": "An array of Card structs representing the player's hand."
        }
      },
      "getSplitHand(uint256)": {
        "details": "Returns the split hand for a specific game, if any.",
        "params": {
          "gameId": "The ID of the game."
        },
        "returns": {
          "_0": "An array of Card structs representing the split hand."
        }
      }
    },
    "version": 1
  },
  "userdoc": {
    "kind": "user",
    "methods": {},
    "version": 1
  }
}