{
  "contractName": "Blackjack",
  "abi": [
    {
      "inputs": [
        {
          "internalType": "uint256",
          "name": "_minBet",
          "type": "uint256"
        },
        {
          "internalType": "uint256",
          "name": "_maxBet",
          "type": "uint256"
        }
      ],
      "stateMutability": "nonpayable",
      "type": "constructor"
    },
    {
      "anonymous": false,
      "inputs": [
        {
          "indexed": true,
          "internalType": "uint256",
          "name": "gameId",
          "type": "uint256"
        },
        {
          "indexed": true,
          "internalType": "address",
          "name": "recipient",
          "type": "address"
        },
        {
          "indexed": false,
          "internalType": "uint8",
          "name": "value",
          "type": "uint8"
        },
        {
          "indexed": false,
          "internalType": "uint8",
          "name": "suit",
          "type": "uint8"
        },
        {
          "indexed": false,
          "internalType": "bool",
          "name": "isDealer",
          "type": "bool"
        }
      ],
      "name": "CardDealt",
      "type": "event"
    },
    {
      "anonymous": false,
      "inputs": [
        {
          "indexed": true,
          "internalType": "uint256",
          "name": "gameId",
          "type": "uint256"
        },
        {
          "indexed": false,
          "internalType": "string",
          "name": "action",
          "type": "string"
        }
      ],
      "name": "DealerAction",
      "type": "event"
    },
    {
      "anonymous": false,
      "inputs": [
        {
          "indexed": true,
          "internalType": "uint256",
          "name": "gameId",
          "type": "uint256"
        }
      ],
      "name": "DealerTurn",
      "type": "event"
    },
    {
      "anonymous": false,
      "inputs": [
        {
          "indexed": true,
          "internalType": "uint256",
          "name": "gameId",
          "type": "uint256"
        },
        {
          "indexed": false,
          "internalType": "string",
          "name": "result",
          "type": "string"
        },
        {
          "indexed": false,
          "internalType": "uint256",
          "name": "playerPayout",
          "type": "uint256"
        },
        {
          "indexed": false,
          "internalType": "uint256",
          "name": "dealerPayout",
          "type": "uint256"
        },
        {
          "indexed": false,
          "internalType": "uint8",
          "name": "playerScore",
          "type": "uint8"
        },
        {
          "indexed": false,
          "internalType": "uint8",
          "name": "dealerScore",
          "type": "uint8"
        }
      ],
      "name": "GameComplete",
      "type": "event"
    },
    {
      "anonymous": false,
      "inputs": [
        {
          "indexed": true,
          "internalType": "uint256",
          "name": "gameId",
          "type": "uint256"
        },
        {
          "indexed": true,
          "internalType": "address",
          "name": "player",
          "type": "address"
        },
        {
          "indexed": true,
          "internalType": "address",
          "name": "dealer",
          "type": "address"
        },
        {
          "indexed": false,
          "internalType": "uint256",
          "name": "betAmount",
          "type": "uint256"
        }
      ],
      "name": "GameCreated",
      "type": "event"
    },
    {
      "anonymous": false,
      "inputs": [
        {
          "indexed": true,
          "internalType": "uint256",
          "name": "gameId",
          "type": "uint256"
        }
      ],
      "name": "HandBusted",
      "type": "event"
    },
    {
      "anonymous": false,
      "inputs": [
        {
          "indexed": true,
          "internalType": "uint256",
          "name": "lobbyId",
          "type": "uint256"
        },
        {
          "indexed": true,
          "internalType": "address",
          "name": "dealer",
          "type": "address"
        },
        {
          "indexed": false,
          "internalType": "uint256",
          "name": "refundAmount",
          "type": "uint256"
        }
      ],
      "name": "LobbyCancelled",
      "type": "event"
    },
    {
      "anonymous": false,
      "inputs": [
        {
          "indexed": true,
          "internalType": "uint256",
          "name": "lobbyId",
          "type": "uint256"
        },
        {
          "indexed": true,
          "internalType": "address",
          "name": "dealer",
          "type": "address"
        },
        {
          "indexed": false,
          "internalType": "uint256",
          "name": "betAmount",
          "type": "uint256"
        }
      ],
      "name": "LobbyCreated",
      "type": "event"
    },
    {
      "anonymous": false,
      "inputs": [
        {
          "indexed": true,
          "internalType": "uint256",
          "name": "lobbyId",
          "type": "uint256"
        },
        {
          "indexed": true,
          "internalType": "address",
          "name": "player",
          "type": "address"
        }
      ],
      "name": "LobbyJoined",
      "type": "event"
    },
    {
      "anonymous": false,
      "inputs": [
        {
          "indexed": true,
          "internalType": "uint256",
          "name": "lobbyId",
          "type": "uint256"
        }
      ],
      "name": "LobbyTimeout",
      "type": "event"
    },
    {
      "anonymous": false,
      "inputs": [
        {
          "indexed": true,
          "internalType": "uint256",
          "name": "gameId",
          "type": "uint256"
        },
        {
          "indexed": false,
          "internalType": "string",
          "name": "action",
          "type": "string"
        }
      ],
      "name": "PlayerAction",
      "type": "event"
    },
    {
      "anonymous": false,
      "inputs": [
        {
          "indexed": true,
          "internalType": "uint256",
          "name": "gameId",
          "type": "uint256"
        }
      ],
      "name": "PlayerTurn",
      "type": "event"
    },
    {
      "inputs": [],
      "name": "gameCounter",
      "outputs": [
        {
          "internalType": "uint256",
          "name": "",
          "type": "uint256"
        }
      ],
      "stateMutability": "view",
      "type": "function",
      "constant": true
    },
    {
      "inputs": [
        {
          "internalType": "uint256",
          "name": "",
          "type": "uint256"
        }
      ],
      "name": "games",
      "outputs": [
        {
          "internalType": "address payable",
          "name": "player",
          "type": "address"
        },
        {
          "internalType": "address payable",
          "name": "dealer",
          "type": "address"
        },
        {
          "internalType": "uint256",
          "name": "betAmount",
          "type": "uint256"
        },
        {
          "internalType": "uint256",
          "name": "dealerStake",
          "type": "uint256"
        },
        {
          "internalType": "uint256",
          "name": "gameId",
          "type": "uint256"
        },
        {
          "internalType": "enum Blackjack.GameState",
          "name": "state",
          "type": "uint8"
        },
        {
          "internalType": "bool",
          "name": "isBlackjack",
          "type": "bool"
        },
        {
          "internalType": "bool",
          "name": "playerBusted",
          "type": "bool"
        },
        {
          "internalType": "bool",
          "name": "dealerBusted",
          "type": "bool"
        },
        {
          "components": [
            {
              "internalType": "uint8",
              "name": "playerScore",
              "type": "uint8"
            },
            {
              "internalType": "uint8",
              "name": "dealerScore",
              "type": "uint8"
            }
          ],
          "internalType": "struct Blackjack.Scores",
          "name": "scores",
          "type": "tuple"
        },
        {
          "internalType": "uint256",
          "name": "lastActionTime",
          "type": "uint256"
        },
        {
          "internalType": "bytes32",
          "name": "randomnessCommit",
          "type": "bytes32"
        }
      ],
      "stateMutability": "view",
      "type": "function",
      "constant": true
    },
    {
      "inputs": [
        {
          "internalType": "uint256",
          "name": "",
          "type": "uint256"
        }
      ],
      "name": "lobbies",
      "outputs": [
        {
          "internalType": "uint256",
          "name": "lobbyId",
          "type": "uint256"
        },
        {
          "internalType": "address payable",
          "name": "dealer",
          "type": "address"
        },
        {
          "internalType": "uint256",
          "name": "betAmount",
          "type": "uint256"
        },
        {
          "internalType": "enum Blackjack.LobbyStatus",
          "name": "status",
          "type": "uint8"
        },
        {
          "internalType": "uint256",
          "name": "gameId",
          "type": "uint256"
        },
        {
          "internalType": "uint256",
          "name": "creationTime",
          "type": "uint256"
        }
      ],
      "stateMutability": "view",
      "type": "function",
      "constant": true
    },
    {
      "inputs": [],
      "name": "lobbyCounter",
      "outputs": [
        {
          "internalType": "uint256",
          "name": "",
          "type": "uint256"
        }
      ],
      "stateMutability": "view",
      "type": "function",
      "constant": true
    },
    {
      "inputs": [],
      "name": "maxBet",
      "outputs": [
        {
          "internalType": "uint256",
          "name": "",
          "type": "uint256"
        }
      ],
      "stateMutability": "view",
      "type": "function",
      "constant": true
    },
    {
      "inputs": [],
      "name": "minBet",
      "outputs": [
        {
          "internalType": "uint256",
          "name": "",
          "type": "uint256"
        }
      ],
      "stateMutability": "view",
      "type": "function",
      "constant": true
    },
    {
      "inputs": [],
      "name": "getOpenLobbies",
      "outputs": [
        {
          "components": [
            {
              "internalType": "uint256",
              "name": "lobbyId",
              "type": "uint256"
            },
            {
              "internalType": "address payable",
              "name": "dealer",
              "type": "address"
            },
            {
              "internalType": "uint256",
              "name": "betAmount",
              "type": "uint256"
            },
            {
              "internalType": "enum Blackjack.LobbyStatus",
              "name": "status",
              "type": "uint8"
            },
            {
              "internalType": "uint256",
              "name": "gameId",
              "type": "uint256"
            },
            {
              "internalType": "uint256",
              "name": "creationTime",
              "type": "uint256"
            }
          ],
          "internalType": "struct Blackjack.Lobby[]",
          "name": "",
          "type": "tuple[]"
        }
      ],
      "stateMutability": "view",
      "type": "function",
      "constant": true
    },
    {
      "inputs": [
        {
          "internalType": "uint256",
          "name": "betAmount",
          "type": "uint256"
        }
      ],
      "name": "createLobby",
      "outputs": [],
      "stateMutability": "payable",
      "type": "function",
      "payable": true
    },
    {
      "inputs": [
        {
          "internalType": "uint256",
          "name": "lobbyId",
          "type": "uint256"
        }
      ],
      "name": "cancelLobby",
      "outputs": [],
      "stateMutability": "nonpayable",
      "type": "function"
    },
    {
      "inputs": [
        {
          "internalType": "uint256",
          "name": "lobbyId",
          "type": "uint256"
        }
      ],
      "name": "joinLobby",
      "outputs": [],
      "stateMutability": "payable",
      "type": "function",
      "payable": true
    },
    {
      "inputs": [],
      "name": "cleanupTimedOutLobbies",
      "outputs": [],
      "stateMutability": "nonpayable",
      "type": "function"
    },
    {
      "inputs": [
        {
          "internalType": "uint256",
          "name": "gameId",
          "type": "uint256"
        }
      ],
      "name": "hit",
      "outputs": [],
      "stateMutability": "nonpayable",
      "type": "function"
    },
    {
      "inputs": [
        {
          "internalType": "uint256",
          "name": "gameId",
          "type": "uint256"
        }
      ],
      "name": "stand",
      "outputs": [],
      "stateMutability": "nonpayable",
      "type": "function"
    },
    {
      "inputs": [
        {
          "internalType": "uint256",
          "name": "gameId",
          "type": "uint256"
        }
      ],
      "name": "dealerHit",
      "outputs": [],
      "stateMutability": "nonpayable",
      "type": "function"
    },
    {
      "inputs": [
        {
          "internalType": "uint256",
          "name": "gameId",
          "type": "uint256"
        }
      ],
      "name": "dealerStand",
      "outputs": [],
      "stateMutability": "nonpayable",
      "type": "function"
    },
    {
      "inputs": [
        {
          "internalType": "uint256",
          "name": "gameId",
          "type": "uint256"
        }
      ],
      "name": "getPlayerHand",
      "outputs": [
        {
          "components": [
            {
              "internalType": "uint8",
              "name": "value",
              "type": "uint8"
            },
            {
              "internalType": "uint8",
              "name": "suit",
              "type": "uint8"
            }
          ],
          "internalType": "struct CardLib.Card[]",
          "name": "",
          "type": "tuple[]"
        }
      ],
      "stateMutability": "view",
      "type": "function",
      "constant": true
    },
    {
      "inputs": [
        {
          "internalType": "uint256",
          "name": "gameId",
          "type": "uint256"
        }
      ],
      "name": "getDealerHand",
      "outputs": [
        {
          "components": [
            {
              "internalType": "uint8",
              "name": "value",
              "type": "uint8"
            },
            {
              "internalType": "uint8",
              "name": "suit",
              "type": "uint8"
            }
          ],
          "internalType": "struct CardLib.Card[]",
          "name": "",
          "type": "tuple[]"
        }
      ],
      "stateMutability": "view",
      "type": "function",
      "constant": true
    },
    {
      "inputs": [
        {
          "internalType": "uint256",
          "name": "gameId",
          "type": "uint256"
        }
      ],
      "name": "resolveStuckGame",
      "outputs": [],
      "stateMutability": "nonpayable",
      "type": "function"
    },
    {
      "inputs": [
        {
          "internalType": "uint256",
          "name": "gameId",
          "type": "uint256"
        }
      ],
      "name": "getGameState",
      "outputs": [
        {
          "internalType": "uint8",
          "name": "playerScore",
          "type": "uint8"
        },
        {
          "internalType": "uint8",
          "name": "dealerScore",
          "type": "uint8"
        },
        {
          "internalType": "bool",
          "name": "isPlayerTurn",
          "type": "bool"
        },
        {
          "internalType": "bool",
          "name": "isComplete",
          "type": "bool"
        },
        {
          "internalType": "uint256",
          "name": "betAmount",
          "type": "uint256"
        }
      ],
      "stateMutability": "view",
      "type": "function",
      "constant": true
    }
  ],
  "bytecode": "0x608034620000bf57601f620039cc38819003918201601f19168301916001600160401b03831184841017620000c4578084926040948552833981010312620000bf57602081519101519080151580620000b4575b156200006f576004556005556040516138f19081620000db8239f35b60405162461bcd60e51b815260206004820152601360248201527f496e76616c69642062657420616d6f756e7473000000000000000000000000006044820152606490fd5b508082101562000053565b600080fd5b634e487b7160e01b600052604160045260246000fdfe6080604052600436101561001257600080fd5b60003560e01c8063117a5b901461247657806314eda239146124475780632e0be39a146124295780632e5b21681461240b5780634d899c8b1461224e578063541d335c146120ba5780636e8fb4c614612044578063778a606c1461200557806377f1952214611fe75780639619367d14611fc957806396b76c2314611f12578063a4a9a4ad14611e0c578063ba5e50f314611d61578063dfdf759614611c3b578063e57b70ec14611b6f578063e9173b3a14610d4e578063ebf6e91d1461032c578063faa5bf89146101735763ffde0c74146100ed57600080fd5b3461016e57602036600319011261016e5760043560005260006020526040600020600881015460ff6007830154166005811015610158576004600260a09401549160ff60405194818116865260081c1660208501526002811460408501521460608301526080820152f35b634e487b7160e01b600052602160045260246000fd5b600080fd5b3461016e57600036600319011261016e5760038054906101928261265a565b9160009160005b82811061026b575050506101ac8161265a565b9160005b82811061023c5760408051602080825286518183018190528188019383019160005b8281106101df5784840385f35b9091928260c0600192885180518252848060a01b038482015116848301526040810151604083015261021960608083015190840190612635565b6080808201519083015260a08091015190820152019601910194929190946101d2565b8061024a61026692846126e4565b5161025582876126e4565b5261026081866126e4565b506126d5565b6101b0565b806000526001602081815260ff80856040600020015416600481101561015857156102a2575b50505061029d906126d5565b610199565b836000979293949752838352604060002092604051946102c18661255e565b845486528401546001600160a01b0316908501526002830154604085015284830154169260048410156101585760056103239361029d95606084015260048101546080840152015460a082015261031882896126e4565b5261026081886126e4565b93908680610291565b3461016e57602036600319011261016e576004356000526000602052604060002061036160018060a01b038254163314613353565b600781015460ff811690600582101561015857610382600260ff931461338f565b60101c16610d1157600435600052600060205260406000209060098201549160348303610ccc57600b8101546103c1600483015460058401549061274b565b6040519060208201924284524460408401526004356060840152608083015260a082015260a081526103f28161255e565b519020604051906020828681520194600984016000526020600020906000915b81601f840110610afd57966105319285926105369798995491818110610ae7575b818110610ace575b818110610ab5575b818110610a9c575b818110610a84575b818110610a6b575b818110610a52575b818110610a39575b818110610a20575b818110610a07575b8181106109ee575b8181106109d5575b8181106109bc575b8181106109a3575b81811061098a575b818110610971575b818110610958575b81811061093f575b818110610926575b81811061090d575b8181106108f4575b8181106108db575b8181106108c2575b8181106108a9575b818110610890575b818110610877575b81811061085e575b818110610845575b81811061082c575b818110610813575b8181106107fa575b106107ea575b500383612596565b613179565b9060ff825116600181101590816107de575b50156107a457602082019060ff82511660018110159081610798575b501561075f57600d60ff61057a81855116612820565b160260ff81169081036107495761059f60ff9161059983875116612820565b9061280c565b1660ff6105af8260098501612786565b90549060031b1c1661071057816105e76105d060ff94936009869501612786565b819291549060031b9060ff6001831b921b19161790565b90556105f6856004830161290b565b60018060a01b039054169351169151166040519182526020820152600060408201527fa3b3e2532a51907c70564d7eb439a729f06dc722d859e88561a31f9a1579ecb6606060043592a36015610656610651600484016127b7565b612833565b60ff600884019116908160ff19825416179055116106c5575b600a429101556040517fcc08a4f861b097fd68048e30e86ac2db48198da16ddce9c022c76d60cfe4ae5360043591806106c081606090602081526003602082015262121a5d60ea1b60408201520190565b0390a2005b60078101805462ff00001916620100001790556004357f7de17b4e9a718b8a773ad9545376afeb5315cf605f81475ce625816659e8f83a600080a261070b60043561350f565b61066f565b60405162461bcd60e51b815260206004820152601160248201527010d85c9908185b1c9958591e481d5cd959607a1b6044820152606490fd5b634e487b7160e01b600052601160045260246000fd5b60405162461bcd60e51b8152602060048201526011602482015270125b9d985b1a590818d85c99081cdd5a5d607a1b6044820152606490fd5b60049150111585610564565b60405162461bcd60e51b8152602060048201526012602482015271496e76616c696420636172642076616c756560701b6044820152606490fd5b600d9150111584610548565b60f81c1515815260200188610529565b92602060019160ff8560f01c1615158152019301610523565b92602060019160ff8560e81c161515815201930161051b565b92602060019160ff8560e01c1615158152019301610513565b92602060019160ff8560d81c161515815201930161050b565b92602060019160ff8560d01c1615158152019301610503565b92602060019160ff8560c81c16151581520193016104fb565b92602060019160ff8560c01c16151581520193016104f3565b92602060019160ff8560b81c16151581520193016104eb565b92602060019160ff8560b01c16151581520193016104e3565b92602060019160ff8560a81c16151581520193016104db565b92602060019160ff8560a01c16151581520193016104d3565b92602060019160ff8560981c16151581520193016104cb565b92602060019160ff8560901c16151581520193016104c3565b92602060019160ff8560881c16151581520193016104bb565b92602060019160ff8560801c16151581520193016104b3565b92602060019160ff8560781c16151581520193016104ab565b92602060019160ff8560701c16151581520193016104a3565b92602060019160ff8560681c161515815201930161049b565b92602060019160ff8560601c1615158152019301610493565b92602060019160ff8560581c161515815201930161048b565b92602060019160ff8560501c1615158152019301610483565b92602060019160ff8560481c161515815201930161047b565b92602060019160ff8560401c1615158152019301610473565b92602060019160ff8560381c161515815201930161046b565b92602060019160ff8560301c1615158152019301610463565b92602060019160ff8560281c161515815201930161045b565b92602060019160ff85831c1615158152019301610453565b92602060019160ff8560181c161515815201930161044b565b92602060019160ff8560101c1615158152019301610443565b92602060019160ff8560081c161515815201930161043b565b92602060019160ff851615158152019301610433565b9660016104006020928a5460ff81161515825260ff8160081c1615158583015260ff8160101c161515604083015260ff8160181c161515606083015260ff81861c161515608083015260ff8160281c16151560a083015260ff8160c0828260301c16151581860152828260381c16151560e0860152828260401c161515610100860152828260481c161515610120860152828260501c161515610140860152828260581c161515610160860152828260601c161515610180860152828260681c1615156101a0860152828260701c1615156101c0860152828260781c1615156101e0860152828260801c161515610200860152828260881c161515610220860152828260901c161515610240860152828260981c161515610260860152828260a01c161515610280860152828260a81c1615156102a0860152828260b01c1615156102c0860152828260b81c1615156102e08601521c16151561030083015260ff8160c81c16151561032083015260ff8160d01c16151561034083015260ff8160d81c16151561036083015260ff8160e01c16151561038083015260ff8160e81c1615156103a083015260ff8160f01c1615156103c083015260f81c15156103e0820152019801920191610412565b60405162461bcd60e51b815260206004820152601d60248201527f4361726420747261636b696e67206e6f7420696e697469616c697a65640000006044820152606490fd5b60405162461bcd60e51b8152602060048201526015602482015274141b185e595c88185b1c9958591e48189d5cdd1959605a1b6044820152606490fd5b602036600319011261016e57600435600052600160205260406000206003546004351015611b375760ff600382015416600481101561015857610d91901561270e565b60018101546001600160a01b03163314611ae75760028101543403611aab576004810154611a6f576005810154610e108101809111610749574211611a365760025480600052600060205260406000206bffffffffffffffffffffffff60a01b338183541617825560018060a01b0360018501541660018301918254161790556002830154806002830155806003810204600314811517156107495760030260011c60038201558160068201556007810163ffffffff198154169055610e70604051610e5c8161257a565b600081526000602082015260088301612758565b42600a82015560405160208101904282524460408201523360601b60608201528360748201527f1234567890abcdef1234567890abcdef1234567890abcdef1234567890abcdef609482015260948152610ec98161255e565b519020600b82015560098101546000600983015580611a06575b5060405167ffffffffffffffff906106a08101828111828210176119f0576040526034815261068036602083013780519182116119f057600160401b82116119f057600983015482600985015580831061198a575b50602001906009830160005260206000209060005b8160051c81106119445750601f1981168082036118f4575b5050505060005b603481106118cc57505060018060a01b036001830154166002830154604051908152827f6200407c0ea392b8107b21a9be480acd41fda186d04bed28cc7da2d4b53d56e260203393a4806000526000602052604060002091600783015460ff811660058110156101585761188e5760ff1916600117600784015560005b600260ff8216106110e5575082601560ff61100b6106516004809798016127b7565b81600885019116821982541617815561104261102c610651600587016127b7565b825461ff00191660089190911b61ff0016178255565b5416036110ac57600701805461ff0019166101001790556110628361350f565b61106d6002546126d5565b60025560038101805460ff191660011790550155336004357fa31ecd4ef5c4170fc73b952e6c0344155875718dd9892919041e8a449246cb26600080a3005b600701805460ff19166002179055827f1a327edcf6b43c60a10c1861bae195dec3be71c9a241bd49b8431259ca632045600080a2611062565b826000526000602052604060002090600982015460348103610ccc57600b830154611119600485015460058601549061274b565b604051906020820192428452446040840152886060840152608083015260a082015260a081526111488161255e565b519020604051906020828481520192600986016000526020600020906000915b81601f8401106116b957946105319285926112849754918181106116a3575b81811061168a575b818110611671575b818110611658575b818110611640575b818110611627575b81811061160e575b8181106115f5575b8181106115dc575b8181106115c3575b8181106115aa575b818110611591575b818110611578575b81811061155f575b818110611546575b81811061152d575b818110611514575b8181106114fb575b8181106114e2575b8181106114c9575b8181106114b0575b818110611497575b81811061147e575b818110611465575b81811061144c575b818110611433575b81811061141a575b818110611401575b8181106113e8575b8181106113cf575b8181106113b6575b106113a657500383612596565b60ff8151166001811015908161139a575b50156107a45760ff6020820151166001811015908161138e575b501561075f57600d60ff6112c881602085015116612820565b16028060ff811603610749576112ee60ff91826112e781865116612820565b911661280c565b1660ff6112fe8260098701612786565b90549060031b1c16610710577fa3b3e2532a51907c70564d7eb439a729f06dc722d859e88561a31f9a1579ecb66060856113426105d08a9560096113899a01612786565b9055611351856004830161290b565b60018060a01b039054169360ff60208183511692015116604051918252602082015260006040820152a36113848461293a565b6127a6565b610fe9565b600491501115876112af565b600d9150111587611295565b60f81c151581526020018b610529565b92602060019160ff8560f01c1615158152019301611277565b92602060019160ff8560e81c161515815201930161126f565b92602060019160ff8560e01c1615158152019301611267565b92602060019160ff8560d81c161515815201930161125f565b92602060019160ff8560d01c1615158152019301611257565b92602060019160ff8560c81c161515815201930161124f565b92602060019160ff8560c01c1615158152019301611247565b92602060019160ff8560b81c161515815201930161123f565b92602060019160ff8560b01c1615158152019301611237565b92602060019160ff8560a81c161515815201930161122f565b92602060019160ff8560a01c1615158152019301611227565b92602060019160ff8560981c161515815201930161121f565b92602060019160ff8560901c1615158152019301611217565b92602060019160ff8560881c161515815201930161120f565b92602060019160ff8560801c1615158152019301611207565b92602060019160ff8560781c16151581520193016111ff565b92602060019160ff8560701c16151581520193016111f7565b92602060019160ff8560681c16151581520193016111ef565b92602060019160ff8560601c16151581520193016111e7565b92602060019160ff8560581c16151581520193016111df565b92602060019160ff8560501c16151581520193016111d7565b92602060019160ff8560481c16151581520193016111cf565b92602060019160ff8560401c16151581520193016111c7565b92602060019160ff8560381c16151581520193016111bf565b92602060019160ff8560301c16151581520193016111b7565b92602060019160ff8560281c16151581520193016111af565b92602060019160ff85831c16151581520193016111a7565b92602060019160ff8560181c161515815201930161119f565b92602060019160ff8560101c1615158152019301611197565b92602060019160ff8560081c161515815201930161118f565b92602060019160ff851615158152019301611187565b9293946001610400602092865460ff81161515825260ff8160081c1615158583015260ff8160101c161515604083015260ff8160181c161515606083015260ff81861c161515608083015260ff8160281c16151560a083015260ff8160c0828260301c16151581860152828260381c16151560e0860152828260401c161515610100860152828260481c161515610120860152828260501c161515610140860152828260581c161515610160860152828260601c161515610180860152828260681c1615156101a0860152828260701c1615156101c0860152828260781c1615156101e0860152828260801c161515610200860152828260881c161515610220860152828260901c161515610240860152828260981c161515610260860152828260a01c161515610280860152828260a81c1615156102a0860152828260b01c1615156102c0860152828260b81c1615156102e08601521c16151561030083015260ff8160c81c16151561032083015260ff8160d01c16151561034083015260ff8160d81c16151561036083015260ff8160e01c16151561038083015260ff8160e81c1615156103a083015260ff8160f01c1615156103c083015260f81c15156103e082015201940192019194939294611168565b60405162461bcd60e51b815260206004820152601660248201527547616d65206e6f7420696e206f70656e20737461746560501b6044820152606490fd5b806118dd6118ef9260098501612786565b60ff82549160031b1b191690556126d5565b610f6c565b9260009360005b81840381106119155750505060051c015583808080610f65565b909194602061193a6001928489511515919060ff809160031b9316831b921b19161790565b96019291016118fb565b6000805b6020811061195d575083820155600101610f4d565b949060206119816001928885511515919060ff809160031b9316831b921b19161790565b92019501611948565b600984016000526020600020601f8416806119cd575b50601f840160051c81015b601f830160051c820181106119c1575050610f38565b600081556001016119ab565b6000199081601f870160051c8401019182549160200360031b1c169055876119a0565b634e487b7160e01b600052604160045260246000fd5b600982016000526020600020805b601f830160051c82018110611a2a575050610ee3565b60008155600101611a14565b60405162461bcd60e51b8152602060048201526011602482015270131bd8989e481a185cc8195e1c1a5c9959607a1b6044820152606490fd5b60405162461bcd60e51b815260206004820152601460248201527311d85b5948185b1c9958591e481cdd185c9d195960621b6044820152606490fd5b60405162461bcd60e51b8152602060048201526014602482015273125b98dbdc9c9958dd0818995d08185b5bdd5b9d60621b6044820152606490fd5b60405162461bcd60e51b815260206004820152602260248201527f4465616c65722063616e6e6f74206a6f696e207468656972206f776e206c6f62604482015261627960f01b6064820152608490fd5b60405162461bcd60e51b815260206004820152601060248201526f125b9d985b1a59081b1bd8989e48125160821b6044820152606490fd5b3461016e57602036600319011261016e576004358060005260006020526040600020600a810154610708810180911161074957421115611c01576007019081549160ff8316600581101561015857611bca60048214156134ca565b60028103611beb575062010000611be99362ff0000191617905561350f565b005b91925050600314611bf857005b611be990613467565b60405162461bcd60e51b815260206004820152601260248201527111d85b59481b9bdd081d1a5b5959081bdd5d60721b6044820152606490fd5b3461016e57600036600319011261016e5760005b60038054821015611be95781600052600160209080825260ff8360406000200154166004811015610158571580611d3d575b611c97575b505050611c92906126d5565b611c4f565b83600052808252600260406000208481018560ff19825416179055015483810293818504149015171561074957600084815291819052604082208101549192839283928392901c906001600160a01b0316828215611d34575bf115611d285780611c92917f5734c28cc1d9ed1e4bdf39023ec1f4a7afbef43831fd767b44a4698de3cccea6600080a2908280611c86565b6040513d6000823e3d90fd5b506108fc611cf0565b5083600052808252600560406000200154610e108101809111610749574211611c81565b3461016e57602036600319011261016e5760043580600052600060205260ff60076040600020611d9e60018060a01b0360018301541633146133cf565b01541690600582101561015857611dba6003611be99314613427565b807fbf4b56bbb9bdb14e56bbe6172af19ea0186e1d51e3e595cd7680fc02ad786abb60405180611e048160609060208152600560208201526414dd185b9960da1b60408201520190565b0390a261350f565b3461016e57602036600319011261016e5760043580600052600160205260406000209060018060a01b0360018301541691823303611ed457600381019081549160ff8316600481101561015857600293611e686003921561270e565b60ff191617905501546003810290808204600314901517156107495760008080809360011c8096828215611ecb575bf115611d28576040519182527f901c4b3ed78d5e3b588d41243171cd614027f155b6ab58c0af1b6c75ca66d1e160203393a3005b506108fc611e97565b60405162461bcd60e51b815260206004820152601660248201527513db9b1e481919585b195c8818d85b8818d85b98d95b60521b6044820152606490fd5b3461016e57602036600319011261016e576004358060005260006020526040600020611f4860018060a01b038254163314613353565b60078101805460ff811690600582101561015857611f6a60026003931461338f565b60ff1916179055611f7a82613467565b600a429101557fcc08a4f861b097fd68048e30e86ac2db48198da16ddce9c022c76d60cfe4ae53604051806106c08160609060208152600560208201526414dd185b9960da1b60408201520190565b3461016e57600036600319011261016e576020600454604051908152f35b3461016e57600036600319011261016e576020600354604051908152f35b3461016e57602036600319011261016e57600435600052600060205261204061203460046040600020016127b7565b604051918291826125da565b0390f35b3461016e57602036600319011261016e57600435600052600160205260c0604060002080549060018060a01b03600182015416906120ae600282015460ff600384015416906005600485015494015494604051968752602087015260408601526060850190612635565b608083015260a0820152f35b3461016e57602036600319011261016e5760043580600052600060205260406000206120f360018060a01b0360018301541633146133cf565b60078101805460ff811690600582101561015857612115600360ff9314613427565b60181c16612211576121268361293a565b601560ff612139610651600586016127b7565b6121586008860191829061ff0082549160081b169061ff001916179055565b5460081c16116121b1575b50600a429101557fbf4b56bbb9bdb14e56bbe6172af19ea0186e1d51e3e595cd7680fc02ad786abb604051806106c081606090602081526003602082015262121a5d60ea1b60408201520190565b630100000063ff00000019825416179055817fbf4b56bbb9bdb14e56bbe6172af19ea0186e1d51e3e595cd7680fc02ad786abb6060604051602081526004602082015263109d5cdd60e21b6040820152a261220b8261350f565b82612163565b60405162461bcd60e51b81526020600482015260156024820152741119585b195c88185b1c9958591e48189d5cdd1959605a1b6044820152606490fd5b60208060031936011261016e5760043590600454821015806123ff575b156123bb576003918281028181048414821517156107495760011c3403612368578254906040519261229c8461255e565b82845280840193338552604081019383855260608201946000865260808301966000885260a084019242845260005260018552604060002093518455600184019060018060a01b039051166bffffffffffffffffffffffff60a01b825416179055516002830155868201945190600482101561015857612364967f0e5627a685207c8ab30875dcf6fa55cfe897bd9243ce8f1944c283a3d76a31039660059360ff801983541691161790555160048401555191015584549283916040519384523393a36126d5565b9055005b60405162461bcd60e51b815260048101839052602560248201527f4465616c6572206d757374207374616b6520312e3578207468652062657420616044820152641b5bdd5b9d60da1b6064820152608490fd5b6064906040519062461bcd60e51b82526004820152601760248201527f42657420616d6f756e74206f7574206f662072616e67650000000000000000006044820152fd5b5060055482111561226b565b3461016e57600036600319011261016e576020600554604051908152f35b3461016e57600036600319011261016e576020600254604051908152f35b3461016e57602036600319011261016e57600435600052600060205261204061203460056040600020016127b7565b3461016e57602036600319011261016e576004356000526000602052604060002060018060a01b03808254169060018301541660028301549260038101549360068201549060078301549160ff8316966124d2600886016125b8565b92600b600a87015496015496604051988952602089015260408801526060870152608086015260058610156101585760ff612550926101a09760a0880152818160081c16151560c0880152818160101c16151560e088015260181c16151561010086015261012085019060ff60208092828151168552015116910152565b610160830152610180820152f35b60c0810190811067ffffffffffffffff8211176119f057604052565b6040810190811067ffffffffffffffff8211176119f057604052565b90601f8019910116810190811067ffffffffffffffff8211176119f057604052565b906040516125c58161257a565b602060ff829454818116845260081c16910152565b60208082019080835283518092528060408094019401926000905b83821061260457505050505090565b90919293948382826126286001948a5160ff60208092828151168552015116910152565b01960194939201906125f5565b9060048210156101585752565b67ffffffffffffffff81116119f05760051b60200190565b9061266482612642565b60409061267382519182612596565b8381528093612684601f1991612642565b019160005b8381106126965750505050565b60209082516126a48161255e565b60008152826000818301526000858301526000606083015260006080830152600060a0830152828601015201612689565b60001981146107495760010190565b80518210156126f85760209160051b010190565b634e487b7160e01b600052603260045260246000fd5b1561271557565b60405162461bcd60e51b815260206004820152600e60248201526d2637b1313c903737ba1037b832b760911b6044820152606490fd5b9190820180921161074957565b60ff60206127849382815116831985541617845501511661ff0082549160081b169061ff001916179055565b565b91909180548310156126f857600052601f60206000208360051c01921690565b60ff1660ff81146107495760010190565b9081546127c381612642565b926127d16040519485612596565b818452600090815260208082208186015b8484106127f0575050505050565b60018381926127fe856125b8565b8152019201930192906127e2565b9060ff8091169116019060ff821161074957565b60ff6000199116019060ff821161074957565b600080805b83519060ff91828516908110156128be576001836128718161285a858b6126e4565b5151600a9116818111156128b65750935b896126e4565b515116036128a1575081612886600b926127a6565b9316019081116107495761289a90926127a6565b9190612838565b61289a92506128b0919361280c565b926127a6565b90509361286b565b5093505090505b60ff90818116906015821180612900575b156128f957506009190181811161074957911680156107495760001901906128c5565b9250505090565b5082841615156128d6565b908154600160401b8110156119f057600181018084558110156126f85761278492600052602060002001612758565b806000526000602052604060002090600982015460348103610ccc57600b8301546004918285015491612973600587019384549061274b565b604051906020820192428452446040840152876060840152608083015260a082015260a081526129a28161255e565b519020604051906020828481520192600988016000526020600020906000915b81601f840110612fb05794610531928592612ade975491818110612f9a575b818110612f81575b818110612f68575b818110612f4f575b818110612f37575b818110612f1e575b818110612f05575b818110612eec575b818110612ed3575b818110612eba575b818110612ea1575b818110612e88575b818110612e6f575b818110612e56575b818110612e3d575b818110612e24575b818110612e0b575b818110612df2575b818110612dd9575b818110612dc0575b818110612da7575b818110612d8e575b818110612d75575b818110612d5c575b818110612d43575b818110612d2a575b818110612d11575b818110612cf8575b818110612cdf575b818110612cc6575b818110612cad575b10612c9d57500383612596565b9360ff918286511660018110159081612c91575b5015612c58576020860193838551168160018210159182612c4d575b505015612c1557600d84612b2481885116612820565b1602848116908103612c0057612b418591610599838b5116612820565b169084612b518360098701612786565b90549060031b1c16612bc857509282612ba1888394612b9a6105d060609960097fa3b3e2532a51907c70564d7eb439a729f06dc722d859e88561a31f9a1579ecb69c9a01612786565b905561290b565b6001808060a01b0391015416965116915116604051918252602082015260016040820152a3565b60649060206040519162461bcd60e51b8352820152601160248201527010d85c9908185b1c9958591e481d5cd959607a1b6044820152fd5b601182634e487b7160e01b6000525260246000fd5b60649060206040519162461bcd60e51b83528201526011602482015270125b9d985b1a590818d85c99081cdd5a5d607a1b6044820152fd5b111590508138612b0e565b60405162461bcd60e51b81526020818601526012602482015271496e76616c696420636172642076616c756560701b6044820152606490fd5b600d9150111538612af2565b60f81c1515815260200138610529565b92602060019160ff8560f01c1615158152019301612ad1565b92602060019160ff8560e81c1615158152019301612ac9565b92602060019160ff8560e01c1615158152019301612ac1565b92602060019160ff8560d81c1615158152019301612ab9565b92602060019160ff8560d01c1615158152019301612ab1565b92602060019160ff8560c81c1615158152019301612aa9565b92602060019160ff8560c01c1615158152019301612aa1565b92602060019160ff8560b81c1615158152019301612a99565b92602060019160ff8560b01c1615158152019301612a91565b92602060019160ff8560a81c1615158152019301612a89565b92602060019160ff8560a01c1615158152019301612a81565b92602060019160ff8560981c1615158152019301612a79565b92602060019160ff8560901c1615158152019301612a71565b92602060019160ff8560881c1615158152019301612a69565b92602060019160ff8560801c1615158152019301612a61565b92602060019160ff8560781c1615158152019301612a59565b92602060019160ff8560701c1615158152019301612a51565b92602060019160ff8560681c1615158152019301612a49565b92602060019160ff8560601c1615158152019301612a41565b92602060019160ff8560581c1615158152019301612a39565b92602060019160ff8560501c1615158152019301612a31565b92602060019160ff8560481c1615158152019301612a29565b92602060019160ff8560401c1615158152019301612a21565b92602060019160ff8560381c1615158152019301612a19565b92602060019160ff8560301c1615158152019301612a11565b92602060019160ff8560281c1615158152019301612a09565b92602060019160ff85831c1615158152019301612a01565b92602060019160ff8560181c16151581520193016129f9565b92602060019160ff8560101c16151581520193016129f1565b92602060019160ff8560081c16151581520193016129e9565b92602060019160ff8516151581520193016129e1565b9293946001610400602092865460ff80821615158352808260081c16151586840152808260101c1615156040840152808260181c16151560608401528082871c1615156080840152808260281c16151560a0840152808260c0828260301c16151581870152828260e092828260381c161515848a0152828260401c1615156101008a0152828260481c1615156101208a0152828260501c1615156101408a0152828260581c1615156101608a0152828260601c1615156101808a0152828260681c1615156101a08a0152828260701c1615156101c08a0152828260781c1615156101e08a0152828260801c1615156102008a0152828260881c1615156102208a0152828260901c1615156102408a0152828260981c1615156102608a0152828260a01c1615156102808a0152828260a81c1615156102a08a0152828260b01c1615156102c08a0152828260b81c1615156102e08a01521c161515610300870152828260c81c161515610320870152828260d01c161515610340870152828260d81c1615156103608701521c161515610380840152808260e81c1615156103a08401528160f01c1615156103c083015260f81c15156103e0820152019401920191949392946129c2565b91909160409283519261318b8461257a565b6000808552806020809601526034938484510361330f578190825b8681106132db575081156132a257068193825b8681106131fd57885162461bcd60e51b815260048101899052601660248201527510d85c990819d95b995c985d1a5bdb8819985a5b195960521b6044820152606490fd5b61320781836126e4565b511561321c575b613217906126d5565b6131b9565b9482811461323857613230613217916126d5565b95905061320e565b50505093925093600d908183069460019283870180971161328e5760ff940492830180931161327a57508290519461326f8661257a565b168452169082015290565b634e487b7160e01b81526011600452602490fd5b634e487b7160e01b82526011600452602482fd5b875162461bcd60e51b81526004810188905260126024820152714e6f20636172647320617661696c61626c6560701b6044820152606490fd5b6132e581876126e4565b51156132fa575b6132f5906126d5565b6131a6565b916133076132f5916126d5565b9290506132ec565b865162461bcd60e51b815260048101879052601f60248201527f496e76616c69642075736564206361726473206172726179206c656e677468006044820152606490fd5b1561335a57565b60405162461bcd60e51b815260206004820152600d60248201526c4e6f7420796f75722067616d6560981b6044820152606490fd5b1561339657565b60405162461bcd60e51b81526020600482015260116024820152702737ba10383630bcb2b913b9903a3ab93760791b6044820152606490fd5b156133d657565b60405162461bcd60e51b815260206004820152602360248201527f4f6e6c79206465616c65722063616e20706572666f726d20746869732061637460448201526234b7b760e91b6064820152608490fd5b1561342e57565b60405162461bcd60e51b81526020600482015260116024820152702737ba103232b0b632b913b9903a3ab93760791b6044820152606490fd5b60008181528060205260ff60076040832001541660058110156134b657906134b260037fff773149b0a6d40de7532b973a8039a54964a8c109ea0b4c6e88bb04e15bbe129314613427565b80a2565b634e487b7160e01b82526021600452602482fd5b156134d157565b60405162461bcd60e51b815260206004820152601660248201527511d85b5948185b1c9958591e4818dbdb5c1b195d195960521b6044820152606490fd5b90816000526000602052604060002091600783015460ff8116600581101561015857600461353e9114156134ca565b60028401546003850154613552818361274b565b91600887015461358160ff8660081c1660ff8760181c1660ff8860101c168560ff8660081c1660ff871661383c565b61358b818461274b565b80860391868311610749571561383557805b951461382d575b9460ff8160101c166000146136fe57505050506040516135c38161257a565b600b81526a4465616c65722077696e7360a81b6020820152945b81801580156136cf575b5050828015801561369d575b5050600890600460ff1960078301541617600782015501546040519260a084528651928360a086015260005b84811061368757507f25385962b4e4e118e0eb9a2e0390e6f5a84d21567cf1c28a2351a3bd413c4ca6959697508492849260ff92600060c080988801015260208601526040850152818116606085015260081c166080830152601f80199101168101030190a2565b80602080928b01015160c082890101520161361f565b6000808093819360018060a01b036001880154169083906136c6575bf115611d285782386135f3565b506108fc6136b9565b6000808093819360018060a01b038754169083906136f5575bf115611d285781386135e7565b506108fc6136e8565b60ff8160181c1660001461373a575050505060405161371c8161257a565b600b81526a506c617965722077696e7360a81b6020820152946135dd565b60081c60ff168061381c575b1561378a5750505060405161375a8161257a565b601a81527f506c617965722077696e73207769746820426c61636b6a61636b0000000000006020820152946135dd565b60ff8160081c1660ff8216116000146137ac5750505060405161371c8161257a565b60ff808260089795979694961c169116146000146137ee5750506040516137d28161257a565b6009815268507573682f4472617760b81b6020820152946135dd565b915091506040516137fe8161257a565b600b81526a4465616c65722077696e7360a81b6020820152946135dd565b50601560ff8260081c161415613746565b5060006135a4565b600061359d565b94909391926138b157806138a3575b613886578015613877575b613871575060ff80911691161461386c57600090565b600090565b91505090565b5060ff821660ff841611613856565b5060fa808202935081159184041417159050610749576064900490565b50601560ff8416141561384b565b505050505060009056fea264697066735822122038707b4f95b9bbd124ab51bb5c69187a3258756ede94e481469d0050489a2f9764736f6c63430008150033",
  "immutableReferences": {},
  "source": "// SPDX-License-Identifier: MIT\r\npragma solidity ^0.8.21;\r\n\r\nimport \"./CardLib.sol\";\r\n\r\ncontract Blackjack {\r\n    using CardLib for CardLib.Card;\r\n\r\n    // Enums\r\n    enum LobbyStatus { Open, InProgress, Completed, Cancelled }\r\n    enum GameState { Open, Dealing, PlayerTurn, DealerTurn, Complete }\r\n\r\n    // Constants\r\n    uint8 constant DEALER_MIN_STAND = 17;\r\n    uint8 constant BLACKJACK = 21;\r\n    uint8 constant ACE_HIGH = 11;\r\n    uint8 constant ACE_LOW = 1;\r\n    uint256 constant BLACKJACK_MULTIPLIER = 250; // 3:2 payout represented as 250 basis points\r\n    uint256 constant MULTIPLIER_BASE = 100;      // Base for multiplier calculations\r\n    uint256 constant LOBBY_TIMEOUT = 1 hours;\r\n    uint256 constant GAME_TIMEOUT = 30 minutes;\r\n    bytes32 constant SALT_BASE = 0x1234567890abcdef1234567890abcdef1234567890abcdef1234567890abcdef;\r\n\r\n    // Using CardLib's Card struct\r\n    using CardLib for CardLib.Card;\r\n\r\n    // Scores struct to store player and dealer scores\r\n    struct Scores {\r\n        uint8 playerScore;\r\n        uint8 dealerScore;\r\n    }\r\n\r\n    // Lobby struct to handle game creation and joining\r\n    struct Lobby {\r\n        uint256 lobbyId;\r\n        address payable dealer; // Dealer's address\r\n        uint256 betAmount;      // Player's bet amount\r\n        LobbyStatus status;\r\n        uint256 gameId;\r\n        uint256 creationTime;\r\n    }\r\n\r\n    // Game struct to store all game-related data\r\n    struct Game {\r\n        address payable player; // Player's address\r\n        address payable dealer; // Dealer's address\r\n        uint256 betAmount;      // Player's bet\r\n        uint256 dealerStake;    // Dealer's stake (1.5x bet)\r\n        CardLib.Card[] playerHand;\r\n        CardLib.Card[] dealerHand;\r\n        uint256 gameId;\r\n        GameState state;\r\n        bool isBlackjack;\r\n        bool playerBusted;\r\n        bool dealerBusted;\r\n        Scores scores;\r\n        bool[] usedCards;\r\n        uint256 lastActionTime;\r\n        bytes32 randomnessCommit;\r\n    }\r\n\r\n    // State variables\r\n    mapping(uint256 => Game) public games;\r\n    mapping(uint256 => Lobby) public lobbies;\r\n    uint256 public gameCounter;\r\n    uint256 public lobbyCounter;\r\n    uint256 public minBet;\r\n    uint256 public maxBet;\r\n\r\n    // Events\r\n    event LobbyCreated(uint256 indexed lobbyId, address indexed dealer, uint256 betAmount);\r\n    event LobbyJoined(uint256 indexed lobbyId, address indexed player);\r\n    event LobbyCancelled(uint256 indexed lobbyId, address indexed dealer, uint256 refundAmount);\r\n    event LobbyTimeout(uint256 indexed lobbyId);\r\n    event GameCreated(uint256 indexed gameId, address indexed player, address indexed dealer, uint256 betAmount);\r\n    event CardDealt(uint256 indexed gameId, address indexed recipient, uint8 value, uint8 suit, bool isDealer);\r\n    event PlayerAction(uint256 indexed gameId, string action);\r\n    event HandBusted(uint256 indexed gameId);\r\n    event DealerAction(uint256 indexed gameId, string action);\r\n    event GameComplete(uint256 indexed gameId, string result, uint256 playerPayout, uint256 dealerPayout, uint8 playerScore, uint8 dealerScore);\r\n    event PlayerTurn(uint256 indexed gameId);\r\n    event DealerTurn(uint256 indexed gameId);\r\n\r\n    constructor(uint256 _minBet, uint256 _maxBet) {\r\n        require(_minBet > 0 && _maxBet >= _minBet, \"Invalid bet amounts\");\r\n        minBet = _minBet;\r\n        maxBet = _maxBet;\r\n    }\r\n\r\n    // Get All Open Lobbies\r\n    function getOpenLobbies() external view returns (Lobby[] memory) {\r\n        Lobby[] memory openLobbies = new Lobby[](lobbyCounter);\r\n        uint256 openLobbiesCount = 0;\r\n\r\n        for (uint256 i = 0; i < lobbyCounter; i++) {\r\n            if (lobbies[i].status == LobbyStatus.Open) {\r\n                openLobbies[openLobbiesCount] = lobbies[i];\r\n                openLobbiesCount++;\r\n            }\r\n        }\r\n\r\n        // Trim the array to the actual number of open lobbies\r\n        Lobby[] memory trimmedLobbies = new Lobby[](openLobbiesCount);\r\n        for (uint256 i = 0; i < openLobbiesCount; i++) {\r\n            trimmedLobbies[i] = openLobbies[i];\r\n        }\r\n\r\n        return trimmedLobbies;\r\n    }\r\n\r\n    // Create a new lobby as Dealer\r\n    function createLobby(uint256 betAmount) external payable {\r\n        require(betAmount >= minBet && betAmount <= maxBet, \"Bet amount out of range\");\r\n        require(msg.value == (betAmount * 3) / 2, \"Dealer must stake 1.5x the bet amount\");\r\n\r\n        lobbies[lobbyCounter] = Lobby({\r\n            lobbyId: lobbyCounter,\r\n            dealer: payable(msg.sender),\r\n            betAmount: betAmount,\r\n            status: LobbyStatus.Open,\r\n            gameId: 0,\r\n            creationTime: block.timestamp\r\n        });\r\n\r\n        emit LobbyCreated(lobbyCounter, msg.sender, betAmount);\r\n        lobbyCounter++;\r\n    }\r\n\r\n    // Cancel lobby\r\n    function cancelLobby(uint256 lobbyId) external {\r\n        Lobby storage lobby = lobbies[lobbyId];\r\n        require(msg.sender == lobby.dealer, \"Only dealer can cancel\");\r\n        require(lobby.status == LobbyStatus.Open, \"Lobby not open\");\r\n\r\n        lobby.status = LobbyStatus.Cancelled;\r\n        uint256 refundAmount = (lobby.betAmount * 3) / 2;\r\n        lobby.dealer.transfer(refundAmount);\r\n\r\n        emit LobbyCancelled(lobbyId, msg.sender, refundAmount);\r\n    }\r\n\r\n    // Join an existing lobby as Player and start the game\r\n    function joinLobby(uint256 lobbyId) external payable {\r\n        Lobby storage lobby = lobbies[lobbyId];\r\n        require(lobbyId < lobbyCounter, \"Invalid lobby ID\");\r\n        require(lobby.status == LobbyStatus.Open, \"Lobby not open\");\r\n        require(msg.sender != lobby.dealer, \"Dealer cannot join their own lobby\");\r\n        require(msg.value == lobby.betAmount, \"Incorrect bet amount\");\r\n        require(lobby.gameId == 0, \"Game already started\");\r\n        require(block.timestamp <= lobby.creationTime + LOBBY_TIMEOUT, \"Lobby has expired\");\r\n\r\n        // Start the game\r\n        uint256 gameId = _startGame(lobby, msg.sender);\r\n\r\n        // Update lobby status\r\n        lobby.status = LobbyStatus.InProgress;\r\n        lobby.gameId = gameId;\r\n\r\n        emit LobbyJoined(lobbyId, msg.sender);\r\n    }\r\n\r\n    // Cleanup timed-out lobbies\r\n    function cleanupTimedOutLobbies() external {\r\n        for (uint256 i = 0; i < lobbyCounter; i++) {\r\n            if (\r\n                lobbies[i].status == LobbyStatus.Open &&\r\n                block.timestamp > lobbies[i].creationTime + LOBBY_TIMEOUT\r\n            ) {\r\n                lobbies[i].status = LobbyStatus.Cancelled;\r\n                uint256 refundAmount = (lobbies[i].betAmount * 3) / 2;\r\n                lobbies[i].dealer.transfer(refundAmount);\r\n                emit LobbyTimeout(i);\r\n            }\r\n        }\r\n    }\r\n\r\n    // Internal function to start a new game\r\n    function _startGame(Lobby storage lobby, address player) internal returns (uint256) {\r\n        uint256 currentGameId = gameCounter;\r\n\r\n        // Initialize game\r\n        Game storage newGame = games[currentGameId];\r\n        newGame.player = payable(player);\r\n        newGame.dealer = lobby.dealer;\r\n        newGame.betAmount = lobby.betAmount;\r\n        newGame.dealerStake = (lobby.betAmount * 3) / 2;\r\n        newGame.gameId = currentGameId;\r\n        newGame.state = GameState.Open;\r\n        newGame.isBlackjack = false;\r\n        newGame.playerBusted = false;\r\n        newGame.dealerBusted = false;\r\n        newGame.scores = Scores(0, 0);\r\n        newGame.lastActionTime = block.timestamp;\r\n        newGame.randomnessCommit = _generateCommit(currentGameId);\r\n\r\n        // Initialize usedCards array with proper length\r\n        delete newGame.usedCards;\r\n        newGame.usedCards = new bool[](52);\r\n        for (uint256 i = 0; i < 52; i++) {\r\n            newGame.usedCards[i] = false;\r\n        }\r\n\r\n        emit GameCreated(currentGameId, player, lobby.dealer, lobby.betAmount);\r\n\r\n        // Deal initial cards\r\n        _dealInitialCards(currentGameId);\r\n\r\n        gameCounter++;\r\n        return currentGameId;\r\n    }\r\n\r\n    // Internal function to deal initial cards\r\n    function _dealInitialCards(uint256 gameId) internal {\r\n        Game storage game = games[gameId];\r\n        require(game.state == GameState.Open, \"Game not in open state\");\r\n\r\n        game.state = GameState.Dealing;\r\n\r\n        // Deal two cards each to player and dealer\r\n        for (uint8 i = 0; i < 2; i++) {\r\n            _dealCard(gameId, false); // To player\r\n            _dealCard(gameId, true);  // To dealer\r\n        }\r\n\r\n        // Calculate initial scores\r\n        game.scores.playerScore = CardLib.calculateHandValue(game.playerHand);\r\n        game.scores.dealerScore = CardLib.calculateHandValue(game.dealerHand);\r\n\r\n        // Check for blackjack\r\n        if (game.scores.playerScore == BLACKJACK) {\r\n            game.isBlackjack = true;\r\n            _endGame(gameId);\r\n        } else {\r\n            game.state = GameState.PlayerTurn;\r\n            emit PlayerTurn(gameId); // Emit PlayerTurn event\r\n        }\r\n    }\r\n\r\n    // Internal function to deal a single card\r\n    function _dealCard(uint256 gameId, bool toDealer) internal {\r\n        Game storage game = games[gameId];\r\n        require(game.usedCards.length == 52, \"Card tracking not initialized\");\r\n\r\n        // Generate a unique seed for randomness\r\n        uint256 seed = uint256(keccak256(abi.encodePacked(\r\n            block.timestamp,\r\n            block.prevrandao,\r\n            gameId,\r\n            game.randomnessCommit,\r\n            game.playerHand.length + game.dealerHand.length\r\n        )));\r\n\r\n        // Generate a random card that hasn't been used\r\n        CardLib.Card memory newCard = CardLib.generateRandomCard(seed, game.usedCards);\r\n        \r\n        // Mark the card as used\r\n        uint256 cardIndex = CardLib.getCardIndex(newCard);\r\n        require(!game.usedCards[cardIndex], \"Card already used\");\r\n        game.usedCards[cardIndex] = true;\r\n\r\n        // Add card to appropriate hand\r\n        if (toDealer) {\r\n            game.dealerHand.push(newCard);\r\n            emit CardDealt(gameId, game.dealer, newCard.value, newCard.suit, true);\r\n        } else {\r\n            game.playerHand.push(newCard);\r\n            emit CardDealt(gameId, game.player, newCard.value, newCard.suit, false);\r\n        }\r\n    }\r\n\r\n    // Player action: Hit\r\n    function hit(uint256 gameId) external {\r\n        Game storage game = games[gameId];\r\n        require(msg.sender == game.player, \"Not your game\");\r\n        require(game.state == GameState.PlayerTurn, \"Not player's turn\");\r\n        require(!game.playerBusted, \"Player already busted\");\r\n\r\n        // Deal card\r\n        _dealCard(gameId, false);\r\n\r\n        game.scores.playerScore = CardLib.calculateHandValue(game.playerHand);\r\n\r\n        if (game.scores.playerScore > BLACKJACK) {\r\n            game.playerBusted = true;\r\n            emit HandBusted(gameId);\r\n            _endGame(gameId);\r\n        }\r\n\r\n        game.lastActionTime = block.timestamp;\r\n        emit PlayerAction(gameId, \"Hit\");\r\n    }\r\n\r\n    // Player action: Stand\r\n    function stand(uint256 gameId) external {\r\n        Game storage game = games[gameId];\r\n        require(msg.sender == game.player, \"Not your game\");\r\n        require(game.state == GameState.PlayerTurn, \"Not player's turn\");\r\n        game.state = GameState.DealerTurn;\r\n        _dealerTurn(gameId);\r\n\r\n        game.lastActionTime = block.timestamp;\r\n        emit PlayerAction(gameId, \"Stand\");\r\n    }\r\n\r\n    // Dealer action: Hit\r\n    function dealerHit(uint256 gameId) external {\r\n        Game storage game = games[gameId];\r\n        require(msg.sender == game.dealer, \"Only dealer can perform this action\");\r\n        require(game.state == GameState.DealerTurn, \"Not dealer's turn\");\r\n        require(!game.dealerBusted, \"Dealer already busted\");\r\n\r\n        _dealCard(gameId, true);\r\n        game.scores.dealerScore = CardLib.calculateHandValue(game.dealerHand);\r\n\r\n        if (game.scores.dealerScore > BLACKJACK) {\r\n            game.dealerBusted = true;\r\n            emit DealerAction(gameId, \"Bust\");\r\n            _endGame(gameId);\r\n        }\r\n\r\n        game.lastActionTime = block.timestamp;\r\n        emit DealerAction(gameId, \"Hit\");\r\n    }\r\n\r\n    // Dealer action: Stand\r\n    function dealerStand(uint256 gameId) external {\r\n        Game storage game = games[gameId];\r\n        require(msg.sender == game.dealer, \"Only dealer can perform this action\");\r\n        require(game.state == GameState.DealerTurn, \"Not dealer's turn\");\r\n\r\n        emit DealerAction(gameId, \"Stand\");\r\n        _endGame(gameId);\r\n    }\r\n\r\n    function _dealerTurn(uint256 gameId) internal {\r\n        Game storage game = games[gameId];\r\n        require(game.state == GameState.DealerTurn, \"Not dealer's turn\");\r\n        emit DealerTurn(gameId);\r\n    }\r\n\r\n    // Game resolution\r\n    function _endGame(uint256 gameId) internal {\r\n        Game storage game = games[gameId];\r\n        require(game.state != GameState.Complete, \"Game already completed\");\r\n\r\n        (uint256 payoutToPlayer, uint256 payoutToDealer, string memory result) = _calculateGamePayout(game);\r\n\r\n        // Handle payouts\r\n        if (payoutToPlayer > 0) {\r\n            game.player.transfer(payoutToPlayer);\r\n        }\r\n\r\n        if (payoutToDealer > 0) {\r\n            game.dealer.transfer(payoutToDealer);\r\n        }\r\n\r\n        _finalizeGameState(gameId, game, result, payoutToPlayer, payoutToDealer);\r\n\r\n        // No need to update lobby status since each lobby is tied to one game\r\n    }\r\n\r\n    // Internal function to calculate game payout\r\n    function _calculateGamePayout(Game storage game)\r\n        internal\r\n        view\r\n        returns (uint256 payoutToPlayer, uint256 payoutToDealer, string memory result)\r\n    {\r\n        uint256 totalFunds = game.betAmount + game.dealerStake;\r\n        uint256 playerWinnings = _calculateMainHandPayout(game);\r\n        uint256 playerTotalPayout = game.betAmount + playerWinnings; // Player's original bet + winnings\r\n        uint256 dealerTotalPayout = totalFunds - playerTotalPayout; // Remaining funds to dealer\r\n\r\n        payoutToPlayer = playerWinnings > 0 ? playerTotalPayout : 0;\r\n        payoutToDealer = dealerTotalPayout > 0 ? dealerTotalPayout : 0;\r\n\r\n        if (game.playerBusted) {\r\n            result = \"Dealer wins\";\r\n        } else if (game.dealerBusted) {\r\n            result = \"Player wins\";\r\n        } else if (game.isBlackjack && game.scores.dealerScore != BLACKJACK) {\r\n            result = \"Player wins with Blackjack\";\r\n        } else if (game.scores.playerScore > game.scores.dealerScore) {\r\n            result = \"Player wins\";\r\n        } else if (game.scores.playerScore == game.scores.dealerScore) {\r\n            // Push - return player's original bet to the player\r\n            payoutToPlayer = game.betAmount;\r\n            payoutToDealer = game.dealerStake;\r\n            result = \"Push/Draw\";\r\n        } else {\r\n            result = \"Dealer wins\";\r\n        }\r\n    }\r\n\r\n    // Internal function to calculate main hand payout\r\n    function _calculateMainHandPayout(Game storage game) internal view returns (uint256) {\r\n        return _determineHandPayout(\r\n            game.scores.playerScore,\r\n            game.scores.dealerScore,\r\n            game.betAmount,\r\n            game.playerBusted,\r\n            game.dealerBusted,\r\n            game.isBlackjack\r\n        );\r\n    }\r\n\r\n    // Internal pure function to determine hand payout\r\n    function _determineHandPayout(\r\n        uint8 playerScore,\r\n        uint8 dealerScore,\r\n        uint256 betAmount,\r\n        bool playerBusted,\r\n        bool dealerBusted,\r\n        bool isBlackjack\r\n    ) internal pure returns (uint256) {\r\n        if (playerBusted) {\r\n            return 0;\r\n        }\r\n\r\n        if (isBlackjack && dealerScore != BLACKJACK) {\r\n            // Blackjack pays 3:2\r\n            return (betAmount * BLACKJACK_MULTIPLIER) / MULTIPLIER_BASE; // winnings = betAmount * 1.5\r\n        }\r\n\r\n        if (dealerBusted || playerScore > dealerScore) {\r\n            // Regular win pays 1:1\r\n            return betAmount; // winnings = betAmount\r\n        }\r\n\r\n        if (playerScore == dealerScore) {\r\n            // Push - no winnings\r\n            return 0;\r\n        }\r\n\r\n        // Player loses\r\n        return 0;\r\n    }\r\n\r\n    // Internal function to finalize game state\r\n    function _finalizeGameState(\r\n        uint256 gameId,\r\n        Game storage game,\r\n        string memory result,\r\n        uint256 payoutToPlayer,\r\n        uint256 payoutToDealer\r\n    ) internal {\r\n        game.state = GameState.Complete;\r\n        emit GameComplete(gameId, result, payoutToPlayer, payoutToDealer, game.scores.playerScore, game.scores.dealerScore);\r\n    }\r\n\r\n    // ------------------ Helper Functions ------------------\r\n\r\n    /**\r\n     * @dev Returns the player's hand for a specific game.\r\n     * @param gameId The ID of the game.\r\n     * @return An array of Card structs representing the player's hand.\r\n     */\r\n    function getPlayerHand(uint256 gameId) external view returns (CardLib.Card[] memory) {\r\n        return games[gameId].playerHand;\r\n    }\r\n\r\n    /**\r\n     * @dev Returns the dealer's hand for a specific game.\r\n     * @param gameId The ID of the game.\r\n     * @return An array of Card structs representing the dealer's hand.\r\n     */\r\n    function getDealerHand(uint256 gameId) external view returns (CardLib.Card[] memory) {\r\n        return games[gameId].dealerHand;\r\n    }\r\n\r\n    // Helper function to generate commit for randomness\r\n    function _generateCommit(uint256 gameId) internal view returns (bytes32) {\r\n        return keccak256(abi.encodePacked(\r\n            block.timestamp,\r\n            block.prevrandao,\r\n            msg.sender,\r\n            gameId,\r\n            SALT_BASE\r\n        ));\r\n    }\r\n\r\n    // Generate secure random number (placeholder - needs secure implementation)\r\n    function _generateSecureRandom(uint256 gameId, bytes32 commit) internal view returns (uint256) {\r\n        return uint256(keccak256(abi.encodePacked(\r\n            commit,\r\n            block.timestamp,\r\n            block.prevrandao,\r\n            msg.sender,\r\n            gameId\r\n        )));\r\n    }\r\n\r\n    // Function to handle stuck games\r\n    function resolveStuckGame(uint256 gameId) external {\r\n        Game storage game = games[gameId];\r\n        require(block.timestamp > game.lastActionTime + GAME_TIMEOUT, \"Game not timed out\");\r\n        require(game.state != GameState.Complete, \"Game already completed\");\r\n\r\n        if (game.state == GameState.PlayerTurn) {\r\n            // If player timed out, they forfeit\r\n            game.playerBusted = true;\r\n            _endGame(gameId);\r\n        } else if (game.state == GameState.DealerTurn) {\r\n            // If stuck in dealer's turn, complete the game\r\n            _dealerTurn(gameId);\r\n        }\r\n    }\r\n\r\n    // Get game state\r\n    function getGameState(uint256 gameId)\r\n        external\r\n        view\r\n        returns (\r\n            uint8 playerScore,\r\n            uint8 dealerScore,\r\n            bool isPlayerTurn,\r\n            bool isComplete,\r\n            uint256 betAmount\r\n        )\r\n    {\r\n        Game storage game = games[gameId];\r\n\r\n        return (\r\n            game.scores.playerScore,\r\n            game.scores.dealerScore,\r\n            game.state == GameState.PlayerTurn,\r\n            game.state == GameState.Complete,\r\n            game.betAmount\r\n        );\r\n    }\r\n}\r\n",
  "sourcePath": "C:\\Users\\rjqui\\Documents\\GitHub\\CSC-196D-Block-Wager\\truffle\\contracts\\blackjack.sol",
  "compiler": {
    "name": "solc",
    "version": "0.8.21+commit.d9974bed.Emscripten.clang"
  },
  "schemaVersion": "3.4.16",
  "updatedAt": "2024-11-30T21:04:40.701Z",
  "networkType": "ethereum",
  "devdoc": {
    "kind": "dev",
    "methods": {
      "getDealerHand(uint256)": {
        "details": "Returns the dealer's hand for a specific game.",
        "params": {
          "gameId": "The ID of the game."
        },
        "returns": {
          "_0": "An array of Card structs representing the dealer's hand."
        }
      },
      "getPlayerHand(uint256)": {
        "details": "Returns the player's hand for a specific game.",
        "params": {
          "gameId": "The ID of the game."
        },
        "returns": {
          "_0": "An array of Card structs representing the player's hand."
        }
      }
    },
    "version": 1
  },
  "userdoc": {
    "kind": "user",
    "methods": {},
    "version": 1
  }
}