{
  "contractName": "CoinFlip",
  "abi": [
    {
      "anonymous": false,
      "inputs": [
        {
          "indexed": false,
          "internalType": "uint256",
          "name": "lobbyId",
          "type": "uint256"
        },
        {
          "indexed": false,
          "internalType": "string",
          "name": "result",
          "type": "string"
        }
      ],
      "name": "CoinFlipped",
      "type": "event"
    },
    {
      "anonymous": false,
      "inputs": [
        {
          "indexed": false,
          "internalType": "uint256",
          "name": "lobbyId",
          "type": "uint256"
        },
        {
          "indexed": false,
          "internalType": "address",
          "name": "host",
          "type": "address"
        },
        {
          "indexed": false,
          "internalType": "uint256",
          "name": "betAmount",
          "type": "uint256"
        },
        {
          "indexed": false,
          "internalType": "string",
          "name": "choice",
          "type": "string"
        }
      ],
      "name": "LobbyCreated",
      "type": "event"
    },
    {
      "anonymous": false,
      "inputs": [
        {
          "indexed": false,
          "internalType": "uint256",
          "name": "lobbyId",
          "type": "uint256"
        },
        {
          "indexed": false,
          "internalType": "address",
          "name": "joinedUser",
          "type": "address"
        }
      ],
      "name": "LobbyJoined",
      "type": "event"
    },
    {
      "inputs": [
        {
          "internalType": "uint256",
          "name": "",
          "type": "uint256"
        }
      ],
      "name": "lobbies",
      "outputs": [
        {
          "internalType": "address payable",
          "name": "host",
          "type": "address"
        },
        {
          "internalType": "uint256",
          "name": "betAmount",
          "type": "uint256"
        },
        {
          "internalType": "string",
          "name": "choice",
          "type": "string"
        },
        {
          "internalType": "address payable",
          "name": "joinedUser",
          "type": "address"
        },
        {
          "internalType": "string",
          "name": "result",
          "type": "string"
        },
        {
          "internalType": "string",
          "name": "status",
          "type": "string"
        }
      ],
      "stateMutability": "view",
      "type": "function",
      "constant": true
    },
    {
      "inputs": [],
      "name": "lobbyCounter",
      "outputs": [
        {
          "internalType": "uint256",
          "name": "",
          "type": "uint256"
        }
      ],
      "stateMutability": "view",
      "type": "function",
      "constant": true
    },
    {
      "inputs": [
        {
          "internalType": "string",
          "name": "choice",
          "type": "string"
        }
      ],
      "name": "createLobby",
      "outputs": [],
      "stateMutability": "payable",
      "type": "function",
      "payable": true
    },
    {
      "inputs": [
        {
          "internalType": "uint256",
          "name": "lobbyId",
          "type": "uint256"
        }
      ],
      "name": "joinLobby",
      "outputs": [],
      "stateMutability": "payable",
      "type": "function",
      "payable": true
    }
  ],
  "bytecode": "0x608060405234801561000f575f80fd5b506118938061001d5f395ff3fe60806040526004361061003e575f3560e01c806344152a58146100425780636e8fb4c61461005e57806377f195221461009f578063e9173b3a146100c9575b5f80fd5b61005c60048036038101906100579190610d44565b6100e5565b005b348015610069575f80fd5b50610084600480360381019061007f9190610dbe565b6103df565b60405161009696959493929190610eb1565b60405180910390f35b3480156100aa575f80fd5b506100b36105e6565b6040516100c09190610f25565b60405180910390f35b6100e360048036038101906100de9190610dbe565b6105ec565b005b7fa6013de8991fab770e3fa2931c14473f1e230c715b5e8ee3b7ed3ba596e9bd5a816040516020016101179190610f78565b60405160208183030381529060405280519060200120148061017e57507f4db9a9fdf16922aeeb4424ad20c6ae897ce2cc81d9403af65a3865cf80092e0e816040516020016101669190610f78565b60405160208183030381529060405280519060200120145b6101bd576040517f08c379a00000000000000000000000000000000000000000000000000000000081526004016101b490610fd8565b60405180910390fd5b5f34116101ff576040517f08c379a00000000000000000000000000000000000000000000000000000000081526004016101f690611066565b60405180910390fd5b6040518060c001604052803373ffffffffffffffffffffffffffffffffffffffff1681526020013481526020018281526020015f73ffffffffffffffffffffffffffffffffffffffff16815260200160405180602001604052805f81525081526020016040518060400160405280600481526020017f4f70656e000000000000000000000000000000000000000000000000000000008152508152505f8060015481526020019081526020015f205f820151815f015f6101000a81548173ffffffffffffffffffffffffffffffffffffffff021916908373ffffffffffffffffffffffffffffffffffffffff160217905550602082015181600101556040820151816002019081610310919061127e565b506060820151816003015f6101000a81548173ffffffffffffffffffffffffffffffffffffffff021916908373ffffffffffffffffffffffffffffffffffffffff160217905550608082015181600401908161036c919061127e565b5060a0820151816005019081610382919061127e565b509050507f61f27d25065dae618a19f1bd7061c08fa58092f436d65ab6ac28fa840649c7646001543334846040516103bd949392919061136d565b60405180910390a160015f8154809291906103d7906113e4565b919050555050565b5f602052805f5260405f205f91509050805f015f9054906101000a900473ffffffffffffffffffffffffffffffffffffffff1690806001015490806002018054610428906110b1565b80601f0160208091040260200160405190810160405280929190818152602001828054610454906110b1565b801561049f5780601f106104765761010080835404028352916020019161049f565b820191905f5260205f20905b81548152906001019060200180831161048257829003601f168201915b505050505090806003015f9054906101000a900473ffffffffffffffffffffffffffffffffffffffff16908060040180546104d9906110b1565b80601f0160208091040260200160405190810160405280929190818152602001828054610505906110b1565b80156105505780601f1061052757610100808354040283529160200191610550565b820191905f5260205f20905b81548152906001019060200180831161053357829003601f168201915b505050505090806005018054610565906110b1565b80601f0160208091040260200160405190810160405280929190818152602001828054610591906110b1565b80156105dc5780601f106105b3576101008083540402835291602001916105dc565b820191905f5260205f20905b8154815290600101906020018083116105bf57829003601f168201915b5050505050905086565b60015481565b5f805f8381526020019081526020015f2090507f8f5d8ba7f4bf26b6e2e2060e5bd28107042be35460fbd828c9d29a2d8af144458160050160405160200161063491906114ab565b604051602081830303815290604052805190602001201461068a576040517f08c379a00000000000000000000000000000000000000000000000000000000081526004016106819061150b565b60405180910390fd5b5f73ffffffffffffffffffffffffffffffffffffffff16816003015f9054906101000a900473ffffffffffffffffffffffffffffffffffffffff1673ffffffffffffffffffffffffffffffffffffffff161461071b576040517f08c379a000000000000000000000000000000000000000000000000000000000815260040161071290611573565b60405180910390fd5b3373ffffffffffffffffffffffffffffffffffffffff16815f015f9054906101000a900473ffffffffffffffffffffffffffffffffffffffff1673ffffffffffffffffffffffffffffffffffffffff16036107ab576040517f08c379a00000000000000000000000000000000000000000000000000000000081526004016107a2906115db565b60405180910390fd5b806001015434146107f1576040517f08c379a00000000000000000000000000000000000000000000000000000000081526004016107e890611643565b60405180910390fd5b33816003015f6101000a81548173ffffffffffffffffffffffffffffffffffffffff021916908373ffffffffffffffffffffffffffffffffffffffff1602179055506040518060400160405280600881526020017f466c697070696e67000000000000000000000000000000000000000000000000815250816005019081610879919061127e565b507fa31ecd4ef5c4170fc73b952e6c0344155875718dd9892919041e8a449246cb2682336040516108ab929190611661565b60405180910390a16108bc826108c0565b5050565b5f805f8381526020019081526020015f2090507ff50e5540edb56f0b102c5d76a0a466e0f6951d9f7bd2c0086e0cc3593f0ea0258160050160405160200161090891906114ab565b604051602081830303815290604052805190602001201461095e576040517f08c379a0000000000000000000000000000000000000000000000000000000008152600401610955906116d2565b60405180910390fd5b5f600242443360405160200161097693929190611755565b604051602081830303815290604052805190602001205f1c61099891906117be565b90505f8082146109dd576040518060400160405280600581526020017f5461696c73000000000000000000000000000000000000000000000000000000815250610a14565b6040518060400160405280600581526020017f48656164730000000000000000000000000000000000000000000000000000008152505b905080836004019081610a27919061127e565b506040518060400160405280600581526020017f456e646564000000000000000000000000000000000000000000000000000000815250836005019081610a6e919061127e565b507f8267de97e9e9544223efef3950909bca0e0956a48e9216237ae894080da3761f8482604051610aa09291906117ee565b60405180910390a182600201604051602001610abc91906114ab565b6040516020818303038152906040528051906020012081604051602001610ae39190610f78565b6040516020818303038152906040528051906020012003610b7957825f015f9054906101000a900473ffffffffffffffffffffffffffffffffffffffff1673ffffffffffffffffffffffffffffffffffffffff166108fc60028560010154610b4b919061181c565b90811502906040515f60405180830381858888f19350505050158015610b73573d5f803e3d5ffd5b50610bf1565b826003015f9054906101000a900473ffffffffffffffffffffffffffffffffffffffff1673ffffffffffffffffffffffffffffffffffffffff166108fc60028560010154610bc7919061181c565b90811502906040515f60405180830381858888f19350505050158015610bef573d5f803e3d5ffd5b505b50505050565b5f604051905090565b5f80fd5b5f80fd5b5f80fd5b5f80fd5b5f601f19601f8301169050919050565b7f4e487b71000000000000000000000000000000000000000000000000000000005f52604160045260245ffd5b610c5682610c10565b810181811067ffffffffffffffff82111715610c7557610c74610c20565b5b80604052505050565b5f610c87610bf7565b9050610c938282610c4d565b919050565b5f67ffffffffffffffff821115610cb257610cb1610c20565b5b610cbb82610c10565b9050602081019050919050565b828183375f83830152505050565b5f610ce8610ce384610c98565b610c7e565b905082815260208101848484011115610d0457610d03610c0c565b5b610d0f848285610cc8565b509392505050565b5f82601f830112610d2b57610d2a610c08565b5b8135610d3b848260208601610cd6565b91505092915050565b5f60208284031215610d5957610d58610c00565b5b5f82013567ffffffffffffffff811115610d7657610d75610c04565b5b610d8284828501610d17565b91505092915050565b5f819050919050565b610d9d81610d8b565b8114610da7575f80fd5b50565b5f81359050610db881610d94565b92915050565b5f60208284031215610dd357610dd2610c00565b5b5f610de084828501610daa565b91505092915050565b5f73ffffffffffffffffffffffffffffffffffffffff82169050919050565b5f610e1282610de9565b9050919050565b610e2281610e08565b82525050565b610e3181610d8b565b82525050565b5f81519050919050565b5f82825260208201905092915050565b5f5b83811015610e6e578082015181840152602081019050610e53565b5f8484015250505050565b5f610e8382610e37565b610e8d8185610e41565b9350610e9d818560208601610e51565b610ea681610c10565b840191505092915050565b5f60c082019050610ec45f830189610e19565b610ed16020830188610e28565b8181036040830152610ee38187610e79565b9050610ef26060830186610e19565b8181036080830152610f048185610e79565b905081810360a0830152610f188184610e79565b9050979650505050505050565b5f602082019050610f385f830184610e28565b92915050565b5f81905092915050565b5f610f5282610e37565b610f5c8185610f3e565b9350610f6c818560208601610e51565b80840191505092915050565b5f610f838284610f48565b915081905092915050565b7f496e76616c69642063686f6963650000000000000000000000000000000000005f82015250565b5f610fc2600e83610e41565b9150610fcd82610f8e565b602082019050919050565b5f6020820190508181035f830152610fef81610fb6565b9050919050565b7f42657420616d6f756e74206d7573742062652067726561746572207468616e205f8201527f3000000000000000000000000000000000000000000000000000000000000000602082015250565b5f611050602183610e41565b915061105b82610ff6565b604082019050919050565b5f6020820190508181035f83015261107d81611044565b9050919050565b7f4e487b71000000000000000000000000000000000000000000000000000000005f52602260045260245ffd5b5f60028204905060018216806110c857607f821691505b6020821081036110db576110da611084565b5b50919050565b5f819050815f5260205f209050919050565b5f6020601f8301049050919050565b5f82821b905092915050565b5f6008830261113d7fffffffffffffffffffffffffffffffffffffffffffffffffffffffffffffffff82611102565b6111478683611102565b95508019841693508086168417925050509392505050565b5f819050919050565b5f61118261117d61117884610d8b565b61115f565b610d8b565b9050919050565b5f819050919050565b61119b83611168565b6111af6111a782611189565b84845461110e565b825550505050565b5f90565b6111c36111b7565b6111ce818484611192565b505050565b5b818110156111f1576111e65f826111bb565b6001810190506111d4565b5050565b601f82111561123657611207816110e1565b611210846110f3565b8101602085101561121f578190505b61123361122b856110f3565b8301826111d3565b50505b505050565b5f82821c905092915050565b5f6112565f198460080261123b565b1980831691505092915050565b5f61126e8383611247565b9150826002028217905092915050565b61128782610e37565b67ffffffffffffffff8111156112a05761129f610c20565b5b6112aa82546110b1565b6112b58282856111f5565b5f60209050601f8311600181146112e6575f84156112d4578287015190505b6112de8582611263565b865550611345565b601f1984166112f4866110e1565b5f5b8281101561131b578489015182556001820191506020850194506020810190506112f6565b868310156113385784890151611334601f891682611247565b8355505b6001600288020188555050505b505050505050565b5f61135782610de9565b9050919050565b6113678161134d565b82525050565b5f6080820190506113805f830187610e28565b61138d602083018661135e565b61139a6040830185610e28565b81810360608301526113ac8184610e79565b905095945050505050565b7f4e487b71000000000000000000000000000000000000000000000000000000005f52601160045260245ffd5b5f6113ee82610d8b565b91507fffffffffffffffffffffffffffffffffffffffffffffffffffffffffffffffff82036114205761141f6113b7565b5b600182019050919050565b5f8154611437816110b1565b6114418186610f3e565b9450600182165f811461145b5760018114611470576114a2565b60ff19831686528115158202860193506114a2565b611479856110e1565b5f5b8381101561149a5781548189015260018201915060208101905061147b565b838801955050505b50505092915050565b5f6114b6828461142b565b915081905092915050565b7f4c6f626279206973206e6f7420617661696c61626c65000000000000000000005f82015250565b5f6114f5601683610e41565b9150611500826114c1565b602082019050919050565b5f6020820190508181035f830152611522816114e9565b9050919050565b7f4c6f62627920616c7265616479206a6f696e65640000000000000000000000005f82015250565b5f61155d601483610e41565b915061156882611529565b602082019050919050565b5f6020820190508181035f83015261158a81611551565b9050919050565b7f486f73742063616e6e6f74206a6f696e207468656972206f776e206c6f6262795f82015250565b5f6115c5602083610e41565b91506115d082611591565b602082019050919050565b5f6020820190508181035f8301526115f2816115b9565b9050919050565b7f496e636f72726563742062657420616d6f756e740000000000000000000000005f82015250565b5f61162d601483610e41565b9150611638826115f9565b602082019050919050565b5f6020820190508181035f83015261165a81611621565b9050919050565b5f6040820190506116745f830185610e28565b611681602083018461135e565b9392505050565b7f47616d65206973206e6f7420726561647920746f20666c6970000000000000005f82015250565b5f6116bc601983610e41565b91506116c782611688565b602082019050919050565b5f6020820190508181035f8301526116e9816116b0565b9050919050565b5f819050919050565b61170a61170582610d8b565b6116f0565b82525050565b5f8160601b9050919050565b5f61172682611710565b9050919050565b5f6117378261171c565b9050919050565b61174f61174a8261134d565b61172d565b82525050565b5f61176082866116f9565b60208201915061177082856116f9565b602082019150611780828461173e565b601482019150819050949350505050565b7f4e487b71000000000000000000000000000000000000000000000000000000005f52601260045260245ffd5b5f6117c882610d8b565b91506117d383610d8b565b9250826117e3576117e2611791565b5b828206905092915050565b5f6040820190506118015f830185610e28565b81810360208301526118138184610e79565b90509392505050565b5f61182682610d8b565b915061183183610d8b565b925082820261183f81610d8b565b91508282048414831517611856576118556113b7565b5b509291505056fea2646970667358221220413e3569e243967a96e2e605229fb5455056e622c5b1e7219f62f8e9fd87da0a64736f6c63430008150033",
  "immutableReferences": {},
  "source": "// SPDX-License-Identifier: MIT\r\npragma solidity ^0.8.21;\r\n\r\ncontract CoinFlip {\r\n    struct Lobby {\r\n        address payable host; // Mark host as payable\r\n        uint256 betAmount;\r\n        string choice; // \"Heads\" or \"Tails\"\r\n        address payable joinedUser; // Mark joinedUser as payable\r\n        string result; // \"Heads\" or \"Tails\"\r\n        string status; // \"Open\", \"Flipping\", \"Ended\"\r\n    }\r\n\r\n    mapping(uint256 => Lobby) public lobbies;\r\n    uint256 public lobbyCounter;\r\n\r\n    event LobbyCreated(uint256 lobbyId, address host, uint256 betAmount, string choice);\r\n    event LobbyJoined(uint256 lobbyId, address joinedUser);\r\n    event CoinFlipped(uint256 lobbyId, string result);\r\n\r\n    function createLobby(string memory choice) external payable {\r\n        require(\r\n            keccak256(abi.encodePacked(choice)) == keccak256(\"Heads\") ||\r\n            keccak256(abi.encodePacked(choice)) == keccak256(\"Tails\"),\r\n            \"Invalid choice\"\r\n        );\r\n        require(msg.value > 0, \"Bet amount must be greater than 0\");\r\n\r\n        lobbies[lobbyCounter] = Lobby({\r\n            host: payable(msg.sender), // Explicitly cast msg.sender to payable\r\n            betAmount: msg.value,\r\n            choice: choice,\r\n            joinedUser: payable(address(0)), // Explicitly cast address(0) to payable\r\n            result: \"\",\r\n            status: \"Open\"\r\n        });\r\n\r\n        emit LobbyCreated(lobbyCounter, msg.sender, msg.value, choice);\r\n        lobbyCounter++;\r\n    }\r\n\r\n    function joinLobby(uint256 lobbyId) external payable {\r\n        Lobby storage lobby = lobbies[lobbyId];\r\n        require(\r\n            keccak256(abi.encodePacked(lobby.status)) == keccak256(\"Open\"),\r\n            \"Lobby is not available\"\r\n        );\r\n        require(lobby.joinedUser == payable(address(0)), \"Lobby already joined\"); // Explicitly cast address(0) to payable\r\n        require(lobby.host != msg.sender, \"Host cannot join their own lobby\");\r\n        require(msg.value == lobby.betAmount, \"Incorrect bet amount\");\r\n\r\n        lobby.joinedUser = payable(msg.sender); // Explicitly cast msg.sender to payable\r\n        lobby.status = \"Flipping\";\r\n\r\n        emit LobbyJoined(lobbyId, msg.sender);\r\n\r\n        // Automatically flip the coin after a short delay (simulated)\r\n        flipCoin(lobbyId);\r\n    }\r\n\r\n    function flipCoin(uint256 lobbyId) internal {\r\n        Lobby storage lobby = lobbies[lobbyId];\r\n        require(\r\n            keccak256(abi.encodePacked(lobby.status)) == keccak256(\"Flipping\"),\r\n            \"Game is not ready to flip\"\r\n        );\r\n\r\n        // Randomly determine the result\r\n        uint256 random = uint256(\r\n            keccak256(\r\n                abi.encodePacked(block.timestamp, block.prevrandao, msg.sender)\r\n            )\r\n        ) % 2;\r\n\r\n        string memory result = random == 0 ? \"Heads\" : \"Tails\";\r\n\r\n        lobby.result = result;\r\n        lobby.status = \"Ended\";\r\n\r\n        emit CoinFlipped(lobbyId, result);\r\n\r\n        // Determine winner and transfer funds\r\n        if (keccak256(abi.encodePacked(result)) == keccak256(abi.encodePacked(lobby.choice))) {\r\n            // Host wins\r\n            lobby.host.transfer(lobby.betAmount * 2);\r\n        } else {\r\n            // Joined user wins\r\n            lobby.joinedUser.transfer(lobby.betAmount * 2);\r\n        }\r\n    }\r\n}\r\n",
  "sourcePath": "C:\\Users\\Wei\\Documents\\VS Code\\CSC-196D-Block-Wager\\truffle\\contracts\\coinlfip.sol",
  "compiler": {
    "name": "solc",
    "version": "0.8.21+commit.d9974bed.Emscripten.clang"
  },
  "schemaVersion": "3.4.16",
  "updatedAt": "2024-11-25T23:04:42.270Z",
  "networkType": "ethereum",
  "devdoc": {
    "kind": "dev",
    "methods": {},
    "version": 1
  },
  "userdoc": {
    "kind": "user",
    "methods": {},
    "version": 1
  }
}