{
  "_format": "hh-sol-artifact-1",
  "contractName": "BlackJack",
  "sourceName": "contracts/blackjack.sol",
  "abi": [
    {
      "inputs": [],
      "stateMutability": "nonpayable",
      "type": "constructor"
    },
    {
      "anonymous": false,
      "inputs": [
        {
          "indexed": true,
          "internalType": "address",
          "name": "Player",
          "type": "address"
        }
      ],
      "name": "AfterValueTransferEvent",
      "type": "event"
    },
    {
      "anonymous": false,
      "inputs": [
        {
          "indexed": true,
          "internalType": "uint256",
          "name": "GameId",
          "type": "uint256"
        },
        {
          "indexed": true,
          "internalType": "address",
          "name": "Player",
          "type": "address"
        },
        {
          "indexed": true,
          "internalType": "uint256",
          "name": "Amount",
          "type": "uint256"
        }
      ],
      "name": "BeforeValueTransferEvent",
      "type": "event"
    },
    {
      "anonymous": false,
      "inputs": [
        {
          "indexed": true,
          "internalType": "uint256",
          "name": "GameId",
          "type": "uint256"
        },
        {
          "indexed": true,
          "internalType": "address",
          "name": "Player",
          "type": "address"
        },
        {
          "indexed": true,
          "internalType": "uint256",
          "name": "Amount",
          "type": "uint256"
        }
      ],
      "name": "CashOutEvent",
      "type": "event"
    },
    {
      "anonymous": false,
      "inputs": [
        {
          "indexed": true,
          "internalType": "uint256",
          "name": "GameId",
          "type": "uint256"
        },
        {
          "indexed": true,
          "internalType": "address",
          "name": "Player",
          "type": "address"
        },
        {
          "indexed": true,
          "internalType": "uint256",
          "name": "Amount",
          "type": "uint256"
        }
      ],
      "name": "StartNewGameEvent",
      "type": "event"
    },
    {
      "stateMutability": "nonpayable",
      "type": "fallback"
    },
    {
      "inputs": [],
      "name": "CashOut",
      "outputs": [],
      "stateMutability": "nonpayable",
      "type": "function"
    },
    {
      "inputs": [],
      "name": "DoubleDown",
      "outputs": [],
      "stateMutability": "nonpayable",
      "type": "function"
    },
    {
      "inputs": [],
      "name": "GetGame",
      "outputs": [
        {
          "components": [
            {
              "internalType": "uint256",
              "name": "Id",
              "type": "uint256"
            },
            {
              "internalType": "address",
              "name": "Player",
              "type": "address"
            },
            {
              "internalType": "uint256",
              "name": "SafeBalance",
              "type": "uint256"
            },
            {
              "internalType": "uint256",
              "name": "OriginalBalance",
              "type": "uint256"
            },
            {
              "internalType": "uint256",
              "name": "SplitCounter",
              "type": "uint256"
            },
            {
              "internalType": "uint256",
              "name": "GamesPlayed",
              "type": "uint256"
            },
            {
              "internalType": "uint256",
              "name": "PlayerBet",
              "type": "uint256"
            },
            {
              "internalType": "uint256",
              "name": "InsuranceBet",
              "type": "uint256"
            },
            {
              "internalType": "uint256",
              "name": "PlayerCard1",
              "type": "uint256"
            },
            {
              "internalType": "uint256",
              "name": "PlayerCard2",
              "type": "uint256"
            },
            {
              "internalType": "uint256",
              "name": "PlayerNewCard",
              "type": "uint256"
            },
            {
              "internalType": "uint256",
              "name": "PlayerCardTotal",
              "type": "uint256"
            },
            {
              "internalType": "uint256",
              "name": "PlayerSplitTotal",
              "type": "uint256"
            },
            {
              "internalType": "uint256",
              "name": "DealerCard1",
              "type": "uint256"
            },
            {
              "internalType": "uint256",
              "name": "DealerCard2",
              "type": "uint256"
            },
            {
              "internalType": "uint256",
              "name": "DealerNewCard",
              "type": "uint256"
            },
            {
              "internalType": "uint256",
              "name": "DealerCardTotal",
              "type": "uint256"
            },
            {
              "internalType": "bool",
              "name": "CanDoubleDown",
              "type": "bool"
            },
            {
              "internalType": "bool",
              "name": "CanInsure",
              "type": "bool"
            },
            {
              "internalType": "bool",
              "name": "CanSplit",
              "type": "bool"
            },
            {
              "internalType": "bool",
              "name": "IsSplitting",
              "type": "bool"
            },
            {
              "internalType": "bool",
              "name": "IsSoftHand",
              "type": "bool"
            },
            {
              "internalType": "bool",
              "name": "IsRoundInProgress",
              "type": "bool"
            },
            {
              "internalType": "string",
              "name": "DealerMsg",
              "type": "string"
            }
          ],
          "internalType": "struct BlackJack.Game",
          "name": "game",
          "type": "tuple"
        }
      ],
      "stateMutability": "view",
      "type": "function"
    },
    {
      "inputs": [],
      "name": "Hit",
      "outputs": [],
      "stateMutability": "nonpayable",
      "type": "function"
    },
    {
      "inputs": [],
      "name": "Insurance",
      "outputs": [],
      "stateMutability": "nonpayable",
      "type": "function"
    },
    {
      "inputs": [
        {
          "internalType": "uint256",
          "name": "bet",
          "type": "uint256"
        }
      ],
      "name": "PlaceBet",
      "outputs": [],
      "stateMutability": "nonpayable",
      "type": "function"
    },
    {
      "inputs": [],
      "name": "ShowTable",
      "outputs": [
        {
          "internalType": "string",
          "name": "DealerMessage",
          "type": "string"
        },
        {
          "internalType": "string",
          "name": "PlayerCard1",
          "type": "string"
        },
        {
          "internalType": "string",
          "name": "PlayerCard2",
          "type": "string"
        },
        {
          "internalType": "string",
          "name": "PlayerNewCard",
          "type": "string"
        },
        {
          "internalType": "string",
          "name": "PlayerCardTotal",
          "type": "string"
        },
        {
          "internalType": "string",
          "name": "PlayerSplitTotal",
          "type": "string"
        },
        {
          "internalType": "string",
          "name": "DealerCard1",
          "type": "string"
        },
        {
          "internalType": "string",
          "name": "DealerCard2",
          "type": "string"
        },
        {
          "internalType": "string",
          "name": "DealerNewCard",
          "type": "string"
        },
        {
          "internalType": "string",
          "name": "DealerCardTotal",
          "type": "string"
        },
        {
          "internalType": "string",
          "name": "PlayerBet",
          "type": "string"
        },
        {
          "internalType": "string",
          "name": "Pot",
          "type": "string"
        }
      ],
      "stateMutability": "view",
      "type": "function"
    },
    {
      "inputs": [],
      "name": "Split",
      "outputs": [],
      "stateMutability": "nonpayable",
      "type": "function"
    },
    {
      "inputs": [],
      "name": "Stand",
      "outputs": [],
      "stateMutability": "nonpayable",
      "type": "function"
    },
    {
      "inputs": [],
      "name": "StartNewGame",
      "outputs": [],
      "stateMutability": "payable",
      "type": "function"
    },
    {
      "stateMutability": "payable",
      "type": "receive"
    }
  ],
  "bytecode": "0x60a060405234801561001057600080fd5b506001600081905550600180819055503373ffffffffffffffffffffffffffffffffffffffff1660808173ffffffffffffffffffffffffffffffffffffffff16815250506080516155ad61006c600039600050506155ad6000f3fe6080604052600436106100955760003560e01c8063622e502611610059578063622e5026146102735780637ce2974d1461028a5780639ad01e3e146102c0578063a1e564b1146102eb578063e8a80e9a1461030257610144565b806324603eea146101fb57806339ae21331461020557806355d842d71461021c57806358c5a7cc146102335780635a6d41a01461024a57610144565b3661014457600073ffffffffffffffffffffffffffffffffffffffff163373ffffffffffffffffffffffffffffffffffffffff1603610109576040517f08c379a00000000000000000000000000000000000000000000000000000000081526004016101009061423c565b60405180910390fd5b6040517f08c379a000000000000000000000000000000000000000000000000000000000815260040161013b906142ce565b60405180910390fd5b34801561015057600080fd5b50600073ffffffffffffffffffffffffffffffffffffffff163373ffffffffffffffffffffffffffffffffffffffff16036101c0576040517f08c379a00000000000000000000000000000000000000000000000000000000081526004016101b79061423c565b60405180910390fd5b6040517f08c379a00000000000000000000000000000000000000000000000000000000081526004016101f29061433a565b60405180910390fd5b610203610319565b005b34801561021157600080fd5b5061021a61074f565b005b34801561022857600080fd5b50610231610b71565b005b34801561023f57600080fd5b50610248610ee1565b005b34801561025657600080fd5b50610271600480360381019061026c9190614395565b611158565b005b34801561027f57600080fd5b506102886114d6565b005b34801561029657600080fd5b5061029f6117b9565b6040516102b79c9b9a99989796959493929190614441565b60405180910390f35b3480156102cc57600080fd5b506102d5611c90565b6040516102e29190614804565b60405180910390f35b3480156102f757600080fd5b50610300611f25565b005b34801561030e57600080fd5b50610317612415565b005b6000600260003373ffffffffffffffffffffffffffffffffffffffff1673ffffffffffffffffffffffffffffffffffffffff168152602001908152602001600020541461039b576040517f08c379a000000000000000000000000000000000000000000000000000000000815260040161039290614872565b60405180910390fd5b64e8d4a51000341180156103b75750678ac7230489e800003411155b6103f6576040517f08c379a00000000000000000000000000000000000000000000000000000000081526004016103ed906148de565b60405180910390fd5b6103fe6140ab565b600154816000018181525050348160400181815161041c919061492d565b915081815250503481606001818151610435919061492d565b9150818152505033816020019073ffffffffffffffffffffffffffffffffffffffff16908173ffffffffffffffffffffffffffffffffffffffff16815250506040518060400160405280600e81526020017f436f6e747261637420506169642e000000000000000000000000000000000000815250816102e00181905250600160008154809291906104c690614961565b91905055508060036000836000015181526020019081526020016000206000820151816000015560208201518160010160006101000a81548173ffffffffffffffffffffffffffffffffffffffff021916908373ffffffffffffffffffffffffffffffffffffffff16021790555060408201518160020155606082015181600301556080820151816004015560a0820151816005015560c0820151816006015560e082015181600701556101008201518160080155610120820151816009015561014082015181600a015561016082015181600b015561018082015181600c01556101a082015181600d01556101c082015181600e01556101e082015181600f015561020082015181601001556102208201518160110160006101000a81548160ff0219169083151502179055506102408201518160110160016101000a81548160ff0219169083151502179055506102608201518160110160026101000a81548160ff0219169083151502179055506102808201518160110160036101000a81548160ff0219169083151502179055506102a08201518160110160046101000a81548160ff0219169083151502179055506102c08201518160110160056101000a81548160ff0219169083151502179055506102e08201518160120190816106af9190614be4565b509050508060000151600260003373ffffffffffffffffffffffffffffffffffffffff1673ffffffffffffffffffffffffffffffffffffffff168152602001908152602001600020819055508060600151816020015173ffffffffffffffffffffffffffffffffffffffff1682600001517f8a045e8ca90abbb5faac5664ef1ab1a17450af55e4c7c1904cff223b299d0b7160405160405180910390a450565b600073ffffffffffffffffffffffffffffffffffffffff163373ffffffffffffffffffffffffffffffffffffffff16036107be576040517f08c379a00000000000000000000000000000000000000000000000000000000081526004016107b59061423c565b60405180910390fd5b6000600260003373ffffffffffffffffffffffffffffffffffffffff1673ffffffffffffffffffffffffffffffffffffffff1681526020019081526020016000205403610840576040517f08c379a000000000000000000000000000000000000000000000000000000000815260040161083790614d02565b60405180910390fd5b600060036000600260003373ffffffffffffffffffffffffffffffffffffffff1673ffffffffffffffffffffffffffffffffffffffff16815260200190815260200160002054815260200190815260200160002090508060110160059054906101000a900460ff166108e7576040517f08c379a00000000000000000000000000000000000000000000000000000000081526004016108de90614d6e565b60405180910390fd5b60008160110160006101000a81548160ff02191690831515021790555060008160110160026101000a81548160ff02191690831515021790555060008160110160016101000a81548160ff0219169083151502179055506109466126fe565b81600a0181905550600181600a01541480156109665750600b81600b0154105b1561099357600b81600a018190555060018160110160046101000a81548160ff0219169083151502179055505b8060110160039054906101000a900460ff1615610ae5576040518060400160405280600e81526020017f506c617965722773205475726e2e0000000000000000000000000000000000008152508160120190816109f09190614be4565b5080600a015481600c016000828254610a09919061492d565b925050819055508060110160049054906101000a900460ff168015610a325750601581600c0154115b15610a7157600a81600c016000828254610a4c9190614d8e565b9250508190555060008160110160046101000a81548160ff0219169083151502179055505b601581600c01541115610ae05760405180606001604052806023815260200161545b60239139816012019081610aa79190614be4565b50806004016000815480929190610abd90614961565b919050555060008160110160036101000a81548160ff0219169083151502179055505b610b6e565b80600a015481600b016000828254610afd919061492d565b925050819055508060110160049054906101000a900460ff168015610b265750601581600b0154115b15610b6557600a81600b016000828254610b409190614d8e565b9250508190555060008160110160046101000a81548160ff0219169083151502179055505b610b6d61271b565b5b50565b600073ffffffffffffffffffffffffffffffffffffffff163373ffffffffffffffffffffffffffffffffffffffff1603610be0576040517f08c379a0000000000000000000000000000000000000000000000000000000008152600401610bd79061423c565b60405180910390fd5b6000600260003373ffffffffffffffffffffffffffffffffffffffff1673ffffffffffffffffffffffffffffffffffffffff1681526020019081526020016000205403610c62576040517f08c379a0000000000000000000000000000000000000000000000000000000008152600401610c5990614d02565b60405180910390fd5b600060036000600260003373ffffffffffffffffffffffffffffffffffffffff1673ffffffffffffffffffffffffffffffffffffffff16815260200190815260200160002054815260200190815260200160002090508060110160059054906101000a900460ff16610d09576040517f08c379a0000000000000000000000000000000000000000000000000000000008152600401610d0090614d6e565b60405180910390fd5b8060110160029054906101000a900460ff16610d5a576040517f08c379a0000000000000000000000000000000000000000000000000000000008152600401610d5190614e0e565b60405180910390fd5b60008160110160006101000a81548160ff02191690831515021790555060008160110160016101000a81548160ff021916908315150217905550600b816008015403610db957600b81600b0181905550600b81600c0181905550610de0565b600281600b0154610dca9190614e5d565b81600b018190555080600b015481600c01819055505b6000816004018190555060018160110160036101000a81548160ff02191690831515021790555060008160110160056101000a81548160ff021916908315150217905550610e318160060154611158565b60008160110160026101000a81548160ff021916908315150217905550600b816008015403610ede57610e626126fe565b81600a018190555080600a015481600c016000828254610e82919061492d565b92505081905550610e916126fe565b81600a018190555080600a015481600b016000828254610eb1919061492d565b9250508190555060008160110160036101000a81548160ff021916908315150217905550610edd6128c0565b5b50565b600073ffffffffffffffffffffffffffffffffffffffff163373ffffffffffffffffffffffffffffffffffffffff1603610f50576040517f08c379a0000000000000000000000000000000000000000000000000000000008152600401610f479061423c565b60405180910390fd5b6000600260003373ffffffffffffffffffffffffffffffffffffffff1673ffffffffffffffffffffffffffffffffffffffff1681526020019081526020016000205403610fd2576040517f08c379a0000000000000000000000000000000000000000000000000000000008152600401610fc990614d02565b60405180910390fd5b600060036000600260003373ffffffffffffffffffffffffffffffffffffffff1673ffffffffffffffffffffffffffffffffffffffff16815260200190815260200160002054815260200190815260200160002090508060110160059054906101000a900460ff16611079576040517f08c379a000000000000000000000000000000000000000000000000000000000815260040161107090614d6e565b60405180910390fd5b60008160110160006101000a81548160ff02191690831515021790555060008160110160026101000a81548160ff02191690831515021790555060008160110160016101000a81548160ff0219169083151502179055508060110160039054906101000a900460ff166110f3576110ee6128c0565b611155565b60405180606001604052806023815260200161545b6023913981601201908161111c9190614be4565b5080600401600081548092919061113290614961565b919050555060008160110160036101000a81548160ff0219169083151502179055505b50565b600073ffffffffffffffffffffffffffffffffffffffff163373ffffffffffffffffffffffffffffffffffffffff16036111c7576040517f08c379a00000000000000000000000000000000000000000000000000000000081526004016111be9061423c565b60405180910390fd5b6000600260003373ffffffffffffffffffffffffffffffffffffffff1673ffffffffffffffffffffffffffffffffffffffff1681526020019081526020016000205403611249576040517f08c379a000000000000000000000000000000000000000000000000000000000815260040161124090614d02565b60405180910390fd5b600060036000600260003373ffffffffffffffffffffffffffffffffffffffff1673ffffffffffffffffffffffffffffffffffffffff16815260200190815260200160002054815260200190815260200160002090508060110160059054906101000a900460ff16156112f1576040517f08c379a00000000000000000000000000000000000000000000000000000000081526004016112e890614eda565b60405180910390fd5b64174876e800821015801561130e5750670de0b6b3a76400008211155b61134d576040517f08c379a000000000000000000000000000000000000000000000000000000000815260040161134490614f46565b60405180910390fd5b600082118015611361575080600201548211155b6113a0576040517f08c379a000000000000000000000000000000000000000000000000000000000815260040161139790614fb2565b60405180910390fd5b818160020160008282546113b49190614d8e565b925050819055508060110160009054906101000a900460ff16806113e657508060110160029054906101000a900460ff165b1561140b57818160060160008282546113ff919061492d565b92505081905550611415565b8181600601819055505b60018160110160056101000a81548160ff02191690831515021790555080600501600081548092919061144790614961565b91905055508060110160009054906101000a900460ff168061147757508060110160029054906101000a900460ff165b156114c8576040518060400160405280600b81526020017f42657420506c616365642e0000000000000000000000000000000000000000008152508160120190816114c29190614be4565b506114d2565b6114d1816129df565b5b5050565b600073ffffffffffffffffffffffffffffffffffffffff163373ffffffffffffffffffffffffffffffffffffffff1603611545576040517f08c379a000000000000000000000000000000000000000000000000000000000815260040161153c9061423c565b60405180910390fd5b6000600260003373ffffffffffffffffffffffffffffffffffffffff1673ffffffffffffffffffffffffffffffffffffffff16815260200190815260200160002054036115c7576040517f08c379a00000000000000000000000000000000000000000000000000000000081526004016115be90614d02565b60405180910390fd5b600060036000600260003373ffffffffffffffffffffffffffffffffffffffff1673ffffffffffffffffffffffffffffffffffffffff16815260200190815260200160002054815260200190815260200160002090508060110160059054906101000a900460ff1661166e576040517f08c379a000000000000000000000000000000000000000000000000000000000815260040161166590614d6e565b60405180910390fd5b8060110160019054906101000a900460ff166116bf576040517f08c379a00000000000000000000000000000000000000000000000000000000081526004016116b69061501e565b60405180910390fd5b600281600601546116d09190614e5d565b8160070181905550600081600701541180156116f457508060020154816007015411155b611733576040517f08c379a000000000000000000000000000000000000000000000000000000000815260040161172a90614fb2565b60405180910390fd5b806007015481600201600082825461174b9190614d8e565b925050819055506040518060400160405280600e81526020017f506c617965722773205475726e2e0000000000000000000000000000000000008152508160120190816117989190614be4565b5060008160110160016101000a81548160ff02191690831515021790555050565b606080606080606080606080606080606080600060036000600260003373ffffffffffffffffffffffffffffffffffffffff1673ffffffffffffffffffffffffffffffffffffffff16815260200190815260200160002054815260200190815260200160002060405180610300016040529081600082015481526020016001820160009054906101000a900473ffffffffffffffffffffffffffffffffffffffff1673ffffffffffffffffffffffffffffffffffffffff1673ffffffffffffffffffffffffffffffffffffffff1681526020016002820154815260200160038201548152602001600482015481526020016005820154815260200160068201548152602001600782015481526020016008820154815260200160098201548152602001600a8201548152602001600b8201548152602001600c8201548152602001600d8201548152602001600e8201548152602001600f8201548152602001601082015481526020016011820160009054906101000a900460ff161515151581526020016011820160019054906101000a900460ff161515151581526020016011820160029054906101000a900460ff161515151581526020016011820160039054906101000a900460ff161515151581526020016011820160049054906101000a900460ff161515151581526020016011820160059054906101000a900460ff161515151581526020016012820180546119d390614a07565b80601f01602080910402602001604051908101604052809291908181526020018280546119ff90614a07565b8015611a4c5780601f10611a2157610100808354040283529160200191611a4c565b820191906000526020600020905b815481529060010190602001808311611a2f57829003601f168201915b5050505050815250509050806102e00151604051602001611a6d91906150a0565b6040516020818303038152906040529c50611a8c816101000151612fad565b604051602001611a9c91906150a0565b6040516020818303038152906040529b50611abb816101200151612fad565b604051602001611acb91906150a0565b6040516020818303038152906040529a50611aea816101400151612fad565b604051602001611afa91906150a0565b6040516020818303038152906040529950611b19816101600151612fad565b604051602001611b2991906150ec565b6040516020818303038152906040529850611b48816101800151612fad565b604051602001611b5891906150ec565b6040516020818303038152906040529750611b77816101a00151612fad565b604051602001611b8791906150a0565b6040516020818303038152906040529650611ba6816101c00151612fad565b604051602001611bb691906150a0565b6040516020818303038152906040529550611bd5816101e00151612fad565b604051602001611be591906150a0565b6040516020818303038152906040529450611c04816102000151612fad565b604051602001611c1491906150ec565b6040516020818303038152906040529350611c328160c00151612fad565b604051602001611c429190615138565b6040516020818303038152906040529250611c608160400151612fad565b604051602001611c709190615138565b604051602081830303815290604052915050909192939495969798999a9b565b611c986140ab565b60036000600260003373ffffffffffffffffffffffffffffffffffffffff1673ffffffffffffffffffffffffffffffffffffffff16815260200190815260200160002054815260200190815260200160002060405180610300016040529081600082015481526020016001820160009054906101000a900473ffffffffffffffffffffffffffffffffffffffff1673ffffffffffffffffffffffffffffffffffffffff1673ffffffffffffffffffffffffffffffffffffffff1681526020016002820154815260200160038201548152602001600482015481526020016005820154815260200160068201548152602001600782015481526020016008820154815260200160098201548152602001600a8201548152602001600b8201548152602001600c8201548152602001600d8201548152602001600e8201548152602001600f8201548152602001601082015481526020016011820160009054906101000a900460ff161515151581526020016011820160019054906101000a900460ff161515151581526020016011820160029054906101000a900460ff161515151581526020016011820160039054906101000a900460ff161515151581526020016011820160049054906101000a900460ff161515151581526020016011820160059054906101000a900460ff16151515158152602001601282018054611e9e90614a07565b80601f0160208091040260200160405190810160405280929190818152602001828054611eca90614a07565b8015611f175780601f10611eec57610100808354040283529160200191611f17565b820191906000526020600020905b815481529060010190602001808311611efa57829003601f168201915b505050505081525050905090565b600073ffffffffffffffffffffffffffffffffffffffff163373ffffffffffffffffffffffffffffffffffffffff1603611f94576040517f08c379a0000000000000000000000000000000000000000000000000000000008152600401611f8b9061423c565b60405180910390fd5b6000600260003373ffffffffffffffffffffffffffffffffffffffff1673ffffffffffffffffffffffffffffffffffffffff1681526020019081526020016000205403612016576040517f08c379a000000000000000000000000000000000000000000000000000000000815260040161200d90614d02565b60405180910390fd5b600060036000600260003373ffffffffffffffffffffffffffffffffffffffff1673ffffffffffffffffffffffffffffffffffffffff16815260200190815260200160002054815260200190815260200160002060405180610300016040529081600082015481526020016001820160009054906101000a900473ffffffffffffffffffffffffffffffffffffffff1673ffffffffffffffffffffffffffffffffffffffff1673ffffffffffffffffffffffffffffffffffffffff1681526020016002820154815260200160038201548152602001600482015481526020016005820154815260200160068201548152602001600782015481526020016008820154815260200160098201548152602001600a8201548152602001600b8201548152602001600c8201548152602001600d8201548152602001600e8201548152602001600f8201548152602001601082015481526020016011820160009054906101000a900460ff161515151581526020016011820160019054906101000a900460ff161515151581526020016011820160029054906101000a900460ff161515151581526020016011820160039054906101000a900460ff161515151581526020016011820160049054906101000a900460ff161515151581526020016011820160059054906101000a900460ff1615151515815260200160128201805461221e90614a07565b80601f016020809104026020016040519081016040528092919081815260200182805461224a90614a07565b80156122975780601f1061226c57610100808354040283529160200191612297565b820191906000526020600020905b81548152906001019060200180831161227a57829003601f168201915b5050505050815250509050806102c00151156122e8576040517f08c379a00000000000000000000000000000000000000000000000000000000081526004016122df90614eda565b60405180910390fd5b600081604001519050600047101580156123055750816040015147105b1561230e574790505b8047101561231f5761231e61516d565b5b6123283361307b565b3373ffffffffffffffffffffffffffffffffffffffff166108fc829081150290604051600060405180830381858888f1935050505015801561236e573d6000803e3d6000fd5b5061237833613342565b6000600260003373ffffffffffffffffffffffffffffffffffffffff1673ffffffffffffffffffffffffffffffffffffffff16815260200190815260200160002054146123c8576123c761516d565b5b803373ffffffffffffffffffffffffffffffffffffffff1683600001517f250efcb6be2a0ac5605d1cf71328b5851470f02f783ce2df316489c41ba96edd60405160405180910390a45050565b600073ffffffffffffffffffffffffffffffffffffffff163373ffffffffffffffffffffffffffffffffffffffff1603612484576040517f08c379a000000000000000000000000000000000000000000000000000000000815260040161247b9061423c565b60405180910390fd5b6000600260003373ffffffffffffffffffffffffffffffffffffffff1673ffffffffffffffffffffffffffffffffffffffff1681526020019081526020016000205403612506576040517f08c379a00000000000000000000000000000000000000000000000000000000081526004016124fd90614d02565b60405180910390fd5b600060036000600260003373ffffffffffffffffffffffffffffffffffffffff1673ffffffffffffffffffffffffffffffffffffffff16815260200190815260200160002054815260200190815260200160002090508060110160059054906101000a900460ff166125ad576040517f08c379a00000000000000000000000000000000000000000000000000000000081526004016125a490614d6e565b60405180910390fd5b8060110160009054906101000a900460ff166125fe576040517f08c379a00000000000000000000000000000000000000000000000000000000081526004016125f5906151e8565b60405180910390fd5b60008160110160026101000a81548160ff02191690831515021790555060008160110160016101000a81548160ff02191690831515021790555060008160110160056101000a81548160ff0219169083151502179055506126628160060154611158565b60008160110160006101000a81548160ff0219169083151502179055506126876126fe565b81600a0181905550600181600a01541480156126a75750600b81600b0154105b156126d457600b81600a018190555060018160110160046101000a81548160ff0219169083151502179055505b80600a015481600b0160008282546126ec919061492d565b925050819055506126fb6128c0565b50565b60006127086135fc565b9050600a81111561271857600a90505b90565b600060036000600260003373ffffffffffffffffffffffffffffffffffffffff1673ffffffffffffffffffffffffffffffffffffffff1681526020019081526020016000205481526020019081526020016000209050601581600b01541115612875576040518060400160405280600c81526020017f506c6179657220427573742e00000000000000000000000000000000000000008152508160120190816127c49190614be4565b506000816007015414612839576127d96126fe565b81600e018190555080600e01548160100160008282546127f9919061492d565b925050819055506015816010015403612838576002816007015461281d9190615208565b816002016000828254612830919061492d565b925050819055505b5b60018160040154036128525761284d6128c0565b612870565b60008160110160056101000a81548160ff0219169083151502179055505b6128bd565b6040518060400160405280600e81526020017f506c617965722773205475726e2e0000000000000000000000000000000000008152508160120190816128bb9190614be4565b505b50565b600060036000600260003373ffffffffffffffffffffffffffffffffffffffff1673ffffffffffffffffffffffffffffffffffffffff168152602001908152602001600020548152602001908152602001600020905061291e6126fe565b81600e0181905550600181600e015414801561293e5750600b81600d0154105b1561294e57600b81600e01819055505b80600e015481600d0154612962919061492d565b81601001819055505b6011816010015410156129d4576129806126fe565b81600f0181905550600181600f01541480156129a05750600b8160100154105b156129b057600b81600f01819055505b80600f01548160100160008282546129c8919061492d565b9250508190555061296b565b6129dc6136c4565b50565b6000816008018190555060008160090181905550600081600a0181905550600081600b0181905550600081600c0181905550600081600d0181905550600081600e0181905550600081600f018190555060008160100181905550600081600401819055506000816007018190555060008160110160046101000a81548160ff021916908315150217905550612a726126fe565b81600801819055506001816008015403612aae57600b816008018190555060018160110160046101000a81548160ff0219169083151502179055505b612ab66126fe565b81600d0181905550612ac66126fe565b816009018190555060018160090154148015612ae65750600b8160080154105b15612b1357600b816009018190555060018160110160046101000a81548160ff0219169083151502179055505b80600901548160080154612b27919061492d565b81600b0181905550600181600d015403612b6357600b81600d018190555060018160110160016101000a81548160ff0219169083151502179055505b80600e015481600d0154612b77919061492d565b8160100181905550601581600b015403612d0557600a81600d015403612bdb57612b9f6126fe565b81600e0181905550600181600e015403612bbe57600b81600e01819055505b80600e015481600d0154612bd2919061492d565b81601001819055505b80600b0154816010015403612c55576040518060400160405280600981526020017f5374616e644f6666210000000000000000000000000000000000000000000000815250816012019081612c309190614be4565b508060060154816002016000828254612c49919061492d565b92505081905550612ce3565b6040518060400160405280601781526020017f426c61636b4a61636b2120506c617965722057696e732e000000000000000000815250816012019081612c9b9190614be4565b5060028160060154612cad9190614e5d565b60028260060154612cbe9190615208565b612cc8919061492d565b816002016000828254612cdb919061492d565b925050819055505b60008160110160056101000a81548160ff021916908315150217905550612db1565b8060110160019054906101000a900460ff1615612d68576040518060400160405280601e81526020017f506c617965722773205475726e2e2057616e7420496e737572616e63653f0000815250816012019081612d629190614be4565b50612db0565b6040518060400160405280600e81526020017f506c617965722773205475726e2e000000000000000000000000000000000000815250816012019081612dae9190614be4565b505b5b8060090154816008015403612e6c578060110160019054906101000a900460ff1615612e06576040518060600160405280603081526020016154b460309139816012019081612e009190614be4565b50612e4e565b6040518060400160405280602081526020017f506c617965722773205475726e2e20506c617965722063616e2053706c69742e815250816012019081612e4c9190614be4565b505b60018160110160026101000a81548160ff0219169083151502179055505b600981600b01541480612e835750600a81600b0154145b80612e925750600b81600b0154145b15612faa578060110160019054906101000a900460ff1615612f1f5760405180606001604052806036815260200161547e60369139816012019081612ed79190614be4565b508060110160029054906101000a900460ff1615612f1a576040518060600160405280603f81526020016154e4603f9139816012019081612f189190614be4565b505b612f8c565b60405180606001604052806026815260200161555260269139816012019081612f489190614be4565b508060110160029054906101000a900460ff1615612f8b576040518060600160405280602f8152602001615523602f9139816012019081612f899190614be4565b505b5b60018160110160006101000a81548160ff0219169083151502179055505b50565b606060006001612fbc84613f58565b01905060008167ffffffffffffffff811115612fdb57612fda6149a9565b5b6040519080825280601f01601f19166020018201604052801561300d5781602001600182028036833780820191505090505b509050600082602001820190505b600115613070578080600190039150507f3031323334353637383961626364656600000000000000000000000000000000600a86061a8153600a858161306457613063614e2e565b5b0494506000850361301b575b819350505050919050565b600060036000600260008573ffffffffffffffffffffffffffffffffffffffff1673ffffffffffffffffffffffffffffffffffffffff168152602001908152602001600020548152602001908152602001600020600001549050600060036000600260008673ffffffffffffffffffffffffffffffffffffffff1673ffffffffffffffffffffffffffffffffffffffff1681526020019081526020016000205481526020019081526020016000206002015490506000600260008573ffffffffffffffffffffffffffffffffffffffff1673ffffffffffffffffffffffffffffffffffffffff1681526020019081526020016000208190555060036000600260008673ffffffffffffffffffffffffffffffffffffffff1673ffffffffffffffffffffffffffffffffffffffff1681526020019081526020016000205481526020019081526020016000206000808201600090556001820160006101000a81549073ffffffffffffffffffffffffffffffffffffffff021916905560028201600090556003820160009055600482016000905560058201600090556006820160009055600782016000905560088201600090556009820160009055600a820160009055600b820160009055600c820160009055600d820160009055600e820160009055600f82016000905560108201600090556011820160006101000a81549060ff02191690556011820160016101000a81549060ff02191690556011820160026101000a81549060ff02191690556011820160036101000a81549060ff02191690556011820160046101000a81549060ff02191690556011820160056101000a81549060ff02191690556012820160006132f69190614182565b5050808373ffffffffffffffffffffffffffffffffffffffff16837f1d7497d6fd179a17c5c10fa701d5dd57fb68542c79473b9759b789ed784d5c2760405160405180910390a4505050565b6000600260008373ffffffffffffffffffffffffffffffffffffffff1673ffffffffffffffffffffffffffffffffffffffff168152602001908152602001600020541415806133e75750600060036000600260008573ffffffffffffffffffffffffffffffffffffffff1673ffffffffffffffffffffffffffffffffffffffff1681526020019081526020016000205481526020019081526020016000206002015414155b156135b6576000600260008373ffffffffffffffffffffffffffffffffffffffff1673ffffffffffffffffffffffffffffffffffffffff1681526020019081526020016000208190555060036000600260008473ffffffffffffffffffffffffffffffffffffffff1673ffffffffffffffffffffffffffffffffffffffff1681526020019081526020016000205481526020019081526020016000206000808201600090556001820160006101000a81549073ffffffffffffffffffffffffffffffffffffffff021916905560028201600090556003820160009055600482016000905560058201600090556006820160009055600782016000905560088201600090556009820160009055600a820160009055600b820160009055600c820160009055600d820160009055600e820160009055600f82016000905560108201600090556011820160006101000a81549060ff02191690556011820160016101000a81549060ff02191690556011820160026101000a81549060ff02191690556011820160036101000a81549060ff02191690556011820160046101000a81549060ff02191690556011820160056101000a81549060ff02191690556012820160006135b39190614182565b50505b8073ffffffffffffffffffffffffffffffffffffffff167ffa63cafecf2c1c6ae30e5b5e06570ba0bf03859678e781644bfa3a0d6764343d60405160405180910390a250565b600060156000808282546136109190615208565b9250508190555060006064600054444261362a919061492d565b613634919061492d565b61363e919061524a565b90506001600d6001436136519190614d8e565b40836040516020016136649291906152c7565b6040516020818303038152906040528051906020012060001c613687919061524a565b613691919061492d565b91506000808154809291906136a590614961565b9190505550631908b10060005411156136c057816000819055505b5090565b600060036000600260003373ffffffffffffffffffffffffffffffffffffffff1673ffffffffffffffffffffffffffffffffffffffff1681526020019081526020016000205481526020019081526020016000209050601581601001541115613920576040518060400160405280600c81526020017f4465616c657220427573742e000000000000000000000000000000000000000081525081601201908161376d9190614be4565b5060008160110160056101000a81548160ff02191690831515021790555060018160040154036138a857601581600b01541161380a576040518060400160405280601981526020017f4465616c657220427573742e20506c617965722057696e732e000000000000008152508160120190816137e99190614be4565b508060060154816002016000828254613802919061492d565b925050819055505b601581600c01541161386e578060120160405160200161382a919061539c565b6040516020818303038152906040528160120190816138499190614be4565b508060060154816002016000828254613862919061492d565b925050819055506138a3565b8060120160405160200161388291906153e8565b6040516020818303038152906040528160120190816138a19190614be4565b505b61391b565b6040518060400160405280601981526020017f4465616c657220427573742e20506c617965722057696e732e000000000000008152508160120190816138ee9190614be4565b50600281600601546139009190615208565b816002016000828254613913919061492d565b925050819055505b613f55565b6015816010015403613b2f576040518060400160405280600c81526020017f4465616c65722057696e732e00000000000000000000000000000000000000008152508160120190816139729190614be4565b5060008160110160056101000a81548160ff02191690831515021790555060008160070154146139c857600281600701546139ad9190615208565b8160020160008282546139c0919061492d565b925050819055505b601581600b015403613a78576040518060400160405280600981526020017f5374616e644f6666210000000000000000000000000000000000000000000000815250816012019081613a1a9190614be4565b506001816004015403613a575760028160060154613a389190614e5d565b816002016000828254613a4b919061492d565b92505081905550613a77565b8060060154816002016000828254613a6f919061492d565b925050819055505b5b6001816004015403613b2a57601581600c015403613af45780601201604051602001613aa49190615434565b604051602081830303815290604052816012019081613ac39190614be4565b5060028160060154613ad59190614e5d565b816002016000828254613ae8919061492d565b92505081905550613b29565b80601201604051602001613b0891906153e8565b604051602081830303815290604052816012019081613b279190614be4565b505b5b613f54565b601581600b0154108015613b62575080600b01546015613b4f9190614d8e565b81601001546015613b609190614d8e565b145b15613c2c576040518060400160405280600981526020017f5374616e644f6666210000000000000000000000000000000000000000000000815250816012019081613bad9190614be4565b5060008160110160056101000a81548160ff0219169083151502179055506001816004015403613c075760028160060154613be89190614e5d565b816002016000828254613bfb919061492d565b92505081905550613c27565b8060060154816002016000828254613c1f919061492d565b925050819055505b613d8e565b601581600b01541180613c5e575080600b01546015613c4b9190614d8e565b81601001546015613c5c9190614d8e565b105b15613ccc576040518060400160405280600c81526020017f4465616c65722057696e732e0000000000000000000000000000000000000000815250816012019081613ca99190614be4565b5060008160110160056101000a81548160ff021916908315150217905550613d8d565b6040518060400160405280600c81526020017f506c617965722057696e732e0000000000000000000000000000000000000000815250816012019081613d129190614be4565b5060008160110160056101000a81548160ff0219169083151502179055506001816004015403613d60578060060154816002016000828254613d54919061492d565b92505081905550613d8c565b60028160060154613d719190615208565b816002016000828254613d84919061492d565b925050819055505b5b5b6001816004015403613f5357601581600c0154108015613dcd575080600c01546015613dba9190614d8e565b81601001546015613dcb9190614d8e565b145b15613e535780601201604051602001613de69190615434565b604051602081830303815290604052816012019081613e059190614be4565b5060008160110160056101000a81548160ff02191690831515021790555060028160060154613e349190614e5d565b816002016000828254613e47919061492d565b92505081905550613f52565b601581600c01541180613e85575080600c01546015613e729190614d8e565b81601001546015613e839190614d8e565b105b15613ee05780601201604051602001613e9e91906153e8565b604051602081830303815290604052816012019081613ebd9190614be4565b5060008160110160056101000a81548160ff021916908315150217905550613f51565b80601201604051602001613ef4919061539c565b604051602081830303815290604052816012019081613f139190614be4565b5060008160110160056101000a81548160ff0219169083151502179055508060060154816002016000828254613f49919061492d565b925050819055505b5b5b5b5b50565b600080600090507a184f03e93ff9f4daa797ed6e38ed64bf6a1f0100000000000000008310613fb6577a184f03e93ff9f4daa797ed6e38ed64bf6a1f0100000000000000008381613fac57613fab614e2e565b5b0492506040810190505b6d04ee2d6d415b85acef81000000008310613ff3576d04ee2d6d415b85acef81000000008381613fe957613fe8614e2e565b5b0492506020810190505b662386f26fc10000831061402257662386f26fc10000838161401857614017614e2e565b5b0492506010810190505b6305f5e100831061404b576305f5e100838161404157614040614e2e565b5b0492506008810190505b612710831061407057612710838161406657614065614e2e565b5b0492506004810190505b60648310614093576064838161408957614088614e2e565b5b0492506002810190505b600a83106140a2576001810190505b80915050919050565b60405180610300016040528060008152602001600073ffffffffffffffffffffffffffffffffffffffff168152602001600081526020016000815260200160008152602001600081526020016000815260200160008152602001600081526020016000815260200160008152602001600081526020016000815260200160008152602001600081526020016000815260200160008152602001600015158152602001600015158152602001600015158152602001600015158152602001600015158152602001600015158152602001606081525090565b50805461418e90614a07565b6000825580601f106141a057506141bf565b601f0160209004906000526020600020908101906141be91906141c2565b5b50565b5b808211156141db5760008160009055506001016141c3565b5090565b600082825260208201905092915050565b7f416464726573735f494e56000000000000000000000000000000000000000000600082015250565b6000614226600b836141df565b9150614231826141f0565b602082019050919050565b6000602082019050818103600083015261425581614219565b9050919050565b7f506c65617365207573652053746172744e657747616d652046756e6374696f6e60008201527f20746f2070617920636f6e74726163742e000000000000000000000000000000602082015250565b60006142b86031836141df565b91506142c38261425c565b604082019050919050565b600060208201905081810360008301526142e7816142ab565b9050919050565b7f46756e6374696f6e5f444e452e00000000000000000000000000000000000000600082015250565b6000614324600d836141df565b915061432f826142ee565b602082019050919050565b6000602082019050818103600083015261435381614317565b9050919050565b600080fd5b6000819050919050565b6143728161435f565b811461437d57600080fd5b50565b60008135905061438f81614369565b92915050565b6000602082840312156143ab576143aa61435a565b5b60006143b984828501614380565b91505092915050565b600081519050919050565b60005b838110156143eb5780820151818401526020810190506143d0565b60008484015250505050565b6000601f19601f8301169050919050565b6000614413826143c2565b61441d81856141df565b935061442d8185602086016143cd565b614436816143f7565b840191505092915050565b600061018082019050818103600083015261445c818f614408565b90508181036020830152614470818e614408565b90508181036040830152614484818d614408565b90508181036060830152614498818c614408565b905081810360808301526144ac818b614408565b905081810360a08301526144c0818a614408565b905081810360c08301526144d48189614408565b905081810360e08301526144e88188614408565b90508181036101008301526144fd8187614408565b90508181036101208301526145128186614408565b90508181036101408301526145278185614408565b905081810361016083015261453c8184614408565b90509d9c50505050505050505050505050565b6145588161435f565b82525050565b600073ffffffffffffffffffffffffffffffffffffffff82169050919050565b60006145898261455e565b9050919050565b6145998161457e565b82525050565b60008115159050919050565b6145b48161459f565b82525050565b600082825260208201905092915050565b60006145d6826143c2565b6145e081856145ba565b93506145f08185602086016143cd565b6145f9816143f7565b840191505092915050565b60006103008301600083015161461d600086018261454f565b5060208301516146306020860182614590565b506040830151614643604086018261454f565b506060830151614656606086018261454f565b506080830151614669608086018261454f565b5060a083015161467c60a086018261454f565b5060c083015161468f60c086018261454f565b5060e08301516146a260e086018261454f565b506101008301516146b761010086018261454f565b506101208301516146cc61012086018261454f565b506101408301516146e161014086018261454f565b506101608301516146f661016086018261454f565b5061018083015161470b61018086018261454f565b506101a08301516147206101a086018261454f565b506101c08301516147356101c086018261454f565b506101e083015161474a6101e086018261454f565b5061020083015161475f61020086018261454f565b506102208301516147746102208601826145ab565b506102408301516147896102408601826145ab565b5061026083015161479e6102608601826145ab565b506102808301516147b36102808601826145ab565b506102a08301516147c86102a08601826145ab565b506102c08301516147dd6102c08601826145ab565b506102e08301518482036102e08601526147f782826145cb565b9150508091505092915050565b6000602082019050818103600083015261481e8184614604565b905092915050565b7f4578697374696e67506c617965725f4343460000000000000000000000000000600082015250565b600061485c6012836141df565b915061486782614826565b602082019050919050565b6000602082019050818103600083015261488b8161484f565b9050919050565b7f4465706f7369745f4c696d697400000000000000000000000000000000000000600082015250565b60006148c8600d836141df565b91506148d382614892565b602082019050919050565b600060208201905081810360008301526148f7816148bb565b9050919050565b7f4e487b7100000000000000000000000000000000000000000000000000000000600052601160045260246000fd5b60006149388261435f565b91506149438361435f565b925082820190508082111561495b5761495a6148fe565b5b92915050565b600061496c8261435f565b91507fffffffffffffffffffffffffffffffffffffffffffffffffffffffffffffffff820361499e5761499d6148fe565b5b600182019050919050565b7f4e487b7100000000000000000000000000000000000000000000000000000000600052604160045260246000fd5b7f4e487b7100000000000000000000000000000000000000000000000000000000600052602260045260246000fd5b60006002820490506001821680614a1f57607f821691505b602082108103614a3257614a316149d8565b5b50919050565b60008190508160005260206000209050919050565b60006020601f8301049050919050565b600082821b905092915050565b600060088302614a9a7fffffffffffffffffffffffffffffffffffffffffffffffffffffffffffffffff82614a5d565b614aa48683614a5d565b95508019841693508086168417925050509392505050565b6000819050919050565b6000614ae1614adc614ad78461435f565b614abc565b61435f565b9050919050565b6000819050919050565b614afb83614ac6565b614b0f614b0782614ae8565b848454614a6a565b825550505050565b600090565b614b24614b17565b614b2f818484614af2565b505050565b5b81811015614b5357614b48600082614b1c565b600181019050614b35565b5050565b601f821115614b9857614b6981614a38565b614b7284614a4d565b81016020851015614b81578190505b614b95614b8d85614a4d565b830182614b34565b50505b505050565b600082821c905092915050565b6000614bbb60001984600802614b9d565b1980831691505092915050565b6000614bd48383614baa565b9150826002028217905092915050565b614bed826143c2565b67ffffffffffffffff811115614c0657614c056149a9565b5b614c108254614a07565b614c1b828285614b57565b600060209050601f831160018114614c4e5760008415614c3c578287015190505b614c468582614bc8565b865550614cae565b601f198416614c5c86614a38565b60005b82811015614c8457848901518255600182019150602085019450602081019050614c5f565b86831015614ca15784890151614c9d601f891682614baa565b8355505b6001600288020188555050505b505050505050565b7f47616d655f444e45000000000000000000000000000000000000000000000000600082015250565b6000614cec6008836141df565b9150614cf782614cb6565b602082019050919050565b60006020820190508181036000830152614d1b81614cdf565b9050919050565b7f4f6e506c617965725475726e5f4f6e6c79000000000000000000000000000000600082015250565b6000614d586011836141df565b9150614d6382614d22565b602082019050919050565b60006020820190508181036000830152614d8781614d4b565b9050919050565b6000614d998261435f565b9150614da48361435f565b9250828203905081811115614dbc57614dbb6148fe565b5b92915050565b7f4f6e43616e53706c69745475726e5f4f6e6c7900000000000000000000000000600082015250565b6000614df86013836141df565b9150614e0382614dc2565b602082019050919050565b60006020820190508181036000830152614e2781614deb565b9050919050565b7f4e487b7100000000000000000000000000000000000000000000000000000000600052601260045260246000fd5b6000614e688261435f565b9150614e738361435f565b925082614e8357614e82614e2e565b5b828204905092915050565b7f49734e6577526f756e645f4f6e6c790000000000000000000000000000000000600082015250565b6000614ec4600f836141df565b9150614ecf82614e8e565b602082019050919050565b60006020820190508181036000830152614ef381614eb7565b9050919050565b7f4265745f4c696d69740000000000000000000000000000000000000000000000600082015250565b6000614f306009836141df565b9150614f3b82614efa565b602082019050919050565b60006020820190508181036000830152614f5f81614f23565b9050919050565b7f494e535f46756e64730000000000000000000000000000000000000000000000600082015250565b6000614f9c6009836141df565b9150614fa782614f66565b602082019050919050565b60006020820190508181036000830152614fcb81614f8f565b9050919050565b7f4f6e43616e496e737572655475726e5f4f6e6c79000000000000000000000000600082015250565b60006150086014836141df565b915061501382614fd2565b602082019050919050565b6000602082019050818103600083015261503781614ffb565b9050919050565b7f202d2d3e20000000000000000000000000000000000000000000000000000000815250565b600081905092915050565b600061507a826143c2565b6150848185615064565b93506150948185602086016143cd565b80840191505092915050565b60006150ab8261503e565b6005820191506150bb828461506f565b915081905092915050565b7f202d2d2d2d2d2d3e200000000000000000000000000000000000000000000000815250565b60006150f7826150c6565b600982019150615107828461506f565b915081905092915050565b7f2077656900000000000000000000000000000000000000000000000000000000815250565b60006151438261503e565b600582019150615153828461506f565b915061515e82615112565b60048201915081905092915050565b7f4e487b7100000000000000000000000000000000000000000000000000000000600052600160045260246000fd5b7f4f6e43616e446f75626c65446f776e5475726e5f4f6e6c790000000000000000600082015250565b60006151d26018836141df565b91506151dd8261519c565b602082019050919050565b60006020820190508181036000830152615201816151c5565b9050919050565b60006152138261435f565b915061521e8361435f565b925082820261522c8161435f565b91508282048414831517615243576152426148fe565b5b5092915050565b60006152558261435f565b91506152608361435f565b9250826152705761526f614e2e565b5b828206905092915050565b6000819050919050565b6000819050919050565b6152a061529b8261527b565b615285565b82525050565b6000819050919050565b6152c16152bc8261435f565b6152a6565b82525050565b60006152d3828561528f565b6020820191506152e382846152b0565b6020820191508190509392505050565b6000815461530081614a07565b61530a8186615064565b94506001821660008114615325576001811461533a5761536d565b60ff198316865281151582028601935061536d565b61534385614a38565b60005b8381101561536557815481890152600182019150602081019050615346565b838801955050505b50505092915050565b7f20506c6179657220776f6e2073706c69742068616e642e000000000000000000815250565b60006153a882846152f3565b91506153b382615376565b60178201915081905092915050565b7f20506c61796572206c6f73742073706c69742068616e642e0000000000000000815250565b60006153f482846152f3565b91506153ff826153c2565b60188201915081905092915050565b7f205374616e644f6666206f6e2073706c69742068616e64210000000000000000815250565b600061544082846152f3565b915061544b8261540e565b6018820191508190509291505056fe53706c69742068616e6420636f6d706c6574652e20506c617965722773205475726e2e506c617965722773205475726e2e2057616e7420496e737572616e63653f20506c617965722063616e20446f75626c6520446f776e2e506c617965722773205475726e2e2057616e7420496e737572616e63653f20506c617965722063616e2053706c69742e506c617965722773205475726e2e2057616e7420496e737572616e63653f20506c617965722063616e2053706c6974206f7220446f75626c6520446f776e2e506c617965722773205475726e2e20506c617965722063616e2053706c6974206f7220446f75626c6520446f776e2e506c617965722773205475726e2e20506c617965722063616e20446f75626c6520446f776e2ea2646970667358221220524e9dbf90c29536cb2e755f1d9502e21de396b037c97617808e6be6cd579b5d64736f6c63430008140033",
  "linkReferences": {},
  "deployedLinkReferences": {}
}